{
	"contracts/Bank.sol": {
		"Bank": {
			"abi": [
				{
					"inputs": [],
					"stateMutability": "nonpayable",
					"type": "constructor"
				},
				{
					"anonymous": false,
					"inputs": [
						{
							"indexed": false,
							"internalType": "address",
							"name": "",
							"type": "address"
						},
						{
							"indexed": false,
							"internalType": "uint256",
							"name": "",
							"type": "uint256"
						}
					],
					"name": "DepositLog",
					"type": "event"
				},
				{
					"inputs": [],
					"name": "admin",
					"outputs": [
						{
							"internalType": "address",
							"name": "",
							"type": "address"
						}
					],
					"stateMutability": "view",
					"type": "function"
				},
				{
					"inputs": [],
					"name": "deleteAccount",
					"outputs": [],
					"stateMutability": "nonpayable",
					"type": "function"
				},
				{
					"inputs": [],
					"name": "deposit",
					"outputs": [],
					"stateMutability": "payable",
					"type": "function"
				},
				{
					"inputs": [],
					"name": "getAccountBalance",
					"outputs": [
						{
							"internalType": "uint256",
							"name": "",
							"type": "uint256"
						}
					],
					"stateMutability": "view",
					"type": "function"
				},
				{
					"inputs": [
						{
							"internalType": "address",
							"name": "account",
							"type": "address"
						}
					],
					"name": "getAccountBalance",
					"outputs": [
						{
							"internalType": "uint256",
							"name": "",
							"type": "uint256"
						}
					],
					"stateMutability": "view",
					"type": "function"
				},
				{
					"inputs": [],
					"name": "getBankBalance",
					"outputs": [
						{
							"internalType": "uint256",
							"name": "",
							"type": "uint256"
						}
					],
					"stateMutability": "view",
					"type": "function"
				},
				{
					"inputs": [],
					"name": "getMaxDeposit",
					"outputs": [
						{
							"internalType": "address",
							"name": "maxAddress",
							"type": "address"
						},
						{
							"internalType": "uint256",
							"name": "maxBalance",
							"type": "uint256"
						}
					],
					"stateMutability": "view",
					"type": "function"
				},
				{
					"inputs": [
						{
							"internalType": "uint256",
							"name": "amount",
							"type": "uint256"
						}
					],
					"name": "withdraw",
					"outputs": [],
					"stateMutability": "nonpayable",
					"type": "function"
				},
				{
					"inputs": [
						{
							"internalType": "address payable",
							"name": "to",
							"type": "address"
						},
						{
							"internalType": "uint256",
							"name": "amount",
							"type": "uint256"
						}
					],
					"name": "withdraw",
					"outputs": [],
					"stateMutability": "nonpayable",
					"type": "function"
				}
			],
			"devdoc": {
				"kind": "dev",
				"methods": {},
				"version": 1
			},
			"evm": {
				"assembly": "    /* \"contracts/Bank.sol\":57:2212  contract Bank{... */\n  mstore(0x40, 0x80)\n    /* \"contracts/Bank.sol\":403:453  constructor(){... */\n  callvalue\n  dup1\n  iszero\n  tag_1\n  jumpi\n  0x00\n  dup1\n  revert\ntag_1:\n  pop\n    /* \"contracts/Bank.sol\":435:445  msg.sender */\n  caller\n    /* \"contracts/Bank.sol\":427:432  admin */\n  0x03\n  0x00\n    /* \"contracts/Bank.sol\":427:445  admin = msg.sender */\n  0x0100\n  exp\n  dup2\n  sload\n  dup2\n  0xffffffffffffffffffffffffffffffffffffffff\n  mul\n  not\n  and\n  swap1\n  dup4\n  0xffffffffffffffffffffffffffffffffffffffff\n  and\n  mul\n  or\n  swap1\n  sstore\n  pop\n    /* \"contracts/Bank.sol\":57:2212  contract Bank{... */\n  dataSize(sub_0)\n  dup1\n  dataOffset(sub_0)\n  0x00\n  codecopy\n  0x00\n  return\nstop\n\nsub_0: assembly {\n        /* \"contracts/Bank.sol\":57:2212  contract Bank{... */\n      mstore(0x40, 0x80)\n      jumpi(tag_1, lt(calldatasize, 0x04))\n      shr(0xe0, calldataload(0x00))\n      dup1\n      0x93423e9c\n      gt\n      tag_11\n      jumpi\n      dup1\n      0x93423e9c\n      eq\n      tag_6\n      jumpi\n      dup1\n      0xa4dbc6a8\n      eq\n      tag_7\n      jumpi\n      dup1\n      0xd0e30db0\n      eq\n      tag_8\n      jumpi\n      dup1\n      0xf3fef3a3\n      eq\n      tag_9\n      jumpi\n      dup1\n      0xf851a440\n      eq\n      tag_10\n      jumpi\n      jump(tag_1)\n    tag_11:\n      dup1\n      0x2e1a7d4d\n      eq\n      tag_2\n      jumpi\n      dup1\n      0x3be32f7d\n      eq\n      tag_3\n      jumpi\n      dup1\n      0x6896fabf\n      eq\n      tag_4\n      jumpi\n      dup1\n      0x7b83b50b\n      eq\n      tag_5\n      jumpi\n    tag_1:\n      0x00\n      dup1\n      revert\n        /* \"contracts/Bank.sol\":829:1020  function withdraw(uint256 amount) public balanceCheck(amount){... */\n    tag_2:\n      callvalue\n      dup1\n      iszero\n      tag_12\n      jumpi\n      0x00\n      dup1\n      revert\n    tag_12:\n      pop\n      tag_13\n      0x04\n      dup1\n      calldatasize\n      sub\n      dup2\n      add\n      swap1\n      tag_14\n      swap2\n      swap1\n      tag_15\n      jump\t// in\n    tag_14:\n      tag_16\n      jump\t// in\n    tag_13:\n      stop\n        /* \"contracts/Bank.sol\":1254:1448  function deleteAccount() public onlyAdmin {... */\n    tag_3:\n      callvalue\n      dup1\n      iszero\n      tag_17\n      jumpi\n      0x00\n      dup1\n      revert\n    tag_17:\n      pop\n      tag_18\n      tag_19\n      jump\t// in\n    tag_18:\n      stop\n        /* \"contracts/Bank.sol\":1456:1558  function getAccountBalance() public view returns(uint256){... */\n    tag_4:\n      callvalue\n      dup1\n      iszero\n      tag_20\n      jumpi\n      0x00\n      dup1\n      revert\n    tag_20:\n      pop\n      tag_21\n      tag_22\n      jump\t// in\n    tag_21:\n      mload(0x40)\n      tag_23\n      swap2\n      swap1\n      tag_24\n      jump\t// in\n    tag_23:\n      mload(0x40)\n      dup1\n      swap2\n      sub\n      swap1\n      return\n        /* \"contracts/Bank.sol\":1566:1667  function getBankBalance() public view returns(uint256){... */\n    tag_5:\n      callvalue\n      dup1\n      iszero\n      tag_25\n      jumpi\n      0x00\n      dup1\n      revert\n    tag_25:\n      pop\n      tag_26\n      tag_27\n      jump\t// in\n    tag_26:\n      mload(0x40)\n      tag_28\n      swap2\n      swap1\n      tag_24\n      jump\t// in\n    tag_28:\n      mload(0x40)\n      dup1\n      swap2\n      sub\n      swap1\n      return\n        /* \"contracts/Bank.sol\":1675:1799  function getAccountBalance(address account) public onlyAdmin view returns(uint256){... */\n    tag_6:\n      callvalue\n      dup1\n      iszero\n      tag_29\n      jumpi\n      0x00\n      dup1\n      revert\n    tag_29:\n      pop\n      tag_30\n      0x04\n      dup1\n      calldatasize\n      sub\n      dup2\n      add\n      swap1\n      tag_31\n      swap2\n      swap1\n      tag_32\n      jump\t// in\n    tag_31:\n      tag_33\n      jump\t// in\n    tag_30:\n      mload(0x40)\n      tag_34\n      swap2\n      swap1\n      tag_24\n      jump\t// in\n    tag_34:\n      mload(0x40)\n      dup1\n      swap2\n      sub\n      swap1\n      return\n        /* \"contracts/Bank.sol\":1807:2203  function getMaxDeposit() public view onlyAdmin returns(address maxAddress, uint maxBalance){... */\n    tag_7:\n      callvalue\n      dup1\n      iszero\n      tag_35\n      jumpi\n      0x00\n      dup1\n      revert\n    tag_35:\n      pop\n      tag_36\n      tag_37\n      jump\t// in\n    tag_36:\n      mload(0x40)\n      tag_38\n      swap3\n      swap2\n      swap1\n      tag_39\n      jump\t// in\n    tag_38:\n      mload(0x40)\n      dup1\n      swap2\n      sub\n      swap1\n      return\n        /* \"contracts/Bank.sol\":461:713  function deposit() public payable {... */\n    tag_8:\n      tag_40\n      tag_41\n      jump\t// in\n    tag_40:\n      stop\n        /* \"contracts/Bank.sol\":1028:1246  function withdraw(address payable to, uint256 amount) public balanceCheck(amount){... */\n    tag_9:\n      callvalue\n      dup1\n      iszero\n      tag_42\n      jumpi\n      0x00\n      dup1\n      revert\n    tag_42:\n      pop\n      tag_43\n      0x04\n      dup1\n      calldatasize\n      sub\n      dup2\n      add\n      swap1\n      tag_44\n      swap2\n      swap1\n      tag_45\n      jump\t// in\n    tag_44:\n      tag_46\n      jump\t// in\n    tag_43:\n      stop\n        /* \"contracts/Bank.sol\":188:208  address public admin */\n    tag_10:\n      callvalue\n      dup1\n      iszero\n      tag_47\n      jumpi\n      0x00\n      dup1\n      revert\n    tag_47:\n      pop\n      tag_48\n      tag_49\n      jump\t// in\n    tag_48:\n      mload(0x40)\n      tag_50\n      swap2\n      swap1\n      tag_51\n      jump\t// in\n    tag_50:\n      mload(0x40)\n      dup1\n      swap2\n      sub\n      swap1\n      return\n        /* \"contracts/Bank.sol\":829:1020  function withdraw(uint256 amount) public balanceCheck(amount){... */\n    tag_16:\n        /* \"contracts/Bank.sol\":883:889  amount */\n      dup1\n        /* \"contracts/Bank.sol\":318:325  balance */\n      0x00\n        /* \"contracts/Bank.sol\":318:337  balance[msg.sender] */\n      dup1\n        /* \"contracts/Bank.sol\":326:336  msg.sender */\n      caller\n        /* \"contracts/Bank.sol\":318:337  balance[msg.sender] */\n      0xffffffffffffffffffffffffffffffffffffffff\n      and\n      0xffffffffffffffffffffffffffffffffffffffff\n      and\n      dup2\n      mstore\n      0x20\n      add\n      swap1\n      dup2\n      mstore\n      0x20\n      add\n      0x00\n      keccak256\n      sload\n        /* \"contracts/Bank.sol\":310:316  amount */\n      dup2\n        /* \"contracts/Bank.sol\":310:337  amount<=balance[msg.sender] */\n      gt\n      iszero\n        /* \"contracts/Bank.sol\":302:375  require(amount<=balance[msg.sender], \"Not sufficient amount to withdraw\") */\n      tag_53\n      jumpi\n      mload(0x40)\n      0x08c379a000000000000000000000000000000000000000000000000000000000\n      dup2\n      mstore\n      0x04\n      add\n      tag_54\n      swap1\n      tag_55\n      jump\t// in\n    tag_54:\n      mload(0x40)\n      dup1\n      swap2\n      sub\n      swap1\n      revert\n    tag_53:\n        /* \"contracts/Bank.sol\":919:926  1 ether */\n      0x0de0b6b3a7640000\n        /* \"contracts/Bank.sol\":910:916  amount */\n      dup3\n        /* \"contracts/Bank.sol\":910:926  amount * 1 ether */\n      tag_57\n      swap2\n      swap1\n      tag_58\n      jump\t// in\n    tag_57:\n        /* \"contracts/Bank.sol\":901:926  amount = amount * 1 ether */\n      swap2\n      pop\n        /* \"contracts/Bank.sol\":959:965  amount */\n      dup2\n        /* \"contracts/Bank.sol\":937:944  balance */\n      0x00\n        /* \"contracts/Bank.sol\":937:956  balance[msg.sender] */\n      dup1\n        /* \"contracts/Bank.sol\":945:955  msg.sender */\n      caller\n        /* \"contracts/Bank.sol\":937:956  balance[msg.sender] */\n      0xffffffffffffffffffffffffffffffffffffffff\n      and\n      0xffffffffffffffffffffffffffffffffffffffff\n      and\n      dup2\n      mstore\n      0x20\n      add\n      swap1\n      dup2\n      mstore\n      0x20\n      add\n      0x00\n      keccak256\n      0x00\n        /* \"contracts/Bank.sol\":937:965  balance[msg.sender]-= amount */\n      dup3\n      dup3\n      sload\n      tag_59\n      swap2\n      swap1\n      tag_60\n      jump\t// in\n    tag_59:\n      swap3\n      pop\n      pop\n      dup2\n      swap1\n      sstore\n      pop\n        /* \"contracts/Bank.sol\":984:994  msg.sender */\n      caller\n        /* \"contracts/Bank.sol\":976:1004  payable(msg.sender).transfer */\n      0xffffffffffffffffffffffffffffffffffffffff\n      and\n        /* \"contracts/Bank.sol\":976:1012  payable(msg.sender).transfer(amount) */\n      0x08fc\n        /* \"contracts/Bank.sol\":1005:1011  amount */\n      dup4\n        /* \"contracts/Bank.sol\":976:1012  payable(msg.sender).transfer(amount) */\n      swap1\n      dup2\n      iszero\n      mul\n      swap1\n      mload(0x40)\n      0x00\n      mload(0x40)\n      dup1\n      dup4\n      sub\n      dup2\n      dup6\n      dup9\n      dup9\n      call\n      swap4\n      pop\n      pop\n      pop\n      pop\n      iszero\n      dup1\n      iszero\n      tag_62\n      jumpi\n      returndatasize\n      0x00\n      dup1\n      returndatacopy\n      revert(0x00, returndatasize)\n    tag_62:\n      pop\n        /* \"contracts/Bank.sol\":829:1020  function withdraw(uint256 amount) public balanceCheck(amount){... */\n      pop\n      pop\n      jump\t// out\n        /* \"contracts/Bank.sol\":1254:1448  function deleteAccount() public onlyAdmin {... */\n    tag_19:\n        /* \"contracts/Bank.sol\":778:783  admin */\n      0x03\n      0x00\n      swap1\n      sload\n      swap1\n      0x0100\n      exp\n      swap1\n      div\n      0xffffffffffffffffffffffffffffffffffffffff\n      and\n        /* \"contracts/Bank.sol\":766:783  msg.sender==admin */\n      0xffffffffffffffffffffffffffffffffffffffff\n      and\n        /* \"contracts/Bank.sol\":766:776  msg.sender */\n      caller\n        /* \"contracts/Bank.sol\":766:783  msg.sender==admin */\n      0xffffffffffffffffffffffffffffffffffffffff\n      and\n      eq\n        /* \"contracts/Bank.sol\":758:801  require(msg.sender==admin, \"Access Denied\") */\n      tag_64\n      jumpi\n      mload(0x40)\n      0x08c379a000000000000000000000000000000000000000000000000000000000\n      dup2\n      mstore\n      0x04\n      add\n      tag_65\n      swap1\n      tag_66\n      jump\t// in\n    tag_65:\n      mload(0x40)\n      dup1\n      swap2\n      sub\n      swap1\n      revert\n    tag_64:\n        /* \"contracts/Bank.sol\":1307:1326  uint accountBalance */\n      0x00\n        /* \"contracts/Bank.sol\":1329:1336  balance */\n      dup1\n        /* \"contracts/Bank.sol\":1329:1348  balance[msg.sender] */\n      0x00\n        /* \"contracts/Bank.sol\":1337:1347  msg.sender */\n      caller\n        /* \"contracts/Bank.sol\":1329:1348  balance[msg.sender] */\n      0xffffffffffffffffffffffffffffffffffffffff\n      and\n      0xffffffffffffffffffffffffffffffffffffffff\n      and\n      dup2\n      mstore\n      0x20\n      add\n      swap1\n      dup2\n      mstore\n      0x20\n      add\n      0x00\n      keccak256\n      sload\n        /* \"contracts/Bank.sol\":1307:1348  uint accountBalance = balance[msg.sender] */\n      swap1\n      pop\n        /* \"contracts/Bank.sol\":1366:1373  balance */\n      0x00\n        /* \"contracts/Bank.sol\":1366:1385  balance[msg.sender] */\n      dup1\n        /* \"contracts/Bank.sol\":1374:1384  msg.sender */\n      caller\n        /* \"contracts/Bank.sol\":1366:1385  balance[msg.sender] */\n      0xffffffffffffffffffffffffffffffffffffffff\n      and\n      0xffffffffffffffffffffffffffffffffffffffff\n      and\n      dup2\n      mstore\n      0x20\n      add\n      swap1\n      dup2\n      mstore\n      0x20\n      add\n      0x00\n      keccak256\n        /* \"contracts/Bank.sol\":1359:1385  delete balance[msg.sender] */\n      0x00\n      swap1\n      sstore\n        /* \"contracts/Bank.sol\":1404:1414  msg.sender */\n      caller\n        /* \"contracts/Bank.sol\":1396:1424  payable(msg.sender).transfer */\n      0xffffffffffffffffffffffffffffffffffffffff\n      and\n        /* \"contracts/Bank.sol\":1396:1440  payable(msg.sender).transfer(accountBalance) */\n      0x08fc\n        /* \"contracts/Bank.sol\":1425:1439  accountBalance */\n      dup3\n        /* \"contracts/Bank.sol\":1396:1440  payable(msg.sender).transfer(accountBalance) */\n      swap1\n      dup2\n      iszero\n      mul\n      swap1\n      mload(0x40)\n      0x00\n      mload(0x40)\n      dup1\n      dup4\n      sub\n      dup2\n      dup6\n      dup9\n      dup9\n      call\n      swap4\n      pop\n      pop\n      pop\n      pop\n      iszero\n      dup1\n      iszero\n      tag_69\n      jumpi\n      returndatasize\n      0x00\n      dup1\n      returndatacopy\n      revert(0x00, returndatasize)\n    tag_69:\n      pop\n        /* \"contracts/Bank.sol\":1296:1448  {... */\n      pop\n        /* \"contracts/Bank.sol\":1254:1448  function deleteAccount() public onlyAdmin {... */\n      jump\t// out\n        /* \"contracts/Bank.sol\":1456:1558  function getAccountBalance() public view returns(uint256){... */\n    tag_22:\n        /* \"contracts/Bank.sol\":1505:1512  uint256 */\n      0x00\n        /* \"contracts/Bank.sol\":1531:1538  balance */\n      dup1\n        /* \"contracts/Bank.sol\":1531:1550  balance[msg.sender] */\n      0x00\n        /* \"contracts/Bank.sol\":1539:1549  msg.sender */\n      caller\n        /* \"contracts/Bank.sol\":1531:1550  balance[msg.sender] */\n      0xffffffffffffffffffffffffffffffffffffffff\n      and\n      0xffffffffffffffffffffffffffffffffffffffff\n      and\n      dup2\n      mstore\n      0x20\n      add\n      swap1\n      dup2\n      mstore\n      0x20\n      add\n      0x00\n      keccak256\n      sload\n        /* \"contracts/Bank.sol\":1524:1550  return balance[msg.sender] */\n      swap1\n      pop\n        /* \"contracts/Bank.sol\":1456:1558  function getAccountBalance() public view returns(uint256){... */\n      swap1\n      jump\t// out\n        /* \"contracts/Bank.sol\":1566:1667  function getBankBalance() public view returns(uint256){... */\n    tag_27:\n        /* \"contracts/Bank.sol\":1612:1619  uint256 */\n      0x00\n        /* \"contracts/Bank.sol\":1638:1659  address(this).balance */\n      selfbalance\n        /* \"contracts/Bank.sol\":1631:1659  return address(this).balance */\n      swap1\n      pop\n        /* \"contracts/Bank.sol\":1566:1667  function getBankBalance() public view returns(uint256){... */\n      swap1\n      jump\t// out\n        /* \"contracts/Bank.sol\":1675:1799  function getAccountBalance(address account) public onlyAdmin view returns(uint256){... */\n    tag_33:\n        /* \"contracts/Bank.sol\":1749:1756  uint256 */\n      0x00\n        /* \"contracts/Bank.sol\":778:783  admin */\n      0x03\n      0x00\n      swap1\n      sload\n      swap1\n      0x0100\n      exp\n      swap1\n      div\n      0xffffffffffffffffffffffffffffffffffffffff\n      and\n        /* \"contracts/Bank.sol\":766:783  msg.sender==admin */\n      0xffffffffffffffffffffffffffffffffffffffff\n      and\n        /* \"contracts/Bank.sol\":766:776  msg.sender */\n      caller\n        /* \"contracts/Bank.sol\":766:783  msg.sender==admin */\n      0xffffffffffffffffffffffffffffffffffffffff\n      and\n      eq\n        /* \"contracts/Bank.sol\":758:801  require(msg.sender==admin, \"Access Denied\") */\n      tag_73\n      jumpi\n      mload(0x40)\n      0x08c379a000000000000000000000000000000000000000000000000000000000\n      dup2\n      mstore\n      0x04\n      add\n      tag_74\n      swap1\n      tag_66\n      jump\t// in\n    tag_74:\n      mload(0x40)\n      dup1\n      swap2\n      sub\n      swap1\n      revert\n    tag_73:\n        /* \"contracts/Bank.sol\":1775:1782  balance */\n      0x00\n        /* \"contracts/Bank.sol\":1775:1791  balance[account] */\n      dup1\n        /* \"contracts/Bank.sol\":1783:1790  account */\n      dup4\n        /* \"contracts/Bank.sol\":1775:1791  balance[account] */\n      0xffffffffffffffffffffffffffffffffffffffff\n      and\n      0xffffffffffffffffffffffffffffffffffffffff\n      and\n      dup2\n      mstore\n      0x20\n      add\n      swap1\n      dup2\n      mstore\n      0x20\n      add\n      0x00\n      keccak256\n      sload\n        /* \"contracts/Bank.sol\":1768:1791  return balance[account] */\n      swap1\n      pop\n        /* \"contracts/Bank.sol\":1675:1799  function getAccountBalance(address account) public onlyAdmin view returns(uint256){... */\n      swap2\n      swap1\n      pop\n      jump\t// out\n        /* \"contracts/Bank.sol\":1807:2203  function getMaxDeposit() public view onlyAdmin returns(address maxAddress, uint maxBalance){... */\n    tag_37:\n        /* \"contracts/Bank.sol\":1862:1880  address maxAddress */\n      0x00\n        /* \"contracts/Bank.sol\":1882:1897  uint maxBalance */\n      dup1\n        /* \"contracts/Bank.sol\":778:783  admin */\n      0x03\n      0x00\n      swap1\n      sload\n      swap1\n      0x0100\n      exp\n      swap1\n      div\n      0xffffffffffffffffffffffffffffffffffffffff\n      and\n        /* \"contracts/Bank.sol\":766:783  msg.sender==admin */\n      0xffffffffffffffffffffffffffffffffffffffff\n      and\n        /* \"contracts/Bank.sol\":766:776  msg.sender */\n      caller\n        /* \"contracts/Bank.sol\":766:783  msg.sender==admin */\n      0xffffffffffffffffffffffffffffffffffffffff\n      and\n      eq\n        /* \"contracts/Bank.sol\":758:801  require(msg.sender==admin, \"Access Denied\") */\n      tag_77\n      jumpi\n      mload(0x40)\n      0x08c379a000000000000000000000000000000000000000000000000000000000\n      dup2\n      mstore\n      0x04\n      add\n      tag_78\n      swap1\n      tag_66\n      jump\t// in\n    tag_78:\n      mload(0x40)\n      dup1\n      swap2\n      sub\n      swap1\n      revert\n    tag_77:\n        /* \"contracts/Bank.sol\":1909:1929  address indexAddress */\n      0x00\n        /* \"contracts/Bank.sol\":1944:1950  uint i */\n      dup1\n        /* \"contracts/Bank.sol\":1951:1952  0 */\n      0x00\n        /* \"contracts/Bank.sol\":1944:1952  uint i=0 */\n      swap1\n      pop\n        /* \"contracts/Bank.sol\":1940:2196  for(uint i=0;i<=addressCount;i++){... */\n    tag_80:\n        /* \"contracts/Bank.sol\":1956:1968  addressCount */\n      sload(0x02)\n        /* \"contracts/Bank.sol\":1953:1954  i */\n      dup2\n        /* \"contracts/Bank.sol\":1953:1968  i<=addressCount */\n      gt\n        /* \"contracts/Bank.sol\":1940:2196  for(uint i=0;i<=addressCount;i++){... */\n      tag_81\n      jumpi\n        /* \"contracts/Bank.sol\":2003:2015  addressIndex */\n      0x01\n        /* \"contracts/Bank.sol\":2003:2018  addressIndex[i] */\n      0x00\n        /* \"contracts/Bank.sol\":2016:2017  i */\n      dup3\n        /* \"contracts/Bank.sol\":2003:2018  addressIndex[i] */\n      dup2\n      mstore\n      0x20\n      add\n      swap1\n      dup2\n      mstore\n      0x20\n      add\n      0x00\n      keccak256\n      0x00\n      swap1\n      sload\n      swap1\n      0x0100\n      exp\n      swap1\n      div\n      0xffffffffffffffffffffffffffffffffffffffff\n      and\n        /* \"contracts/Bank.sol\":1988:2018  indexAddress = addressIndex[i] */\n      swap2\n      pop\n        /* \"contracts/Bank.sol\":2060:2070  maxBalance */\n      dup3\n        /* \"contracts/Bank.sol\":2036:2043  balance */\n      0x00\n        /* \"contracts/Bank.sol\":2036:2057  balance[indexAddress] */\n      dup1\n        /* \"contracts/Bank.sol\":2044:2056  indexAddress */\n      dup5\n        /* \"contracts/Bank.sol\":2036:2057  balance[indexAddress] */\n      0xffffffffffffffffffffffffffffffffffffffff\n      and\n      0xffffffffffffffffffffffffffffffffffffffff\n      and\n      dup2\n      mstore\n      0x20\n      add\n      swap1\n      dup2\n      mstore\n      0x20\n      add\n      0x00\n      keccak256\n      sload\n        /* \"contracts/Bank.sol\":2036:2070  balance[indexAddress] > maxBalance */\n      gt\n        /* \"contracts/Bank.sol\":2033:2185  if(balance[indexAddress] > maxBalance){... */\n      iszero\n      tag_83\n      jumpi\n        /* \"contracts/Bank.sol\":2103:2110  balance */\n      0x00\n        /* \"contracts/Bank.sol\":2103:2125  balance [indexAddress] */\n      dup1\n        /* \"contracts/Bank.sol\":2112:2124  indexAddress */\n      dup4\n        /* \"contracts/Bank.sol\":2103:2125  balance [indexAddress] */\n      0xffffffffffffffffffffffffffffffffffffffff\n      and\n      0xffffffffffffffffffffffffffffffffffffffff\n      and\n      dup2\n      mstore\n      0x20\n      add\n      swap1\n      dup2\n      mstore\n      0x20\n      add\n      0x00\n      keccak256\n      sload\n        /* \"contracts/Bank.sol\":2090:2125  maxBalance = balance [indexAddress] */\n      swap3\n      pop\n        /* \"contracts/Bank.sol\":2157:2169  indexAddress */\n      dup2\n        /* \"contracts/Bank.sol\":2144:2169  maxAddress = indexAddress */\n      swap4\n      pop\n        /* \"contracts/Bank.sol\":2033:2185  if(balance[indexAddress] > maxBalance){... */\n    tag_83:\n        /* \"contracts/Bank.sol\":1969:1972  i++ */\n      dup1\n      dup1\n      tag_84\n      swap1\n      tag_85\n      jump\t// in\n    tag_84:\n      swap2\n      pop\n      pop\n        /* \"contracts/Bank.sol\":1940:2196  for(uint i=0;i<=addressCount;i++){... */\n      jump(tag_80)\n    tag_81:\n      pop\n        /* \"contracts/Bank.sol\":1898:2203  {... */\n      pop\n        /* \"contracts/Bank.sol\":1807:2203  function getMaxDeposit() public view onlyAdmin returns(address maxAddress, uint maxBalance){... */\n      swap1\n      swap2\n      jump\t// out\n        /* \"contracts/Bank.sol\":461:713  function deposit() public payable {... */\n    tag_41:\n        /* \"contracts/Bank.sol\":530:531  0 */\n      0x00\n        /* \"contracts/Bank.sol\":509:516  balance */\n      dup1\n        /* \"contracts/Bank.sol\":509:528  balance[msg.sender] */\n      0x00\n        /* \"contracts/Bank.sol\":517:527  msg.sender */\n      caller\n        /* \"contracts/Bank.sol\":509:528  balance[msg.sender] */\n      0xffffffffffffffffffffffffffffffffffffffff\n      and\n      0xffffffffffffffffffffffffffffffffffffffff\n      and\n      dup2\n      mstore\n      0x20\n      add\n      swap1\n      dup2\n      mstore\n      0x20\n      add\n      0x00\n      keccak256\n      sload\n        /* \"contracts/Bank.sol\":509:531  balance[msg.sender]==0 */\n      sub\n        /* \"contracts/Bank.sol\":506:612  if(balance[msg.sender]==0){... */\n      tag_87\n      jumpi\n        /* \"contracts/Bank.sol\":578:588  msg.sender */\n      caller\n        /* \"contracts/Bank.sol\":547:559  addressIndex */\n      0x01\n        /* \"contracts/Bank.sol\":547:575  addressIndex[addressCount++] */\n      0x00\n        /* \"contracts/Bank.sol\":560:572  addressCount */\n      0x02\n      0x00\n        /* \"contracts/Bank.sol\":560:574  addressCount++ */\n      dup2\n      sload\n      dup1\n      swap3\n      swap2\n      swap1\n      tag_88\n      swap1\n      tag_85\n      jump\t// in\n    tag_88:\n      swap2\n      swap1\n      pop\n      sstore\n        /* \"contracts/Bank.sol\":547:575  addressIndex[addressCount++] */\n      dup2\n      mstore\n      0x20\n      add\n      swap1\n      dup2\n      mstore\n      0x20\n      add\n      0x00\n      keccak256\n      0x00\n        /* \"contracts/Bank.sol\":547:588  addressIndex[addressCount++] = msg.sender */\n      0x0100\n      exp\n      dup2\n      sload\n      dup2\n      0xffffffffffffffffffffffffffffffffffffffff\n      mul\n      not\n      and\n      swap1\n      dup4\n      0xffffffffffffffffffffffffffffffffffffffff\n      and\n      mul\n      or\n      swap1\n      sstore\n      pop\n        /* \"contracts/Bank.sol\":506:612  if(balance[msg.sender]==0){... */\n    tag_87:\n        /* \"contracts/Bank.sol\":647:656  msg.value */\n      callvalue\n        /* \"contracts/Bank.sol\":625:632  balance */\n      0x00\n        /* \"contracts/Bank.sol\":625:644  balance[msg.sender] */\n      dup1\n        /* \"contracts/Bank.sol\":633:643  msg.sender */\n      caller\n        /* \"contracts/Bank.sol\":625:644  balance[msg.sender] */\n      0xffffffffffffffffffffffffffffffffffffffff\n      and\n      0xffffffffffffffffffffffffffffffffffffffff\n      and\n      dup2\n      mstore\n      0x20\n      add\n      swap1\n      dup2\n      mstore\n      0x20\n      add\n      0x00\n      keccak256\n        /* \"contracts/Bank.sol\":625:656  balance[msg.sender] = msg.value */\n      dup2\n      swap1\n      sstore\n      pop\n        /* \"contracts/Bank.sol\":673:705  DepositLog(msg.sender,msg.value) */\n      0x75d93f6678d61a0982e05953dd44688cf42a84c70b8668da6ac79cd6337f6f74\n        /* \"contracts/Bank.sol\":684:694  msg.sender */\n      caller\n        /* \"contracts/Bank.sol\":695:704  msg.value */\n      callvalue\n        /* \"contracts/Bank.sol\":673:705  DepositLog(msg.sender,msg.value) */\n      mload(0x40)\n      tag_89\n      swap3\n      swap2\n      swap1\n      tag_39\n      jump\t// in\n    tag_89:\n      mload(0x40)\n      dup1\n      swap2\n      sub\n      swap1\n      log1\n        /* \"contracts/Bank.sol\":461:713  function deposit() public payable {... */\n      jump\t// out\n        /* \"contracts/Bank.sol\":1028:1246  function withdraw(address payable to, uint256 amount) public balanceCheck(amount){... */\n    tag_46:\n        /* \"contracts/Bank.sol\":1102:1108  amount */\n      dup1\n        /* \"contracts/Bank.sol\":318:325  balance */\n      0x00\n        /* \"contracts/Bank.sol\":318:337  balance[msg.sender] */\n      dup1\n        /* \"contracts/Bank.sol\":326:336  msg.sender */\n      caller\n        /* \"contracts/Bank.sol\":318:337  balance[msg.sender] */\n      0xffffffffffffffffffffffffffffffffffffffff\n      and\n      0xffffffffffffffffffffffffffffffffffffffff\n      and\n      dup2\n      mstore\n      0x20\n      add\n      swap1\n      dup2\n      mstore\n      0x20\n      add\n      0x00\n      keccak256\n      sload\n        /* \"contracts/Bank.sol\":310:316  amount */\n      dup2\n        /* \"contracts/Bank.sol\":310:337  amount<=balance[msg.sender] */\n      gt\n      iszero\n        /* \"contracts/Bank.sol\":302:375  require(amount<=balance[msg.sender], \"Not sufficient amount to withdraw\") */\n      tag_91\n      jumpi\n      mload(0x40)\n      0x08c379a000000000000000000000000000000000000000000000000000000000\n      dup2\n      mstore\n      0x04\n      add\n      tag_92\n      swap1\n      tag_55\n      jump\t// in\n    tag_92:\n      mload(0x40)\n      dup1\n      swap2\n      sub\n      swap1\n      revert\n    tag_91:\n        /* \"contracts/Bank.sol\":1136:1143  1 ether */\n      0x0de0b6b3a7640000\n        /* \"contracts/Bank.sol\":1128:1134  amount */\n      dup3\n        /* \"contracts/Bank.sol\":1128:1143  amount *1 ether */\n      tag_94\n      swap2\n      swap1\n      tag_58\n      jump\t// in\n    tag_94:\n        /* \"contracts/Bank.sol\":1119:1143  amount = amount *1 ether */\n      swap2\n      pop\n        /* \"contracts/Bank.sol\":1174:1180  amount */\n      dup2\n        /* \"contracts/Bank.sol\":1153:1160  balance */\n      0x00\n        /* \"contracts/Bank.sol\":1153:1172  balance[msg.sender] */\n      dup1\n        /* \"contracts/Bank.sol\":1161:1171  msg.sender */\n      caller\n        /* \"contracts/Bank.sol\":1153:1172  balance[msg.sender] */\n      0xffffffffffffffffffffffffffffffffffffffff\n      and\n      0xffffffffffffffffffffffffffffffffffffffff\n      and\n      dup2\n      mstore\n      0x20\n      add\n      swap1\n      dup2\n      mstore\n      0x20\n      add\n      0x00\n      keccak256\n      0x00\n        /* \"contracts/Bank.sol\":1153:1180  balance[msg.sender]-=amount */\n      dup3\n      dup3\n      sload\n      tag_95\n      swap2\n      swap1\n      tag_60\n      jump\t// in\n    tag_95:\n      swap3\n      pop\n      pop\n      dup2\n      swap1\n      sstore\n      pop\n        /* \"contracts/Bank.sol\":1203:1209  amount */\n      dup2\n        /* \"contracts/Bank.sol\":1190:1197  balance */\n      0x00\n        /* \"contracts/Bank.sol\":1190:1201  balance[to] */\n      dup1\n        /* \"contracts/Bank.sol\":1198:1200  to */\n      dup6\n        /* \"contracts/Bank.sol\":1190:1201  balance[to] */\n      0xffffffffffffffffffffffffffffffffffffffff\n      and\n      0xffffffffffffffffffffffffffffffffffffffff\n      and\n      dup2\n      mstore\n      0x20\n      add\n      swap1\n      dup2\n      mstore\n      0x20\n      add\n      0x00\n      keccak256\n      0x00\n        /* \"contracts/Bank.sol\":1190:1209  balance[to]+=amount */\n      dup3\n      dup3\n      sload\n      tag_96\n      swap2\n      swap1\n      tag_97\n      jump\t// in\n    tag_96:\n      swap3\n      pop\n      pop\n      dup2\n      swap1\n      sstore\n      pop\n        /* \"contracts/Bank.sol\":1219:1221  to */\n      dup3\n        /* \"contracts/Bank.sol\":1219:1230  to.transfer */\n      0xffffffffffffffffffffffffffffffffffffffff\n      and\n        /* \"contracts/Bank.sol\":1219:1238  to.transfer(amount) */\n      0x08fc\n        /* \"contracts/Bank.sol\":1231:1237  amount */\n      dup4\n        /* \"contracts/Bank.sol\":1219:1238  to.transfer(amount) */\n      swap1\n      dup2\n      iszero\n      mul\n      swap1\n      mload(0x40)\n      0x00\n      mload(0x40)\n      dup1\n      dup4\n      sub\n      dup2\n      dup6\n      dup9\n      dup9\n      call\n      swap4\n      pop\n      pop\n      pop\n      pop\n      iszero\n      dup1\n      iszero\n      tag_99\n      jumpi\n      returndatasize\n      0x00\n      dup1\n      returndatacopy\n      revert(0x00, returndatasize)\n    tag_99:\n      pop\n        /* \"contracts/Bank.sol\":1028:1246  function withdraw(address payable to, uint256 amount) public balanceCheck(amount){... */\n      pop\n      pop\n      pop\n      jump\t// out\n        /* \"contracts/Bank.sol\":188:208  address public admin */\n    tag_49:\n      0x03\n      0x00\n      swap1\n      sload\n      swap1\n      0x0100\n      exp\n      swap1\n      div\n      0xffffffffffffffffffffffffffffffffffffffff\n      and\n      dup2\n      jump\t// out\n        /* \"#utility.yul\":88:205   */\n    tag_101:\n        /* \"#utility.yul\":197:198   */\n      0x00\n        /* \"#utility.yul\":194:195   */\n      dup1\n        /* \"#utility.yul\":187:199   */\n      revert\n        /* \"#utility.yul\":334:411   */\n    tag_103:\n        /* \"#utility.yul\":371:378   */\n      0x00\n        /* \"#utility.yul\":400:405   */\n      dup2\n        /* \"#utility.yul\":389:405   */\n      swap1\n      pop\n        /* \"#utility.yul\":334:411   */\n      swap2\n      swap1\n      pop\n      jump\t// out\n        /* \"#utility.yul\":417:539   */\n    tag_104:\n        /* \"#utility.yul\":490:514   */\n      tag_127\n        /* \"#utility.yul\":508:513   */\n      dup2\n        /* \"#utility.yul\":490:514   */\n      tag_103\n      jump\t// in\n    tag_127:\n        /* \"#utility.yul\":483:488   */\n      dup2\n        /* \"#utility.yul\":480:515   */\n      eq\n        /* \"#utility.yul\":470:533   */\n      tag_128\n      jumpi\n        /* \"#utility.yul\":529:530   */\n      0x00\n        /* \"#utility.yul\":526:527   */\n      dup1\n        /* \"#utility.yul\":519:531   */\n      revert\n        /* \"#utility.yul\":470:533   */\n    tag_128:\n        /* \"#utility.yul\":417:539   */\n      pop\n      jump\t// out\n        /* \"#utility.yul\":545:684   */\n    tag_105:\n        /* \"#utility.yul\":591:596   */\n      0x00\n        /* \"#utility.yul\":629:635   */\n      dup2\n        /* \"#utility.yul\":616:636   */\n      calldataload\n        /* \"#utility.yul\":607:636   */\n      swap1\n      pop\n        /* \"#utility.yul\":645:678   */\n      tag_130\n        /* \"#utility.yul\":672:677   */\n      dup2\n        /* \"#utility.yul\":645:678   */\n      tag_104\n      jump\t// in\n    tag_130:\n        /* \"#utility.yul\":545:684   */\n      swap3\n      swap2\n      pop\n      pop\n      jump\t// out\n        /* \"#utility.yul\":690:1019   */\n    tag_15:\n        /* \"#utility.yul\":749:755   */\n      0x00\n        /* \"#utility.yul\":798:800   */\n      0x20\n        /* \"#utility.yul\":786:795   */\n      dup3\n        /* \"#utility.yul\":777:784   */\n      dup5\n        /* \"#utility.yul\":773:796   */\n      sub\n        /* \"#utility.yul\":769:801   */\n      slt\n        /* \"#utility.yul\":766:885   */\n      iszero\n      tag_132\n      jumpi\n        /* \"#utility.yul\":804:883   */\n      tag_133\n      tag_101\n      jump\t// in\n    tag_133:\n        /* \"#utility.yul\":766:885   */\n    tag_132:\n        /* \"#utility.yul\":924:925   */\n      0x00\n        /* \"#utility.yul\":949:1002   */\n      tag_134\n        /* \"#utility.yul\":994:1001   */\n      dup5\n        /* \"#utility.yul\":985:991   */\n      dup3\n        /* \"#utility.yul\":974:983   */\n      dup6\n        /* \"#utility.yul\":970:992   */\n      add\n        /* \"#utility.yul\":949:1002   */\n      tag_105\n      jump\t// in\n    tag_134:\n        /* \"#utility.yul\":939:1002   */\n      swap2\n      pop\n        /* \"#utility.yul\":895:1012   */\n      pop\n        /* \"#utility.yul\":690:1019   */\n      swap3\n      swap2\n      pop\n      pop\n      jump\t// out\n        /* \"#utility.yul\":1025:1143   */\n    tag_106:\n        /* \"#utility.yul\":1112:1136   */\n      tag_136\n        /* \"#utility.yul\":1130:1135   */\n      dup2\n        /* \"#utility.yul\":1112:1136   */\n      tag_103\n      jump\t// in\n    tag_136:\n        /* \"#utility.yul\":1107:1110   */\n      dup3\n        /* \"#utility.yul\":1100:1137   */\n      mstore\n        /* \"#utility.yul\":1025:1143   */\n      pop\n      pop\n      jump\t// out\n        /* \"#utility.yul\":1149:1371   */\n    tag_24:\n        /* \"#utility.yul\":1242:1246   */\n      0x00\n        /* \"#utility.yul\":1280:1282   */\n      0x20\n        /* \"#utility.yul\":1269:1278   */\n      dup3\n        /* \"#utility.yul\":1265:1283   */\n      add\n        /* \"#utility.yul\":1257:1283   */\n      swap1\n      pop\n        /* \"#utility.yul\":1293:1364   */\n      tag_138\n        /* \"#utility.yul\":1361:1362   */\n      0x00\n        /* \"#utility.yul\":1350:1359   */\n      dup4\n        /* \"#utility.yul\":1346:1363   */\n      add\n        /* \"#utility.yul\":1337:1343   */\n      dup5\n        /* \"#utility.yul\":1293:1364   */\n      tag_106\n      jump\t// in\n    tag_138:\n        /* \"#utility.yul\":1149:1371   */\n      swap3\n      swap2\n      pop\n      pop\n      jump\t// out\n        /* \"#utility.yul\":1377:1503   */\n    tag_107:\n        /* \"#utility.yul\":1414:1421   */\n      0x00\n        /* \"#utility.yul\":1454:1496   */\n      0xffffffffffffffffffffffffffffffffffffffff\n        /* \"#utility.yul\":1447:1452   */\n      dup3\n        /* \"#utility.yul\":1443:1497   */\n      and\n        /* \"#utility.yul\":1432:1497   */\n      swap1\n      pop\n        /* \"#utility.yul\":1377:1503   */\n      swap2\n      swap1\n      pop\n      jump\t// out\n        /* \"#utility.yul\":1509:1605   */\n    tag_108:\n        /* \"#utility.yul\":1546:1553   */\n      0x00\n        /* \"#utility.yul\":1575:1599   */\n      tag_141\n        /* \"#utility.yul\":1593:1598   */\n      dup3\n        /* \"#utility.yul\":1575:1599   */\n      tag_107\n      jump\t// in\n    tag_141:\n        /* \"#utility.yul\":1564:1599   */\n      swap1\n      pop\n        /* \"#utility.yul\":1509:1605   */\n      swap2\n      swap1\n      pop\n      jump\t// out\n        /* \"#utility.yul\":1611:1733   */\n    tag_109:\n        /* \"#utility.yul\":1684:1708   */\n      tag_143\n        /* \"#utility.yul\":1702:1707   */\n      dup2\n        /* \"#utility.yul\":1684:1708   */\n      tag_108\n      jump\t// in\n    tag_143:\n        /* \"#utility.yul\":1677:1682   */\n      dup2\n        /* \"#utility.yul\":1674:1709   */\n      eq\n        /* \"#utility.yul\":1664:1727   */\n      tag_144\n      jumpi\n        /* \"#utility.yul\":1723:1724   */\n      0x00\n        /* \"#utility.yul\":1720:1721   */\n      dup1\n        /* \"#utility.yul\":1713:1725   */\n      revert\n        /* \"#utility.yul\":1664:1727   */\n    tag_144:\n        /* \"#utility.yul\":1611:1733   */\n      pop\n      jump\t// out\n        /* \"#utility.yul\":1739:1878   */\n    tag_110:\n        /* \"#utility.yul\":1785:1790   */\n      0x00\n        /* \"#utility.yul\":1823:1829   */\n      dup2\n        /* \"#utility.yul\":1810:1830   */\n      calldataload\n        /* \"#utility.yul\":1801:1830   */\n      swap1\n      pop\n        /* \"#utility.yul\":1839:1872   */\n      tag_146\n        /* \"#utility.yul\":1866:1871   */\n      dup2\n        /* \"#utility.yul\":1839:1872   */\n      tag_109\n      jump\t// in\n    tag_146:\n        /* \"#utility.yul\":1739:1878   */\n      swap3\n      swap2\n      pop\n      pop\n      jump\t// out\n        /* \"#utility.yul\":1884:2213   */\n    tag_32:\n        /* \"#utility.yul\":1943:1949   */\n      0x00\n        /* \"#utility.yul\":1992:1994   */\n      0x20\n        /* \"#utility.yul\":1980:1989   */\n      dup3\n        /* \"#utility.yul\":1971:1978   */\n      dup5\n        /* \"#utility.yul\":1967:1990   */\n      sub\n        /* \"#utility.yul\":1963:1995   */\n      slt\n        /* \"#utility.yul\":1960:2079   */\n      iszero\n      tag_148\n      jumpi\n        /* \"#utility.yul\":1998:2077   */\n      tag_149\n      tag_101\n      jump\t// in\n    tag_149:\n        /* \"#utility.yul\":1960:2079   */\n    tag_148:\n        /* \"#utility.yul\":2118:2119   */\n      0x00\n        /* \"#utility.yul\":2143:2196   */\n      tag_150\n        /* \"#utility.yul\":2188:2195   */\n      dup5\n        /* \"#utility.yul\":2179:2185   */\n      dup3\n        /* \"#utility.yul\":2168:2177   */\n      dup6\n        /* \"#utility.yul\":2164:2186   */\n      add\n        /* \"#utility.yul\":2143:2196   */\n      tag_110\n      jump\t// in\n    tag_150:\n        /* \"#utility.yul\":2133:2196   */\n      swap2\n      pop\n        /* \"#utility.yul\":2089:2206   */\n      pop\n        /* \"#utility.yul\":1884:2213   */\n      swap3\n      swap2\n      pop\n      pop\n      jump\t// out\n        /* \"#utility.yul\":2219:2337   */\n    tag_111:\n        /* \"#utility.yul\":2306:2330   */\n      tag_152\n        /* \"#utility.yul\":2324:2329   */\n      dup2\n        /* \"#utility.yul\":2306:2330   */\n      tag_108\n      jump\t// in\n    tag_152:\n        /* \"#utility.yul\":2301:2304   */\n      dup3\n        /* \"#utility.yul\":2294:2331   */\n      mstore\n        /* \"#utility.yul\":2219:2337   */\n      pop\n      pop\n      jump\t// out\n        /* \"#utility.yul\":2343:2675   */\n    tag_39:\n        /* \"#utility.yul\":2464:2468   */\n      0x00\n        /* \"#utility.yul\":2502:2504   */\n      0x40\n        /* \"#utility.yul\":2491:2500   */\n      dup3\n        /* \"#utility.yul\":2487:2505   */\n      add\n        /* \"#utility.yul\":2479:2505   */\n      swap1\n      pop\n        /* \"#utility.yul\":2515:2586   */\n      tag_154\n        /* \"#utility.yul\":2583:2584   */\n      0x00\n        /* \"#utility.yul\":2572:2581   */\n      dup4\n        /* \"#utility.yul\":2568:2585   */\n      add\n        /* \"#utility.yul\":2559:2565   */\n      dup6\n        /* \"#utility.yul\":2515:2586   */\n      tag_111\n      jump\t// in\n    tag_154:\n        /* \"#utility.yul\":2596:2668   */\n      tag_155\n        /* \"#utility.yul\":2664:2666   */\n      0x20\n        /* \"#utility.yul\":2653:2662   */\n      dup4\n        /* \"#utility.yul\":2649:2667   */\n      add\n        /* \"#utility.yul\":2640:2646   */\n      dup5\n        /* \"#utility.yul\":2596:2668   */\n      tag_106\n      jump\t// in\n    tag_155:\n        /* \"#utility.yul\":2343:2675   */\n      swap4\n      swap3\n      pop\n      pop\n      pop\n      jump\t// out\n        /* \"#utility.yul\":2681:2785   */\n    tag_112:\n        /* \"#utility.yul\":2726:2733   */\n      0x00\n        /* \"#utility.yul\":2755:2779   */\n      tag_157\n        /* \"#utility.yul\":2773:2778   */\n      dup3\n        /* \"#utility.yul\":2755:2779   */\n      tag_107\n      jump\t// in\n    tag_157:\n        /* \"#utility.yul\":2744:2779   */\n      swap1\n      pop\n        /* \"#utility.yul\":2681:2785   */\n      swap2\n      swap1\n      pop\n      jump\t// out\n        /* \"#utility.yul\":2791:2929   */\n    tag_113:\n        /* \"#utility.yul\":2872:2904   */\n      tag_159\n        /* \"#utility.yul\":2898:2903   */\n      dup2\n        /* \"#utility.yul\":2872:2904   */\n      tag_112\n      jump\t// in\n    tag_159:\n        /* \"#utility.yul\":2865:2870   */\n      dup2\n        /* \"#utility.yul\":2862:2905   */\n      eq\n        /* \"#utility.yul\":2852:2923   */\n      tag_160\n      jumpi\n        /* \"#utility.yul\":2919:2920   */\n      0x00\n        /* \"#utility.yul\":2916:2917   */\n      dup1\n        /* \"#utility.yul\":2909:2921   */\n      revert\n        /* \"#utility.yul\":2852:2923   */\n    tag_160:\n        /* \"#utility.yul\":2791:2929   */\n      pop\n      jump\t// out\n        /* \"#utility.yul\":2935:3090   */\n    tag_114:\n        /* \"#utility.yul\":2989:2994   */\n      0x00\n        /* \"#utility.yul\":3027:3033   */\n      dup2\n        /* \"#utility.yul\":3014:3034   */\n      calldataload\n        /* \"#utility.yul\":3005:3034   */\n      swap1\n      pop\n        /* \"#utility.yul\":3043:3084   */\n      tag_162\n        /* \"#utility.yul\":3078:3083   */\n      dup2\n        /* \"#utility.yul\":3043:3084   */\n      tag_113\n      jump\t// in\n    tag_162:\n        /* \"#utility.yul\":2935:3090   */\n      swap3\n      swap2\n      pop\n      pop\n      jump\t// out\n        /* \"#utility.yul\":3096:3586   */\n    tag_45:\n        /* \"#utility.yul\":3172:3178   */\n      0x00\n        /* \"#utility.yul\":3180:3186   */\n      dup1\n        /* \"#utility.yul\":3229:3231   */\n      0x40\n        /* \"#utility.yul\":3217:3226   */\n      dup4\n        /* \"#utility.yul\":3208:3215   */\n      dup6\n        /* \"#utility.yul\":3204:3227   */\n      sub\n        /* \"#utility.yul\":3200:3232   */\n      slt\n        /* \"#utility.yul\":3197:3316   */\n      iszero\n      tag_164\n      jumpi\n        /* \"#utility.yul\":3235:3314   */\n      tag_165\n      tag_101\n      jump\t// in\n    tag_165:\n        /* \"#utility.yul\":3197:3316   */\n    tag_164:\n        /* \"#utility.yul\":3355:3356   */\n      0x00\n        /* \"#utility.yul\":3380:3441   */\n      tag_166\n        /* \"#utility.yul\":3433:3440   */\n      dup6\n        /* \"#utility.yul\":3424:3430   */\n      dup3\n        /* \"#utility.yul\":3413:3422   */\n      dup7\n        /* \"#utility.yul\":3409:3431   */\n      add\n        /* \"#utility.yul\":3380:3441   */\n      tag_114\n      jump\t// in\n    tag_166:\n        /* \"#utility.yul\":3370:3441   */\n      swap3\n      pop\n        /* \"#utility.yul\":3326:3451   */\n      pop\n        /* \"#utility.yul\":3490:3492   */\n      0x20\n        /* \"#utility.yul\":3516:3569   */\n      tag_167\n        /* \"#utility.yul\":3561:3568   */\n      dup6\n        /* \"#utility.yul\":3552:3558   */\n      dup3\n        /* \"#utility.yul\":3541:3550   */\n      dup7\n        /* \"#utility.yul\":3537:3559   */\n      add\n        /* \"#utility.yul\":3516:3569   */\n      tag_105\n      jump\t// in\n    tag_167:\n        /* \"#utility.yul\":3506:3569   */\n      swap2\n      pop\n        /* \"#utility.yul\":3461:3579   */\n      pop\n        /* \"#utility.yul\":3096:3586   */\n      swap3\n      pop\n      swap3\n      swap1\n      pop\n      jump\t// out\n        /* \"#utility.yul\":3592:3814   */\n    tag_51:\n        /* \"#utility.yul\":3685:3689   */\n      0x00\n        /* \"#utility.yul\":3723:3725   */\n      0x20\n        /* \"#utility.yul\":3712:3721   */\n      dup3\n        /* \"#utility.yul\":3708:3726   */\n      add\n        /* \"#utility.yul\":3700:3726   */\n      swap1\n      pop\n        /* \"#utility.yul\":3736:3807   */\n      tag_169\n        /* \"#utility.yul\":3804:3805   */\n      0x00\n        /* \"#utility.yul\":3793:3802   */\n      dup4\n        /* \"#utility.yul\":3789:3806   */\n      add\n        /* \"#utility.yul\":3780:3786   */\n      dup5\n        /* \"#utility.yul\":3736:3807   */\n      tag_111\n      jump\t// in\n    tag_169:\n        /* \"#utility.yul\":3592:3814   */\n      swap3\n      swap2\n      pop\n      pop\n      jump\t// out\n        /* \"#utility.yul\":3820:3989   */\n    tag_115:\n        /* \"#utility.yul\":3904:3915   */\n      0x00\n        /* \"#utility.yul\":3938:3944   */\n      dup3\n        /* \"#utility.yul\":3933:3936   */\n      dup3\n        /* \"#utility.yul\":3926:3945   */\n      mstore\n        /* \"#utility.yul\":3978:3982   */\n      0x20\n        /* \"#utility.yul\":3973:3976   */\n      dup3\n        /* \"#utility.yul\":3969:3983   */\n      add\n        /* \"#utility.yul\":3954:3983   */\n      swap1\n      pop\n        /* \"#utility.yul\":3820:3989   */\n      swap3\n      swap2\n      pop\n      pop\n      jump\t// out\n        /* \"#utility.yul\":3995:4215   */\n    tag_116:\n        /* \"#utility.yul\":4135:4169   */\n      0x4e6f742073756666696369656e7420616d6f756e7420746f2077697468647261\n        /* \"#utility.yul\":4131:4132   */\n      0x00\n        /* \"#utility.yul\":4123:4129   */\n      dup3\n        /* \"#utility.yul\":4119:4133   */\n      add\n        /* \"#utility.yul\":4112:4170   */\n      mstore\n        /* \"#utility.yul\":4204:4207   */\n      0x7700000000000000000000000000000000000000000000000000000000000000\n        /* \"#utility.yul\":4199:4201   */\n      0x20\n        /* \"#utility.yul\":4191:4197   */\n      dup3\n        /* \"#utility.yul\":4187:4202   */\n      add\n        /* \"#utility.yul\":4180:4208   */\n      mstore\n        /* \"#utility.yul\":3995:4215   */\n      pop\n      jump\t// out\n        /* \"#utility.yul\":4221:4587   */\n    tag_117:\n        /* \"#utility.yul\":4363:4366   */\n      0x00\n        /* \"#utility.yul\":4384:4451   */\n      tag_173\n        /* \"#utility.yul\":4448:4450   */\n      0x21\n        /* \"#utility.yul\":4443:4446   */\n      dup4\n        /* \"#utility.yul\":4384:4451   */\n      tag_115\n      jump\t// in\n    tag_173:\n        /* \"#utility.yul\":4377:4451   */\n      swap2\n      pop\n        /* \"#utility.yul\":4460:4553   */\n      tag_174\n        /* \"#utility.yul\":4549:4552   */\n      dup3\n        /* \"#utility.yul\":4460:4553   */\n      tag_116\n      jump\t// in\n    tag_174:\n        /* \"#utility.yul\":4578:4580   */\n      0x40\n        /* \"#utility.yul\":4573:4576   */\n      dup3\n        /* \"#utility.yul\":4569:4581   */\n      add\n        /* \"#utility.yul\":4562:4581   */\n      swap1\n      pop\n        /* \"#utility.yul\":4221:4587   */\n      swap2\n      swap1\n      pop\n      jump\t// out\n        /* \"#utility.yul\":4593:5012   */\n    tag_55:\n        /* \"#utility.yul\":4759:4763   */\n      0x00\n        /* \"#utility.yul\":4797:4799   */\n      0x20\n        /* \"#utility.yul\":4786:4795   */\n      dup3\n        /* \"#utility.yul\":4782:4800   */\n      add\n        /* \"#utility.yul\":4774:4800   */\n      swap1\n      pop\n        /* \"#utility.yul\":4846:4855   */\n      dup2\n        /* \"#utility.yul\":4840:4844   */\n      dup2\n        /* \"#utility.yul\":4836:4856   */\n      sub\n        /* \"#utility.yul\":4832:4833   */\n      0x00\n        /* \"#utility.yul\":4821:4830   */\n      dup4\n        /* \"#utility.yul\":4817:4834   */\n      add\n        /* \"#utility.yul\":4810:4857   */\n      mstore\n        /* \"#utility.yul\":4874:5005   */\n      tag_176\n        /* \"#utility.yul\":5000:5004   */\n      dup2\n        /* \"#utility.yul\":4874:5005   */\n      tag_117\n      jump\t// in\n    tag_176:\n        /* \"#utility.yul\":4866:5005   */\n      swap1\n      pop\n        /* \"#utility.yul\":4593:5012   */\n      swap2\n      swap1\n      pop\n      jump\t// out\n        /* \"#utility.yul\":5018:5198   */\n    tag_118:\n        /* \"#utility.yul\":5066:5143   */\n      0x4e487b7100000000000000000000000000000000000000000000000000000000\n        /* \"#utility.yul\":5063:5064   */\n      0x00\n        /* \"#utility.yul\":5056:5144   */\n      mstore\n        /* \"#utility.yul\":5163:5167   */\n      0x11\n        /* \"#utility.yul\":5160:5161   */\n      0x04\n        /* \"#utility.yul\":5153:5168   */\n      mstore\n        /* \"#utility.yul\":5187:5191   */\n      0x24\n        /* \"#utility.yul\":5184:5185   */\n      0x00\n        /* \"#utility.yul\":5177:5192   */\n      revert\n        /* \"#utility.yul\":5204:5614   */\n    tag_58:\n        /* \"#utility.yul\":5244:5251   */\n      0x00\n        /* \"#utility.yul\":5267:5287   */\n      tag_179\n        /* \"#utility.yul\":5285:5286   */\n      dup3\n        /* \"#utility.yul\":5267:5287   */\n      tag_103\n      jump\t// in\n    tag_179:\n        /* \"#utility.yul\":5262:5287   */\n      swap2\n      pop\n        /* \"#utility.yul\":5301:5321   */\n      tag_180\n        /* \"#utility.yul\":5319:5320   */\n      dup4\n        /* \"#utility.yul\":5301:5321   */\n      tag_103\n      jump\t// in\n    tag_180:\n        /* \"#utility.yul\":5296:5321   */\n      swap3\n      pop\n        /* \"#utility.yul\":5356:5357   */\n      dup3\n        /* \"#utility.yul\":5353:5354   */\n      dup3\n        /* \"#utility.yul\":5349:5358   */\n      mul\n        /* \"#utility.yul\":5378:5408   */\n      tag_181\n        /* \"#utility.yul\":5396:5407   */\n      dup2\n        /* \"#utility.yul\":5378:5408   */\n      tag_103\n      jump\t// in\n    tag_181:\n        /* \"#utility.yul\":5367:5408   */\n      swap2\n      pop\n        /* \"#utility.yul\":5557:5558   */\n      dup3\n        /* \"#utility.yul\":5548:5555   */\n      dup3\n        /* \"#utility.yul\":5544:5559   */\n      div\n        /* \"#utility.yul\":5541:5542   */\n      dup5\n        /* \"#utility.yul\":5538:5560   */\n      eq\n        /* \"#utility.yul\":5518:5519   */\n      dup4\n        /* \"#utility.yul\":5511:5520   */\n      iszero\n        /* \"#utility.yul\":5491:5574   */\n      or\n        /* \"#utility.yul\":5468:5607   */\n      tag_182\n      jumpi\n        /* \"#utility.yul\":5587:5605   */\n      tag_183\n      tag_118\n      jump\t// in\n    tag_183:\n        /* \"#utility.yul\":5468:5607   */\n    tag_182:\n        /* \"#utility.yul\":5252:5614   */\n      pop\n        /* \"#utility.yul\":5204:5614   */\n      swap3\n      swap2\n      pop\n      pop\n      jump\t// out\n        /* \"#utility.yul\":5620:5814   */\n    tag_60:\n        /* \"#utility.yul\":5660:5664   */\n      0x00\n        /* \"#utility.yul\":5680:5700   */\n      tag_185\n        /* \"#utility.yul\":5698:5699   */\n      dup3\n        /* \"#utility.yul\":5680:5700   */\n      tag_103\n      jump\t// in\n    tag_185:\n        /* \"#utility.yul\":5675:5700   */\n      swap2\n      pop\n        /* \"#utility.yul\":5714:5734   */\n      tag_186\n        /* \"#utility.yul\":5732:5733   */\n      dup4\n        /* \"#utility.yul\":5714:5734   */\n      tag_103\n      jump\t// in\n    tag_186:\n        /* \"#utility.yul\":5709:5734   */\n      swap3\n      pop\n        /* \"#utility.yul\":5758:5759   */\n      dup3\n        /* \"#utility.yul\":5755:5756   */\n      dup3\n        /* \"#utility.yul\":5751:5760   */\n      sub\n        /* \"#utility.yul\":5743:5760   */\n      swap1\n      pop\n        /* \"#utility.yul\":5782:5783   */\n      dup2\n        /* \"#utility.yul\":5776:5780   */\n      dup2\n        /* \"#utility.yul\":5773:5784   */\n      gt\n        /* \"#utility.yul\":5770:5807   */\n      iszero\n      tag_187\n      jumpi\n        /* \"#utility.yul\":5787:5805   */\n      tag_188\n      tag_118\n      jump\t// in\n    tag_188:\n        /* \"#utility.yul\":5770:5807   */\n    tag_187:\n        /* \"#utility.yul\":5620:5814   */\n      swap3\n      swap2\n      pop\n      pop\n      jump\t// out\n        /* \"#utility.yul\":5820:5983   */\n    tag_119:\n        /* \"#utility.yul\":5960:5975   */\n      0x4163636573732044656e69656400000000000000000000000000000000000000\n        /* \"#utility.yul\":5956:5957   */\n      0x00\n        /* \"#utility.yul\":5948:5954   */\n      dup3\n        /* \"#utility.yul\":5944:5958   */\n      add\n        /* \"#utility.yul\":5937:5976   */\n      mstore\n        /* \"#utility.yul\":5820:5983   */\n      pop\n      jump\t// out\n        /* \"#utility.yul\":5989:6355   */\n    tag_120:\n        /* \"#utility.yul\":6131:6134   */\n      0x00\n        /* \"#utility.yul\":6152:6219   */\n      tag_191\n        /* \"#utility.yul\":6216:6218   */\n      0x0d\n        /* \"#utility.yul\":6211:6214   */\n      dup4\n        /* \"#utility.yul\":6152:6219   */\n      tag_115\n      jump\t// in\n    tag_191:\n        /* \"#utility.yul\":6145:6219   */\n      swap2\n      pop\n        /* \"#utility.yul\":6228:6321   */\n      tag_192\n        /* \"#utility.yul\":6317:6320   */\n      dup3\n        /* \"#utility.yul\":6228:6321   */\n      tag_119\n      jump\t// in\n    tag_192:\n        /* \"#utility.yul\":6346:6348   */\n      0x20\n        /* \"#utility.yul\":6341:6344   */\n      dup3\n        /* \"#utility.yul\":6337:6349   */\n      add\n        /* \"#utility.yul\":6330:6349   */\n      swap1\n      pop\n        /* \"#utility.yul\":5989:6355   */\n      swap2\n      swap1\n      pop\n      jump\t// out\n        /* \"#utility.yul\":6361:6780   */\n    tag_66:\n        /* \"#utility.yul\":6527:6531   */\n      0x00\n        /* \"#utility.yul\":6565:6567   */\n      0x20\n        /* \"#utility.yul\":6554:6563   */\n      dup3\n        /* \"#utility.yul\":6550:6568   */\n      add\n        /* \"#utility.yul\":6542:6568   */\n      swap1\n      pop\n        /* \"#utility.yul\":6614:6623   */\n      dup2\n        /* \"#utility.yul\":6608:6612   */\n      dup2\n        /* \"#utility.yul\":6604:6624   */\n      sub\n        /* \"#utility.yul\":6600:6601   */\n      0x00\n        /* \"#utility.yul\":6589:6598   */\n      dup4\n        /* \"#utility.yul\":6585:6602   */\n      add\n        /* \"#utility.yul\":6578:6625   */\n      mstore\n        /* \"#utility.yul\":6642:6773   */\n      tag_194\n        /* \"#utility.yul\":6768:6772   */\n      dup2\n        /* \"#utility.yul\":6642:6773   */\n      tag_120\n      jump\t// in\n    tag_194:\n        /* \"#utility.yul\":6634:6773   */\n      swap1\n      pop\n        /* \"#utility.yul\":6361:6780   */\n      swap2\n      swap1\n      pop\n      jump\t// out\n        /* \"#utility.yul\":6786:7019   */\n    tag_85:\n        /* \"#utility.yul\":6825:6828   */\n      0x00\n        /* \"#utility.yul\":6848:6872   */\n      tag_196\n        /* \"#utility.yul\":6866:6871   */\n      dup3\n        /* \"#utility.yul\":6848:6872   */\n      tag_103\n      jump\t// in\n    tag_196:\n        /* \"#utility.yul\":6839:6872   */\n      swap2\n      pop\n        /* \"#utility.yul\":6894:6960   */\n      0xffffffffffffffffffffffffffffffffffffffffffffffffffffffffffffffff\n        /* \"#utility.yul\":6887:6892   */\n      dup3\n        /* \"#utility.yul\":6884:6961   */\n      sub\n        /* \"#utility.yul\":6881:6984   */\n      tag_197\n      jumpi\n        /* \"#utility.yul\":6964:6982   */\n      tag_198\n      tag_118\n      jump\t// in\n    tag_198:\n        /* \"#utility.yul\":6881:6984   */\n    tag_197:\n        /* \"#utility.yul\":7011:7012   */\n      0x01\n        /* \"#utility.yul\":7004:7009   */\n      dup3\n        /* \"#utility.yul\":7000:7013   */\n      add\n        /* \"#utility.yul\":6993:7013   */\n      swap1\n      pop\n        /* \"#utility.yul\":6786:7019   */\n      swap2\n      swap1\n      pop\n      jump\t// out\n        /* \"#utility.yul\":7025:7216   */\n    tag_97:\n        /* \"#utility.yul\":7065:7068   */\n      0x00\n        /* \"#utility.yul\":7084:7104   */\n      tag_200\n        /* \"#utility.yul\":7102:7103   */\n      dup3\n        /* \"#utility.yul\":7084:7104   */\n      tag_103\n      jump\t// in\n    tag_200:\n        /* \"#utility.yul\":7079:7104   */\n      swap2\n      pop\n        /* \"#utility.yul\":7118:7138   */\n      tag_201\n        /* \"#utility.yul\":7136:7137   */\n      dup4\n        /* \"#utility.yul\":7118:7138   */\n      tag_103\n      jump\t// in\n    tag_201:\n        /* \"#utility.yul\":7113:7138   */\n      swap3\n      pop\n        /* \"#utility.yul\":7161:7162   */\n      dup3\n        /* \"#utility.yul\":7158:7159   */\n      dup3\n        /* \"#utility.yul\":7154:7163   */\n      add\n        /* \"#utility.yul\":7147:7163   */\n      swap1\n      pop\n        /* \"#utility.yul\":7182:7185   */\n      dup1\n        /* \"#utility.yul\":7179:7180   */\n      dup3\n        /* \"#utility.yul\":7176:7186   */\n      gt\n        /* \"#utility.yul\":7173:7209   */\n      iszero\n      tag_202\n      jumpi\n        /* \"#utility.yul\":7189:7207   */\n      tag_203\n      tag_118\n      jump\t// in\n    tag_203:\n        /* \"#utility.yul\":7173:7209   */\n    tag_202:\n        /* \"#utility.yul\":7025:7216   */\n      swap3\n      swap2\n      pop\n      pop\n      jump\t// out\n\n    auxdata: 0xa2646970667358221220cdfb2c2c469183de7272ba0ac1abeace27c0c2d8b0e97463e60628648aeee70b64736f6c63430008150033\n}\n",
				"bytecode": {
					"linkReferences": {},
					"object": "608060405234801561000f575f80fd5b503360035f6101000a81548173ffffffffffffffffffffffffffffffffffffffff021916908373ffffffffffffffffffffffffffffffffffffffff160217905550610dee8061005d5f395ff3fe608060405260043610610085575f3560e01c806393423e9c1161005857806393423e9c1461011b578063a4dbc6a814610157578063d0e30db014610182578063f3fef3a31461018c578063f851a440146101b457610085565b80632e1a7d4d146100895780633be32f7d146100b15780636896fabf146100c75780637b83b50b146100f1575b5f80fd5b348015610094575f80fd5b506100af60048036038101906100aa91906109f7565b6101de565b005b3480156100bc575f80fd5b506100c561030e565b005b3480156100d2575f80fd5b506100db610463565b6040516100e89190610a31565b60405180910390f35b3480156100fc575f80fd5b506101056104a6565b6040516101129190610a31565b60405180910390f35b348015610126575f80fd5b50610141600480360381019061013c9190610aa4565b6104ad565b60405161014e9190610a31565b60405180910390f35b348015610162575f80fd5b5061016b610581565b604051610179929190610ade565b60405180910390f35b61018a6106f4565b005b348015610197575f80fd5b506101b260048036038101906101ad9190610b40565b610818565b005b3480156101bf575f80fd5b506101c861099b565b6040516101d59190610b7e565b60405180910390f35b805f803373ffffffffffffffffffffffffffffffffffffffff1673ffffffffffffffffffffffffffffffffffffffff1681526020019081526020015f205481111561025e576040517f08c379a000000000000000000000000000000000000000000000000000000000815260040161025590610c17565b60405180910390fd5b670de0b6b3a7640000826102729190610c62565b9150815f803373ffffffffffffffffffffffffffffffffffffffff1673ffffffffffffffffffffffffffffffffffffffff1681526020019081526020015f205f8282546102bf9190610ca3565b925050819055503373ffffffffffffffffffffffffffffffffffffffff166108fc8390811502906040515f60405180830381858888f19350505050158015610309573d5f803e3d5ffd5b505050565b60035f9054906101000a900473ffffffffffffffffffffffffffffffffffffffff1673ffffffffffffffffffffffffffffffffffffffff163373ffffffffffffffffffffffffffffffffffffffff161461039d576040517f08c379a000000000000000000000000000000000000000000000000000000000815260040161039490610d20565b60405180910390fd5b5f805f3373ffffffffffffffffffffffffffffffffffffffff1673ffffffffffffffffffffffffffffffffffffffff1681526020019081526020015f205490505f803373ffffffffffffffffffffffffffffffffffffffff1673ffffffffffffffffffffffffffffffffffffffff1681526020019081526020015f205f90553373ffffffffffffffffffffffffffffffffffffffff166108fc8290811502906040515f60405180830381858888f1935050505015801561045f573d5f803e3d5ffd5b5050565b5f805f3373ffffffffffffffffffffffffffffffffffffffff1673ffffffffffffffffffffffffffffffffffffffff1681526020019081526020015f2054905090565b5f47905090565b5f60035f9054906101000a900473ffffffffffffffffffffffffffffffffffffffff1673ffffffffffffffffffffffffffffffffffffffff163373ffffffffffffffffffffffffffffffffffffffff161461053d576040517f08c379a000000000000000000000000000000000000000000000000000000000815260040161053490610d20565b60405180910390fd5b5f808373ffffffffffffffffffffffffffffffffffffffff1673ffffffffffffffffffffffffffffffffffffffff1681526020019081526020015f20549050919050565b5f8060035f9054906101000a900473ffffffffffffffffffffffffffffffffffffffff1673ffffffffffffffffffffffffffffffffffffffff163373ffffffffffffffffffffffffffffffffffffffff1614610612576040517f08c379a000000000000000000000000000000000000000000000000000000000815260040161060990610d20565b60405180910390fd5b5f805f90505b60025481116106ee5760015f8281526020019081526020015f205f9054906101000a900473ffffffffffffffffffffffffffffffffffffffff169150825f808473ffffffffffffffffffffffffffffffffffffffff1673ffffffffffffffffffffffffffffffffffffffff1681526020019081526020015f205411156106db575f808373ffffffffffffffffffffffffffffffffffffffff1673ffffffffffffffffffffffffffffffffffffffff1681526020019081526020015f205492508193505b80806106e690610d3e565b915050610618565b50509091565b5f805f3373ffffffffffffffffffffffffffffffffffffffff1673ffffffffffffffffffffffffffffffffffffffff1681526020019081526020015f20540361079c573360015f60025f81548092919061074d90610d3e565b9190505581526020019081526020015f205f6101000a81548173ffffffffffffffffffffffffffffffffffffffff021916908373ffffffffffffffffffffffffffffffffffffffff1602179055505b345f803373ffffffffffffffffffffffffffffffffffffffff1673ffffffffffffffffffffffffffffffffffffffff1681526020019081526020015f20819055507f75d93f6678d61a0982e05953dd44688cf42a84c70b8668da6ac79cd6337f6f74333460405161080e929190610ade565b60405180910390a1565b805f803373ffffffffffffffffffffffffffffffffffffffff1673ffffffffffffffffffffffffffffffffffffffff1681526020019081526020015f2054811115610898576040517f08c379a000000000000000000000000000000000000000000000000000000000815260040161088f90610c17565b60405180910390fd5b670de0b6b3a7640000826108ac9190610c62565b9150815f803373ffffffffffffffffffffffffffffffffffffffff1673ffffffffffffffffffffffffffffffffffffffff1681526020019081526020015f205f8282546108f99190610ca3565b92505081905550815f808573ffffffffffffffffffffffffffffffffffffffff1673ffffffffffffffffffffffffffffffffffffffff1681526020019081526020015f205f82825461094b9190610d85565b925050819055508273ffffffffffffffffffffffffffffffffffffffff166108fc8390811502906040515f60405180830381858888f19350505050158015610995573d5f803e3d5ffd5b50505050565b60035f9054906101000a900473ffffffffffffffffffffffffffffffffffffffff1681565b5f80fd5b5f819050919050565b6109d6816109c4565b81146109e0575f80fd5b50565b5f813590506109f1816109cd565b92915050565b5f60208284031215610a0c57610a0b6109c0565b5b5f610a19848285016109e3565b91505092915050565b610a2b816109c4565b82525050565b5f602082019050610a445f830184610a22565b92915050565b5f73ffffffffffffffffffffffffffffffffffffffff82169050919050565b5f610a7382610a4a565b9050919050565b610a8381610a69565b8114610a8d575f80fd5b50565b5f81359050610a9e81610a7a565b92915050565b5f60208284031215610ab957610ab86109c0565b5b5f610ac684828501610a90565b91505092915050565b610ad881610a69565b82525050565b5f604082019050610af15f830185610acf565b610afe6020830184610a22565b9392505050565b5f610b0f82610a4a565b9050919050565b610b1f81610b05565b8114610b29575f80fd5b50565b5f81359050610b3a81610b16565b92915050565b5f8060408385031215610b5657610b556109c0565b5b5f610b6385828601610b2c565b9250506020610b74858286016109e3565b9150509250929050565b5f602082019050610b915f830184610acf565b92915050565b5f82825260208201905092915050565b7f4e6f742073756666696369656e7420616d6f756e7420746f20776974686472615f8201527f7700000000000000000000000000000000000000000000000000000000000000602082015250565b5f610c01602183610b97565b9150610c0c82610ba7565b604082019050919050565b5f6020820190508181035f830152610c2e81610bf5565b9050919050565b7f4e487b71000000000000000000000000000000000000000000000000000000005f52601160045260245ffd5b5f610c6c826109c4565b9150610c77836109c4565b9250828202610c85816109c4565b91508282048414831517610c9c57610c9b610c35565b5b5092915050565b5f610cad826109c4565b9150610cb8836109c4565b9250828203905081811115610cd057610ccf610c35565b5b92915050565b7f4163636573732044656e696564000000000000000000000000000000000000005f82015250565b5f610d0a600d83610b97565b9150610d1582610cd6565b602082019050919050565b5f6020820190508181035f830152610d3781610cfe565b9050919050565b5f610d48826109c4565b91507fffffffffffffffffffffffffffffffffffffffffffffffffffffffffffffffff8203610d7a57610d79610c35565b5b600182019050919050565b5f610d8f826109c4565b9150610d9a836109c4565b9250828201905080821115610db257610db1610c35565b5b9291505056fea2646970667358221220cdfb2c2c469183de7272ba0ac1abeace27c0c2d8b0e97463e60628648aeee70b64736f6c63430008150033",
					"opcodes": "PUSH1 0x80 PUSH1 0x40 MSTORE CALLVALUE DUP1 ISZERO PUSH2 0xF JUMPI PUSH0 DUP1 REVERT JUMPDEST POP CALLER PUSH1 0x3 PUSH0 PUSH2 0x100 EXP DUP2 SLOAD DUP2 PUSH20 0xFFFFFFFFFFFFFFFFFFFFFFFFFFFFFFFFFFFFFFFF MUL NOT AND SWAP1 DUP4 PUSH20 0xFFFFFFFFFFFFFFFFFFFFFFFFFFFFFFFFFFFFFFFF AND MUL OR SWAP1 SSTORE POP PUSH2 0xDEE DUP1 PUSH2 0x5D PUSH0 CODECOPY PUSH0 RETURN INVALID PUSH1 0x80 PUSH1 0x40 MSTORE PUSH1 0x4 CALLDATASIZE LT PUSH2 0x85 JUMPI PUSH0 CALLDATALOAD PUSH1 0xE0 SHR DUP1 PUSH4 0x93423E9C GT PUSH2 0x58 JUMPI DUP1 PUSH4 0x93423E9C EQ PUSH2 0x11B JUMPI DUP1 PUSH4 0xA4DBC6A8 EQ PUSH2 0x157 JUMPI DUP1 PUSH4 0xD0E30DB0 EQ PUSH2 0x182 JUMPI DUP1 PUSH4 0xF3FEF3A3 EQ PUSH2 0x18C JUMPI DUP1 PUSH4 0xF851A440 EQ PUSH2 0x1B4 JUMPI PUSH2 0x85 JUMP JUMPDEST DUP1 PUSH4 0x2E1A7D4D EQ PUSH2 0x89 JUMPI DUP1 PUSH4 0x3BE32F7D EQ PUSH2 0xB1 JUMPI DUP1 PUSH4 0x6896FABF EQ PUSH2 0xC7 JUMPI DUP1 PUSH4 0x7B83B50B EQ PUSH2 0xF1 JUMPI JUMPDEST PUSH0 DUP1 REVERT JUMPDEST CALLVALUE DUP1 ISZERO PUSH2 0x94 JUMPI PUSH0 DUP1 REVERT JUMPDEST POP PUSH2 0xAF PUSH1 0x4 DUP1 CALLDATASIZE SUB DUP2 ADD SWAP1 PUSH2 0xAA SWAP2 SWAP1 PUSH2 0x9F7 JUMP JUMPDEST PUSH2 0x1DE JUMP JUMPDEST STOP JUMPDEST CALLVALUE DUP1 ISZERO PUSH2 0xBC JUMPI PUSH0 DUP1 REVERT JUMPDEST POP PUSH2 0xC5 PUSH2 0x30E JUMP JUMPDEST STOP JUMPDEST CALLVALUE DUP1 ISZERO PUSH2 0xD2 JUMPI PUSH0 DUP1 REVERT JUMPDEST POP PUSH2 0xDB PUSH2 0x463 JUMP JUMPDEST PUSH1 0x40 MLOAD PUSH2 0xE8 SWAP2 SWAP1 PUSH2 0xA31 JUMP JUMPDEST PUSH1 0x40 MLOAD DUP1 SWAP2 SUB SWAP1 RETURN JUMPDEST CALLVALUE DUP1 ISZERO PUSH2 0xFC JUMPI PUSH0 DUP1 REVERT JUMPDEST POP PUSH2 0x105 PUSH2 0x4A6 JUMP JUMPDEST PUSH1 0x40 MLOAD PUSH2 0x112 SWAP2 SWAP1 PUSH2 0xA31 JUMP JUMPDEST PUSH1 0x40 MLOAD DUP1 SWAP2 SUB SWAP1 RETURN JUMPDEST CALLVALUE DUP1 ISZERO PUSH2 0x126 JUMPI PUSH0 DUP1 REVERT JUMPDEST POP PUSH2 0x141 PUSH1 0x4 DUP1 CALLDATASIZE SUB DUP2 ADD SWAP1 PUSH2 0x13C SWAP2 SWAP1 PUSH2 0xAA4 JUMP JUMPDEST PUSH2 0x4AD JUMP JUMPDEST PUSH1 0x40 MLOAD PUSH2 0x14E SWAP2 SWAP1 PUSH2 0xA31 JUMP JUMPDEST PUSH1 0x40 MLOAD DUP1 SWAP2 SUB SWAP1 RETURN JUMPDEST CALLVALUE DUP1 ISZERO PUSH2 0x162 JUMPI PUSH0 DUP1 REVERT JUMPDEST POP PUSH2 0x16B PUSH2 0x581 JUMP JUMPDEST PUSH1 0x40 MLOAD PUSH2 0x179 SWAP3 SWAP2 SWAP1 PUSH2 0xADE JUMP JUMPDEST PUSH1 0x40 MLOAD DUP1 SWAP2 SUB SWAP1 RETURN JUMPDEST PUSH2 0x18A PUSH2 0x6F4 JUMP JUMPDEST STOP JUMPDEST CALLVALUE DUP1 ISZERO PUSH2 0x197 JUMPI PUSH0 DUP1 REVERT JUMPDEST POP PUSH2 0x1B2 PUSH1 0x4 DUP1 CALLDATASIZE SUB DUP2 ADD SWAP1 PUSH2 0x1AD SWAP2 SWAP1 PUSH2 0xB40 JUMP JUMPDEST PUSH2 0x818 JUMP JUMPDEST STOP JUMPDEST CALLVALUE DUP1 ISZERO PUSH2 0x1BF JUMPI PUSH0 DUP1 REVERT JUMPDEST POP PUSH2 0x1C8 PUSH2 0x99B JUMP JUMPDEST PUSH1 0x40 MLOAD PUSH2 0x1D5 SWAP2 SWAP1 PUSH2 0xB7E JUMP JUMPDEST PUSH1 0x40 MLOAD DUP1 SWAP2 SUB SWAP1 RETURN JUMPDEST DUP1 PUSH0 DUP1 CALLER PUSH20 0xFFFFFFFFFFFFFFFFFFFFFFFFFFFFFFFFFFFFFFFF AND PUSH20 0xFFFFFFFFFFFFFFFFFFFFFFFFFFFFFFFFFFFFFFFF AND DUP2 MSTORE PUSH1 0x20 ADD SWAP1 DUP2 MSTORE PUSH1 0x20 ADD PUSH0 KECCAK256 SLOAD DUP2 GT ISZERO PUSH2 0x25E JUMPI PUSH1 0x40 MLOAD PUSH32 0x8C379A000000000000000000000000000000000000000000000000000000000 DUP2 MSTORE PUSH1 0x4 ADD PUSH2 0x255 SWAP1 PUSH2 0xC17 JUMP JUMPDEST PUSH1 0x40 MLOAD DUP1 SWAP2 SUB SWAP1 REVERT JUMPDEST PUSH8 0xDE0B6B3A7640000 DUP3 PUSH2 0x272 SWAP2 SWAP1 PUSH2 0xC62 JUMP JUMPDEST SWAP2 POP DUP2 PUSH0 DUP1 CALLER PUSH20 0xFFFFFFFFFFFFFFFFFFFFFFFFFFFFFFFFFFFFFFFF AND PUSH20 0xFFFFFFFFFFFFFFFFFFFFFFFFFFFFFFFFFFFFFFFF AND DUP2 MSTORE PUSH1 0x20 ADD SWAP1 DUP2 MSTORE PUSH1 0x20 ADD PUSH0 KECCAK256 PUSH0 DUP3 DUP3 SLOAD PUSH2 0x2BF SWAP2 SWAP1 PUSH2 0xCA3 JUMP JUMPDEST SWAP3 POP POP DUP2 SWAP1 SSTORE POP CALLER PUSH20 0xFFFFFFFFFFFFFFFFFFFFFFFFFFFFFFFFFFFFFFFF AND PUSH2 0x8FC DUP4 SWAP1 DUP2 ISZERO MUL SWAP1 PUSH1 0x40 MLOAD PUSH0 PUSH1 0x40 MLOAD DUP1 DUP4 SUB DUP2 DUP6 DUP9 DUP9 CALL SWAP4 POP POP POP POP ISZERO DUP1 ISZERO PUSH2 0x309 JUMPI RETURNDATASIZE PUSH0 DUP1 RETURNDATACOPY RETURNDATASIZE PUSH0 REVERT JUMPDEST POP POP POP JUMP JUMPDEST PUSH1 0x3 PUSH0 SWAP1 SLOAD SWAP1 PUSH2 0x100 EXP SWAP1 DIV PUSH20 0xFFFFFFFFFFFFFFFFFFFFFFFFFFFFFFFFFFFFFFFF AND PUSH20 0xFFFFFFFFFFFFFFFFFFFFFFFFFFFFFFFFFFFFFFFF AND CALLER PUSH20 0xFFFFFFFFFFFFFFFFFFFFFFFFFFFFFFFFFFFFFFFF AND EQ PUSH2 0x39D JUMPI PUSH1 0x40 MLOAD PUSH32 0x8C379A000000000000000000000000000000000000000000000000000000000 DUP2 MSTORE PUSH1 0x4 ADD PUSH2 0x394 SWAP1 PUSH2 0xD20 JUMP JUMPDEST PUSH1 0x40 MLOAD DUP1 SWAP2 SUB SWAP1 REVERT JUMPDEST PUSH0 DUP1 PUSH0 CALLER PUSH20 0xFFFFFFFFFFFFFFFFFFFFFFFFFFFFFFFFFFFFFFFF AND PUSH20 0xFFFFFFFFFFFFFFFFFFFFFFFFFFFFFFFFFFFFFFFF AND DUP2 MSTORE PUSH1 0x20 ADD SWAP1 DUP2 MSTORE PUSH1 0x20 ADD PUSH0 KECCAK256 SLOAD SWAP1 POP PUSH0 DUP1 CALLER PUSH20 0xFFFFFFFFFFFFFFFFFFFFFFFFFFFFFFFFFFFFFFFF AND PUSH20 0xFFFFFFFFFFFFFFFFFFFFFFFFFFFFFFFFFFFFFFFF AND DUP2 MSTORE PUSH1 0x20 ADD SWAP1 DUP2 MSTORE PUSH1 0x20 ADD PUSH0 KECCAK256 PUSH0 SWAP1 SSTORE CALLER PUSH20 0xFFFFFFFFFFFFFFFFFFFFFFFFFFFFFFFFFFFFFFFF AND PUSH2 0x8FC DUP3 SWAP1 DUP2 ISZERO MUL SWAP1 PUSH1 0x40 MLOAD PUSH0 PUSH1 0x40 MLOAD DUP1 DUP4 SUB DUP2 DUP6 DUP9 DUP9 CALL SWAP4 POP POP POP POP ISZERO DUP1 ISZERO PUSH2 0x45F JUMPI RETURNDATASIZE PUSH0 DUP1 RETURNDATACOPY RETURNDATASIZE PUSH0 REVERT JUMPDEST POP POP JUMP JUMPDEST PUSH0 DUP1 PUSH0 CALLER PUSH20 0xFFFFFFFFFFFFFFFFFFFFFFFFFFFFFFFFFFFFFFFF AND PUSH20 0xFFFFFFFFFFFFFFFFFFFFFFFFFFFFFFFFFFFFFFFF AND DUP2 MSTORE PUSH1 0x20 ADD SWAP1 DUP2 MSTORE PUSH1 0x20 ADD PUSH0 KECCAK256 SLOAD SWAP1 POP SWAP1 JUMP JUMPDEST PUSH0 SELFBALANCE SWAP1 POP SWAP1 JUMP JUMPDEST PUSH0 PUSH1 0x3 PUSH0 SWAP1 SLOAD SWAP1 PUSH2 0x100 EXP SWAP1 DIV PUSH20 0xFFFFFFFFFFFFFFFFFFFFFFFFFFFFFFFFFFFFFFFF AND PUSH20 0xFFFFFFFFFFFFFFFFFFFFFFFFFFFFFFFFFFFFFFFF AND CALLER PUSH20 0xFFFFFFFFFFFFFFFFFFFFFFFFFFFFFFFFFFFFFFFF AND EQ PUSH2 0x53D JUMPI PUSH1 0x40 MLOAD PUSH32 0x8C379A000000000000000000000000000000000000000000000000000000000 DUP2 MSTORE PUSH1 0x4 ADD PUSH2 0x534 SWAP1 PUSH2 0xD20 JUMP JUMPDEST PUSH1 0x40 MLOAD DUP1 SWAP2 SUB SWAP1 REVERT JUMPDEST PUSH0 DUP1 DUP4 PUSH20 0xFFFFFFFFFFFFFFFFFFFFFFFFFFFFFFFFFFFFFFFF AND PUSH20 0xFFFFFFFFFFFFFFFFFFFFFFFFFFFFFFFFFFFFFFFF AND DUP2 MSTORE PUSH1 0x20 ADD SWAP1 DUP2 MSTORE PUSH1 0x20 ADD PUSH0 KECCAK256 SLOAD SWAP1 POP SWAP2 SWAP1 POP JUMP JUMPDEST PUSH0 DUP1 PUSH1 0x3 PUSH0 SWAP1 SLOAD SWAP1 PUSH2 0x100 EXP SWAP1 DIV PUSH20 0xFFFFFFFFFFFFFFFFFFFFFFFFFFFFFFFFFFFFFFFF AND PUSH20 0xFFFFFFFFFFFFFFFFFFFFFFFFFFFFFFFFFFFFFFFF AND CALLER PUSH20 0xFFFFFFFFFFFFFFFFFFFFFFFFFFFFFFFFFFFFFFFF AND EQ PUSH2 0x612 JUMPI PUSH1 0x40 MLOAD PUSH32 0x8C379A000000000000000000000000000000000000000000000000000000000 DUP2 MSTORE PUSH1 0x4 ADD PUSH2 0x609 SWAP1 PUSH2 0xD20 JUMP JUMPDEST PUSH1 0x40 MLOAD DUP1 SWAP2 SUB SWAP1 REVERT JUMPDEST PUSH0 DUP1 PUSH0 SWAP1 POP JUMPDEST PUSH1 0x2 SLOAD DUP2 GT PUSH2 0x6EE JUMPI PUSH1 0x1 PUSH0 DUP3 DUP2 MSTORE PUSH1 0x20 ADD SWAP1 DUP2 MSTORE PUSH1 0x20 ADD PUSH0 KECCAK256 PUSH0 SWAP1 SLOAD SWAP1 PUSH2 0x100 EXP SWAP1 DIV PUSH20 0xFFFFFFFFFFFFFFFFFFFFFFFFFFFFFFFFFFFFFFFF AND SWAP2 POP DUP3 PUSH0 DUP1 DUP5 PUSH20 0xFFFFFFFFFFFFFFFFFFFFFFFFFFFFFFFFFFFFFFFF AND PUSH20 0xFFFFFFFFFFFFFFFFFFFFFFFFFFFFFFFFFFFFFFFF AND DUP2 MSTORE PUSH1 0x20 ADD SWAP1 DUP2 MSTORE PUSH1 0x20 ADD PUSH0 KECCAK256 SLOAD GT ISZERO PUSH2 0x6DB JUMPI PUSH0 DUP1 DUP4 PUSH20 0xFFFFFFFFFFFFFFFFFFFFFFFFFFFFFFFFFFFFFFFF AND PUSH20 0xFFFFFFFFFFFFFFFFFFFFFFFFFFFFFFFFFFFFFFFF AND DUP2 MSTORE PUSH1 0x20 ADD SWAP1 DUP2 MSTORE PUSH1 0x20 ADD PUSH0 KECCAK256 SLOAD SWAP3 POP DUP2 SWAP4 POP JUMPDEST DUP1 DUP1 PUSH2 0x6E6 SWAP1 PUSH2 0xD3E JUMP JUMPDEST SWAP2 POP POP PUSH2 0x618 JUMP JUMPDEST POP POP SWAP1 SWAP2 JUMP JUMPDEST PUSH0 DUP1 PUSH0 CALLER PUSH20 0xFFFFFFFFFFFFFFFFFFFFFFFFFFFFFFFFFFFFFFFF AND PUSH20 0xFFFFFFFFFFFFFFFFFFFFFFFFFFFFFFFFFFFFFFFF AND DUP2 MSTORE PUSH1 0x20 ADD SWAP1 DUP2 MSTORE PUSH1 0x20 ADD PUSH0 KECCAK256 SLOAD SUB PUSH2 0x79C JUMPI CALLER PUSH1 0x1 PUSH0 PUSH1 0x2 PUSH0 DUP2 SLOAD DUP1 SWAP3 SWAP2 SWAP1 PUSH2 0x74D SWAP1 PUSH2 0xD3E JUMP JUMPDEST SWAP2 SWAP1 POP SSTORE DUP2 MSTORE PUSH1 0x20 ADD SWAP1 DUP2 MSTORE PUSH1 0x20 ADD PUSH0 KECCAK256 PUSH0 PUSH2 0x100 EXP DUP2 SLOAD DUP2 PUSH20 0xFFFFFFFFFFFFFFFFFFFFFFFFFFFFFFFFFFFFFFFF MUL NOT AND SWAP1 DUP4 PUSH20 0xFFFFFFFFFFFFFFFFFFFFFFFFFFFFFFFFFFFFFFFF AND MUL OR SWAP1 SSTORE POP JUMPDEST CALLVALUE PUSH0 DUP1 CALLER PUSH20 0xFFFFFFFFFFFFFFFFFFFFFFFFFFFFFFFFFFFFFFFF AND PUSH20 0xFFFFFFFFFFFFFFFFFFFFFFFFFFFFFFFFFFFFFFFF AND DUP2 MSTORE PUSH1 0x20 ADD SWAP1 DUP2 MSTORE PUSH1 0x20 ADD PUSH0 KECCAK256 DUP2 SWAP1 SSTORE POP PUSH32 0x75D93F6678D61A0982E05953DD44688CF42A84C70B8668DA6AC79CD6337F6F74 CALLER CALLVALUE PUSH1 0x40 MLOAD PUSH2 0x80E SWAP3 SWAP2 SWAP1 PUSH2 0xADE JUMP JUMPDEST PUSH1 0x40 MLOAD DUP1 SWAP2 SUB SWAP1 LOG1 JUMP JUMPDEST DUP1 PUSH0 DUP1 CALLER PUSH20 0xFFFFFFFFFFFFFFFFFFFFFFFFFFFFFFFFFFFFFFFF AND PUSH20 0xFFFFFFFFFFFFFFFFFFFFFFFFFFFFFFFFFFFFFFFF AND DUP2 MSTORE PUSH1 0x20 ADD SWAP1 DUP2 MSTORE PUSH1 0x20 ADD PUSH0 KECCAK256 SLOAD DUP2 GT ISZERO PUSH2 0x898 JUMPI PUSH1 0x40 MLOAD PUSH32 0x8C379A000000000000000000000000000000000000000000000000000000000 DUP2 MSTORE PUSH1 0x4 ADD PUSH2 0x88F SWAP1 PUSH2 0xC17 JUMP JUMPDEST PUSH1 0x40 MLOAD DUP1 SWAP2 SUB SWAP1 REVERT JUMPDEST PUSH8 0xDE0B6B3A7640000 DUP3 PUSH2 0x8AC SWAP2 SWAP1 PUSH2 0xC62 JUMP JUMPDEST SWAP2 POP DUP2 PUSH0 DUP1 CALLER PUSH20 0xFFFFFFFFFFFFFFFFFFFFFFFFFFFFFFFFFFFFFFFF AND PUSH20 0xFFFFFFFFFFFFFFFFFFFFFFFFFFFFFFFFFFFFFFFF AND DUP2 MSTORE PUSH1 0x20 ADD SWAP1 DUP2 MSTORE PUSH1 0x20 ADD PUSH0 KECCAK256 PUSH0 DUP3 DUP3 SLOAD PUSH2 0x8F9 SWAP2 SWAP1 PUSH2 0xCA3 JUMP JUMPDEST SWAP3 POP POP DUP2 SWAP1 SSTORE POP DUP2 PUSH0 DUP1 DUP6 PUSH20 0xFFFFFFFFFFFFFFFFFFFFFFFFFFFFFFFFFFFFFFFF AND PUSH20 0xFFFFFFFFFFFFFFFFFFFFFFFFFFFFFFFFFFFFFFFF AND DUP2 MSTORE PUSH1 0x20 ADD SWAP1 DUP2 MSTORE PUSH1 0x20 ADD PUSH0 KECCAK256 PUSH0 DUP3 DUP3 SLOAD PUSH2 0x94B SWAP2 SWAP1 PUSH2 0xD85 JUMP JUMPDEST SWAP3 POP POP DUP2 SWAP1 SSTORE POP DUP3 PUSH20 0xFFFFFFFFFFFFFFFFFFFFFFFFFFFFFFFFFFFFFFFF AND PUSH2 0x8FC DUP4 SWAP1 DUP2 ISZERO MUL SWAP1 PUSH1 0x40 MLOAD PUSH0 PUSH1 0x40 MLOAD DUP1 DUP4 SUB DUP2 DUP6 DUP9 DUP9 CALL SWAP4 POP POP POP POP ISZERO DUP1 ISZERO PUSH2 0x995 JUMPI RETURNDATASIZE PUSH0 DUP1 RETURNDATACOPY RETURNDATASIZE PUSH0 REVERT JUMPDEST POP POP POP POP JUMP JUMPDEST PUSH1 0x3 PUSH0 SWAP1 SLOAD SWAP1 PUSH2 0x100 EXP SWAP1 DIV PUSH20 0xFFFFFFFFFFFFFFFFFFFFFFFFFFFFFFFFFFFFFFFF AND DUP2 JUMP JUMPDEST PUSH0 DUP1 REVERT JUMPDEST PUSH0 DUP2 SWAP1 POP SWAP2 SWAP1 POP JUMP JUMPDEST PUSH2 0x9D6 DUP2 PUSH2 0x9C4 JUMP JUMPDEST DUP2 EQ PUSH2 0x9E0 JUMPI PUSH0 DUP1 REVERT JUMPDEST POP JUMP JUMPDEST PUSH0 DUP2 CALLDATALOAD SWAP1 POP PUSH2 0x9F1 DUP2 PUSH2 0x9CD JUMP JUMPDEST SWAP3 SWAP2 POP POP JUMP JUMPDEST PUSH0 PUSH1 0x20 DUP3 DUP5 SUB SLT ISZERO PUSH2 0xA0C JUMPI PUSH2 0xA0B PUSH2 0x9C0 JUMP JUMPDEST JUMPDEST PUSH0 PUSH2 0xA19 DUP5 DUP3 DUP6 ADD PUSH2 0x9E3 JUMP JUMPDEST SWAP2 POP POP SWAP3 SWAP2 POP POP JUMP JUMPDEST PUSH2 0xA2B DUP2 PUSH2 0x9C4 JUMP JUMPDEST DUP3 MSTORE POP POP JUMP JUMPDEST PUSH0 PUSH1 0x20 DUP3 ADD SWAP1 POP PUSH2 0xA44 PUSH0 DUP4 ADD DUP5 PUSH2 0xA22 JUMP JUMPDEST SWAP3 SWAP2 POP POP JUMP JUMPDEST PUSH0 PUSH20 0xFFFFFFFFFFFFFFFFFFFFFFFFFFFFFFFFFFFFFFFF DUP3 AND SWAP1 POP SWAP2 SWAP1 POP JUMP JUMPDEST PUSH0 PUSH2 0xA73 DUP3 PUSH2 0xA4A JUMP JUMPDEST SWAP1 POP SWAP2 SWAP1 POP JUMP JUMPDEST PUSH2 0xA83 DUP2 PUSH2 0xA69 JUMP JUMPDEST DUP2 EQ PUSH2 0xA8D JUMPI PUSH0 DUP1 REVERT JUMPDEST POP JUMP JUMPDEST PUSH0 DUP2 CALLDATALOAD SWAP1 POP PUSH2 0xA9E DUP2 PUSH2 0xA7A JUMP JUMPDEST SWAP3 SWAP2 POP POP JUMP JUMPDEST PUSH0 PUSH1 0x20 DUP3 DUP5 SUB SLT ISZERO PUSH2 0xAB9 JUMPI PUSH2 0xAB8 PUSH2 0x9C0 JUMP JUMPDEST JUMPDEST PUSH0 PUSH2 0xAC6 DUP5 DUP3 DUP6 ADD PUSH2 0xA90 JUMP JUMPDEST SWAP2 POP POP SWAP3 SWAP2 POP POP JUMP JUMPDEST PUSH2 0xAD8 DUP2 PUSH2 0xA69 JUMP JUMPDEST DUP3 MSTORE POP POP JUMP JUMPDEST PUSH0 PUSH1 0x40 DUP3 ADD SWAP1 POP PUSH2 0xAF1 PUSH0 DUP4 ADD DUP6 PUSH2 0xACF JUMP JUMPDEST PUSH2 0xAFE PUSH1 0x20 DUP4 ADD DUP5 PUSH2 0xA22 JUMP JUMPDEST SWAP4 SWAP3 POP POP POP JUMP JUMPDEST PUSH0 PUSH2 0xB0F DUP3 PUSH2 0xA4A JUMP JUMPDEST SWAP1 POP SWAP2 SWAP1 POP JUMP JUMPDEST PUSH2 0xB1F DUP2 PUSH2 0xB05 JUMP JUMPDEST DUP2 EQ PUSH2 0xB29 JUMPI PUSH0 DUP1 REVERT JUMPDEST POP JUMP JUMPDEST PUSH0 DUP2 CALLDATALOAD SWAP1 POP PUSH2 0xB3A DUP2 PUSH2 0xB16 JUMP JUMPDEST SWAP3 SWAP2 POP POP JUMP JUMPDEST PUSH0 DUP1 PUSH1 0x40 DUP4 DUP6 SUB SLT ISZERO PUSH2 0xB56 JUMPI PUSH2 0xB55 PUSH2 0x9C0 JUMP JUMPDEST JUMPDEST PUSH0 PUSH2 0xB63 DUP6 DUP3 DUP7 ADD PUSH2 0xB2C JUMP JUMPDEST SWAP3 POP POP PUSH1 0x20 PUSH2 0xB74 DUP6 DUP3 DUP7 ADD PUSH2 0x9E3 JUMP JUMPDEST SWAP2 POP POP SWAP3 POP SWAP3 SWAP1 POP JUMP JUMPDEST PUSH0 PUSH1 0x20 DUP3 ADD SWAP1 POP PUSH2 0xB91 PUSH0 DUP4 ADD DUP5 PUSH2 0xACF JUMP JUMPDEST SWAP3 SWAP2 POP POP JUMP JUMPDEST PUSH0 DUP3 DUP3 MSTORE PUSH1 0x20 DUP3 ADD SWAP1 POP SWAP3 SWAP2 POP POP JUMP JUMPDEST PUSH32 0x4E6F742073756666696369656E7420616D6F756E7420746F2077697468647261 PUSH0 DUP3 ADD MSTORE PUSH32 0x7700000000000000000000000000000000000000000000000000000000000000 PUSH1 0x20 DUP3 ADD MSTORE POP JUMP JUMPDEST PUSH0 PUSH2 0xC01 PUSH1 0x21 DUP4 PUSH2 0xB97 JUMP JUMPDEST SWAP2 POP PUSH2 0xC0C DUP3 PUSH2 0xBA7 JUMP JUMPDEST PUSH1 0x40 DUP3 ADD SWAP1 POP SWAP2 SWAP1 POP JUMP JUMPDEST PUSH0 PUSH1 0x20 DUP3 ADD SWAP1 POP DUP2 DUP2 SUB PUSH0 DUP4 ADD MSTORE PUSH2 0xC2E DUP2 PUSH2 0xBF5 JUMP JUMPDEST SWAP1 POP SWAP2 SWAP1 POP JUMP JUMPDEST PUSH32 0x4E487B7100000000000000000000000000000000000000000000000000000000 PUSH0 MSTORE PUSH1 0x11 PUSH1 0x4 MSTORE PUSH1 0x24 PUSH0 REVERT JUMPDEST PUSH0 PUSH2 0xC6C DUP3 PUSH2 0x9C4 JUMP JUMPDEST SWAP2 POP PUSH2 0xC77 DUP4 PUSH2 0x9C4 JUMP JUMPDEST SWAP3 POP DUP3 DUP3 MUL PUSH2 0xC85 DUP2 PUSH2 0x9C4 JUMP JUMPDEST SWAP2 POP DUP3 DUP3 DIV DUP5 EQ DUP4 ISZERO OR PUSH2 0xC9C JUMPI PUSH2 0xC9B PUSH2 0xC35 JUMP JUMPDEST JUMPDEST POP SWAP3 SWAP2 POP POP JUMP JUMPDEST PUSH0 PUSH2 0xCAD DUP3 PUSH2 0x9C4 JUMP JUMPDEST SWAP2 POP PUSH2 0xCB8 DUP4 PUSH2 0x9C4 JUMP JUMPDEST SWAP3 POP DUP3 DUP3 SUB SWAP1 POP DUP2 DUP2 GT ISZERO PUSH2 0xCD0 JUMPI PUSH2 0xCCF PUSH2 0xC35 JUMP JUMPDEST JUMPDEST SWAP3 SWAP2 POP POP JUMP JUMPDEST PUSH32 0x4163636573732044656E69656400000000000000000000000000000000000000 PUSH0 DUP3 ADD MSTORE POP JUMP JUMPDEST PUSH0 PUSH2 0xD0A PUSH1 0xD DUP4 PUSH2 0xB97 JUMP JUMPDEST SWAP2 POP PUSH2 0xD15 DUP3 PUSH2 0xCD6 JUMP JUMPDEST PUSH1 0x20 DUP3 ADD SWAP1 POP SWAP2 SWAP1 POP JUMP JUMPDEST PUSH0 PUSH1 0x20 DUP3 ADD SWAP1 POP DUP2 DUP2 SUB PUSH0 DUP4 ADD MSTORE PUSH2 0xD37 DUP2 PUSH2 0xCFE JUMP JUMPDEST SWAP1 POP SWAP2 SWAP1 POP JUMP JUMPDEST PUSH0 PUSH2 0xD48 DUP3 PUSH2 0x9C4 JUMP JUMPDEST SWAP2 POP PUSH32 0xFFFFFFFFFFFFFFFFFFFFFFFFFFFFFFFFFFFFFFFFFFFFFFFFFFFFFFFFFFFFFFFF DUP3 SUB PUSH2 0xD7A JUMPI PUSH2 0xD79 PUSH2 0xC35 JUMP JUMPDEST JUMPDEST PUSH1 0x1 DUP3 ADD SWAP1 POP SWAP2 SWAP1 POP JUMP JUMPDEST PUSH0 PUSH2 0xD8F DUP3 PUSH2 0x9C4 JUMP JUMPDEST SWAP2 POP PUSH2 0xD9A DUP4 PUSH2 0x9C4 JUMP JUMPDEST SWAP3 POP DUP3 DUP3 ADD SWAP1 POP DUP1 DUP3 GT ISZERO PUSH2 0xDB2 JUMPI PUSH2 0xDB1 PUSH2 0xC35 JUMP JUMPDEST JUMPDEST SWAP3 SWAP2 POP POP JUMP INVALID LOG2 PUSH5 0x6970667358 0x22 SLT KECCAK256 0xCD 0xFB 0x2C 0x2C CHAINID SWAP2 DUP4 0xDE PUSH19 0x72BA0AC1ABEACE27C0C2D8B0E97463E6062864 DUP11 0xEE 0xE7 SIGNEXTEND PUSH5 0x736F6C6343 STOP ADDMOD ISZERO STOP CALLER "
				},
				"gasEstimates": {
					"creation": {
						"codeDepositCost": "713200",
						"executionCost": "25010",
						"totalCost": "738210"
					},
					"external": {
						"admin()": "2596",
						"deleteAccount()": "infinite",
						"deposit()": "infinite",
						"getAccountBalance()": "2564",
						"getAccountBalance(address)": "4998",
						"getBankBalance()": "401",
						"getMaxDeposit()": "infinite",
						"withdraw(address,uint256)": "infinite",
						"withdraw(uint256)": "infinite"
					}
				},
				"methodIdentifiers": {
					"admin()": "f851a440",
					"deleteAccount()": "3be32f7d",
					"deposit()": "d0e30db0",
					"getAccountBalance()": "6896fabf",
					"getAccountBalance(address)": "93423e9c",
					"getBankBalance()": "7b83b50b",
					"getMaxDeposit()": "a4dbc6a8",
					"withdraw(address,uint256)": "f3fef3a3",
					"withdraw(uint256)": "2e1a7d4d"
				}
			},
			"storageLayout": {
				"storage": [
					{
						"astId": 5,
						"contract": "contracts/Bank.sol:Bank",
						"label": "balance",
						"offset": 0,
						"slot": "0",
						"type": "t_mapping(t_address,t_uint256)"
					},
					{
						"astId": 9,
						"contract": "contracts/Bank.sol:Bank",
						"label": "addressIndex",
						"offset": 0,
						"slot": "1",
						"type": "t_mapping(t_uint256,t_address)"
					},
					{
						"astId": 11,
						"contract": "contracts/Bank.sol:Bank",
						"label": "addressCount",
						"offset": 0,
						"slot": "2",
						"type": "t_uint256"
					},
					{
						"astId": 13,
						"contract": "contracts/Bank.sol:Bank",
						"label": "admin",
						"offset": 0,
						"slot": "3",
						"type": "t_address"
					}
				],
				"types": {
					"t_address": {
						"encoding": "inplace",
						"label": "address",
						"numberOfBytes": "20"
					},
					"t_mapping(t_address,t_uint256)": {
						"encoding": "mapping",
						"key": "t_address",
						"label": "mapping(address => uint256)",
						"numberOfBytes": "32",
						"value": "t_uint256"
					},
					"t_mapping(t_uint256,t_address)": {
						"encoding": "mapping",
						"key": "t_uint256",
						"label": "mapping(uint256 => address)",
						"numberOfBytes": "32",
						"value": "t_address"
					},
					"t_uint256": {
						"encoding": "inplace",
						"label": "uint256",
						"numberOfBytes": "32"
					}
				}
			},
			"userdoc": {
				"kind": "user",
				"methods": {},
				"version": 1
			}
		}
	}
}