{
	"contracts/DepositContract.sol": {
		"DepositContract": {
			"abi": [
				{
					"anonymous": false,
					"inputs": [
						{
							"indexed": true,
							"internalType": "address",
							"name": "",
							"type": "address"
						},
						{
							"indexed": false,
							"internalType": "uint256",
							"name": "",
							"type": "uint256"
						}
					],
					"name": "depositEvent",
					"type": "event"
				},
				{
					"inputs": [],
					"name": "balance",
					"outputs": [
						{
							"internalType": "uint256",
							"name": "",
							"type": "uint256"
						}
					],
					"stateMutability": "view",
					"type": "function"
				},
				{
					"inputs": [],
					"name": "deposit",
					"outputs": [],
					"stateMutability": "payable",
					"type": "function"
				}
			],
			"devdoc": {
				"kind": "dev",
				"methods": {},
				"version": 1
			},
			"evm": {
				"assembly": "    /* \"contracts/DepositContract.sol\":57:294  contract DepositContract{... */\n  mstore(0x40, 0x80)\n  callvalue\n  dup1\n  iszero\n  tag_1\n  jumpi\n  0x00\n  dup1\n  revert\ntag_1:\n  pop\n  dataSize(sub_0)\n  dup1\n  dataOffset(sub_0)\n  0x00\n  codecopy\n  0x00\n  return\nstop\n\nsub_0: assembly {\n        /* \"contracts/DepositContract.sol\":57:294  contract DepositContract{... */\n      mstore(0x40, 0x80)\n      jumpi(tag_1, lt(calldatasize, 0x04))\n      shr(0xe0, calldataload(0x00))\n      dup1\n      0xb69ef8a8\n      eq\n      tag_2\n      jumpi\n      dup1\n      0xd0e30db0\n      eq\n      tag_3\n      jumpi\n    tag_1:\n      0x00\n      dup1\n      revert\n        /* \"contracts/DepositContract.sol\":88:110  uint256 public balance */\n    tag_2:\n      callvalue\n      dup1\n      iszero\n      tag_4\n      jumpi\n      0x00\n      dup1\n      revert\n    tag_4:\n      pop\n      tag_5\n      tag_6\n      jump\t// in\n    tag_5:\n      mload(0x40)\n      tag_7\n      swap2\n      swap1\n      tag_8\n      jump\t// in\n    tag_7:\n      mload(0x40)\n      dup1\n      swap2\n      sub\n      swap1\n      return\n        /* \"contracts/DepositContract.sol\":169:291  function deposit() public payable{... */\n    tag_3:\n      tag_9\n      tag_10\n      jump\t// in\n    tag_9:\n      stop\n        /* \"contracts/DepositContract.sol\":88:110  uint256 public balance */\n    tag_6:\n      sload(0x00)\n      dup2\n      jump\t// out\n        /* \"contracts/DepositContract.sol\":169:291  function deposit() public payable{... */\n    tag_10:\n        /* \"contracts/DepositContract.sol\":224:233  msg.value */\n      callvalue\n        /* \"contracts/DepositContract.sol\":213:220  balance */\n      0x00\n      dup1\n        /* \"contracts/DepositContract.sol\":213:233  balance += msg.value */\n      dup3\n      dup3\n      sload\n      tag_12\n      swap2\n      swap1\n      tag_13\n      jump\t// in\n    tag_12:\n      swap3\n      pop\n      pop\n      dup2\n      swap1\n      sstore\n      pop\n        /* \"contracts/DepositContract.sol\":262:272  msg.sender */\n      caller\n        /* \"contracts/DepositContract.sol\":249:283  depositEvent(msg.sender,msg.value) */\n      0xffffffffffffffffffffffffffffffffffffffff\n      and\n      0x47170ad76c9bbdb15dfbafd993321119023982de922af38d00684afaac15b8ea\n        /* \"contracts/DepositContract.sol\":273:282  msg.value */\n      callvalue\n        /* \"contracts/DepositContract.sol\":249:283  depositEvent(msg.sender,msg.value) */\n      mload(0x40)\n      tag_14\n      swap2\n      swap1\n      tag_8\n      jump\t// in\n    tag_14:\n      mload(0x40)\n      dup1\n      swap2\n      sub\n      swap1\n      log2\n        /* \"contracts/DepositContract.sol\":169:291  function deposit() public payable{... */\n      jump\t// out\n        /* \"#utility.yul\":7:84   */\n    tag_15:\n        /* \"#utility.yul\":44:51   */\n      0x00\n        /* \"#utility.yul\":73:78   */\n      dup2\n        /* \"#utility.yul\":62:78   */\n      swap1\n      pop\n        /* \"#utility.yul\":7:84   */\n      swap2\n      swap1\n      pop\n      jump\t// out\n        /* \"#utility.yul\":90:208   */\n    tag_16:\n        /* \"#utility.yul\":177:201   */\n      tag_21\n        /* \"#utility.yul\":195:200   */\n      dup2\n        /* \"#utility.yul\":177:201   */\n      tag_15\n      jump\t// in\n    tag_21:\n        /* \"#utility.yul\":172:175   */\n      dup3\n        /* \"#utility.yul\":165:202   */\n      mstore\n        /* \"#utility.yul\":90:208   */\n      pop\n      pop\n      jump\t// out\n        /* \"#utility.yul\":214:436   */\n    tag_8:\n        /* \"#utility.yul\":307:311   */\n      0x00\n        /* \"#utility.yul\":345:347   */\n      0x20\n        /* \"#utility.yul\":334:343   */\n      dup3\n        /* \"#utility.yul\":330:348   */\n      add\n        /* \"#utility.yul\":322:348   */\n      swap1\n      pop\n        /* \"#utility.yul\":358:429   */\n      tag_23\n        /* \"#utility.yul\":426:427   */\n      0x00\n        /* \"#utility.yul\":415:424   */\n      dup4\n        /* \"#utility.yul\":411:428   */\n      add\n        /* \"#utility.yul\":402:408   */\n      dup5\n        /* \"#utility.yul\":358:429   */\n      tag_16\n      jump\t// in\n    tag_23:\n        /* \"#utility.yul\":214:436   */\n      swap3\n      swap2\n      pop\n      pop\n      jump\t// out\n        /* \"#utility.yul\":442:622   */\n    tag_17:\n        /* \"#utility.yul\":490:567   */\n      0x4e487b7100000000000000000000000000000000000000000000000000000000\n        /* \"#utility.yul\":487:488   */\n      0x00\n        /* \"#utility.yul\":480:568   */\n      mstore\n        /* \"#utility.yul\":587:591   */\n      0x11\n        /* \"#utility.yul\":584:585   */\n      0x04\n        /* \"#utility.yul\":577:592   */\n      mstore\n        /* \"#utility.yul\":611:615   */\n      0x24\n        /* \"#utility.yul\":608:609   */\n      0x00\n        /* \"#utility.yul\":601:616   */\n      revert\n        /* \"#utility.yul\":628:819   */\n    tag_13:\n        /* \"#utility.yul\":668:671   */\n      0x00\n        /* \"#utility.yul\":687:707   */\n      tag_26\n        /* \"#utility.yul\":705:706   */\n      dup3\n        /* \"#utility.yul\":687:707   */\n      tag_15\n      jump\t// in\n    tag_26:\n        /* \"#utility.yul\":682:707   */\n      swap2\n      pop\n        /* \"#utility.yul\":721:741   */\n      tag_27\n        /* \"#utility.yul\":739:740   */\n      dup4\n        /* \"#utility.yul\":721:741   */\n      tag_15\n      jump\t// in\n    tag_27:\n        /* \"#utility.yul\":716:741   */\n      swap3\n      pop\n        /* \"#utility.yul\":764:765   */\n      dup3\n        /* \"#utility.yul\":761:762   */\n      dup3\n        /* \"#utility.yul\":757:766   */\n      add\n        /* \"#utility.yul\":750:766   */\n      swap1\n      pop\n        /* \"#utility.yul\":785:788   */\n      dup1\n        /* \"#utility.yul\":782:783   */\n      dup3\n        /* \"#utility.yul\":779:789   */\n      gt\n        /* \"#utility.yul\":776:812   */\n      iszero\n      tag_28\n      jumpi\n        /* \"#utility.yul\":792:810   */\n      tag_29\n      tag_17\n      jump\t// in\n    tag_29:\n        /* \"#utility.yul\":776:812   */\n    tag_28:\n        /* \"#utility.yul\":628:819   */\n      swap3\n      swap2\n      pop\n      pop\n      jump\t// out\n\n    auxdata: 0xa264697066735822122026e2ae83106dbc181fe2848cf41d62110cafeceb3348f0d41962aa6630fc369864736f6c63430008150033\n}\n",
				"bytecode": {
					"linkReferences": {},
					"object": "608060405234801561000f575f80fd5b506101938061001d5f395ff3fe608060405260043610610028575f3560e01c8063b69ef8a81461002c578063d0e30db014610056575b5f80fd5b348015610037575f80fd5b50610040610060565b60405161004d91906100e4565b60405180910390f35b61005e610065565b005b5f5481565b345f80828254610075919061012a565b925050819055503373ffffffffffffffffffffffffffffffffffffffff167f47170ad76c9bbdb15dfbafd993321119023982de922af38d00684afaac15b8ea346040516100c291906100e4565b60405180910390a2565b5f819050919050565b6100de816100cc565b82525050565b5f6020820190506100f75f8301846100d5565b92915050565b7f4e487b71000000000000000000000000000000000000000000000000000000005f52601160045260245ffd5b5f610134826100cc565b915061013f836100cc565b9250828201905080821115610157576101566100fd565b5b9291505056fea264697066735822122026e2ae83106dbc181fe2848cf41d62110cafeceb3348f0d41962aa6630fc369864736f6c63430008150033",
					"opcodes": "PUSH1 0x80 PUSH1 0x40 MSTORE CALLVALUE DUP1 ISZERO PUSH2 0xF JUMPI PUSH0 DUP1 REVERT JUMPDEST POP PUSH2 0x193 DUP1 PUSH2 0x1D PUSH0 CODECOPY PUSH0 RETURN INVALID PUSH1 0x80 PUSH1 0x40 MSTORE PUSH1 0x4 CALLDATASIZE LT PUSH2 0x28 JUMPI PUSH0 CALLDATALOAD PUSH1 0xE0 SHR DUP1 PUSH4 0xB69EF8A8 EQ PUSH2 0x2C JUMPI DUP1 PUSH4 0xD0E30DB0 EQ PUSH2 0x56 JUMPI JUMPDEST PUSH0 DUP1 REVERT JUMPDEST CALLVALUE DUP1 ISZERO PUSH2 0x37 JUMPI PUSH0 DUP1 REVERT JUMPDEST POP PUSH2 0x40 PUSH2 0x60 JUMP JUMPDEST PUSH1 0x40 MLOAD PUSH2 0x4D SWAP2 SWAP1 PUSH2 0xE4 JUMP JUMPDEST PUSH1 0x40 MLOAD DUP1 SWAP2 SUB SWAP1 RETURN JUMPDEST PUSH2 0x5E PUSH2 0x65 JUMP JUMPDEST STOP JUMPDEST PUSH0 SLOAD DUP2 JUMP JUMPDEST CALLVALUE PUSH0 DUP1 DUP3 DUP3 SLOAD PUSH2 0x75 SWAP2 SWAP1 PUSH2 0x12A JUMP JUMPDEST SWAP3 POP POP DUP2 SWAP1 SSTORE POP CALLER PUSH20 0xFFFFFFFFFFFFFFFFFFFFFFFFFFFFFFFFFFFFFFFF AND PUSH32 0x47170AD76C9BBDB15DFBAFD993321119023982DE922AF38D00684AFAAC15B8EA CALLVALUE PUSH1 0x40 MLOAD PUSH2 0xC2 SWAP2 SWAP1 PUSH2 0xE4 JUMP JUMPDEST PUSH1 0x40 MLOAD DUP1 SWAP2 SUB SWAP1 LOG2 JUMP JUMPDEST PUSH0 DUP2 SWAP1 POP SWAP2 SWAP1 POP JUMP JUMPDEST PUSH2 0xDE DUP2 PUSH2 0xCC JUMP JUMPDEST DUP3 MSTORE POP POP JUMP JUMPDEST PUSH0 PUSH1 0x20 DUP3 ADD SWAP1 POP PUSH2 0xF7 PUSH0 DUP4 ADD DUP5 PUSH2 0xD5 JUMP JUMPDEST SWAP3 SWAP2 POP POP JUMP JUMPDEST PUSH32 0x4E487B7100000000000000000000000000000000000000000000000000000000 PUSH0 MSTORE PUSH1 0x11 PUSH1 0x4 MSTORE PUSH1 0x24 PUSH0 REVERT JUMPDEST PUSH0 PUSH2 0x134 DUP3 PUSH2 0xCC JUMP JUMPDEST SWAP2 POP PUSH2 0x13F DUP4 PUSH2 0xCC JUMP JUMPDEST SWAP3 POP DUP3 DUP3 ADD SWAP1 POP DUP1 DUP3 GT ISZERO PUSH2 0x157 JUMPI PUSH2 0x156 PUSH2 0xFD JUMP JUMPDEST JUMPDEST SWAP3 SWAP2 POP POP JUMP INVALID LOG2 PUSH5 0x6970667358 0x22 SLT KECCAK256 0x26 0xE2 0xAE DUP4 LT PUSH14 0xBC181FE2848CF41D62110CAFECEB CALLER BASEFEE CREATE 0xD4 NOT PUSH3 0xAA6630 0xFC CALLDATASIZE SWAP9 PUSH5 0x736F6C6343 STOP ADDMOD ISZERO STOP CALLER "
				},
				"gasEstimates": {
					"creation": {
						"codeDepositCost": "80600",
						"executionCost": "127",
						"totalCost": "80727"
					},
					"external": {
						"balance()": "2402",
						"deposit()": "infinite"
					}
				},
				"methodIdentifiers": {
					"balance()": "b69ef8a8",
					"deposit()": "d0e30db0"
				}
			},
			"storageLayout": {
				"storage": [
					{
						"astId": 3,
						"contract": "contracts/DepositContract.sol:DepositContract",
						"label": "balance",
						"offset": 0,
						"slot": "0",
						"type": "t_uint256"
					}
				],
				"types": {
					"t_uint256": {
						"encoding": "inplace",
						"label": "uint256",
						"numberOfBytes": "32"
					}
				}
			},
			"userdoc": {
				"kind": "user",
				"methods": {},
				"version": 1
			}
		}
	}
}