{
	"contracts/Land.sol": {
		"LandRegistration": {
			"abi": [
				{
					"inputs": [
						{
							"internalType": "uint256",
							"name": "landID",
							"type": "uint256"
						}
					],
					"name": "getLandDetails",
					"outputs": [
						{
							"components": [
								{
									"internalType": "uint256",
									"name": "surveyNo",
									"type": "uint256"
								},
								{
									"internalType": "string",
									"name": "district",
									"type": "string"
								},
								{
									"internalType": "string",
									"name": "taluk",
									"type": "string"
								},
								{
									"internalType": "string",
									"name": "village",
									"type": "string"
								},
								{
									"internalType": "uint256",
									"name": "blockNo",
									"type": "uint256"
								},
								{
									"internalType": "uint256",
									"name": "landValue",
									"type": "uint256"
								},
								{
									"internalType": "uint256",
									"name": "area",
									"type": "uint256"
								},
								{
									"internalType": "bool",
									"name": "salesStatus",
									"type": "bool"
								}
							],
							"internalType": "struct LandRegistration.LandDetail",
							"name": "",
							"type": "tuple"
						}
					],
					"stateMutability": "view",
					"type": "function"
				},
				{
					"inputs": [
						{
							"internalType": "uint256",
							"name": "surveyNo",
							"type": "uint256"
						},
						{
							"internalType": "string",
							"name": "district",
							"type": "string"
						},
						{
							"internalType": "string",
							"name": "taluk",
							"type": "string"
						},
						{
							"internalType": "string",
							"name": "village",
							"type": "string"
						},
						{
							"internalType": "uint256",
							"name": "blockNo",
							"type": "uint256"
						},
						{
							"internalType": "uint256",
							"name": "landValue",
							"type": "uint256"
						},
						{
							"internalType": "uint256",
							"name": "area",
							"type": "uint256"
						}
					],
					"name": "registerNewLand",
					"outputs": [],
					"stateMutability": "nonpayable",
					"type": "function"
				},
				{
					"inputs": [],
					"name": "registeredLandCount",
					"outputs": [
						{
							"internalType": "uint256",
							"name": "",
							"type": "uint256"
						}
					],
					"stateMutability": "view",
					"type": "function"
				}
			],
			"devdoc": {
				"kind": "dev",
				"methods": {},
				"version": 1
			},
			"evm": {
				"assembly": "    /* \"contracts/Land.sol\":58:913  contract LandRegistration{... */\n  mstore(0x40, 0x80)\n    /* \"contracts/Land.sol\":413:414  0 */\n  0x00\n    /* \"contracts/Land.sol\":379:414  uint public registeredLandCount = 0 */\n  0x01\n  sstore\n    /* \"contracts/Land.sol\":58:913  contract LandRegistration{... */\n  callvalue\n  dup1\n  iszero\n  tag_1\n  jumpi\n  0x00\n  dup1\n  revert\ntag_1:\n  pop\n  dataSize(sub_0)\n  dup1\n  dataOffset(sub_0)\n  0x00\n  codecopy\n  0x00\n  return\nstop\n\nsub_0: assembly {\n        /* \"contracts/Land.sol\":58:913  contract LandRegistration{... */\n      mstore(0x40, 0x80)\n      callvalue\n      dup1\n      iszero\n      tag_1\n      jumpi\n      0x00\n      dup1\n      revert\n    tag_1:\n      pop\n      jumpi(tag_2, lt(calldatasize, 0x04))\n      shr(0xe0, calldataload(0x00))\n      dup1\n      0xa7613a7d\n      eq\n      tag_3\n      jumpi\n      dup1\n      0xf0770665\n      eq\n      tag_4\n      jumpi\n      dup1\n      0xfe0cb7dc\n      eq\n      tag_5\n      jumpi\n    tag_2:\n      0x00\n      dup1\n      revert\n        /* \"contracts/Land.sol\":379:414  uint public registeredLandCount = 0 */\n    tag_3:\n      tag_6\n      tag_7\n      jump\t// in\n    tag_6:\n      mload(0x40)\n      tag_8\n      swap2\n      swap1\n      tag_9\n      jump\t// in\n    tag_8:\n      mload(0x40)\n      dup1\n      swap2\n      sub\n      swap1\n      return\n        /* \"contracts/Land.sol\":453:777  function registerNewLand(uint surveyNo, string memory district, string memory taluk, string memory village, uint blockNo, uint landValue, uint area) public {... */\n    tag_4:\n      tag_10\n      0x04\n      dup1\n      calldatasize\n      sub\n      dup2\n      add\n      swap1\n      tag_11\n      swap2\n      swap1\n      tag_12\n      jump\t// in\n    tag_11:\n      tag_13\n      jump\t// in\n    tag_10:\n      stop\n        /* \"contracts/Land.sol\":789:910  function getLandDetails(uint landID) view public returns(LandDetail memory) {... */\n    tag_5:\n      tag_14\n      0x04\n      dup1\n      calldatasize\n      sub\n      dup2\n      add\n      swap1\n      tag_15\n      swap2\n      swap1\n      tag_16\n      jump\t// in\n    tag_15:\n      tag_17\n      jump\t// in\n    tag_14:\n      mload(0x40)\n      tag_18\n      swap2\n      swap1\n      tag_19\n      jump\t// in\n    tag_18:\n      mload(0x40)\n      dup1\n      swap2\n      sub\n      swap1\n      return\n        /* \"contracts/Land.sol\":379:414  uint public registeredLandCount = 0 */\n    tag_7:\n      sload(0x01)\n      dup2\n      jump\t// out\n        /* \"contracts/Land.sol\":453:777  function registerNewLand(uint surveyNo, string memory district, string memory taluk, string memory village, uint blockNo, uint landValue, uint area) public {... */\n    tag_13:\n        /* \"contracts/Land.sol\":655:734  LandDetail(surveyNo, district, taluk, village, blockNo, landValue, area, false) */\n      mload(0x40)\n      dup1\n      0x0100\n      add\n      0x40\n      mstore\n      dup1\n        /* \"contracts/Land.sol\":666:674  surveyNo */\n      dup9\n        /* \"contracts/Land.sol\":655:734  LandDetail(surveyNo, district, taluk, village, blockNo, landValue, area, false) */\n      dup2\n      mstore\n      0x20\n      add\n        /* \"contracts/Land.sol\":676:684  district */\n      dup8\n        /* \"contracts/Land.sol\":655:734  LandDetail(surveyNo, district, taluk, village, blockNo, landValue, area, false) */\n      dup2\n      mstore\n      0x20\n      add\n        /* \"contracts/Land.sol\":686:691  taluk */\n      dup7\n        /* \"contracts/Land.sol\":655:734  LandDetail(surveyNo, district, taluk, village, blockNo, landValue, area, false) */\n      dup2\n      mstore\n      0x20\n      add\n        /* \"contracts/Land.sol\":693:700  village */\n      dup6\n        /* \"contracts/Land.sol\":655:734  LandDetail(surveyNo, district, taluk, village, blockNo, landValue, area, false) */\n      dup2\n      mstore\n      0x20\n      add\n        /* \"contracts/Land.sol\":702:709  blockNo */\n      dup5\n        /* \"contracts/Land.sol\":655:734  LandDetail(surveyNo, district, taluk, village, blockNo, landValue, area, false) */\n      dup2\n      mstore\n      0x20\n      add\n        /* \"contracts/Land.sol\":711:720  landValue */\n      dup4\n        /* \"contracts/Land.sol\":655:734  LandDetail(surveyNo, district, taluk, village, blockNo, landValue, area, false) */\n      dup2\n      mstore\n      0x20\n      add\n        /* \"contracts/Land.sol\":722:726  area */\n      dup3\n        /* \"contracts/Land.sol\":655:734  LandDetail(surveyNo, district, taluk, village, blockNo, landValue, area, false) */\n      dup2\n      mstore\n      0x20\n      add\n        /* \"contracts/Land.sol\":728:733  false */\n      0x00\n        /* \"contracts/Land.sol\":655:734  LandDetail(surveyNo, district, taluk, village, blockNo, landValue, area, false) */\n      iszero\n      iszero\n      dup2\n      mstore\n      pop\n        /* \"contracts/Land.sol\":620:631  LandDetails */\n      0x00\n        /* \"contracts/Land.sol\":620:652  LandDetails[registeredLandCount] */\n      dup1\n        /* \"contracts/Land.sol\":632:651  registeredLandCount */\n      sload(0x01)\n        /* \"contracts/Land.sol\":620:652  LandDetails[registeredLandCount] */\n      dup2\n      mstore\n      0x20\n      add\n      swap1\n      dup2\n      mstore\n      0x20\n      add\n      0x00\n      keccak256\n        /* \"contracts/Land.sol\":620:734  LandDetails[registeredLandCount] = LandDetail(surveyNo, district, taluk, village, blockNo, landValue, area, false) */\n      0x00\n      dup3\n      add\n      mload\n      dup2\n      0x00\n      add\n      sstore\n      0x20\n      dup3\n      add\n      mload\n      dup2\n      0x01\n      add\n      swap1\n      dup2\n      tag_21\n      swap2\n      swap1\n      tag_22\n      jump\t// in\n    tag_21:\n      pop\n      0x40\n      dup3\n      add\n      mload\n      dup2\n      0x02\n      add\n      swap1\n      dup2\n      tag_23\n      swap2\n      swap1\n      tag_22\n      jump\t// in\n    tag_23:\n      pop\n      0x60\n      dup3\n      add\n      mload\n      dup2\n      0x03\n      add\n      swap1\n      dup2\n      tag_24\n      swap2\n      swap1\n      tag_22\n      jump\t// in\n    tag_24:\n      pop\n      0x80\n      dup3\n      add\n      mload\n      dup2\n      0x04\n      add\n      sstore\n      0xa0\n      dup3\n      add\n      mload\n      dup2\n      0x05\n      add\n      sstore\n      0xc0\n      dup3\n      add\n      mload\n      dup2\n      0x06\n      add\n      sstore\n      0xe0\n      dup3\n      add\n      mload\n      dup2\n      0x07\n      add\n      exp(0x0100, 0x00)\n      dup2\n      sload\n      dup2\n      0xff\n      mul\n      not\n      and\n      swap1\n      dup4\n      iszero\n      iszero\n      mul\n      or\n      swap1\n      sstore\n      pop\n      swap1\n      pop\n      pop\n        /* \"contracts/Land.sol\":768:769  1 */\n      0x01\n        /* \"contracts/Land.sol\":745:764  registeredLandCount */\n      dup1\n      0x00\n        /* \"contracts/Land.sol\":745:769  registeredLandCount += 1 */\n      dup3\n      dup3\n      sload\n      tag_25\n      swap2\n      swap1\n      tag_26\n      jump\t// in\n    tag_25:\n      swap3\n      pop\n      pop\n      dup2\n      swap1\n      sstore\n      pop\n        /* \"contracts/Land.sol\":453:777  function registerNewLand(uint surveyNo, string memory district, string memory taluk, string memory village, uint blockNo, uint landValue, uint area) public {... */\n      pop\n      pop\n      pop\n      pop\n      pop\n      pop\n      pop\n      jump\t// out\n        /* \"contracts/Land.sol\":789:910  function getLandDetails(uint landID) view public returns(LandDetail memory) {... */\n    tag_17:\n        /* \"contracts/Land.sol\":846:863  LandDetail memory */\n      tag_27\n      tag_28\n      jump\t// in\n    tag_27:\n        /* \"contracts/Land.sol\":883:894  LandDetails */\n      0x00\n        /* \"contracts/Land.sol\":883:902  LandDetails[landID] */\n      dup1\n        /* \"contracts/Land.sol\":895:901  landID */\n      dup4\n        /* \"contracts/Land.sol\":883:902  LandDetails[landID] */\n      dup2\n      mstore\n      0x20\n      add\n      swap1\n      dup2\n      mstore\n      0x20\n      add\n      0x00\n      keccak256\n        /* \"contracts/Land.sol\":876:902  return LandDetails[landID] */\n      mload(0x40)\n      dup1\n      0x0100\n      add\n      0x40\n      mstore\n      swap1\n      dup2\n      0x00\n      dup3\n      add\n      sload\n      dup2\n      mstore\n      0x20\n      add\n      0x01\n      dup3\n      add\n      dup1\n      sload\n      tag_30\n      swap1\n      tag_31\n      jump\t// in\n    tag_30:\n      dup1\n      0x1f\n      add\n      0x20\n      dup1\n      swap2\n      div\n      mul\n      0x20\n      add\n      mload(0x40)\n      swap1\n      dup2\n      add\n      0x40\n      mstore\n      dup1\n      swap3\n      swap2\n      swap1\n      dup2\n      dup2\n      mstore\n      0x20\n      add\n      dup3\n      dup1\n      sload\n      tag_32\n      swap1\n      tag_31\n      jump\t// in\n    tag_32:\n      dup1\n      iszero\n      tag_33\n      jumpi\n      dup1\n      0x1f\n      lt\n      tag_34\n      jumpi\n      0x0100\n      dup1\n      dup4\n      sload\n      div\n      mul\n      dup4\n      mstore\n      swap2\n      0x20\n      add\n      swap2\n      jump(tag_33)\n    tag_34:\n      dup3\n      add\n      swap2\n      swap1\n      0x00\n      mstore\n      keccak256(0x00, 0x20)\n      swap1\n    tag_35:\n      dup2\n      sload\n      dup2\n      mstore\n      swap1\n      0x01\n      add\n      swap1\n      0x20\n      add\n      dup1\n      dup4\n      gt\n      tag_35\n      jumpi\n      dup3\n      swap1\n      sub\n      0x1f\n      and\n      dup3\n      add\n      swap2\n    tag_33:\n      pop\n      pop\n      pop\n      pop\n      pop\n      dup2\n      mstore\n      0x20\n      add\n      0x02\n      dup3\n      add\n      dup1\n      sload\n      tag_36\n      swap1\n      tag_31\n      jump\t// in\n    tag_36:\n      dup1\n      0x1f\n      add\n      0x20\n      dup1\n      swap2\n      div\n      mul\n      0x20\n      add\n      mload(0x40)\n      swap1\n      dup2\n      add\n      0x40\n      mstore\n      dup1\n      swap3\n      swap2\n      swap1\n      dup2\n      dup2\n      mstore\n      0x20\n      add\n      dup3\n      dup1\n      sload\n      tag_37\n      swap1\n      tag_31\n      jump\t// in\n    tag_37:\n      dup1\n      iszero\n      tag_38\n      jumpi\n      dup1\n      0x1f\n      lt\n      tag_39\n      jumpi\n      0x0100\n      dup1\n      dup4\n      sload\n      div\n      mul\n      dup4\n      mstore\n      swap2\n      0x20\n      add\n      swap2\n      jump(tag_38)\n    tag_39:\n      dup3\n      add\n      swap2\n      swap1\n      0x00\n      mstore\n      keccak256(0x00, 0x20)\n      swap1\n    tag_40:\n      dup2\n      sload\n      dup2\n      mstore\n      swap1\n      0x01\n      add\n      swap1\n      0x20\n      add\n      dup1\n      dup4\n      gt\n      tag_40\n      jumpi\n      dup3\n      swap1\n      sub\n      0x1f\n      and\n      dup3\n      add\n      swap2\n    tag_38:\n      pop\n      pop\n      pop\n      pop\n      pop\n      dup2\n      mstore\n      0x20\n      add\n      0x03\n      dup3\n      add\n      dup1\n      sload\n      tag_41\n      swap1\n      tag_31\n      jump\t// in\n    tag_41:\n      dup1\n      0x1f\n      add\n      0x20\n      dup1\n      swap2\n      div\n      mul\n      0x20\n      add\n      mload(0x40)\n      swap1\n      dup2\n      add\n      0x40\n      mstore\n      dup1\n      swap3\n      swap2\n      swap1\n      dup2\n      dup2\n      mstore\n      0x20\n      add\n      dup3\n      dup1\n      sload\n      tag_42\n      swap1\n      tag_31\n      jump\t// in\n    tag_42:\n      dup1\n      iszero\n      tag_43\n      jumpi\n      dup1\n      0x1f\n      lt\n      tag_44\n      jumpi\n      0x0100\n      dup1\n      dup4\n      sload\n      div\n      mul\n      dup4\n      mstore\n      swap2\n      0x20\n      add\n      swap2\n      jump(tag_43)\n    tag_44:\n      dup3\n      add\n      swap2\n      swap1\n      0x00\n      mstore\n      keccak256(0x00, 0x20)\n      swap1\n    tag_45:\n      dup2\n      sload\n      dup2\n      mstore\n      swap1\n      0x01\n      add\n      swap1\n      0x20\n      add\n      dup1\n      dup4\n      gt\n      tag_45\n      jumpi\n      dup3\n      swap1\n      sub\n      0x1f\n      and\n      dup3\n      add\n      swap2\n    tag_43:\n      pop\n      pop\n      pop\n      pop\n      pop\n      dup2\n      mstore\n      0x20\n      add\n      0x04\n      dup3\n      add\n      sload\n      dup2\n      mstore\n      0x20\n      add\n      0x05\n      dup3\n      add\n      sload\n      dup2\n      mstore\n      0x20\n      add\n      0x06\n      dup3\n      add\n      sload\n      dup2\n      mstore\n      0x20\n      add\n      0x07\n      dup3\n      add\n      0x00\n      swap1\n      sload\n      swap1\n      0x0100\n      exp\n      swap1\n      div\n      0xff\n      and\n      iszero\n      iszero\n      iszero\n      iszero\n      dup2\n      mstore\n      pop\n      pop\n      swap1\n      pop\n        /* \"contracts/Land.sol\":789:910  function getLandDetails(uint landID) view public returns(LandDetail memory) {... */\n      swap2\n      swap1\n      pop\n      jump\t// out\n    tag_28:\n      mload(0x40)\n      dup1\n      0x0100\n      add\n      0x40\n      mstore\n      dup1\n      0x00\n      dup2\n      mstore\n      0x20\n      add\n      0x60\n      dup2\n      mstore\n      0x20\n      add\n      0x60\n      dup2\n      mstore\n      0x20\n      add\n      0x60\n      dup2\n      mstore\n      0x20\n      add\n      0x00\n      dup2\n      mstore\n      0x20\n      add\n      0x00\n      dup2\n      mstore\n      0x20\n      add\n      0x00\n      dup2\n      mstore\n      0x20\n      add\n      iszero(iszero(0x00))\n      dup2\n      mstore\n      pop\n      swap1\n      jump\t// out\n        /* \"#utility.yul\":7:84   */\n    tag_46:\n        /* \"#utility.yul\":44:51   */\n      0x00\n        /* \"#utility.yul\":73:78   */\n      dup2\n        /* \"#utility.yul\":62:78   */\n      swap1\n      pop\n        /* \"#utility.yul\":7:84   */\n      swap2\n      swap1\n      pop\n      jump\t// out\n        /* \"#utility.yul\":90:208   */\n    tag_47:\n        /* \"#utility.yul\":177:201   */\n      tag_91\n        /* \"#utility.yul\":195:200   */\n      dup2\n        /* \"#utility.yul\":177:201   */\n      tag_46\n      jump\t// in\n    tag_91:\n        /* \"#utility.yul\":172:175   */\n      dup3\n        /* \"#utility.yul\":165:202   */\n      mstore\n        /* \"#utility.yul\":90:208   */\n      pop\n      pop\n      jump\t// out\n        /* \"#utility.yul\":214:436   */\n    tag_9:\n        /* \"#utility.yul\":307:311   */\n      0x00\n        /* \"#utility.yul\":345:347   */\n      0x20\n        /* \"#utility.yul\":334:343   */\n      dup3\n        /* \"#utility.yul\":330:348   */\n      add\n        /* \"#utility.yul\":322:348   */\n      swap1\n      pop\n        /* \"#utility.yul\":358:429   */\n      tag_93\n        /* \"#utility.yul\":426:427   */\n      0x00\n        /* \"#utility.yul\":415:424   */\n      dup4\n        /* \"#utility.yul\":411:428   */\n      add\n        /* \"#utility.yul\":402:408   */\n      dup5\n        /* \"#utility.yul\":358:429   */\n      tag_47\n      jump\t// in\n    tag_93:\n        /* \"#utility.yul\":214:436   */\n      swap3\n      swap2\n      pop\n      pop\n      jump\t// out\n        /* \"#utility.yul\":442:517   */\n    tag_48:\n        /* \"#utility.yul\":475:481   */\n      0x00\n        /* \"#utility.yul\":508:510   */\n      0x40\n        /* \"#utility.yul\":502:511   */\n      mload\n        /* \"#utility.yul\":492:511   */\n      swap1\n      pop\n        /* \"#utility.yul\":442:517   */\n      swap1\n      jump\t// out\n        /* \"#utility.yul\":523:640   */\n    tag_49:\n        /* \"#utility.yul\":632:633   */\n      0x00\n        /* \"#utility.yul\":629:630   */\n      dup1\n        /* \"#utility.yul\":622:634   */\n      revert\n        /* \"#utility.yul\":646:763   */\n    tag_50:\n        /* \"#utility.yul\":755:756   */\n      0x00\n        /* \"#utility.yul\":752:753   */\n      dup1\n        /* \"#utility.yul\":745:757   */\n      revert\n        /* \"#utility.yul\":769:891   */\n    tag_51:\n        /* \"#utility.yul\":842:866   */\n      tag_98\n        /* \"#utility.yul\":860:865   */\n      dup2\n        /* \"#utility.yul\":842:866   */\n      tag_46\n      jump\t// in\n    tag_98:\n        /* \"#utility.yul\":835:840   */\n      dup2\n        /* \"#utility.yul\":832:867   */\n      eq\n        /* \"#utility.yul\":822:885   */\n      tag_99\n      jumpi\n        /* \"#utility.yul\":881:882   */\n      0x00\n        /* \"#utility.yul\":878:879   */\n      dup1\n        /* \"#utility.yul\":871:883   */\n      revert\n        /* \"#utility.yul\":822:885   */\n    tag_99:\n        /* \"#utility.yul\":769:891   */\n      pop\n      jump\t// out\n        /* \"#utility.yul\":897:1036   */\n    tag_52:\n        /* \"#utility.yul\":943:948   */\n      0x00\n        /* \"#utility.yul\":981:987   */\n      dup2\n        /* \"#utility.yul\":968:988   */\n      calldataload\n        /* \"#utility.yul\":959:988   */\n      swap1\n      pop\n        /* \"#utility.yul\":997:1030   */\n      tag_101\n        /* \"#utility.yul\":1024:1029   */\n      dup2\n        /* \"#utility.yul\":997:1030   */\n      tag_51\n      jump\t// in\n    tag_101:\n        /* \"#utility.yul\":897:1036   */\n      swap3\n      swap2\n      pop\n      pop\n      jump\t// out\n        /* \"#utility.yul\":1042:1159   */\n    tag_53:\n        /* \"#utility.yul\":1151:1152   */\n      0x00\n        /* \"#utility.yul\":1148:1149   */\n      dup1\n        /* \"#utility.yul\":1141:1153   */\n      revert\n        /* \"#utility.yul\":1165:1282   */\n    tag_54:\n        /* \"#utility.yul\":1274:1275   */\n      0x00\n        /* \"#utility.yul\":1271:1272   */\n      dup1\n        /* \"#utility.yul\":1264:1276   */\n      revert\n        /* \"#utility.yul\":1288:1390   */\n    tag_55:\n        /* \"#utility.yul\":1329:1335   */\n      0x00\n        /* \"#utility.yul\":1380:1382   */\n      0x1f\n        /* \"#utility.yul\":1376:1383   */\n      not\n        /* \"#utility.yul\":1371:1373   */\n      0x1f\n        /* \"#utility.yul\":1364:1369   */\n      dup4\n        /* \"#utility.yul\":1360:1374   */\n      add\n        /* \"#utility.yul\":1356:1384   */\n      and\n        /* \"#utility.yul\":1346:1384   */\n      swap1\n      pop\n        /* \"#utility.yul\":1288:1390   */\n      swap2\n      swap1\n      pop\n      jump\t// out\n        /* \"#utility.yul\":1396:1576   */\n    tag_56:\n        /* \"#utility.yul\":1444:1521   */\n      0x4e487b7100000000000000000000000000000000000000000000000000000000\n        /* \"#utility.yul\":1441:1442   */\n      0x00\n        /* \"#utility.yul\":1434:1522   */\n      mstore\n        /* \"#utility.yul\":1541:1545   */\n      0x41\n        /* \"#utility.yul\":1538:1539   */\n      0x04\n        /* \"#utility.yul\":1531:1546   */\n      mstore\n        /* \"#utility.yul\":1565:1569   */\n      0x24\n        /* \"#utility.yul\":1562:1563   */\n      0x00\n        /* \"#utility.yul\":1555:1570   */\n      revert\n        /* \"#utility.yul\":1582:1863   */\n    tag_57:\n        /* \"#utility.yul\":1665:1692   */\n      tag_107\n        /* \"#utility.yul\":1687:1691   */\n      dup3\n        /* \"#utility.yul\":1665:1692   */\n      tag_55\n      jump\t// in\n    tag_107:\n        /* \"#utility.yul\":1657:1663   */\n      dup2\n        /* \"#utility.yul\":1653:1693   */\n      add\n        /* \"#utility.yul\":1795:1801   */\n      dup2\n        /* \"#utility.yul\":1783:1793   */\n      dup2\n        /* \"#utility.yul\":1780:1802   */\n      lt\n        /* \"#utility.yul\":1759:1777   */\n      0xffffffffffffffff\n        /* \"#utility.yul\":1747:1757   */\n      dup3\n        /* \"#utility.yul\":1744:1778   */\n      gt\n        /* \"#utility.yul\":1741:1803   */\n      or\n        /* \"#utility.yul\":1738:1826   */\n      iszero\n      tag_108\n      jumpi\n        /* \"#utility.yul\":1806:1824   */\n      tag_109\n      tag_56\n      jump\t// in\n    tag_109:\n        /* \"#utility.yul\":1738:1826   */\n    tag_108:\n        /* \"#utility.yul\":1846:1856   */\n      dup1\n        /* \"#utility.yul\":1842:1844   */\n      0x40\n        /* \"#utility.yul\":1835:1857   */\n      mstore\n        /* \"#utility.yul\":1625:1863   */\n      pop\n        /* \"#utility.yul\":1582:1863   */\n      pop\n      pop\n      jump\t// out\n        /* \"#utility.yul\":1869:1998   */\n    tag_58:\n        /* \"#utility.yul\":1903:1909   */\n      0x00\n        /* \"#utility.yul\":1930:1950   */\n      tag_111\n      tag_48\n      jump\t// in\n    tag_111:\n        /* \"#utility.yul\":1920:1950   */\n      swap1\n      pop\n        /* \"#utility.yul\":1959:1992   */\n      tag_112\n        /* \"#utility.yul\":1987:1991   */\n      dup3\n        /* \"#utility.yul\":1979:1985   */\n      dup3\n        /* \"#utility.yul\":1959:1992   */\n      tag_57\n      jump\t// in\n    tag_112:\n        /* \"#utility.yul\":1869:1998   */\n      swap2\n      swap1\n      pop\n      jump\t// out\n        /* \"#utility.yul\":2004:2312   */\n    tag_59:\n        /* \"#utility.yul\":2066:2070   */\n      0x00\n        /* \"#utility.yul\":2156:2174   */\n      0xffffffffffffffff\n        /* \"#utility.yul\":2148:2154   */\n      dup3\n        /* \"#utility.yul\":2145:2175   */\n      gt\n        /* \"#utility.yul\":2142:2198   */\n      iszero\n      tag_114\n      jumpi\n        /* \"#utility.yul\":2178:2196   */\n      tag_115\n      tag_56\n      jump\t// in\n    tag_115:\n        /* \"#utility.yul\":2142:2198   */\n    tag_114:\n        /* \"#utility.yul\":2216:2245   */\n      tag_116\n        /* \"#utility.yul\":2238:2244   */\n      dup3\n        /* \"#utility.yul\":2216:2245   */\n      tag_55\n      jump\t// in\n    tag_116:\n        /* \"#utility.yul\":2208:2245   */\n      swap1\n      pop\n        /* \"#utility.yul\":2300:2304   */\n      0x20\n        /* \"#utility.yul\":2294:2298   */\n      dup2\n        /* \"#utility.yul\":2290:2305   */\n      add\n        /* \"#utility.yul\":2282:2305   */\n      swap1\n      pop\n        /* \"#utility.yul\":2004:2312   */\n      swap2\n      swap1\n      pop\n      jump\t// out\n        /* \"#utility.yul\":2318:2464   */\n    tag_60:\n        /* \"#utility.yul\":2415:2421   */\n      dup3\n        /* \"#utility.yul\":2410:2413   */\n      dup2\n        /* \"#utility.yul\":2405:2408   */\n      dup4\n        /* \"#utility.yul\":2392:2422   */\n      calldatacopy\n        /* \"#utility.yul\":2456:2457   */\n      0x00\n        /* \"#utility.yul\":2447:2453   */\n      dup4\n        /* \"#utility.yul\":2442:2445   */\n      dup4\n        /* \"#utility.yul\":2438:2454   */\n      add\n        /* \"#utility.yul\":2431:2458   */\n      mstore\n        /* \"#utility.yul\":2318:2464   */\n      pop\n      pop\n      pop\n      jump\t// out\n        /* \"#utility.yul\":2470:2895   */\n    tag_61:\n        /* \"#utility.yul\":2548:2553   */\n      0x00\n        /* \"#utility.yul\":2573:2639   */\n      tag_119\n        /* \"#utility.yul\":2589:2638   */\n      tag_120\n        /* \"#utility.yul\":2631:2637   */\n      dup5\n        /* \"#utility.yul\":2589:2638   */\n      tag_59\n      jump\t// in\n    tag_120:\n        /* \"#utility.yul\":2573:2639   */\n      tag_58\n      jump\t// in\n    tag_119:\n        /* \"#utility.yul\":2564:2639   */\n      swap1\n      pop\n        /* \"#utility.yul\":2662:2668   */\n      dup3\n        /* \"#utility.yul\":2655:2660   */\n      dup2\n        /* \"#utility.yul\":2648:2669   */\n      mstore\n        /* \"#utility.yul\":2700:2704   */\n      0x20\n        /* \"#utility.yul\":2693:2698   */\n      dup2\n        /* \"#utility.yul\":2689:2705   */\n      add\n        /* \"#utility.yul\":2738:2741   */\n      dup5\n        /* \"#utility.yul\":2729:2735   */\n      dup5\n        /* \"#utility.yul\":2724:2727   */\n      dup5\n        /* \"#utility.yul\":2720:2736   */\n      add\n        /* \"#utility.yul\":2717:2742   */\n      gt\n        /* \"#utility.yul\":2714:2826   */\n      iszero\n      tag_121\n      jumpi\n        /* \"#utility.yul\":2745:2824   */\n      tag_122\n      tag_54\n      jump\t// in\n    tag_122:\n        /* \"#utility.yul\":2714:2826   */\n    tag_121:\n        /* \"#utility.yul\":2835:2889   */\n      tag_123\n        /* \"#utility.yul\":2882:2888   */\n      dup5\n        /* \"#utility.yul\":2877:2880   */\n      dup3\n        /* \"#utility.yul\":2872:2875   */\n      dup6\n        /* \"#utility.yul\":2835:2889   */\n      tag_60\n      jump\t// in\n    tag_123:\n        /* \"#utility.yul\":2554:2895   */\n      pop\n        /* \"#utility.yul\":2470:2895   */\n      swap4\n      swap3\n      pop\n      pop\n      pop\n      jump\t// out\n        /* \"#utility.yul\":2915:3255   */\n    tag_62:\n        /* \"#utility.yul\":2971:2976   */\n      0x00\n        /* \"#utility.yul\":3020:3023   */\n      dup3\n        /* \"#utility.yul\":3013:3017   */\n      0x1f\n        /* \"#utility.yul\":3005:3011   */\n      dup4\n        /* \"#utility.yul\":3001:3018   */\n      add\n        /* \"#utility.yul\":2997:3024   */\n      slt\n        /* \"#utility.yul\":2987:3109   */\n      tag_125\n      jumpi\n        /* \"#utility.yul\":3028:3107   */\n      tag_126\n      tag_53\n      jump\t// in\n    tag_126:\n        /* \"#utility.yul\":2987:3109   */\n    tag_125:\n        /* \"#utility.yul\":3145:3151   */\n      dup2\n        /* \"#utility.yul\":3132:3152   */\n      calldataload\n        /* \"#utility.yul\":3170:3249   */\n      tag_127\n        /* \"#utility.yul\":3245:3248   */\n      dup5\n        /* \"#utility.yul\":3237:3243   */\n      dup3\n        /* \"#utility.yul\":3230:3234   */\n      0x20\n        /* \"#utility.yul\":3222:3228   */\n      dup7\n        /* \"#utility.yul\":3218:3235   */\n      add\n        /* \"#utility.yul\":3170:3249   */\n      tag_61\n      jump\t// in\n    tag_127:\n        /* \"#utility.yul\":3161:3249   */\n      swap2\n      pop\n        /* \"#utility.yul\":2977:3255   */\n      pop\n        /* \"#utility.yul\":2915:3255   */\n      swap3\n      swap2\n      pop\n      pop\n      jump\t// out\n        /* \"#utility.yul\":3261:5004   */\n    tag_12:\n        /* \"#utility.yul\":3404:3410   */\n      0x00\n        /* \"#utility.yul\":3412:3418   */\n      dup1\n        /* \"#utility.yul\":3420:3426   */\n      0x00\n        /* \"#utility.yul\":3428:3434   */\n      dup1\n        /* \"#utility.yul\":3436:3442   */\n      0x00\n        /* \"#utility.yul\":3444:3450   */\n      dup1\n        /* \"#utility.yul\":3452:3458   */\n      0x00\n        /* \"#utility.yul\":3501:3504   */\n      0xe0\n        /* \"#utility.yul\":3489:3498   */\n      dup9\n        /* \"#utility.yul\":3480:3487   */\n      dup11\n        /* \"#utility.yul\":3476:3499   */\n      sub\n        /* \"#utility.yul\":3472:3505   */\n      slt\n        /* \"#utility.yul\":3469:3589   */\n      iszero\n      tag_129\n      jumpi\n        /* \"#utility.yul\":3508:3587   */\n      tag_130\n      tag_49\n      jump\t// in\n    tag_130:\n        /* \"#utility.yul\":3469:3589   */\n    tag_129:\n        /* \"#utility.yul\":3628:3629   */\n      0x00\n        /* \"#utility.yul\":3653:3706   */\n      tag_131\n        /* \"#utility.yul\":3698:3705   */\n      dup11\n        /* \"#utility.yul\":3689:3695   */\n      dup3\n        /* \"#utility.yul\":3678:3687   */\n      dup12\n        /* \"#utility.yul\":3674:3696   */\n      add\n        /* \"#utility.yul\":3653:3706   */\n      tag_52\n      jump\t// in\n    tag_131:\n        /* \"#utility.yul\":3643:3706   */\n      swap8\n      pop\n        /* \"#utility.yul\":3599:3716   */\n      pop\n        /* \"#utility.yul\":3783:3785   */\n      0x20\n        /* \"#utility.yul\":3772:3781   */\n      dup9\n        /* \"#utility.yul\":3768:3786   */\n      add\n        /* \"#utility.yul\":3755:3787   */\n      calldataload\n        /* \"#utility.yul\":3814:3832   */\n      0xffffffffffffffff\n        /* \"#utility.yul\":3806:3812   */\n      dup2\n        /* \"#utility.yul\":3803:3833   */\n      gt\n        /* \"#utility.yul\":3800:3917   */\n      iszero\n      tag_132\n      jumpi\n        /* \"#utility.yul\":3836:3915   */\n      tag_133\n      tag_50\n      jump\t// in\n    tag_133:\n        /* \"#utility.yul\":3800:3917   */\n    tag_132:\n        /* \"#utility.yul\":3941:4004   */\n      tag_134\n        /* \"#utility.yul\":3996:4003   */\n      dup11\n        /* \"#utility.yul\":3987:3993   */\n      dup3\n        /* \"#utility.yul\":3976:3985   */\n      dup12\n        /* \"#utility.yul\":3972:3994   */\n      add\n        /* \"#utility.yul\":3941:4004   */\n      tag_62\n      jump\t// in\n    tag_134:\n        /* \"#utility.yul\":3931:4004   */\n      swap7\n      pop\n        /* \"#utility.yul\":3726:4014   */\n      pop\n        /* \"#utility.yul\":4081:4083   */\n      0x40\n        /* \"#utility.yul\":4070:4079   */\n      dup9\n        /* \"#utility.yul\":4066:4084   */\n      add\n        /* \"#utility.yul\":4053:4085   */\n      calldataload\n        /* \"#utility.yul\":4112:4130   */\n      0xffffffffffffffff\n        /* \"#utility.yul\":4104:4110   */\n      dup2\n        /* \"#utility.yul\":4101:4131   */\n      gt\n        /* \"#utility.yul\":4098:4215   */\n      iszero\n      tag_135\n      jumpi\n        /* \"#utility.yul\":4134:4213   */\n      tag_136\n      tag_50\n      jump\t// in\n    tag_136:\n        /* \"#utility.yul\":4098:4215   */\n    tag_135:\n        /* \"#utility.yul\":4239:4302   */\n      tag_137\n        /* \"#utility.yul\":4294:4301   */\n      dup11\n        /* \"#utility.yul\":4285:4291   */\n      dup3\n        /* \"#utility.yul\":4274:4283   */\n      dup12\n        /* \"#utility.yul\":4270:4292   */\n      add\n        /* \"#utility.yul\":4239:4302   */\n      tag_62\n      jump\t// in\n    tag_137:\n        /* \"#utility.yul\":4229:4302   */\n      swap6\n      pop\n        /* \"#utility.yul\":4024:4312   */\n      pop\n        /* \"#utility.yul\":4379:4381   */\n      0x60\n        /* \"#utility.yul\":4368:4377   */\n      dup9\n        /* \"#utility.yul\":4364:4382   */\n      add\n        /* \"#utility.yul\":4351:4383   */\n      calldataload\n        /* \"#utility.yul\":4410:4428   */\n      0xffffffffffffffff\n        /* \"#utility.yul\":4402:4408   */\n      dup2\n        /* \"#utility.yul\":4399:4429   */\n      gt\n        /* \"#utility.yul\":4396:4513   */\n      iszero\n      tag_138\n      jumpi\n        /* \"#utility.yul\":4432:4511   */\n      tag_139\n      tag_50\n      jump\t// in\n    tag_139:\n        /* \"#utility.yul\":4396:4513   */\n    tag_138:\n        /* \"#utility.yul\":4537:4600   */\n      tag_140\n        /* \"#utility.yul\":4592:4599   */\n      dup11\n        /* \"#utility.yul\":4583:4589   */\n      dup3\n        /* \"#utility.yul\":4572:4581   */\n      dup12\n        /* \"#utility.yul\":4568:4590   */\n      add\n        /* \"#utility.yul\":4537:4600   */\n      tag_62\n      jump\t// in\n    tag_140:\n        /* \"#utility.yul\":4527:4600   */\n      swap5\n      pop\n        /* \"#utility.yul\":4322:4610   */\n      pop\n        /* \"#utility.yul\":4649:4652   */\n      0x80\n        /* \"#utility.yul\":4676:4729   */\n      tag_141\n        /* \"#utility.yul\":4721:4728   */\n      dup11\n        /* \"#utility.yul\":4712:4718   */\n      dup3\n        /* \"#utility.yul\":4701:4710   */\n      dup12\n        /* \"#utility.yul\":4697:4719   */\n      add\n        /* \"#utility.yul\":4676:4729   */\n      tag_52\n      jump\t// in\n    tag_141:\n        /* \"#utility.yul\":4666:4729   */\n      swap4\n      pop\n        /* \"#utility.yul\":4620:4739   */\n      pop\n        /* \"#utility.yul\":4778:4781   */\n      0xa0\n        /* \"#utility.yul\":4805:4858   */\n      tag_142\n        /* \"#utility.yul\":4850:4857   */\n      dup11\n        /* \"#utility.yul\":4841:4847   */\n      dup3\n        /* \"#utility.yul\":4830:4839   */\n      dup12\n        /* \"#utility.yul\":4826:4848   */\n      add\n        /* \"#utility.yul\":4805:4858   */\n      tag_52\n      jump\t// in\n    tag_142:\n        /* \"#utility.yul\":4795:4858   */\n      swap3\n      pop\n        /* \"#utility.yul\":4749:4868   */\n      pop\n        /* \"#utility.yul\":4907:4910   */\n      0xc0\n        /* \"#utility.yul\":4934:4987   */\n      tag_143\n        /* \"#utility.yul\":4979:4986   */\n      dup11\n        /* \"#utility.yul\":4970:4976   */\n      dup3\n        /* \"#utility.yul\":4959:4968   */\n      dup12\n        /* \"#utility.yul\":4955:4977   */\n      add\n        /* \"#utility.yul\":4934:4987   */\n      tag_52\n      jump\t// in\n    tag_143:\n        /* \"#utility.yul\":4924:4987   */\n      swap2\n      pop\n        /* \"#utility.yul\":4878:4997   */\n      pop\n        /* \"#utility.yul\":3261:5004   */\n      swap3\n      swap6\n      swap9\n      swap2\n      swap5\n      swap8\n      pop\n      swap3\n      swap6\n      pop\n      jump\t// out\n        /* \"#utility.yul\":5010:5339   */\n    tag_16:\n        /* \"#utility.yul\":5069:5075   */\n      0x00\n        /* \"#utility.yul\":5118:5120   */\n      0x20\n        /* \"#utility.yul\":5106:5115   */\n      dup3\n        /* \"#utility.yul\":5097:5104   */\n      dup5\n        /* \"#utility.yul\":5093:5116   */\n      sub\n        /* \"#utility.yul\":5089:5121   */\n      slt\n        /* \"#utility.yul\":5086:5205   */\n      iszero\n      tag_145\n      jumpi\n        /* \"#utility.yul\":5124:5203   */\n      tag_146\n      tag_49\n      jump\t// in\n    tag_146:\n        /* \"#utility.yul\":5086:5205   */\n    tag_145:\n        /* \"#utility.yul\":5244:5245   */\n      0x00\n        /* \"#utility.yul\":5269:5322   */\n      tag_147\n        /* \"#utility.yul\":5314:5321   */\n      dup5\n        /* \"#utility.yul\":5305:5311   */\n      dup3\n        /* \"#utility.yul\":5294:5303   */\n      dup6\n        /* \"#utility.yul\":5290:5312   */\n      add\n        /* \"#utility.yul\":5269:5322   */\n      tag_52\n      jump\t// in\n    tag_147:\n        /* \"#utility.yul\":5259:5322   */\n      swap2\n      pop\n        /* \"#utility.yul\":5215:5332   */\n      pop\n        /* \"#utility.yul\":5010:5339   */\n      swap3\n      swap2\n      pop\n      pop\n      jump\t// out\n        /* \"#utility.yul\":5345:5453   */\n    tag_63:\n        /* \"#utility.yul\":5422:5446   */\n      tag_149\n        /* \"#utility.yul\":5440:5445   */\n      dup2\n        /* \"#utility.yul\":5422:5446   */\n      tag_46\n      jump\t// in\n    tag_149:\n        /* \"#utility.yul\":5417:5420   */\n      dup3\n        /* \"#utility.yul\":5410:5447   */\n      mstore\n        /* \"#utility.yul\":5345:5453   */\n      pop\n      pop\n      jump\t// out\n        /* \"#utility.yul\":5459:5558   */\n    tag_64:\n        /* \"#utility.yul\":5511:5517   */\n      0x00\n        /* \"#utility.yul\":5545:5550   */\n      dup2\n        /* \"#utility.yul\":5539:5551   */\n      mload\n        /* \"#utility.yul\":5529:5551   */\n      swap1\n      pop\n        /* \"#utility.yul\":5459:5558   */\n      swap2\n      swap1\n      pop\n      jump\t// out\n        /* \"#utility.yul\":5564:5723   */\n    tag_65:\n        /* \"#utility.yul\":5638:5649   */\n      0x00\n        /* \"#utility.yul\":5672:5678   */\n      dup3\n        /* \"#utility.yul\":5667:5670   */\n      dup3\n        /* \"#utility.yul\":5660:5679   */\n      mstore\n        /* \"#utility.yul\":5712:5716   */\n      0x20\n        /* \"#utility.yul\":5707:5710   */\n      dup3\n        /* \"#utility.yul\":5703:5717   */\n      add\n        /* \"#utility.yul\":5688:5717   */\n      swap1\n      pop\n        /* \"#utility.yul\":5564:5723   */\n      swap3\n      swap2\n      pop\n      pop\n      jump\t// out\n        /* \"#utility.yul\":5729:5975   */\n    tag_66:\n        /* \"#utility.yul\":5810:5811   */\n      0x00\n        /* \"#utility.yul\":5820:5933   */\n    tag_153:\n        /* \"#utility.yul\":5834:5840   */\n      dup4\n        /* \"#utility.yul\":5831:5832   */\n      dup2\n        /* \"#utility.yul\":5828:5841   */\n      lt\n        /* \"#utility.yul\":5820:5933   */\n      iszero\n      tag_155\n      jumpi\n        /* \"#utility.yul\":5919:5920   */\n      dup1\n        /* \"#utility.yul\":5914:5917   */\n      dup3\n        /* \"#utility.yul\":5910:5921   */\n      add\n        /* \"#utility.yul\":5904:5922   */\n      mload\n        /* \"#utility.yul\":5900:5901   */\n      dup2\n        /* \"#utility.yul\":5895:5898   */\n      dup5\n        /* \"#utility.yul\":5891:5902   */\n      add\n        /* \"#utility.yul\":5884:5923   */\n      mstore\n        /* \"#utility.yul\":5856:5858   */\n      0x20\n        /* \"#utility.yul\":5853:5854   */\n      dup2\n        /* \"#utility.yul\":5849:5859   */\n      add\n        /* \"#utility.yul\":5844:5859   */\n      swap1\n      pop\n        /* \"#utility.yul\":5820:5933   */\n      jump(tag_153)\n    tag_155:\n        /* \"#utility.yul\":5967:5968   */\n      0x00\n        /* \"#utility.yul\":5958:5964   */\n      dup5\n        /* \"#utility.yul\":5953:5956   */\n      dup5\n        /* \"#utility.yul\":5949:5965   */\n      add\n        /* \"#utility.yul\":5942:5969   */\n      mstore\n        /* \"#utility.yul\":5791:5975   */\n      pop\n        /* \"#utility.yul\":5729:5975   */\n      pop\n      pop\n      pop\n      jump\t// out\n        /* \"#utility.yul\":5981:6338   */\n    tag_67:\n        /* \"#utility.yul\":6059:6062   */\n      0x00\n        /* \"#utility.yul\":6087:6126   */\n      tag_157\n        /* \"#utility.yul\":6120:6125   */\n      dup3\n        /* \"#utility.yul\":6087:6126   */\n      tag_64\n      jump\t// in\n    tag_157:\n        /* \"#utility.yul\":6142:6203   */\n      tag_158\n        /* \"#utility.yul\":6196:6202   */\n      dup2\n        /* \"#utility.yul\":6191:6194   */\n      dup6\n        /* \"#utility.yul\":6142:6203   */\n      tag_65\n      jump\t// in\n    tag_158:\n        /* \"#utility.yul\":6135:6203   */\n      swap4\n      pop\n        /* \"#utility.yul\":6212:6277   */\n      tag_159\n        /* \"#utility.yul\":6270:6276   */\n      dup2\n        /* \"#utility.yul\":6265:6268   */\n      dup6\n        /* \"#utility.yul\":6258:6262   */\n      0x20\n        /* \"#utility.yul\":6251:6256   */\n      dup7\n        /* \"#utility.yul\":6247:6263   */\n      add\n        /* \"#utility.yul\":6212:6277   */\n      tag_66\n      jump\t// in\n    tag_159:\n        /* \"#utility.yul\":6302:6331   */\n      tag_160\n        /* \"#utility.yul\":6324:6330   */\n      dup2\n        /* \"#utility.yul\":6302:6331   */\n      tag_55\n      jump\t// in\n    tag_160:\n        /* \"#utility.yul\":6297:6300   */\n      dup5\n        /* \"#utility.yul\":6293:6332   */\n      add\n        /* \"#utility.yul\":6286:6332   */\n      swap2\n      pop\n        /* \"#utility.yul\":6063:6338   */\n      pop\n        /* \"#utility.yul\":5981:6338   */\n      swap3\n      swap2\n      pop\n      pop\n      jump\t// out\n        /* \"#utility.yul\":6344:6434   */\n    tag_68:\n        /* \"#utility.yul\":6378:6385   */\n      0x00\n        /* \"#utility.yul\":6421:6426   */\n      dup2\n        /* \"#utility.yul\":6414:6427   */\n      iszero\n        /* \"#utility.yul\":6407:6428   */\n      iszero\n        /* \"#utility.yul\":6396:6428   */\n      swap1\n      pop\n        /* \"#utility.yul\":6344:6434   */\n      swap2\n      swap1\n      pop\n      jump\t// out\n        /* \"#utility.yul\":6440:6539   */\n    tag_69:\n        /* \"#utility.yul\":6511:6532   */\n      tag_163\n        /* \"#utility.yul\":6526:6531   */\n      dup2\n        /* \"#utility.yul\":6511:6532   */\n      tag_68\n      jump\t// in\n    tag_163:\n        /* \"#utility.yul\":6506:6509   */\n      dup3\n        /* \"#utility.yul\":6499:6533   */\n      mstore\n        /* \"#utility.yul\":6440:6539   */\n      pop\n      pop\n      jump\t// out\n        /* \"#utility.yul\":6625:8442   */\n    tag_70:\n        /* \"#utility.yul\":6746:6749   */\n      0x00\n        /* \"#utility.yul\":6782:6788   */\n      0x0100\n        /* \"#utility.yul\":6777:6780   */\n      dup4\n        /* \"#utility.yul\":6773:6789   */\n      add\n        /* \"#utility.yul\":6875:6879   */\n      0x00\n        /* \"#utility.yul\":6868:6873   */\n      dup4\n        /* \"#utility.yul\":6864:6880   */\n      add\n        /* \"#utility.yul\":6858:6881   */\n      mload\n        /* \"#utility.yul\":6894:6957   */\n      tag_165\n        /* \"#utility.yul\":6951:6955   */\n      0x00\n        /* \"#utility.yul\":6946:6949   */\n      dup7\n        /* \"#utility.yul\":6942:6956   */\n      add\n        /* \"#utility.yul\":6928:6940   */\n      dup3\n        /* \"#utility.yul\":6894:6957   */\n      tag_63\n      jump\t// in\n    tag_165:\n        /* \"#utility.yul\":6799:6967   */\n      pop\n        /* \"#utility.yul\":7053:7057   */\n      0x20\n        /* \"#utility.yul\":7046:7051   */\n      dup4\n        /* \"#utility.yul\":7042:7058   */\n      add\n        /* \"#utility.yul\":7036:7059   */\n      mload\n        /* \"#utility.yul\":7106:7109   */\n      dup5\n        /* \"#utility.yul\":7100:7104   */\n      dup3\n        /* \"#utility.yul\":7096:7110   */\n      sub\n        /* \"#utility.yul\":7089:7093   */\n      0x20\n        /* \"#utility.yul\":7084:7087   */\n      dup7\n        /* \"#utility.yul\":7080:7094   */\n      add\n        /* \"#utility.yul\":7073:7111   */\n      mstore\n        /* \"#utility.yul\":7132:7205   */\n      tag_166\n        /* \"#utility.yul\":7200:7204   */\n      dup3\n        /* \"#utility.yul\":7186:7198   */\n      dup3\n        /* \"#utility.yul\":7132:7205   */\n      tag_67\n      jump\t// in\n    tag_166:\n        /* \"#utility.yul\":7124:7205   */\n      swap2\n      pop\n        /* \"#utility.yul\":6977:7216   */\n      pop\n        /* \"#utility.yul\":7299:7303   */\n      0x40\n        /* \"#utility.yul\":7292:7297   */\n      dup4\n        /* \"#utility.yul\":7288:7304   */\n      add\n        /* \"#utility.yul\":7282:7305   */\n      mload\n        /* \"#utility.yul\":7352:7355   */\n      dup5\n        /* \"#utility.yul\":7346:7350   */\n      dup3\n        /* \"#utility.yul\":7342:7356   */\n      sub\n        /* \"#utility.yul\":7335:7339   */\n      0x40\n        /* \"#utility.yul\":7330:7333   */\n      dup7\n        /* \"#utility.yul\":7326:7340   */\n      add\n        /* \"#utility.yul\":7319:7357   */\n      mstore\n        /* \"#utility.yul\":7378:7451   */\n      tag_167\n        /* \"#utility.yul\":7446:7450   */\n      dup3\n        /* \"#utility.yul\":7432:7444   */\n      dup3\n        /* \"#utility.yul\":7378:7451   */\n      tag_67\n      jump\t// in\n    tag_167:\n        /* \"#utility.yul\":7370:7451   */\n      swap2\n      pop\n        /* \"#utility.yul\":7226:7462   */\n      pop\n        /* \"#utility.yul\":7547:7551   */\n      0x60\n        /* \"#utility.yul\":7540:7545   */\n      dup4\n        /* \"#utility.yul\":7536:7552   */\n      add\n        /* \"#utility.yul\":7530:7553   */\n      mload\n        /* \"#utility.yul\":7600:7603   */\n      dup5\n        /* \"#utility.yul\":7594:7598   */\n      dup3\n        /* \"#utility.yul\":7590:7604   */\n      sub\n        /* \"#utility.yul\":7583:7587   */\n      0x60\n        /* \"#utility.yul\":7578:7581   */\n      dup7\n        /* \"#utility.yul\":7574:7588   */\n      add\n        /* \"#utility.yul\":7567:7605   */\n      mstore\n        /* \"#utility.yul\":7626:7699   */\n      tag_168\n        /* \"#utility.yul\":7694:7698   */\n      dup3\n        /* \"#utility.yul\":7680:7692   */\n      dup3\n        /* \"#utility.yul\":7626:7699   */\n      tag_67\n      jump\t// in\n    tag_168:\n        /* \"#utility.yul\":7618:7699   */\n      swap2\n      pop\n        /* \"#utility.yul\":7472:7710   */\n      pop\n        /* \"#utility.yul\":7795:7799   */\n      0x80\n        /* \"#utility.yul\":7788:7793   */\n      dup4\n        /* \"#utility.yul\":7784:7800   */\n      add\n        /* \"#utility.yul\":7778:7801   */\n      mload\n        /* \"#utility.yul\":7814:7877   */\n      tag_169\n        /* \"#utility.yul\":7871:7875   */\n      0x80\n        /* \"#utility.yul\":7866:7869   */\n      dup7\n        /* \"#utility.yul\":7862:7876   */\n      add\n        /* \"#utility.yul\":7848:7860   */\n      dup3\n        /* \"#utility.yul\":7814:7877   */\n      tag_63\n      jump\t// in\n    tag_169:\n        /* \"#utility.yul\":7720:7887   */\n      pop\n        /* \"#utility.yul\":7974:7978   */\n      0xa0\n        /* \"#utility.yul\":7967:7972   */\n      dup4\n        /* \"#utility.yul\":7963:7979   */\n      add\n        /* \"#utility.yul\":7957:7980   */\n      mload\n        /* \"#utility.yul\":7993:8056   */\n      tag_170\n        /* \"#utility.yul\":8050:8054   */\n      0xa0\n        /* \"#utility.yul\":8045:8048   */\n      dup7\n        /* \"#utility.yul\":8041:8055   */\n      add\n        /* \"#utility.yul\":8027:8039   */\n      dup3\n        /* \"#utility.yul\":7993:8056   */\n      tag_63\n      jump\t// in\n    tag_170:\n        /* \"#utility.yul\":7897:8066   */\n      pop\n        /* \"#utility.yul\":8148:8152   */\n      0xc0\n        /* \"#utility.yul\":8141:8146   */\n      dup4\n        /* \"#utility.yul\":8137:8153   */\n      add\n        /* \"#utility.yul\":8131:8154   */\n      mload\n        /* \"#utility.yul\":8167:8230   */\n      tag_171\n        /* \"#utility.yul\":8224:8228   */\n      0xc0\n        /* \"#utility.yul\":8219:8222   */\n      dup7\n        /* \"#utility.yul\":8215:8229   */\n      add\n        /* \"#utility.yul\":8201:8213   */\n      dup3\n        /* \"#utility.yul\":8167:8230   */\n      tag_63\n      jump\t// in\n    tag_171:\n        /* \"#utility.yul\":8076:8240   */\n      pop\n        /* \"#utility.yul\":8329:8333   */\n      0xe0\n        /* \"#utility.yul\":8322:8327   */\n      dup4\n        /* \"#utility.yul\":8318:8334   */\n      add\n        /* \"#utility.yul\":8312:8335   */\n      mload\n        /* \"#utility.yul\":8348:8405   */\n      tag_172\n        /* \"#utility.yul\":8399:8403   */\n      0xe0\n        /* \"#utility.yul\":8394:8397   */\n      dup7\n        /* \"#utility.yul\":8390:8404   */\n      add\n        /* \"#utility.yul\":8376:8388   */\n      dup3\n        /* \"#utility.yul\":8348:8405   */\n      tag_69\n      jump\t// in\n    tag_172:\n        /* \"#utility.yul\":8250:8415   */\n      pop\n        /* \"#utility.yul\":8432:8436   */\n      dup1\n        /* \"#utility.yul\":8425:8436   */\n      swap2\n      pop\n        /* \"#utility.yul\":6751:8442   */\n      pop\n        /* \"#utility.yul\":6625:8442   */\n      swap3\n      swap2\n      pop\n      pop\n      jump\t// out\n        /* \"#utility.yul\":8448:8825   */\n    tag_19:\n        /* \"#utility.yul\":8593:8597   */\n      0x00\n        /* \"#utility.yul\":8631:8633   */\n      0x20\n        /* \"#utility.yul\":8620:8629   */\n      dup3\n        /* \"#utility.yul\":8616:8634   */\n      add\n        /* \"#utility.yul\":8608:8634   */\n      swap1\n      pop\n        /* \"#utility.yul\":8680:8689   */\n      dup2\n        /* \"#utility.yul\":8674:8678   */\n      dup2\n        /* \"#utility.yul\":8670:8690   */\n      sub\n        /* \"#utility.yul\":8666:8667   */\n      0x00\n        /* \"#utility.yul\":8655:8664   */\n      dup4\n        /* \"#utility.yul\":8651:8668   */\n      add\n        /* \"#utility.yul\":8644:8691   */\n      mstore\n        /* \"#utility.yul\":8708:8818   */\n      tag_174\n        /* \"#utility.yul\":8813:8817   */\n      dup2\n        /* \"#utility.yul\":8804:8810   */\n      dup5\n        /* \"#utility.yul\":8708:8818   */\n      tag_70\n      jump\t// in\n    tag_174:\n        /* \"#utility.yul\":8700:8818   */\n      swap1\n      pop\n        /* \"#utility.yul\":8448:8825   */\n      swap3\n      swap2\n      pop\n      pop\n      jump\t// out\n        /* \"#utility.yul\":8831:9011   */\n    tag_71:\n        /* \"#utility.yul\":8879:8956   */\n      0x4e487b7100000000000000000000000000000000000000000000000000000000\n        /* \"#utility.yul\":8876:8877   */\n      0x00\n        /* \"#utility.yul\":8869:8957   */\n      mstore\n        /* \"#utility.yul\":8976:8980   */\n      0x22\n        /* \"#utility.yul\":8973:8974   */\n      0x04\n        /* \"#utility.yul\":8966:8981   */\n      mstore\n        /* \"#utility.yul\":9000:9004   */\n      0x24\n        /* \"#utility.yul\":8997:8998   */\n      0x00\n        /* \"#utility.yul\":8990:9005   */\n      revert\n        /* \"#utility.yul\":9017:9337   */\n    tag_31:\n        /* \"#utility.yul\":9061:9067   */\n      0x00\n        /* \"#utility.yul\":9098:9099   */\n      0x02\n        /* \"#utility.yul\":9092:9096   */\n      dup3\n        /* \"#utility.yul\":9088:9100   */\n      div\n        /* \"#utility.yul\":9078:9100   */\n      swap1\n      pop\n        /* \"#utility.yul\":9145:9146   */\n      0x01\n        /* \"#utility.yul\":9139:9143   */\n      dup3\n        /* \"#utility.yul\":9135:9147   */\n      and\n        /* \"#utility.yul\":9166:9184   */\n      dup1\n        /* \"#utility.yul\":9156:9237   */\n      tag_177\n      jumpi\n        /* \"#utility.yul\":9222:9226   */\n      0x7f\n        /* \"#utility.yul\":9214:9220   */\n      dup3\n        /* \"#utility.yul\":9210:9227   */\n      and\n        /* \"#utility.yul\":9200:9227   */\n      swap2\n      pop\n        /* \"#utility.yul\":9156:9237   */\n    tag_177:\n        /* \"#utility.yul\":9284:9286   */\n      0x20\n        /* \"#utility.yul\":9276:9282   */\n      dup3\n        /* \"#utility.yul\":9273:9287   */\n      lt\n        /* \"#utility.yul\":9253:9271   */\n      dup2\n        /* \"#utility.yul\":9250:9288   */\n      sub\n        /* \"#utility.yul\":9247:9331   */\n      tag_178\n      jumpi\n        /* \"#utility.yul\":9303:9321   */\n      tag_179\n      tag_71\n      jump\t// in\n    tag_179:\n        /* \"#utility.yul\":9247:9331   */\n    tag_178:\n        /* \"#utility.yul\":9068:9337   */\n      pop\n        /* \"#utility.yul\":9017:9337   */\n      swap2\n      swap1\n      pop\n      jump\t// out\n        /* \"#utility.yul\":9343:9484   */\n    tag_72:\n        /* \"#utility.yul\":9392:9396   */\n      0x00\n        /* \"#utility.yul\":9415:9418   */\n      dup2\n        /* \"#utility.yul\":9407:9418   */\n      swap1\n      pop\n        /* \"#utility.yul\":9438:9441   */\n      dup2\n        /* \"#utility.yul\":9435:9436   */\n      0x00\n        /* \"#utility.yul\":9428:9442   */\n      mstore\n        /* \"#utility.yul\":9472:9476   */\n      0x20\n        /* \"#utility.yul\":9469:9470   */\n      0x00\n        /* \"#utility.yul\":9459:9477   */\n      keccak256\n        /* \"#utility.yul\":9451:9477   */\n      swap1\n      pop\n        /* \"#utility.yul\":9343:9484   */\n      swap2\n      swap1\n      pop\n      jump\t// out\n        /* \"#utility.yul\":9490:9583   */\n    tag_73:\n        /* \"#utility.yul\":9527:9533   */\n      0x00\n        /* \"#utility.yul\":9574:9576   */\n      0x20\n        /* \"#utility.yul\":9569:9571   */\n      0x1f\n        /* \"#utility.yul\":9562:9567   */\n      dup4\n        /* \"#utility.yul\":9558:9572   */\n      add\n        /* \"#utility.yul\":9554:9577   */\n      div\n        /* \"#utility.yul\":9544:9577   */\n      swap1\n      pop\n        /* \"#utility.yul\":9490:9583   */\n      swap2\n      swap1\n      pop\n      jump\t// out\n        /* \"#utility.yul\":9589:9696   */\n    tag_74:\n        /* \"#utility.yul\":9633:9641   */\n      0x00\n        /* \"#utility.yul\":9683:9688   */\n      dup3\n        /* \"#utility.yul\":9677:9681   */\n      dup3\n        /* \"#utility.yul\":9673:9689   */\n      shl\n        /* \"#utility.yul\":9652:9689   */\n      swap1\n      pop\n        /* \"#utility.yul\":9589:9696   */\n      swap3\n      swap2\n      pop\n      pop\n      jump\t// out\n        /* \"#utility.yul\":9702:10095   */\n    tag_75:\n        /* \"#utility.yul\":9771:9777   */\n      0x00\n        /* \"#utility.yul\":9821:9822   */\n      0x08\n        /* \"#utility.yul\":9809:9819   */\n      dup4\n        /* \"#utility.yul\":9805:9823   */\n      mul\n        /* \"#utility.yul\":9844:9941   */\n      tag_184\n        /* \"#utility.yul\":9874:9940   */\n      0xffffffffffffffffffffffffffffffffffffffffffffffffffffffffffffffff\n        /* \"#utility.yul\":9863:9872   */\n      dup3\n        /* \"#utility.yul\":9844:9941   */\n      tag_74\n      jump\t// in\n    tag_184:\n        /* \"#utility.yul\":9962:10001   */\n      tag_185\n        /* \"#utility.yul\":9992:10000   */\n      dup7\n        /* \"#utility.yul\":9981:9990   */\n      dup4\n        /* \"#utility.yul\":9962:10001   */\n      tag_74\n      jump\t// in\n    tag_185:\n        /* \"#utility.yul\":9950:10001   */\n      swap6\n      pop\n        /* \"#utility.yul\":10034:10038   */\n      dup1\n        /* \"#utility.yul\":10030:10039   */\n      not\n        /* \"#utility.yul\":10023:10028   */\n      dup5\n        /* \"#utility.yul\":10019:10040   */\n      and\n        /* \"#utility.yul\":10010:10040   */\n      swap4\n      pop\n        /* \"#utility.yul\":10083:10087   */\n      dup1\n        /* \"#utility.yul\":10073:10081   */\n      dup7\n        /* \"#utility.yul\":10069:10088   */\n      and\n        /* \"#utility.yul\":10062:10067   */\n      dup5\n        /* \"#utility.yul\":10059:10089   */\n      or\n        /* \"#utility.yul\":10049:10089   */\n      swap3\n      pop\n        /* \"#utility.yul\":9778:10095   */\n      pop\n      pop\n        /* \"#utility.yul\":9702:10095   */\n      swap4\n      swap3\n      pop\n      pop\n      pop\n      jump\t// out\n        /* \"#utility.yul\":10101:10161   */\n    tag_76:\n        /* \"#utility.yul\":10129:10132   */\n      0x00\n        /* \"#utility.yul\":10150:10155   */\n      dup2\n        /* \"#utility.yul\":10143:10155   */\n      swap1\n      pop\n        /* \"#utility.yul\":10101:10161   */\n      swap2\n      swap1\n      pop\n      jump\t// out\n        /* \"#utility.yul\":10167:10309   */\n    tag_77:\n        /* \"#utility.yul\":10217:10226   */\n      0x00\n        /* \"#utility.yul\":10250:10303   */\n      tag_188\n        /* \"#utility.yul\":10268:10302   */\n      tag_189\n        /* \"#utility.yul\":10277:10301   */\n      tag_190\n        /* \"#utility.yul\":10295:10300   */\n      dup5\n        /* \"#utility.yul\":10277:10301   */\n      tag_46\n      jump\t// in\n    tag_190:\n        /* \"#utility.yul\":10268:10302   */\n      tag_76\n      jump\t// in\n    tag_189:\n        /* \"#utility.yul\":10250:10303   */\n      tag_46\n      jump\t// in\n    tag_188:\n        /* \"#utility.yul\":10237:10303   */\n      swap1\n      pop\n        /* \"#utility.yul\":10167:10309   */\n      swap2\n      swap1\n      pop\n      jump\t// out\n        /* \"#utility.yul\":10315:10390   */\n    tag_78:\n        /* \"#utility.yul\":10358:10361   */\n      0x00\n        /* \"#utility.yul\":10379:10384   */\n      dup2\n        /* \"#utility.yul\":10372:10384   */\n      swap1\n      pop\n        /* \"#utility.yul\":10315:10390   */\n      swap2\n      swap1\n      pop\n      jump\t// out\n        /* \"#utility.yul\":10396:10665   */\n    tag_79:\n        /* \"#utility.yul\":10506:10545   */\n      tag_193\n        /* \"#utility.yul\":10537:10544   */\n      dup4\n        /* \"#utility.yul\":10506:10545   */\n      tag_77\n      jump\t// in\n    tag_193:\n        /* \"#utility.yul\":10567:10658   */\n      tag_194\n        /* \"#utility.yul\":10616:10657   */\n      tag_195\n        /* \"#utility.yul\":10640:10656   */\n      dup3\n        /* \"#utility.yul\":10616:10657   */\n      tag_78\n      jump\t// in\n    tag_195:\n        /* \"#utility.yul\":10608:10614   */\n      dup5\n        /* \"#utility.yul\":10601:10605   */\n      dup5\n        /* \"#utility.yul\":10595:10606   */\n      sload\n        /* \"#utility.yul\":10567:10658   */\n      tag_75\n      jump\t// in\n    tag_194:\n        /* \"#utility.yul\":10561:10565   */\n      dup3\n        /* \"#utility.yul\":10554:10659   */\n      sstore\n        /* \"#utility.yul\":10472:10665   */\n      pop\n        /* \"#utility.yul\":10396:10665   */\n      pop\n      pop\n      pop\n      jump\t// out\n        /* \"#utility.yul\":10671:10744   */\n    tag_80:\n        /* \"#utility.yul\":10716:10719   */\n      0x00\n        /* \"#utility.yul\":10671:10744   */\n      swap1\n      jump\t// out\n        /* \"#utility.yul\":10750:10939   */\n    tag_81:\n        /* \"#utility.yul\":10827:10859   */\n      tag_198\n      tag_80\n      jump\t// in\n    tag_198:\n        /* \"#utility.yul\":10868:10933   */\n      tag_199\n        /* \"#utility.yul\":10926:10932   */\n      dup2\n        /* \"#utility.yul\":10918:10924   */\n      dup5\n        /* \"#utility.yul\":10912:10916   */\n      dup5\n        /* \"#utility.yul\":10868:10933   */\n      tag_79\n      jump\t// in\n    tag_199:\n        /* \"#utility.yul\":10803:10939   */\n      pop\n        /* \"#utility.yul\":10750:10939   */\n      pop\n      pop\n      jump\t// out\n        /* \"#utility.yul\":10945:11131   */\n    tag_82:\n        /* \"#utility.yul\":11005:11125   */\n    tag_201:\n        /* \"#utility.yul\":11022:11025   */\n      dup2\n        /* \"#utility.yul\":11015:11020   */\n      dup2\n        /* \"#utility.yul\":11012:11026   */\n      lt\n        /* \"#utility.yul\":11005:11125   */\n      iszero\n      tag_203\n      jumpi\n        /* \"#utility.yul\":11076:11115   */\n      tag_204\n        /* \"#utility.yul\":11113:11114   */\n      0x00\n        /* \"#utility.yul\":11106:11111   */\n      dup3\n        /* \"#utility.yul\":11076:11115   */\n      tag_81\n      jump\t// in\n    tag_204:\n        /* \"#utility.yul\":11049:11050   */\n      0x01\n        /* \"#utility.yul\":11042:11047   */\n      dup2\n        /* \"#utility.yul\":11038:11051   */\n      add\n        /* \"#utility.yul\":11029:11051   */\n      swap1\n      pop\n        /* \"#utility.yul\":11005:11125   */\n      jump(tag_201)\n    tag_203:\n        /* \"#utility.yul\":10945:11131   */\n      pop\n      pop\n      jump\t// out\n        /* \"#utility.yul\":11137:11680   */\n    tag_83:\n        /* \"#utility.yul\":11238:11240   */\n      0x1f\n        /* \"#utility.yul\":11233:11236   */\n      dup3\n        /* \"#utility.yul\":11230:11241   */\n      gt\n        /* \"#utility.yul\":11227:11673   */\n      iszero\n      tag_206\n      jumpi\n        /* \"#utility.yul\":11272:11310   */\n      tag_207\n        /* \"#utility.yul\":11304:11309   */\n      dup2\n        /* \"#utility.yul\":11272:11310   */\n      tag_72\n      jump\t// in\n    tag_207:\n        /* \"#utility.yul\":11356:11385   */\n      tag_208\n        /* \"#utility.yul\":11374:11384   */\n      dup5\n        /* \"#utility.yul\":11356:11385   */\n      tag_73\n      jump\t// in\n    tag_208:\n        /* \"#utility.yul\":11346:11354   */\n      dup2\n        /* \"#utility.yul\":11342:11386   */\n      add\n        /* \"#utility.yul\":11539:11541   */\n      0x20\n        /* \"#utility.yul\":11527:11537   */\n      dup6\n        /* \"#utility.yul\":11524:11542   */\n      lt\n        /* \"#utility.yul\":11521:11570   */\n      iszero\n      tag_209\n      jumpi\n        /* \"#utility.yul\":11560:11568   */\n      dup2\n        /* \"#utility.yul\":11545:11568   */\n      swap1\n      pop\n        /* \"#utility.yul\":11521:11570   */\n    tag_209:\n        /* \"#utility.yul\":11583:11663   */\n      tag_210\n        /* \"#utility.yul\":11639:11661   */\n      tag_211\n        /* \"#utility.yul\":11657:11660   */\n      dup6\n        /* \"#utility.yul\":11639:11661   */\n      tag_73\n      jump\t// in\n    tag_211:\n        /* \"#utility.yul\":11629:11637   */\n      dup4\n        /* \"#utility.yul\":11625:11662   */\n      add\n        /* \"#utility.yul\":11612:11623   */\n      dup3\n        /* \"#utility.yul\":11583:11663   */\n      tag_82\n      jump\t// in\n    tag_210:\n        /* \"#utility.yul\":11242:11673   */\n      pop\n      pop\n        /* \"#utility.yul\":11227:11673   */\n    tag_206:\n        /* \"#utility.yul\":11137:11680   */\n      pop\n      pop\n      pop\n      jump\t// out\n        /* \"#utility.yul\":11686:11803   */\n    tag_84:\n        /* \"#utility.yul\":11740:11748   */\n      0x00\n        /* \"#utility.yul\":11790:11795   */\n      dup3\n        /* \"#utility.yul\":11784:11788   */\n      dup3\n        /* \"#utility.yul\":11780:11796   */\n      shr\n        /* \"#utility.yul\":11759:11796   */\n      swap1\n      pop\n        /* \"#utility.yul\":11686:11803   */\n      swap3\n      swap2\n      pop\n      pop\n      jump\t// out\n        /* \"#utility.yul\":11809:11978   */\n    tag_85:\n        /* \"#utility.yul\":11853:11859   */\n      0x00\n        /* \"#utility.yul\":11886:11937   */\n      tag_214\n        /* \"#utility.yul\":11934:11935   */\n      0x00\n        /* \"#utility.yul\":11930:11936   */\n      not\n        /* \"#utility.yul\":11922:11927   */\n      dup5\n        /* \"#utility.yul\":11919:11920   */\n      0x08\n        /* \"#utility.yul\":11915:11928   */\n      mul\n        /* \"#utility.yul\":11886:11937   */\n      tag_84\n      jump\t// in\n    tag_214:\n        /* \"#utility.yul\":11882:11938   */\n      not\n        /* \"#utility.yul\":11967:11971   */\n      dup1\n        /* \"#utility.yul\":11961:11965   */\n      dup4\n        /* \"#utility.yul\":11957:11972   */\n      and\n        /* \"#utility.yul\":11947:11972   */\n      swap2\n      pop\n        /* \"#utility.yul\":11860:11978   */\n      pop\n        /* \"#utility.yul\":11809:11978   */\n      swap3\n      swap2\n      pop\n      pop\n      jump\t// out\n        /* \"#utility.yul\":11983:12278   */\n    tag_86:\n        /* \"#utility.yul\":12059:12063   */\n      0x00\n        /* \"#utility.yul\":12205:12234   */\n      tag_216\n        /* \"#utility.yul\":12230:12233   */\n      dup4\n        /* \"#utility.yul\":12224:12228   */\n      dup4\n        /* \"#utility.yul\":12205:12234   */\n      tag_85\n      jump\t// in\n    tag_216:\n        /* \"#utility.yul\":12197:12234   */\n      swap2\n      pop\n        /* \"#utility.yul\":12267:12270   */\n      dup3\n        /* \"#utility.yul\":12264:12265   */\n      0x02\n        /* \"#utility.yul\":12260:12271   */\n      mul\n        /* \"#utility.yul\":12254:12258   */\n      dup3\n        /* \"#utility.yul\":12251:12272   */\n      or\n        /* \"#utility.yul\":12243:12272   */\n      swap1\n      pop\n        /* \"#utility.yul\":11983:12278   */\n      swap3\n      swap2\n      pop\n      pop\n      jump\t// out\n        /* \"#utility.yul\":12283:13678   */\n    tag_22:\n        /* \"#utility.yul\":12400:12437   */\n      tag_218\n        /* \"#utility.yul\":12433:12436   */\n      dup3\n        /* \"#utility.yul\":12400:12437   */\n      tag_64\n      jump\t// in\n    tag_218:\n        /* \"#utility.yul\":12502:12520   */\n      0xffffffffffffffff\n        /* \"#utility.yul\":12494:12500   */\n      dup2\n        /* \"#utility.yul\":12491:12521   */\n      gt\n        /* \"#utility.yul\":12488:12544   */\n      iszero\n      tag_219\n      jumpi\n        /* \"#utility.yul\":12524:12542   */\n      tag_220\n      tag_56\n      jump\t// in\n    tag_220:\n        /* \"#utility.yul\":12488:12544   */\n    tag_219:\n        /* \"#utility.yul\":12568:12606   */\n      tag_221\n        /* \"#utility.yul\":12600:12604   */\n      dup3\n        /* \"#utility.yul\":12594:12605   */\n      sload\n        /* \"#utility.yul\":12568:12606   */\n      tag_31\n      jump\t// in\n    tag_221:\n        /* \"#utility.yul\":12653:12720   */\n      tag_222\n        /* \"#utility.yul\":12713:12719   */\n      dup3\n        /* \"#utility.yul\":12705:12711   */\n      dup3\n        /* \"#utility.yul\":12699:12703   */\n      dup6\n        /* \"#utility.yul\":12653:12720   */\n      tag_83\n      jump\t// in\n    tag_222:\n        /* \"#utility.yul\":12747:12748   */\n      0x00\n        /* \"#utility.yul\":12771:12775   */\n      0x20\n        /* \"#utility.yul\":12758:12775   */\n      swap1\n      pop\n        /* \"#utility.yul\":12803:12805   */\n      0x1f\n        /* \"#utility.yul\":12795:12801   */\n      dup4\n        /* \"#utility.yul\":12792:12806   */\n      gt\n        /* \"#utility.yul\":12820:12821   */\n      0x01\n        /* \"#utility.yul\":12815:13433   */\n      dup2\n      eq\n      tag_224\n      jumpi\n        /* \"#utility.yul\":13477:13478   */\n      0x00\n        /* \"#utility.yul\":13494:13500   */\n      dup5\n        /* \"#utility.yul\":13491:13568   */\n      iszero\n      tag_225\n      jumpi\n        /* \"#utility.yul\":13543:13552   */\n      dup3\n        /* \"#utility.yul\":13538:13541   */\n      dup8\n        /* \"#utility.yul\":13534:13553   */\n      add\n        /* \"#utility.yul\":13528:13554   */\n      mload\n        /* \"#utility.yul\":13519:13554   */\n      swap1\n      pop\n        /* \"#utility.yul\":13491:13568   */\n    tag_225:\n        /* \"#utility.yul\":13594:13661   */\n      tag_226\n        /* \"#utility.yul\":13654:13660   */\n      dup6\n        /* \"#utility.yul\":13647:13652   */\n      dup3\n        /* \"#utility.yul\":13594:13661   */\n      tag_86\n      jump\t// in\n    tag_226:\n        /* \"#utility.yul\":13588:13592   */\n      dup7\n        /* \"#utility.yul\":13581:13662   */\n      sstore\n        /* \"#utility.yul\":13450:13672   */\n      pop\n        /* \"#utility.yul\":12785:13672   */\n      jump(tag_223)\n        /* \"#utility.yul\":12815:13433   */\n    tag_224:\n        /* \"#utility.yul\":12867:12871   */\n      0x1f\n        /* \"#utility.yul\":12863:12872   */\n      not\n        /* \"#utility.yul\":12855:12861   */\n      dup5\n        /* \"#utility.yul\":12851:12873   */\n      and\n        /* \"#utility.yul\":12901:12938   */\n      tag_227\n        /* \"#utility.yul\":12933:12937   */\n      dup7\n        /* \"#utility.yul\":12901:12938   */\n      tag_72\n      jump\t// in\n    tag_227:\n        /* \"#utility.yul\":12960:12961   */\n      0x00\n        /* \"#utility.yul\":12974:13182   */\n    tag_228:\n        /* \"#utility.yul\":12988:12995   */\n      dup3\n        /* \"#utility.yul\":12985:12986   */\n      dup2\n        /* \"#utility.yul\":12982:12996   */\n      lt\n        /* \"#utility.yul\":12974:13182   */\n      iszero\n      tag_230\n      jumpi\n        /* \"#utility.yul\":13067:13076   */\n      dup5\n        /* \"#utility.yul\":13062:13065   */\n      dup10\n        /* \"#utility.yul\":13058:13077   */\n      add\n        /* \"#utility.yul\":13052:13078   */\n      mload\n        /* \"#utility.yul\":13044:13050   */\n      dup3\n        /* \"#utility.yul\":13037:13079   */\n      sstore\n        /* \"#utility.yul\":13118:13119   */\n      0x01\n        /* \"#utility.yul\":13110:13116   */\n      dup3\n        /* \"#utility.yul\":13106:13120   */\n      add\n        /* \"#utility.yul\":13096:13120   */\n      swap2\n      pop\n        /* \"#utility.yul\":13165:13167   */\n      0x20\n        /* \"#utility.yul\":13154:13163   */\n      dup6\n        /* \"#utility.yul\":13150:13168   */\n      add\n        /* \"#utility.yul\":13137:13168   */\n      swap5\n      pop\n        /* \"#utility.yul\":13011:13015   */\n      0x20\n        /* \"#utility.yul\":13008:13009   */\n      dup2\n        /* \"#utility.yul\":13004:13016   */\n      add\n        /* \"#utility.yul\":12999:13016   */\n      swap1\n      pop\n        /* \"#utility.yul\":12974:13182   */\n      jump(tag_228)\n    tag_230:\n        /* \"#utility.yul\":13210:13216   */\n      dup7\n        /* \"#utility.yul\":13201:13208   */\n      dup4\n        /* \"#utility.yul\":13198:13217   */\n      lt\n        /* \"#utility.yul\":13195:13374   */\n      iszero\n      tag_231\n      jumpi\n        /* \"#utility.yul\":13268:13277   */\n      dup5\n        /* \"#utility.yul\":13263:13266   */\n      dup10\n        /* \"#utility.yul\":13259:13278   */\n      add\n        /* \"#utility.yul\":13253:13279   */\n      mload\n        /* \"#utility.yul\":13311:13359   */\n      tag_232\n        /* \"#utility.yul\":13353:13357   */\n      0x1f\n        /* \"#utility.yul\":13345:13351   */\n      dup10\n        /* \"#utility.yul\":13341:13358   */\n      and\n        /* \"#utility.yul\":13330:13339   */\n      dup3\n        /* \"#utility.yul\":13311:13359   */\n      tag_85\n      jump\t// in\n    tag_232:\n        /* \"#utility.yul\":13303:13309   */\n      dup4\n        /* \"#utility.yul\":13296:13360   */\n      sstore\n        /* \"#utility.yul\":13218:13374   */\n      pop\n        /* \"#utility.yul\":13195:13374   */\n    tag_231:\n        /* \"#utility.yul\":13420:13421   */\n      0x01\n        /* \"#utility.yul\":13416:13417   */\n      0x02\n        /* \"#utility.yul\":13408:13414   */\n      dup9\n        /* \"#utility.yul\":13404:13418   */\n      mul\n        /* \"#utility.yul\":13400:13422   */\n      add\n        /* \"#utility.yul\":13394:13398   */\n      dup9\n        /* \"#utility.yul\":13387:13423   */\n      sstore\n        /* \"#utility.yul\":12822:13433   */\n      pop\n      pop\n      pop\n        /* \"#utility.yul\":12785:13672   */\n    tag_223:\n      pop\n        /* \"#utility.yul\":12375:13678   */\n      pop\n      pop\n      pop\n        /* \"#utility.yul\":12283:13678   */\n      pop\n      pop\n      jump\t// out\n        /* \"#utility.yul\":13684:13864   */\n    tag_87:\n        /* \"#utility.yul\":13732:13809   */\n      0x4e487b7100000000000000000000000000000000000000000000000000000000\n        /* \"#utility.yul\":13729:13730   */\n      0x00\n        /* \"#utility.yul\":13722:13810   */\n      mstore\n        /* \"#utility.yul\":13829:13833   */\n      0x11\n        /* \"#utility.yul\":13826:13827   */\n      0x04\n        /* \"#utility.yul\":13819:13834   */\n      mstore\n        /* \"#utility.yul\":13853:13857   */\n      0x24\n        /* \"#utility.yul\":13850:13851   */\n      0x00\n        /* \"#utility.yul\":13843:13858   */\n      revert\n        /* \"#utility.yul\":13870:14061   */\n    tag_26:\n        /* \"#utility.yul\":13910:13913   */\n      0x00\n        /* \"#utility.yul\":13929:13949   */\n      tag_235\n        /* \"#utility.yul\":13947:13948   */\n      dup3\n        /* \"#utility.yul\":13929:13949   */\n      tag_46\n      jump\t// in\n    tag_235:\n        /* \"#utility.yul\":13924:13949   */\n      swap2\n      pop\n        /* \"#utility.yul\":13963:13983   */\n      tag_236\n        /* \"#utility.yul\":13981:13982   */\n      dup4\n        /* \"#utility.yul\":13963:13983   */\n      tag_46\n      jump\t// in\n    tag_236:\n        /* \"#utility.yul\":13958:13983   */\n      swap3\n      pop\n        /* \"#utility.yul\":14006:14007   */\n      dup3\n        /* \"#utility.yul\":14003:14004   */\n      dup3\n        /* \"#utility.yul\":13999:14008   */\n      add\n        /* \"#utility.yul\":13992:14008   */\n      swap1\n      pop\n        /* \"#utility.yul\":14027:14030   */\n      dup1\n        /* \"#utility.yul\":14024:14025   */\n      dup3\n        /* \"#utility.yul\":14021:14031   */\n      gt\n        /* \"#utility.yul\":14018:14054   */\n      iszero\n      tag_237\n      jumpi\n        /* \"#utility.yul\":14034:14052   */\n      tag_238\n      tag_87\n      jump\t// in\n    tag_238:\n        /* \"#utility.yul\":14018:14054   */\n    tag_237:\n        /* \"#utility.yul\":13870:14061   */\n      swap3\n      swap2\n      pop\n      pop\n      jump\t// out\n\n    auxdata: 0xa264697066735822122089bfe874d24e20e237d634a53636213f36e0b6681d4327140fa56603ff78fdcb64736f6c63430008150033\n}\n",
				"bytecode": {
					"linkReferences": {},
					"object": "60806040525f600155348015610013575f80fd5b50610bab806100215f395ff3fe608060405234801561000f575f80fd5b506004361061003f575f3560e01c8063a7613a7d14610043578063f077066514610061578063fe0cb7dc1461007d575b5f80fd5b61004b6100ad565b6040516100589190610422565b60405180910390f35b61007b600480360381019061007691906105b2565b6100b3565b005b610097600480360381019061009291906106a3565b6101ac565b6040516100a4919061082c565b60405180910390f35b60015481565b6040518061010001604052808881526020018781526020018681526020018581526020018481526020018381526020018281526020015f15158152505f8060015481526020019081526020015f205f820151815f0155602082015181600101908161011e9190610a46565b5060408201518160020190816101349190610a46565b50606082015181600301908161014a9190610a46565b506080820151816004015560a0820151816005015560c0820151816006015560e0820151816007015f6101000a81548160ff0219169083151502179055509050506001805f82825461019c9190610b42565b9250508190555050505050505050565b6101b46103c8565b5f808381526020019081526020015f20604051806101000160405290815f82015481526020016001820180546101e990610879565b80601f016020809104026020016040519081016040528092919081815260200182805461021590610879565b80156102605780601f1061023757610100808354040283529160200191610260565b820191905f5260205f20905b81548152906001019060200180831161024357829003601f168201915b5050505050815260200160028201805461027990610879565b80601f01602080910402602001604051908101604052809291908181526020018280546102a590610879565b80156102f05780601f106102c7576101008083540402835291602001916102f0565b820191905f5260205f20905b8154815290600101906020018083116102d357829003601f168201915b5050505050815260200160038201805461030990610879565b80601f016020809104026020016040519081016040528092919081815260200182805461033590610879565b80156103805780601f1061035757610100808354040283529160200191610380565b820191905f5260205f20905b81548152906001019060200180831161036357829003601f168201915b50505050508152602001600482015481526020016005820154815260200160068201548152602001600782015f9054906101000a900460ff1615151515815250509050919050565b6040518061010001604052805f81526020016060815260200160608152602001606081526020015f81526020015f81526020015f81526020015f151581525090565b5f819050919050565b61041c8161040a565b82525050565b5f6020820190506104355f830184610413565b92915050565b5f604051905090565b5f80fd5b5f80fd5b6104558161040a565b811461045f575f80fd5b50565b5f813590506104708161044c565b92915050565b5f80fd5b5f80fd5b5f601f19601f8301169050919050565b7f4e487b71000000000000000000000000000000000000000000000000000000005f52604160045260245ffd5b6104c48261047e565b810181811067ffffffffffffffff821117156104e3576104e261048e565b5b80604052505050565b5f6104f561043b565b905061050182826104bb565b919050565b5f67ffffffffffffffff8211156105205761051f61048e565b5b6105298261047e565b9050602081019050919050565b828183375f83830152505050565b5f61055661055184610506565b6104ec565b9050828152602081018484840111156105725761057161047a565b5b61057d848285610536565b509392505050565b5f82601f83011261059957610598610476565b5b81356105a9848260208601610544565b91505092915050565b5f805f805f805f60e0888a0312156105cd576105cc610444565b5b5f6105da8a828b01610462565b975050602088013567ffffffffffffffff8111156105fb576105fa610448565b5b6106078a828b01610585565b965050604088013567ffffffffffffffff81111561062857610627610448565b5b6106348a828b01610585565b955050606088013567ffffffffffffffff81111561065557610654610448565b5b6106618a828b01610585565b94505060806106728a828b01610462565b93505060a06106838a828b01610462565b92505060c06106948a828b01610462565b91505092959891949750929550565b5f602082840312156106b8576106b7610444565b5b5f6106c584828501610462565b91505092915050565b6106d78161040a565b82525050565b5f81519050919050565b5f82825260208201905092915050565b5f5b838110156107145780820151818401526020810190506106f9565b5f8484015250505050565b5f610729826106dd565b61073381856106e7565b93506107438185602086016106f7565b61074c8161047e565b840191505092915050565b5f8115159050919050565b61076b81610757565b82525050565b5f61010083015f8301516107875f8601826106ce565b506020830151848203602086015261079f828261071f565b915050604083015184820360408601526107b9828261071f565b915050606083015184820360608601526107d3828261071f565b91505060808301516107e860808601826106ce565b5060a08301516107fb60a08601826106ce565b5060c083015161080e60c08601826106ce565b5060e083015161082160e0860182610762565b508091505092915050565b5f6020820190508181035f8301526108448184610771565b905092915050565b7f4e487b71000000000000000000000000000000000000000000000000000000005f52602260045260245ffd5b5f600282049050600182168061089057607f821691505b6020821081036108a3576108a261084c565b5b50919050565b5f819050815f5260205f209050919050565b5f6020601f8301049050919050565b5f82821b905092915050565b5f600883026109057fffffffffffffffffffffffffffffffffffffffffffffffffffffffffffffffff826108ca565b61090f86836108ca565b95508019841693508086168417925050509392505050565b5f819050919050565b5f61094a6109456109408461040a565b610927565b61040a565b9050919050565b5f819050919050565b61096383610930565b61097761096f82610951565b8484546108d6565b825550505050565b5f90565b61098b61097f565b61099681848461095a565b505050565b5b818110156109b9576109ae5f82610983565b60018101905061099c565b5050565b601f8211156109fe576109cf816108a9565b6109d8846108bb565b810160208510156109e7578190505b6109fb6109f3856108bb565b83018261099b565b50505b505050565b5f82821c905092915050565b5f610a1e5f1984600802610a03565b1980831691505092915050565b5f610a368383610a0f565b9150826002028217905092915050565b610a4f826106dd565b67ffffffffffffffff811115610a6857610a6761048e565b5b610a728254610879565b610a7d8282856109bd565b5f60209050601f831160018114610aae575f8415610a9c578287015190505b610aa68582610a2b565b865550610b0d565b601f198416610abc866108a9565b5f5b82811015610ae357848901518255600182019150602085019450602081019050610abe565b86831015610b005784890151610afc601f891682610a0f565b8355505b6001600288020188555050505b505050505050565b7f4e487b71000000000000000000000000000000000000000000000000000000005f52601160045260245ffd5b5f610b4c8261040a565b9150610b578361040a565b9250828201905080821115610b6f57610b6e610b15565b5b9291505056fea264697066735822122089bfe874d24e20e237d634a53636213f36e0b6681d4327140fa56603ff78fdcb64736f6c63430008150033",
					"opcodes": "PUSH1 0x80 PUSH1 0x40 MSTORE PUSH0 PUSH1 0x1 SSTORE CALLVALUE DUP1 ISZERO PUSH2 0x13 JUMPI PUSH0 DUP1 REVERT JUMPDEST POP PUSH2 0xBAB DUP1 PUSH2 0x21 PUSH0 CODECOPY PUSH0 RETURN INVALID PUSH1 0x80 PUSH1 0x40 MSTORE CALLVALUE DUP1 ISZERO PUSH2 0xF JUMPI PUSH0 DUP1 REVERT JUMPDEST POP PUSH1 0x4 CALLDATASIZE LT PUSH2 0x3F JUMPI PUSH0 CALLDATALOAD PUSH1 0xE0 SHR DUP1 PUSH4 0xA7613A7D EQ PUSH2 0x43 JUMPI DUP1 PUSH4 0xF0770665 EQ PUSH2 0x61 JUMPI DUP1 PUSH4 0xFE0CB7DC EQ PUSH2 0x7D JUMPI JUMPDEST PUSH0 DUP1 REVERT JUMPDEST PUSH2 0x4B PUSH2 0xAD JUMP JUMPDEST PUSH1 0x40 MLOAD PUSH2 0x58 SWAP2 SWAP1 PUSH2 0x422 JUMP JUMPDEST PUSH1 0x40 MLOAD DUP1 SWAP2 SUB SWAP1 RETURN JUMPDEST PUSH2 0x7B PUSH1 0x4 DUP1 CALLDATASIZE SUB DUP2 ADD SWAP1 PUSH2 0x76 SWAP2 SWAP1 PUSH2 0x5B2 JUMP JUMPDEST PUSH2 0xB3 JUMP JUMPDEST STOP JUMPDEST PUSH2 0x97 PUSH1 0x4 DUP1 CALLDATASIZE SUB DUP2 ADD SWAP1 PUSH2 0x92 SWAP2 SWAP1 PUSH2 0x6A3 JUMP JUMPDEST PUSH2 0x1AC JUMP JUMPDEST PUSH1 0x40 MLOAD PUSH2 0xA4 SWAP2 SWAP1 PUSH2 0x82C JUMP JUMPDEST PUSH1 0x40 MLOAD DUP1 SWAP2 SUB SWAP1 RETURN JUMPDEST PUSH1 0x1 SLOAD DUP2 JUMP JUMPDEST PUSH1 0x40 MLOAD DUP1 PUSH2 0x100 ADD PUSH1 0x40 MSTORE DUP1 DUP9 DUP2 MSTORE PUSH1 0x20 ADD DUP8 DUP2 MSTORE PUSH1 0x20 ADD DUP7 DUP2 MSTORE PUSH1 0x20 ADD DUP6 DUP2 MSTORE PUSH1 0x20 ADD DUP5 DUP2 MSTORE PUSH1 0x20 ADD DUP4 DUP2 MSTORE PUSH1 0x20 ADD DUP3 DUP2 MSTORE PUSH1 0x20 ADD PUSH0 ISZERO ISZERO DUP2 MSTORE POP PUSH0 DUP1 PUSH1 0x1 SLOAD DUP2 MSTORE PUSH1 0x20 ADD SWAP1 DUP2 MSTORE PUSH1 0x20 ADD PUSH0 KECCAK256 PUSH0 DUP3 ADD MLOAD DUP2 PUSH0 ADD SSTORE PUSH1 0x20 DUP3 ADD MLOAD DUP2 PUSH1 0x1 ADD SWAP1 DUP2 PUSH2 0x11E SWAP2 SWAP1 PUSH2 0xA46 JUMP JUMPDEST POP PUSH1 0x40 DUP3 ADD MLOAD DUP2 PUSH1 0x2 ADD SWAP1 DUP2 PUSH2 0x134 SWAP2 SWAP1 PUSH2 0xA46 JUMP JUMPDEST POP PUSH1 0x60 DUP3 ADD MLOAD DUP2 PUSH1 0x3 ADD SWAP1 DUP2 PUSH2 0x14A SWAP2 SWAP1 PUSH2 0xA46 JUMP JUMPDEST POP PUSH1 0x80 DUP3 ADD MLOAD DUP2 PUSH1 0x4 ADD SSTORE PUSH1 0xA0 DUP3 ADD MLOAD DUP2 PUSH1 0x5 ADD SSTORE PUSH1 0xC0 DUP3 ADD MLOAD DUP2 PUSH1 0x6 ADD SSTORE PUSH1 0xE0 DUP3 ADD MLOAD DUP2 PUSH1 0x7 ADD PUSH0 PUSH2 0x100 EXP DUP2 SLOAD DUP2 PUSH1 0xFF MUL NOT AND SWAP1 DUP4 ISZERO ISZERO MUL OR SWAP1 SSTORE POP SWAP1 POP POP PUSH1 0x1 DUP1 PUSH0 DUP3 DUP3 SLOAD PUSH2 0x19C SWAP2 SWAP1 PUSH2 0xB42 JUMP JUMPDEST SWAP3 POP POP DUP2 SWAP1 SSTORE POP POP POP POP POP POP POP POP JUMP JUMPDEST PUSH2 0x1B4 PUSH2 0x3C8 JUMP JUMPDEST PUSH0 DUP1 DUP4 DUP2 MSTORE PUSH1 0x20 ADD SWAP1 DUP2 MSTORE PUSH1 0x20 ADD PUSH0 KECCAK256 PUSH1 0x40 MLOAD DUP1 PUSH2 0x100 ADD PUSH1 0x40 MSTORE SWAP1 DUP2 PUSH0 DUP3 ADD SLOAD DUP2 MSTORE PUSH1 0x20 ADD PUSH1 0x1 DUP3 ADD DUP1 SLOAD PUSH2 0x1E9 SWAP1 PUSH2 0x879 JUMP JUMPDEST DUP1 PUSH1 0x1F ADD PUSH1 0x20 DUP1 SWAP2 DIV MUL PUSH1 0x20 ADD PUSH1 0x40 MLOAD SWAP1 DUP2 ADD PUSH1 0x40 MSTORE DUP1 SWAP3 SWAP2 SWAP1 DUP2 DUP2 MSTORE PUSH1 0x20 ADD DUP3 DUP1 SLOAD PUSH2 0x215 SWAP1 PUSH2 0x879 JUMP JUMPDEST DUP1 ISZERO PUSH2 0x260 JUMPI DUP1 PUSH1 0x1F LT PUSH2 0x237 JUMPI PUSH2 0x100 DUP1 DUP4 SLOAD DIV MUL DUP4 MSTORE SWAP2 PUSH1 0x20 ADD SWAP2 PUSH2 0x260 JUMP JUMPDEST DUP3 ADD SWAP2 SWAP1 PUSH0 MSTORE PUSH1 0x20 PUSH0 KECCAK256 SWAP1 JUMPDEST DUP2 SLOAD DUP2 MSTORE SWAP1 PUSH1 0x1 ADD SWAP1 PUSH1 0x20 ADD DUP1 DUP4 GT PUSH2 0x243 JUMPI DUP3 SWAP1 SUB PUSH1 0x1F AND DUP3 ADD SWAP2 JUMPDEST POP POP POP POP POP DUP2 MSTORE PUSH1 0x20 ADD PUSH1 0x2 DUP3 ADD DUP1 SLOAD PUSH2 0x279 SWAP1 PUSH2 0x879 JUMP JUMPDEST DUP1 PUSH1 0x1F ADD PUSH1 0x20 DUP1 SWAP2 DIV MUL PUSH1 0x20 ADD PUSH1 0x40 MLOAD SWAP1 DUP2 ADD PUSH1 0x40 MSTORE DUP1 SWAP3 SWAP2 SWAP1 DUP2 DUP2 MSTORE PUSH1 0x20 ADD DUP3 DUP1 SLOAD PUSH2 0x2A5 SWAP1 PUSH2 0x879 JUMP JUMPDEST DUP1 ISZERO PUSH2 0x2F0 JUMPI DUP1 PUSH1 0x1F LT PUSH2 0x2C7 JUMPI PUSH2 0x100 DUP1 DUP4 SLOAD DIV MUL DUP4 MSTORE SWAP2 PUSH1 0x20 ADD SWAP2 PUSH2 0x2F0 JUMP JUMPDEST DUP3 ADD SWAP2 SWAP1 PUSH0 MSTORE PUSH1 0x20 PUSH0 KECCAK256 SWAP1 JUMPDEST DUP2 SLOAD DUP2 MSTORE SWAP1 PUSH1 0x1 ADD SWAP1 PUSH1 0x20 ADD DUP1 DUP4 GT PUSH2 0x2D3 JUMPI DUP3 SWAP1 SUB PUSH1 0x1F AND DUP3 ADD SWAP2 JUMPDEST POP POP POP POP POP DUP2 MSTORE PUSH1 0x20 ADD PUSH1 0x3 DUP3 ADD DUP1 SLOAD PUSH2 0x309 SWAP1 PUSH2 0x879 JUMP JUMPDEST DUP1 PUSH1 0x1F ADD PUSH1 0x20 DUP1 SWAP2 DIV MUL PUSH1 0x20 ADD PUSH1 0x40 MLOAD SWAP1 DUP2 ADD PUSH1 0x40 MSTORE DUP1 SWAP3 SWAP2 SWAP1 DUP2 DUP2 MSTORE PUSH1 0x20 ADD DUP3 DUP1 SLOAD PUSH2 0x335 SWAP1 PUSH2 0x879 JUMP JUMPDEST DUP1 ISZERO PUSH2 0x380 JUMPI DUP1 PUSH1 0x1F LT PUSH2 0x357 JUMPI PUSH2 0x100 DUP1 DUP4 SLOAD DIV MUL DUP4 MSTORE SWAP2 PUSH1 0x20 ADD SWAP2 PUSH2 0x380 JUMP JUMPDEST DUP3 ADD SWAP2 SWAP1 PUSH0 MSTORE PUSH1 0x20 PUSH0 KECCAK256 SWAP1 JUMPDEST DUP2 SLOAD DUP2 MSTORE SWAP1 PUSH1 0x1 ADD SWAP1 PUSH1 0x20 ADD DUP1 DUP4 GT PUSH2 0x363 JUMPI DUP3 SWAP1 SUB PUSH1 0x1F AND DUP3 ADD SWAP2 JUMPDEST POP POP POP POP POP DUP2 MSTORE PUSH1 0x20 ADD PUSH1 0x4 DUP3 ADD SLOAD DUP2 MSTORE PUSH1 0x20 ADD PUSH1 0x5 DUP3 ADD SLOAD DUP2 MSTORE PUSH1 0x20 ADD PUSH1 0x6 DUP3 ADD SLOAD DUP2 MSTORE PUSH1 0x20 ADD PUSH1 0x7 DUP3 ADD PUSH0 SWAP1 SLOAD SWAP1 PUSH2 0x100 EXP SWAP1 DIV PUSH1 0xFF AND ISZERO ISZERO ISZERO ISZERO DUP2 MSTORE POP POP SWAP1 POP SWAP2 SWAP1 POP JUMP JUMPDEST PUSH1 0x40 MLOAD DUP1 PUSH2 0x100 ADD PUSH1 0x40 MSTORE DUP1 PUSH0 DUP2 MSTORE PUSH1 0x20 ADD PUSH1 0x60 DUP2 MSTORE PUSH1 0x20 ADD PUSH1 0x60 DUP2 MSTORE PUSH1 0x20 ADD PUSH1 0x60 DUP2 MSTORE PUSH1 0x20 ADD PUSH0 DUP2 MSTORE PUSH1 0x20 ADD PUSH0 DUP2 MSTORE PUSH1 0x20 ADD PUSH0 DUP2 MSTORE PUSH1 0x20 ADD PUSH0 ISZERO ISZERO DUP2 MSTORE POP SWAP1 JUMP JUMPDEST PUSH0 DUP2 SWAP1 POP SWAP2 SWAP1 POP JUMP JUMPDEST PUSH2 0x41C DUP2 PUSH2 0x40A JUMP JUMPDEST DUP3 MSTORE POP POP JUMP JUMPDEST PUSH0 PUSH1 0x20 DUP3 ADD SWAP1 POP PUSH2 0x435 PUSH0 DUP4 ADD DUP5 PUSH2 0x413 JUMP JUMPDEST SWAP3 SWAP2 POP POP JUMP JUMPDEST PUSH0 PUSH1 0x40 MLOAD SWAP1 POP SWAP1 JUMP JUMPDEST PUSH0 DUP1 REVERT JUMPDEST PUSH0 DUP1 REVERT JUMPDEST PUSH2 0x455 DUP2 PUSH2 0x40A JUMP JUMPDEST DUP2 EQ PUSH2 0x45F JUMPI PUSH0 DUP1 REVERT JUMPDEST POP JUMP JUMPDEST PUSH0 DUP2 CALLDATALOAD SWAP1 POP PUSH2 0x470 DUP2 PUSH2 0x44C JUMP JUMPDEST SWAP3 SWAP2 POP POP JUMP JUMPDEST PUSH0 DUP1 REVERT JUMPDEST PUSH0 DUP1 REVERT JUMPDEST PUSH0 PUSH1 0x1F NOT PUSH1 0x1F DUP4 ADD AND SWAP1 POP SWAP2 SWAP1 POP JUMP JUMPDEST PUSH32 0x4E487B7100000000000000000000000000000000000000000000000000000000 PUSH0 MSTORE PUSH1 0x41 PUSH1 0x4 MSTORE PUSH1 0x24 PUSH0 REVERT JUMPDEST PUSH2 0x4C4 DUP3 PUSH2 0x47E JUMP JUMPDEST DUP2 ADD DUP2 DUP2 LT PUSH8 0xFFFFFFFFFFFFFFFF DUP3 GT OR ISZERO PUSH2 0x4E3 JUMPI PUSH2 0x4E2 PUSH2 0x48E JUMP JUMPDEST JUMPDEST DUP1 PUSH1 0x40 MSTORE POP POP POP JUMP JUMPDEST PUSH0 PUSH2 0x4F5 PUSH2 0x43B JUMP JUMPDEST SWAP1 POP PUSH2 0x501 DUP3 DUP3 PUSH2 0x4BB JUMP JUMPDEST SWAP2 SWAP1 POP JUMP JUMPDEST PUSH0 PUSH8 0xFFFFFFFFFFFFFFFF DUP3 GT ISZERO PUSH2 0x520 JUMPI PUSH2 0x51F PUSH2 0x48E JUMP JUMPDEST JUMPDEST PUSH2 0x529 DUP3 PUSH2 0x47E JUMP JUMPDEST SWAP1 POP PUSH1 0x20 DUP2 ADD SWAP1 POP SWAP2 SWAP1 POP JUMP JUMPDEST DUP3 DUP2 DUP4 CALLDATACOPY PUSH0 DUP4 DUP4 ADD MSTORE POP POP POP JUMP JUMPDEST PUSH0 PUSH2 0x556 PUSH2 0x551 DUP5 PUSH2 0x506 JUMP JUMPDEST PUSH2 0x4EC JUMP JUMPDEST SWAP1 POP DUP3 DUP2 MSTORE PUSH1 0x20 DUP2 ADD DUP5 DUP5 DUP5 ADD GT ISZERO PUSH2 0x572 JUMPI PUSH2 0x571 PUSH2 0x47A JUMP JUMPDEST JUMPDEST PUSH2 0x57D DUP5 DUP3 DUP6 PUSH2 0x536 JUMP JUMPDEST POP SWAP4 SWAP3 POP POP POP JUMP JUMPDEST PUSH0 DUP3 PUSH1 0x1F DUP4 ADD SLT PUSH2 0x599 JUMPI PUSH2 0x598 PUSH2 0x476 JUMP JUMPDEST JUMPDEST DUP2 CALLDATALOAD PUSH2 0x5A9 DUP5 DUP3 PUSH1 0x20 DUP7 ADD PUSH2 0x544 JUMP JUMPDEST SWAP2 POP POP SWAP3 SWAP2 POP POP JUMP JUMPDEST PUSH0 DUP1 PUSH0 DUP1 PUSH0 DUP1 PUSH0 PUSH1 0xE0 DUP9 DUP11 SUB SLT ISZERO PUSH2 0x5CD JUMPI PUSH2 0x5CC PUSH2 0x444 JUMP JUMPDEST JUMPDEST PUSH0 PUSH2 0x5DA DUP11 DUP3 DUP12 ADD PUSH2 0x462 JUMP JUMPDEST SWAP8 POP POP PUSH1 0x20 DUP9 ADD CALLDATALOAD PUSH8 0xFFFFFFFFFFFFFFFF DUP2 GT ISZERO PUSH2 0x5FB JUMPI PUSH2 0x5FA PUSH2 0x448 JUMP JUMPDEST JUMPDEST PUSH2 0x607 DUP11 DUP3 DUP12 ADD PUSH2 0x585 JUMP JUMPDEST SWAP7 POP POP PUSH1 0x40 DUP9 ADD CALLDATALOAD PUSH8 0xFFFFFFFFFFFFFFFF DUP2 GT ISZERO PUSH2 0x628 JUMPI PUSH2 0x627 PUSH2 0x448 JUMP JUMPDEST JUMPDEST PUSH2 0x634 DUP11 DUP3 DUP12 ADD PUSH2 0x585 JUMP JUMPDEST SWAP6 POP POP PUSH1 0x60 DUP9 ADD CALLDATALOAD PUSH8 0xFFFFFFFFFFFFFFFF DUP2 GT ISZERO PUSH2 0x655 JUMPI PUSH2 0x654 PUSH2 0x448 JUMP JUMPDEST JUMPDEST PUSH2 0x661 DUP11 DUP3 DUP12 ADD PUSH2 0x585 JUMP JUMPDEST SWAP5 POP POP PUSH1 0x80 PUSH2 0x672 DUP11 DUP3 DUP12 ADD PUSH2 0x462 JUMP JUMPDEST SWAP4 POP POP PUSH1 0xA0 PUSH2 0x683 DUP11 DUP3 DUP12 ADD PUSH2 0x462 JUMP JUMPDEST SWAP3 POP POP PUSH1 0xC0 PUSH2 0x694 DUP11 DUP3 DUP12 ADD PUSH2 0x462 JUMP JUMPDEST SWAP2 POP POP SWAP3 SWAP6 SWAP9 SWAP2 SWAP5 SWAP8 POP SWAP3 SWAP6 POP JUMP JUMPDEST PUSH0 PUSH1 0x20 DUP3 DUP5 SUB SLT ISZERO PUSH2 0x6B8 JUMPI PUSH2 0x6B7 PUSH2 0x444 JUMP JUMPDEST JUMPDEST PUSH0 PUSH2 0x6C5 DUP5 DUP3 DUP6 ADD PUSH2 0x462 JUMP JUMPDEST SWAP2 POP POP SWAP3 SWAP2 POP POP JUMP JUMPDEST PUSH2 0x6D7 DUP2 PUSH2 0x40A JUMP JUMPDEST DUP3 MSTORE POP POP JUMP JUMPDEST PUSH0 DUP2 MLOAD SWAP1 POP SWAP2 SWAP1 POP JUMP JUMPDEST PUSH0 DUP3 DUP3 MSTORE PUSH1 0x20 DUP3 ADD SWAP1 POP SWAP3 SWAP2 POP POP JUMP JUMPDEST PUSH0 JUMPDEST DUP4 DUP2 LT ISZERO PUSH2 0x714 JUMPI DUP1 DUP3 ADD MLOAD DUP2 DUP5 ADD MSTORE PUSH1 0x20 DUP2 ADD SWAP1 POP PUSH2 0x6F9 JUMP JUMPDEST PUSH0 DUP5 DUP5 ADD MSTORE POP POP POP POP JUMP JUMPDEST PUSH0 PUSH2 0x729 DUP3 PUSH2 0x6DD JUMP JUMPDEST PUSH2 0x733 DUP2 DUP6 PUSH2 0x6E7 JUMP JUMPDEST SWAP4 POP PUSH2 0x743 DUP2 DUP6 PUSH1 0x20 DUP7 ADD PUSH2 0x6F7 JUMP JUMPDEST PUSH2 0x74C DUP2 PUSH2 0x47E JUMP JUMPDEST DUP5 ADD SWAP2 POP POP SWAP3 SWAP2 POP POP JUMP JUMPDEST PUSH0 DUP2 ISZERO ISZERO SWAP1 POP SWAP2 SWAP1 POP JUMP JUMPDEST PUSH2 0x76B DUP2 PUSH2 0x757 JUMP JUMPDEST DUP3 MSTORE POP POP JUMP JUMPDEST PUSH0 PUSH2 0x100 DUP4 ADD PUSH0 DUP4 ADD MLOAD PUSH2 0x787 PUSH0 DUP7 ADD DUP3 PUSH2 0x6CE JUMP JUMPDEST POP PUSH1 0x20 DUP4 ADD MLOAD DUP5 DUP3 SUB PUSH1 0x20 DUP7 ADD MSTORE PUSH2 0x79F DUP3 DUP3 PUSH2 0x71F JUMP JUMPDEST SWAP2 POP POP PUSH1 0x40 DUP4 ADD MLOAD DUP5 DUP3 SUB PUSH1 0x40 DUP7 ADD MSTORE PUSH2 0x7B9 DUP3 DUP3 PUSH2 0x71F JUMP JUMPDEST SWAP2 POP POP PUSH1 0x60 DUP4 ADD MLOAD DUP5 DUP3 SUB PUSH1 0x60 DUP7 ADD MSTORE PUSH2 0x7D3 DUP3 DUP3 PUSH2 0x71F JUMP JUMPDEST SWAP2 POP POP PUSH1 0x80 DUP4 ADD MLOAD PUSH2 0x7E8 PUSH1 0x80 DUP7 ADD DUP3 PUSH2 0x6CE JUMP JUMPDEST POP PUSH1 0xA0 DUP4 ADD MLOAD PUSH2 0x7FB PUSH1 0xA0 DUP7 ADD DUP3 PUSH2 0x6CE JUMP JUMPDEST POP PUSH1 0xC0 DUP4 ADD MLOAD PUSH2 0x80E PUSH1 0xC0 DUP7 ADD DUP3 PUSH2 0x6CE JUMP JUMPDEST POP PUSH1 0xE0 DUP4 ADD MLOAD PUSH2 0x821 PUSH1 0xE0 DUP7 ADD DUP3 PUSH2 0x762 JUMP JUMPDEST POP DUP1 SWAP2 POP POP SWAP3 SWAP2 POP POP JUMP JUMPDEST PUSH0 PUSH1 0x20 DUP3 ADD SWAP1 POP DUP2 DUP2 SUB PUSH0 DUP4 ADD MSTORE PUSH2 0x844 DUP2 DUP5 PUSH2 0x771 JUMP JUMPDEST SWAP1 POP SWAP3 SWAP2 POP POP JUMP JUMPDEST PUSH32 0x4E487B7100000000000000000000000000000000000000000000000000000000 PUSH0 MSTORE PUSH1 0x22 PUSH1 0x4 MSTORE PUSH1 0x24 PUSH0 REVERT JUMPDEST PUSH0 PUSH1 0x2 DUP3 DIV SWAP1 POP PUSH1 0x1 DUP3 AND DUP1 PUSH2 0x890 JUMPI PUSH1 0x7F DUP3 AND SWAP2 POP JUMPDEST PUSH1 0x20 DUP3 LT DUP2 SUB PUSH2 0x8A3 JUMPI PUSH2 0x8A2 PUSH2 0x84C JUMP JUMPDEST JUMPDEST POP SWAP2 SWAP1 POP JUMP JUMPDEST PUSH0 DUP2 SWAP1 POP DUP2 PUSH0 MSTORE PUSH1 0x20 PUSH0 KECCAK256 SWAP1 POP SWAP2 SWAP1 POP JUMP JUMPDEST PUSH0 PUSH1 0x20 PUSH1 0x1F DUP4 ADD DIV SWAP1 POP SWAP2 SWAP1 POP JUMP JUMPDEST PUSH0 DUP3 DUP3 SHL SWAP1 POP SWAP3 SWAP2 POP POP JUMP JUMPDEST PUSH0 PUSH1 0x8 DUP4 MUL PUSH2 0x905 PUSH32 0xFFFFFFFFFFFFFFFFFFFFFFFFFFFFFFFFFFFFFFFFFFFFFFFFFFFFFFFFFFFFFFFF DUP3 PUSH2 0x8CA JUMP JUMPDEST PUSH2 0x90F DUP7 DUP4 PUSH2 0x8CA JUMP JUMPDEST SWAP6 POP DUP1 NOT DUP5 AND SWAP4 POP DUP1 DUP7 AND DUP5 OR SWAP3 POP POP POP SWAP4 SWAP3 POP POP POP JUMP JUMPDEST PUSH0 DUP2 SWAP1 POP SWAP2 SWAP1 POP JUMP JUMPDEST PUSH0 PUSH2 0x94A PUSH2 0x945 PUSH2 0x940 DUP5 PUSH2 0x40A JUMP JUMPDEST PUSH2 0x927 JUMP JUMPDEST PUSH2 0x40A JUMP JUMPDEST SWAP1 POP SWAP2 SWAP1 POP JUMP JUMPDEST PUSH0 DUP2 SWAP1 POP SWAP2 SWAP1 POP JUMP JUMPDEST PUSH2 0x963 DUP4 PUSH2 0x930 JUMP JUMPDEST PUSH2 0x977 PUSH2 0x96F DUP3 PUSH2 0x951 JUMP JUMPDEST DUP5 DUP5 SLOAD PUSH2 0x8D6 JUMP JUMPDEST DUP3 SSTORE POP POP POP POP JUMP JUMPDEST PUSH0 SWAP1 JUMP JUMPDEST PUSH2 0x98B PUSH2 0x97F JUMP JUMPDEST PUSH2 0x996 DUP2 DUP5 DUP5 PUSH2 0x95A JUMP JUMPDEST POP POP POP JUMP JUMPDEST JUMPDEST DUP2 DUP2 LT ISZERO PUSH2 0x9B9 JUMPI PUSH2 0x9AE PUSH0 DUP3 PUSH2 0x983 JUMP JUMPDEST PUSH1 0x1 DUP2 ADD SWAP1 POP PUSH2 0x99C JUMP JUMPDEST POP POP JUMP JUMPDEST PUSH1 0x1F DUP3 GT ISZERO PUSH2 0x9FE JUMPI PUSH2 0x9CF DUP2 PUSH2 0x8A9 JUMP JUMPDEST PUSH2 0x9D8 DUP5 PUSH2 0x8BB JUMP JUMPDEST DUP2 ADD PUSH1 0x20 DUP6 LT ISZERO PUSH2 0x9E7 JUMPI DUP2 SWAP1 POP JUMPDEST PUSH2 0x9FB PUSH2 0x9F3 DUP6 PUSH2 0x8BB JUMP JUMPDEST DUP4 ADD DUP3 PUSH2 0x99B JUMP JUMPDEST POP POP JUMPDEST POP POP POP JUMP JUMPDEST PUSH0 DUP3 DUP3 SHR SWAP1 POP SWAP3 SWAP2 POP POP JUMP JUMPDEST PUSH0 PUSH2 0xA1E PUSH0 NOT DUP5 PUSH1 0x8 MUL PUSH2 0xA03 JUMP JUMPDEST NOT DUP1 DUP4 AND SWAP2 POP POP SWAP3 SWAP2 POP POP JUMP JUMPDEST PUSH0 PUSH2 0xA36 DUP4 DUP4 PUSH2 0xA0F JUMP JUMPDEST SWAP2 POP DUP3 PUSH1 0x2 MUL DUP3 OR SWAP1 POP SWAP3 SWAP2 POP POP JUMP JUMPDEST PUSH2 0xA4F DUP3 PUSH2 0x6DD JUMP JUMPDEST PUSH8 0xFFFFFFFFFFFFFFFF DUP2 GT ISZERO PUSH2 0xA68 JUMPI PUSH2 0xA67 PUSH2 0x48E JUMP JUMPDEST JUMPDEST PUSH2 0xA72 DUP3 SLOAD PUSH2 0x879 JUMP JUMPDEST PUSH2 0xA7D DUP3 DUP3 DUP6 PUSH2 0x9BD JUMP JUMPDEST PUSH0 PUSH1 0x20 SWAP1 POP PUSH1 0x1F DUP4 GT PUSH1 0x1 DUP2 EQ PUSH2 0xAAE JUMPI PUSH0 DUP5 ISZERO PUSH2 0xA9C JUMPI DUP3 DUP8 ADD MLOAD SWAP1 POP JUMPDEST PUSH2 0xAA6 DUP6 DUP3 PUSH2 0xA2B JUMP JUMPDEST DUP7 SSTORE POP PUSH2 0xB0D JUMP JUMPDEST PUSH1 0x1F NOT DUP5 AND PUSH2 0xABC DUP7 PUSH2 0x8A9 JUMP JUMPDEST PUSH0 JUMPDEST DUP3 DUP2 LT ISZERO PUSH2 0xAE3 JUMPI DUP5 DUP10 ADD MLOAD DUP3 SSTORE PUSH1 0x1 DUP3 ADD SWAP2 POP PUSH1 0x20 DUP6 ADD SWAP5 POP PUSH1 0x20 DUP2 ADD SWAP1 POP PUSH2 0xABE JUMP JUMPDEST DUP7 DUP4 LT ISZERO PUSH2 0xB00 JUMPI DUP5 DUP10 ADD MLOAD PUSH2 0xAFC PUSH1 0x1F DUP10 AND DUP3 PUSH2 0xA0F JUMP JUMPDEST DUP4 SSTORE POP JUMPDEST PUSH1 0x1 PUSH1 0x2 DUP9 MUL ADD DUP9 SSTORE POP POP POP JUMPDEST POP POP POP POP POP POP JUMP JUMPDEST PUSH32 0x4E487B7100000000000000000000000000000000000000000000000000000000 PUSH0 MSTORE PUSH1 0x11 PUSH1 0x4 MSTORE PUSH1 0x24 PUSH0 REVERT JUMPDEST PUSH0 PUSH2 0xB4C DUP3 PUSH2 0x40A JUMP JUMPDEST SWAP2 POP PUSH2 0xB57 DUP4 PUSH2 0x40A JUMP JUMPDEST SWAP3 POP DUP3 DUP3 ADD SWAP1 POP DUP1 DUP3 GT ISZERO PUSH2 0xB6F JUMPI PUSH2 0xB6E PUSH2 0xB15 JUMP JUMPDEST JUMPDEST SWAP3 SWAP2 POP POP JUMP INVALID LOG2 PUSH5 0x6970667358 0x22 SLT KECCAK256 DUP10 0xBF 0xE8 PUSH21 0xD24E20E237D634A53636213F36E0B6681D4327140F 0xA5 PUSH7 0x3FF78FDCB6473 PUSH16 0x6C634300081500330000000000000000 "
				},
				"gasEstimates": {
					"creation": {
						"codeDepositCost": "597400",
						"executionCost": "5635",
						"totalCost": "603035"
					},
					"external": {
						"getLandDetails(uint256)": "infinite",
						"registerNewLand(uint256,string,string,string,uint256,uint256,uint256)": "infinite",
						"registeredLandCount()": "2403"
					}
				},
				"methodIdentifiers": {
					"getLandDetails(uint256)": "fe0cb7dc",
					"registerNewLand(uint256,string,string,string,uint256,uint256,uint256)": "f0770665",
					"registeredLandCount()": "a7613a7d"
				}
			},
			"storageLayout": {
				"storage": [
					{
						"astId": 23,
						"contract": "contracts/Land.sol:LandRegistration",
						"label": "LandDetails",
						"offset": 0,
						"slot": "0",
						"type": "t_mapping(t_uint256,t_struct(LandDetail)18_storage)"
					},
					{
						"astId": 26,
						"contract": "contracts/Land.sol:LandRegistration",
						"label": "registeredLandCount",
						"offset": 0,
						"slot": "1",
						"type": "t_uint256"
					},
					{
						"astId": 28,
						"contract": "contracts/Land.sol:LandRegistration",
						"label": "salesStatus",
						"offset": 0,
						"slot": "2",
						"type": "t_bool"
					}
				],
				"types": {
					"t_bool": {
						"encoding": "inplace",
						"label": "bool",
						"numberOfBytes": "1"
					},
					"t_mapping(t_uint256,t_struct(LandDetail)18_storage)": {
						"encoding": "mapping",
						"key": "t_uint256",
						"label": "mapping(uint256 => struct LandRegistration.LandDetail)",
						"numberOfBytes": "32",
						"value": "t_struct(LandDetail)18_storage"
					},
					"t_string_storage": {
						"encoding": "bytes",
						"label": "string",
						"numberOfBytes": "32"
					},
					"t_struct(LandDetail)18_storage": {
						"encoding": "inplace",
						"label": "struct LandRegistration.LandDetail",
						"members": [
							{
								"astId": 3,
								"contract": "contracts/Land.sol:LandRegistration",
								"label": "surveyNo",
								"offset": 0,
								"slot": "0",
								"type": "t_uint256"
							},
							{
								"astId": 5,
								"contract": "contracts/Land.sol:LandRegistration",
								"label": "district",
								"offset": 0,
								"slot": "1",
								"type": "t_string_storage"
							},
							{
								"astId": 7,
								"contract": "contracts/Land.sol:LandRegistration",
								"label": "taluk",
								"offset": 0,
								"slot": "2",
								"type": "t_string_storage"
							},
							{
								"astId": 9,
								"contract": "contracts/Land.sol:LandRegistration",
								"label": "village",
								"offset": 0,
								"slot": "3",
								"type": "t_string_storage"
							},
							{
								"astId": 11,
								"contract": "contracts/Land.sol:LandRegistration",
								"label": "blockNo",
								"offset": 0,
								"slot": "4",
								"type": "t_uint256"
							},
							{
								"astId": 13,
								"contract": "contracts/Land.sol:LandRegistration",
								"label": "landValue",
								"offset": 0,
								"slot": "5",
								"type": "t_uint256"
							},
							{
								"astId": 15,
								"contract": "contracts/Land.sol:LandRegistration",
								"label": "area",
								"offset": 0,
								"slot": "6",
								"type": "t_uint256"
							},
							{
								"astId": 17,
								"contract": "contracts/Land.sol:LandRegistration",
								"label": "salesStatus",
								"offset": 0,
								"slot": "7",
								"type": "t_bool"
							}
						],
						"numberOfBytes": "256"
					},
					"t_uint256": {
						"encoding": "inplace",
						"label": "uint256",
						"numberOfBytes": "32"
					}
				}
			},
			"userdoc": {
				"kind": "user",
				"methods": {},
				"version": 1
			}
		}
	}
}