{
	"contracts/Cert.sol": {
		"Cert": {
			"abi": [
				{
					"inputs": [],
					"stateMutability": "nonpayable",
					"type": "constructor"
				},
				{
					"inputs": [
						{
							"internalType": "uint256",
							"name": "",
							"type": "uint256"
						}
					],
					"name": "Certificates",
					"outputs": [
						{
							"internalType": "string",
							"name": "name",
							"type": "string"
						},
						{
							"internalType": "string",
							"name": "course",
							"type": "string"
						},
						{
							"internalType": "string",
							"name": "grade",
							"type": "string"
						},
						{
							"internalType": "string",
							"name": "date",
							"type": "string"
						}
					],
					"stateMutability": "view",
					"type": "function"
				},
				{
					"inputs": [
						{
							"internalType": "uint256",
							"name": "_id",
							"type": "uint256"
						},
						{
							"internalType": "string",
							"name": "_name",
							"type": "string"
						},
						{
							"internalType": "string",
							"name": "_course",
							"type": "string"
						},
						{
							"internalType": "string",
							"name": "_grade",
							"type": "string"
						},
						{
							"internalType": "string",
							"name": "_date",
							"type": "string"
						}
					],
					"name": "issueCertificate",
					"outputs": [],
					"stateMutability": "nonpayable",
					"type": "function"
				}
			],
			"devdoc": {
				"kind": "dev",
				"methods": {},
				"version": 1
			},
			"evm": {
				"assembly": "    /* \"contracts/Cert.sol\":57:673  contract Cert{... */\n  mstore(0x40, 0x80)\n    /* \"contracts/Cert.sol\":91:133  constructor(){... */\n  callvalue\n  dup1\n  iszero\n  tag_1\n  jumpi\n  0x00\n  dup1\n  revert\ntag_1:\n  pop\n    /* \"contracts/Cert.sol\":119:129  msg.sender */\n  caller\n    /* \"contracts/Cert.sol\":111:116  admin */\n  0x00\n  dup1\n    /* \"contracts/Cert.sol\":111:129  admin = msg.sender */\n  0x0100\n  exp\n  dup2\n  sload\n  dup2\n  0xffffffffffffffffffffffffffffffffffffffff\n  mul\n  not\n  and\n  swap1\n  dup4\n  0xffffffffffffffffffffffffffffffffffffffff\n  and\n  mul\n  or\n  swap1\n  sstore\n  pop\n    /* \"contracts/Cert.sol\":57:673  contract Cert{... */\n  dataSize(sub_0)\n  dup1\n  dataOffset(sub_0)\n  0x00\n  codecopy\n  0x00\n  return\nstop\n\nsub_0: assembly {\n        /* \"contracts/Cert.sol\":57:673  contract Cert{... */\n      mstore(0x40, 0x80)\n      callvalue\n      dup1\n      iszero\n      tag_1\n      jumpi\n      0x00\n      dup1\n      revert\n    tag_1:\n      pop\n      jumpi(tag_2, lt(calldatasize, 0x04))\n      shr(0xe0, calldataload(0x00))\n      dup1\n      0x9622c836\n      eq\n      tag_3\n      jumpi\n      dup1\n      0xd8e6219e\n      eq\n      tag_4\n      jumpi\n    tag_2:\n      0x00\n      dup1\n      revert\n        /* \"contracts/Cert.sol\":388:437  mapping(uint256=>Certificate) public Certificates */\n    tag_3:\n      tag_5\n      0x04\n      dup1\n      calldatasize\n      sub\n      dup2\n      add\n      swap1\n      tag_6\n      swap2\n      swap1\n      tag_7\n      jump\t// in\n    tag_6:\n      tag_8\n      jump\t// in\n    tag_5:\n      mload(0x40)\n      tag_9\n      swap5\n      swap4\n      swap3\n      swap2\n      swap1\n      tag_10\n      jump\t// in\n    tag_9:\n      mload(0x40)\n      dup1\n      swap2\n      sub\n      swap1\n      return\n        /* \"contracts/Cert.sol\":446:666  function issueCertificate(uint256 _id,string memory _name, string memory _course, string memory _grade, string memory _date) public onlyAdmin{... */\n    tag_4:\n      tag_11\n      0x04\n      dup1\n      calldatasize\n      sub\n      dup2\n      add\n      swap1\n      tag_12\n      swap2\n      swap1\n      tag_13\n      jump\t// in\n    tag_12:\n      tag_14\n      jump\t// in\n    tag_11:\n      stop\n        /* \"contracts/Cert.sol\":388:437  mapping(uint256=>Certificate) public Certificates */\n    tag_8:\n      mstore(0x20, 0x01)\n      dup1\n      0x00\n      mstore\n      keccak256(0x00, 0x40)\n      0x00\n      swap2\n      pop\n      swap1\n      pop\n      dup1\n      0x00\n      add\n      dup1\n      sload\n      tag_15\n      swap1\n      tag_16\n      jump\t// in\n    tag_15:\n      dup1\n      0x1f\n      add\n      0x20\n      dup1\n      swap2\n      div\n      mul\n      0x20\n      add\n      mload(0x40)\n      swap1\n      dup2\n      add\n      0x40\n      mstore\n      dup1\n      swap3\n      swap2\n      swap1\n      dup2\n      dup2\n      mstore\n      0x20\n      add\n      dup3\n      dup1\n      sload\n      tag_17\n      swap1\n      tag_16\n      jump\t// in\n    tag_17:\n      dup1\n      iszero\n      tag_18\n      jumpi\n      dup1\n      0x1f\n      lt\n      tag_19\n      jumpi\n      0x0100\n      dup1\n      dup4\n      sload\n      div\n      mul\n      dup4\n      mstore\n      swap2\n      0x20\n      add\n      swap2\n      jump(tag_18)\n    tag_19:\n      dup3\n      add\n      swap2\n      swap1\n      0x00\n      mstore\n      keccak256(0x00, 0x20)\n      swap1\n    tag_20:\n      dup2\n      sload\n      dup2\n      mstore\n      swap1\n      0x01\n      add\n      swap1\n      0x20\n      add\n      dup1\n      dup4\n      gt\n      tag_20\n      jumpi\n      dup3\n      swap1\n      sub\n      0x1f\n      and\n      dup3\n      add\n      swap2\n    tag_18:\n      pop\n      pop\n      pop\n      pop\n      pop\n      swap1\n      dup1\n      0x01\n      add\n      dup1\n      sload\n      tag_21\n      swap1\n      tag_16\n      jump\t// in\n    tag_21:\n      dup1\n      0x1f\n      add\n      0x20\n      dup1\n      swap2\n      div\n      mul\n      0x20\n      add\n      mload(0x40)\n      swap1\n      dup2\n      add\n      0x40\n      mstore\n      dup1\n      swap3\n      swap2\n      swap1\n      dup2\n      dup2\n      mstore\n      0x20\n      add\n      dup3\n      dup1\n      sload\n      tag_22\n      swap1\n      tag_16\n      jump\t// in\n    tag_22:\n      dup1\n      iszero\n      tag_23\n      jumpi\n      dup1\n      0x1f\n      lt\n      tag_24\n      jumpi\n      0x0100\n      dup1\n      dup4\n      sload\n      div\n      mul\n      dup4\n      mstore\n      swap2\n      0x20\n      add\n      swap2\n      jump(tag_23)\n    tag_24:\n      dup3\n      add\n      swap2\n      swap1\n      0x00\n      mstore\n      keccak256(0x00, 0x20)\n      swap1\n    tag_25:\n      dup2\n      sload\n      dup2\n      mstore\n      swap1\n      0x01\n      add\n      swap1\n      0x20\n      add\n      dup1\n      dup4\n      gt\n      tag_25\n      jumpi\n      dup3\n      swap1\n      sub\n      0x1f\n      and\n      dup3\n      add\n      swap2\n    tag_23:\n      pop\n      pop\n      pop\n      pop\n      pop\n      swap1\n      dup1\n      0x02\n      add\n      dup1\n      sload\n      tag_26\n      swap1\n      tag_16\n      jump\t// in\n    tag_26:\n      dup1\n      0x1f\n      add\n      0x20\n      dup1\n      swap2\n      div\n      mul\n      0x20\n      add\n      mload(0x40)\n      swap1\n      dup2\n      add\n      0x40\n      mstore\n      dup1\n      swap3\n      swap2\n      swap1\n      dup2\n      dup2\n      mstore\n      0x20\n      add\n      dup3\n      dup1\n      sload\n      tag_27\n      swap1\n      tag_16\n      jump\t// in\n    tag_27:\n      dup1\n      iszero\n      tag_28\n      jumpi\n      dup1\n      0x1f\n      lt\n      tag_29\n      jumpi\n      0x0100\n      dup1\n      dup4\n      sload\n      div\n      mul\n      dup4\n      mstore\n      swap2\n      0x20\n      add\n      swap2\n      jump(tag_28)\n    tag_29:\n      dup3\n      add\n      swap2\n      swap1\n      0x00\n      mstore\n      keccak256(0x00, 0x20)\n      swap1\n    tag_30:\n      dup2\n      sload\n      dup2\n      mstore\n      swap1\n      0x01\n      add\n      swap1\n      0x20\n      add\n      dup1\n      dup4\n      gt\n      tag_30\n      jumpi\n      dup3\n      swap1\n      sub\n      0x1f\n      and\n      dup3\n      add\n      swap2\n    tag_28:\n      pop\n      pop\n      pop\n      pop\n      pop\n      swap1\n      dup1\n      0x03\n      add\n      dup1\n      sload\n      tag_31\n      swap1\n      tag_16\n      jump\t// in\n    tag_31:\n      dup1\n      0x1f\n      add\n      0x20\n      dup1\n      swap2\n      div\n      mul\n      0x20\n      add\n      mload(0x40)\n      swap1\n      dup2\n      add\n      0x40\n      mstore\n      dup1\n      swap3\n      swap2\n      swap1\n      dup2\n      dup2\n      mstore\n      0x20\n      add\n      dup3\n      dup1\n      sload\n      tag_32\n      swap1\n      tag_16\n      jump\t// in\n    tag_32:\n      dup1\n      iszero\n      tag_33\n      jumpi\n      dup1\n      0x1f\n      lt\n      tag_34\n      jumpi\n      0x0100\n      dup1\n      dup4\n      sload\n      div\n      mul\n      dup4\n      mstore\n      swap2\n      0x20\n      add\n      swap2\n      jump(tag_33)\n    tag_34:\n      dup3\n      add\n      swap2\n      swap1\n      0x00\n      mstore\n      keccak256(0x00, 0x20)\n      swap1\n    tag_35:\n      dup2\n      sload\n      dup2\n      mstore\n      swap1\n      0x01\n      add\n      swap1\n      0x20\n      add\n      dup1\n      dup4\n      gt\n      tag_35\n      jumpi\n      dup3\n      swap1\n      sub\n      0x1f\n      and\n      dup3\n      add\n      swap2\n    tag_33:\n      pop\n      pop\n      pop\n      pop\n      pop\n      swap1\n      pop\n      dup5\n      jump\t// out\n        /* \"contracts/Cert.sol\":446:666  function issueCertificate(uint256 _id,string memory _name, string memory _course, string memory _grade, string memory _date) public onlyAdmin{... */\n    tag_14:\n        /* \"contracts/Cert.sol\":312:322  msg.sender */\n      caller\n        /* \"contracts/Cert.sol\":305:322  admin==msg.sender */\n      0xffffffffffffffffffffffffffffffffffffffff\n      and\n        /* \"contracts/Cert.sol\":305:310  admin */\n      0x00\n      dup1\n      sload\n      swap1\n      0x0100\n      exp\n      swap1\n      div\n      0xffffffffffffffffffffffffffffffffffffffff\n      and\n        /* \"contracts/Cert.sol\":305:322  admin==msg.sender */\n      0xffffffffffffffffffffffffffffffffffffffff\n      and\n      eq\n        /* \"contracts/Cert.sol\":297:360  require(admin==msg.sender,\"Only admins can call this function\") */\n      tag_37\n      jumpi\n      mload(0x40)\n      0x08c379a000000000000000000000000000000000000000000000000000000000\n      dup2\n      mstore\n      0x04\n      add\n      tag_38\n      swap1\n      tag_39\n      jump\t// in\n    tag_38:\n      mload(0x40)\n      dup1\n      swap2\n      sub\n      swap1\n      revert\n    tag_37:\n        /* \"contracts/Cert.sol\":618:658  Certificate(_name,_course,_grade, _date) */\n      mload(0x40)\n      dup1\n      0x80\n      add\n      0x40\n      mstore\n      dup1\n        /* \"contracts/Cert.sol\":630:635  _name */\n      dup6\n        /* \"contracts/Cert.sol\":618:658  Certificate(_name,_course,_grade, _date) */\n      dup2\n      mstore\n      0x20\n      add\n        /* \"contracts/Cert.sol\":636:643  _course */\n      dup5\n        /* \"contracts/Cert.sol\":618:658  Certificate(_name,_course,_grade, _date) */\n      dup2\n      mstore\n      0x20\n      add\n        /* \"contracts/Cert.sol\":644:650  _grade */\n      dup4\n        /* \"contracts/Cert.sol\":618:658  Certificate(_name,_course,_grade, _date) */\n      dup2\n      mstore\n      0x20\n      add\n        /* \"contracts/Cert.sol\":652:657  _date */\n      dup3\n        /* \"contracts/Cert.sol\":618:658  Certificate(_name,_course,_grade, _date) */\n      dup2\n      mstore\n      pop\n        /* \"contracts/Cert.sol\":598:610  Certificates */\n      0x01\n        /* \"contracts/Cert.sol\":598:615  Certificates[_id] */\n      0x00\n        /* \"contracts/Cert.sol\":611:614  _id */\n      dup8\n        /* \"contracts/Cert.sol\":598:615  Certificates[_id] */\n      dup2\n      mstore\n      0x20\n      add\n      swap1\n      dup2\n      mstore\n      0x20\n      add\n      0x00\n      keccak256\n        /* \"contracts/Cert.sol\":598:658  Certificates[_id] = Certificate(_name,_course,_grade, _date) */\n      0x00\n      dup3\n      add\n      mload\n      dup2\n      0x00\n      add\n      swap1\n      dup2\n      tag_41\n      swap2\n      swap1\n      tag_42\n      jump\t// in\n    tag_41:\n      pop\n      0x20\n      dup3\n      add\n      mload\n      dup2\n      0x01\n      add\n      swap1\n      dup2\n      tag_43\n      swap2\n      swap1\n      tag_42\n      jump\t// in\n    tag_43:\n      pop\n      0x40\n      dup3\n      add\n      mload\n      dup2\n      0x02\n      add\n      swap1\n      dup2\n      tag_44\n      swap2\n      swap1\n      tag_42\n      jump\t// in\n    tag_44:\n      pop\n      0x60\n      dup3\n      add\n      mload\n      dup2\n      0x03\n      add\n      swap1\n      dup2\n      tag_45\n      swap2\n      swap1\n      tag_42\n      jump\t// in\n    tag_45:\n      pop\n      swap1\n      pop\n      pop\n        /* \"contracts/Cert.sol\":446:666  function issueCertificate(uint256 _id,string memory _name, string memory _course, string memory _grade, string memory _date) public onlyAdmin{... */\n      pop\n      pop\n      pop\n      pop\n      pop\n      jump\t// out\n        /* \"#utility.yul\":7:82   */\n    tag_46:\n        /* \"#utility.yul\":40:46   */\n      0x00\n        /* \"#utility.yul\":73:75   */\n      0x40\n        /* \"#utility.yul\":67:76   */\n      mload\n        /* \"#utility.yul\":57:76   */\n      swap1\n      pop\n        /* \"#utility.yul\":7:82   */\n      swap1\n      jump\t// out\n        /* \"#utility.yul\":88:205   */\n    tag_47:\n        /* \"#utility.yul\":197:198   */\n      0x00\n        /* \"#utility.yul\":194:195   */\n      dup1\n        /* \"#utility.yul\":187:199   */\n      revert\n        /* \"#utility.yul\":211:328   */\n    tag_48:\n        /* \"#utility.yul\":320:321   */\n      0x00\n        /* \"#utility.yul\":317:318   */\n      dup1\n        /* \"#utility.yul\":310:322   */\n      revert\n        /* \"#utility.yul\":334:411   */\n    tag_49:\n        /* \"#utility.yul\":371:378   */\n      0x00\n        /* \"#utility.yul\":400:405   */\n      dup2\n        /* \"#utility.yul\":389:405   */\n      swap1\n      pop\n        /* \"#utility.yul\":334:411   */\n      swap2\n      swap1\n      pop\n      jump\t// out\n        /* \"#utility.yul\":417:539   */\n    tag_50:\n        /* \"#utility.yul\":490:514   */\n      tag_90\n        /* \"#utility.yul\":508:513   */\n      dup2\n        /* \"#utility.yul\":490:514   */\n      tag_49\n      jump\t// in\n    tag_90:\n        /* \"#utility.yul\":483:488   */\n      dup2\n        /* \"#utility.yul\":480:515   */\n      eq\n        /* \"#utility.yul\":470:533   */\n      tag_91\n      jumpi\n        /* \"#utility.yul\":529:530   */\n      0x00\n        /* \"#utility.yul\":526:527   */\n      dup1\n        /* \"#utility.yul\":519:531   */\n      revert\n        /* \"#utility.yul\":470:533   */\n    tag_91:\n        /* \"#utility.yul\":417:539   */\n      pop\n      jump\t// out\n        /* \"#utility.yul\":545:684   */\n    tag_51:\n        /* \"#utility.yul\":591:596   */\n      0x00\n        /* \"#utility.yul\":629:635   */\n      dup2\n        /* \"#utility.yul\":616:636   */\n      calldataload\n        /* \"#utility.yul\":607:636   */\n      swap1\n      pop\n        /* \"#utility.yul\":645:678   */\n      tag_93\n        /* \"#utility.yul\":672:677   */\n      dup2\n        /* \"#utility.yul\":645:678   */\n      tag_50\n      jump\t// in\n    tag_93:\n        /* \"#utility.yul\":545:684   */\n      swap3\n      swap2\n      pop\n      pop\n      jump\t// out\n        /* \"#utility.yul\":690:1019   */\n    tag_7:\n        /* \"#utility.yul\":749:755   */\n      0x00\n        /* \"#utility.yul\":798:800   */\n      0x20\n        /* \"#utility.yul\":786:795   */\n      dup3\n        /* \"#utility.yul\":777:784   */\n      dup5\n        /* \"#utility.yul\":773:796   */\n      sub\n        /* \"#utility.yul\":769:801   */\n      slt\n        /* \"#utility.yul\":766:885   */\n      iszero\n      tag_95\n      jumpi\n        /* \"#utility.yul\":804:883   */\n      tag_96\n      tag_47\n      jump\t// in\n    tag_96:\n        /* \"#utility.yul\":766:885   */\n    tag_95:\n        /* \"#utility.yul\":924:925   */\n      0x00\n        /* \"#utility.yul\":949:1002   */\n      tag_97\n        /* \"#utility.yul\":994:1001   */\n      dup5\n        /* \"#utility.yul\":985:991   */\n      dup3\n        /* \"#utility.yul\":974:983   */\n      dup6\n        /* \"#utility.yul\":970:992   */\n      add\n        /* \"#utility.yul\":949:1002   */\n      tag_51\n      jump\t// in\n    tag_97:\n        /* \"#utility.yul\":939:1002   */\n      swap2\n      pop\n        /* \"#utility.yul\":895:1012   */\n      pop\n        /* \"#utility.yul\":690:1019   */\n      swap3\n      swap2\n      pop\n      pop\n      jump\t// out\n        /* \"#utility.yul\":1025:1124   */\n    tag_52:\n        /* \"#utility.yul\":1077:1083   */\n      0x00\n        /* \"#utility.yul\":1111:1116   */\n      dup2\n        /* \"#utility.yul\":1105:1117   */\n      mload\n        /* \"#utility.yul\":1095:1117   */\n      swap1\n      pop\n        /* \"#utility.yul\":1025:1124   */\n      swap2\n      swap1\n      pop\n      jump\t// out\n        /* \"#utility.yul\":1130:1299   */\n    tag_53:\n        /* \"#utility.yul\":1214:1225   */\n      0x00\n        /* \"#utility.yul\":1248:1254   */\n      dup3\n        /* \"#utility.yul\":1243:1246   */\n      dup3\n        /* \"#utility.yul\":1236:1255   */\n      mstore\n        /* \"#utility.yul\":1288:1292   */\n      0x20\n        /* \"#utility.yul\":1283:1286   */\n      dup3\n        /* \"#utility.yul\":1279:1293   */\n      add\n        /* \"#utility.yul\":1264:1293   */\n      swap1\n      pop\n        /* \"#utility.yul\":1130:1299   */\n      swap3\n      swap2\n      pop\n      pop\n      jump\t// out\n        /* \"#utility.yul\":1305:1551   */\n    tag_54:\n        /* \"#utility.yul\":1386:1387   */\n      0x00\n        /* \"#utility.yul\":1396:1509   */\n    tag_101:\n        /* \"#utility.yul\":1410:1416   */\n      dup4\n        /* \"#utility.yul\":1407:1408   */\n      dup2\n        /* \"#utility.yul\":1404:1417   */\n      lt\n        /* \"#utility.yul\":1396:1509   */\n      iszero\n      tag_103\n      jumpi\n        /* \"#utility.yul\":1495:1496   */\n      dup1\n        /* \"#utility.yul\":1490:1493   */\n      dup3\n        /* \"#utility.yul\":1486:1497   */\n      add\n        /* \"#utility.yul\":1480:1498   */\n      mload\n        /* \"#utility.yul\":1476:1477   */\n      dup2\n        /* \"#utility.yul\":1471:1474   */\n      dup5\n        /* \"#utility.yul\":1467:1478   */\n      add\n        /* \"#utility.yul\":1460:1499   */\n      mstore\n        /* \"#utility.yul\":1432:1434   */\n      0x20\n        /* \"#utility.yul\":1429:1430   */\n      dup2\n        /* \"#utility.yul\":1425:1435   */\n      add\n        /* \"#utility.yul\":1420:1435   */\n      swap1\n      pop\n        /* \"#utility.yul\":1396:1509   */\n      jump(tag_101)\n    tag_103:\n        /* \"#utility.yul\":1543:1544   */\n      0x00\n        /* \"#utility.yul\":1534:1540   */\n      dup5\n        /* \"#utility.yul\":1529:1532   */\n      dup5\n        /* \"#utility.yul\":1525:1541   */\n      add\n        /* \"#utility.yul\":1518:1545   */\n      mstore\n        /* \"#utility.yul\":1367:1551   */\n      pop\n        /* \"#utility.yul\":1305:1551   */\n      pop\n      pop\n      pop\n      jump\t// out\n        /* \"#utility.yul\":1557:1659   */\n    tag_55:\n        /* \"#utility.yul\":1598:1604   */\n      0x00\n        /* \"#utility.yul\":1649:1651   */\n      0x1f\n        /* \"#utility.yul\":1645:1652   */\n      not\n        /* \"#utility.yul\":1640:1642   */\n      0x1f\n        /* \"#utility.yul\":1633:1638   */\n      dup4\n        /* \"#utility.yul\":1629:1643   */\n      add\n        /* \"#utility.yul\":1625:1653   */\n      and\n        /* \"#utility.yul\":1615:1653   */\n      swap1\n      pop\n        /* \"#utility.yul\":1557:1659   */\n      swap2\n      swap1\n      pop\n      jump\t// out\n        /* \"#utility.yul\":1665:2042   */\n    tag_56:\n        /* \"#utility.yul\":1753:1756   */\n      0x00\n        /* \"#utility.yul\":1781:1820   */\n      tag_106\n        /* \"#utility.yul\":1814:1819   */\n      dup3\n        /* \"#utility.yul\":1781:1820   */\n      tag_52\n      jump\t// in\n    tag_106:\n        /* \"#utility.yul\":1836:1907   */\n      tag_107\n        /* \"#utility.yul\":1900:1906   */\n      dup2\n        /* \"#utility.yul\":1895:1898   */\n      dup6\n        /* \"#utility.yul\":1836:1907   */\n      tag_53\n      jump\t// in\n    tag_107:\n        /* \"#utility.yul\":1829:1907   */\n      swap4\n      pop\n        /* \"#utility.yul\":1916:1981   */\n      tag_108\n        /* \"#utility.yul\":1974:1980   */\n      dup2\n        /* \"#utility.yul\":1969:1972   */\n      dup6\n        /* \"#utility.yul\":1962:1966   */\n      0x20\n        /* \"#utility.yul\":1955:1960   */\n      dup7\n        /* \"#utility.yul\":1951:1967   */\n      add\n        /* \"#utility.yul\":1916:1981   */\n      tag_54\n      jump\t// in\n    tag_108:\n        /* \"#utility.yul\":2006:2035   */\n      tag_109\n        /* \"#utility.yul\":2028:2034   */\n      dup2\n        /* \"#utility.yul\":2006:2035   */\n      tag_55\n      jump\t// in\n    tag_109:\n        /* \"#utility.yul\":2001:2004   */\n      dup5\n        /* \"#utility.yul\":1997:2036   */\n      add\n        /* \"#utility.yul\":1990:2036   */\n      swap2\n      pop\n        /* \"#utility.yul\":1757:2042   */\n      pop\n        /* \"#utility.yul\":1665:2042   */\n      swap3\n      swap2\n      pop\n      pop\n      jump\t// out\n        /* \"#utility.yul\":2048:2965   */\n    tag_10:\n        /* \"#utility.yul\":2305:2309   */\n      0x00\n        /* \"#utility.yul\":2343:2346   */\n      0x80\n        /* \"#utility.yul\":2332:2341   */\n      dup3\n        /* \"#utility.yul\":2328:2347   */\n      add\n        /* \"#utility.yul\":2320:2347   */\n      swap1\n      pop\n        /* \"#utility.yul\":2393:2402   */\n      dup2\n        /* \"#utility.yul\":2387:2391   */\n      dup2\n        /* \"#utility.yul\":2383:2403   */\n      sub\n        /* \"#utility.yul\":2379:2380   */\n      0x00\n        /* \"#utility.yul\":2368:2377   */\n      dup4\n        /* \"#utility.yul\":2364:2381   */\n      add\n        /* \"#utility.yul\":2357:2404   */\n      mstore\n        /* \"#utility.yul\":2421:2499   */\n      tag_111\n        /* \"#utility.yul\":2494:2498   */\n      dup2\n        /* \"#utility.yul\":2485:2491   */\n      dup8\n        /* \"#utility.yul\":2421:2499   */\n      tag_56\n      jump\t// in\n    tag_111:\n        /* \"#utility.yul\":2413:2499   */\n      swap1\n      pop\n        /* \"#utility.yul\":2546:2555   */\n      dup2\n        /* \"#utility.yul\":2540:2544   */\n      dup2\n        /* \"#utility.yul\":2536:2556   */\n      sub\n        /* \"#utility.yul\":2531:2533   */\n      0x20\n        /* \"#utility.yul\":2520:2529   */\n      dup4\n        /* \"#utility.yul\":2516:2534   */\n      add\n        /* \"#utility.yul\":2509:2557   */\n      mstore\n        /* \"#utility.yul\":2574:2652   */\n      tag_112\n        /* \"#utility.yul\":2647:2651   */\n      dup2\n        /* \"#utility.yul\":2638:2644   */\n      dup7\n        /* \"#utility.yul\":2574:2652   */\n      tag_56\n      jump\t// in\n    tag_112:\n        /* \"#utility.yul\":2566:2652   */\n      swap1\n      pop\n        /* \"#utility.yul\":2699:2708   */\n      dup2\n        /* \"#utility.yul\":2693:2697   */\n      dup2\n        /* \"#utility.yul\":2689:2709   */\n      sub\n        /* \"#utility.yul\":2684:2686   */\n      0x40\n        /* \"#utility.yul\":2673:2682   */\n      dup4\n        /* \"#utility.yul\":2669:2687   */\n      add\n        /* \"#utility.yul\":2662:2710   */\n      mstore\n        /* \"#utility.yul\":2727:2805   */\n      tag_113\n        /* \"#utility.yul\":2800:2804   */\n      dup2\n        /* \"#utility.yul\":2791:2797   */\n      dup6\n        /* \"#utility.yul\":2727:2805   */\n      tag_56\n      jump\t// in\n    tag_113:\n        /* \"#utility.yul\":2719:2805   */\n      swap1\n      pop\n        /* \"#utility.yul\":2852:2861   */\n      dup2\n        /* \"#utility.yul\":2846:2850   */\n      dup2\n        /* \"#utility.yul\":2842:2862   */\n      sub\n        /* \"#utility.yul\":2837:2839   */\n      0x60\n        /* \"#utility.yul\":2826:2835   */\n      dup4\n        /* \"#utility.yul\":2822:2840   */\n      add\n        /* \"#utility.yul\":2815:2863   */\n      mstore\n        /* \"#utility.yul\":2880:2958   */\n      tag_114\n        /* \"#utility.yul\":2953:2957   */\n      dup2\n        /* \"#utility.yul\":2944:2950   */\n      dup5\n        /* \"#utility.yul\":2880:2958   */\n      tag_56\n      jump\t// in\n    tag_114:\n        /* \"#utility.yul\":2872:2958   */\n      swap1\n      pop\n        /* \"#utility.yul\":2048:2965   */\n      swap6\n      swap5\n      pop\n      pop\n      pop\n      pop\n      pop\n      jump\t// out\n        /* \"#utility.yul\":2971:3088   */\n    tag_57:\n        /* \"#utility.yul\":3080:3081   */\n      0x00\n        /* \"#utility.yul\":3077:3078   */\n      dup1\n        /* \"#utility.yul\":3070:3082   */\n      revert\n        /* \"#utility.yul\":3094:3211   */\n    tag_58:\n        /* \"#utility.yul\":3203:3204   */\n      0x00\n        /* \"#utility.yul\":3200:3201   */\n      dup1\n        /* \"#utility.yul\":3193:3205   */\n      revert\n        /* \"#utility.yul\":3217:3397   */\n    tag_59:\n        /* \"#utility.yul\":3265:3342   */\n      0x4e487b7100000000000000000000000000000000000000000000000000000000\n        /* \"#utility.yul\":3262:3263   */\n      0x00\n        /* \"#utility.yul\":3255:3343   */\n      mstore\n        /* \"#utility.yul\":3362:3366   */\n      0x41\n        /* \"#utility.yul\":3359:3360   */\n      0x04\n        /* \"#utility.yul\":3352:3367   */\n      mstore\n        /* \"#utility.yul\":3386:3390   */\n      0x24\n        /* \"#utility.yul\":3383:3384   */\n      0x00\n        /* \"#utility.yul\":3376:3391   */\n      revert\n        /* \"#utility.yul\":3403:3684   */\n    tag_60:\n        /* \"#utility.yul\":3486:3513   */\n      tag_119\n        /* \"#utility.yul\":3508:3512   */\n      dup3\n        /* \"#utility.yul\":3486:3513   */\n      tag_55\n      jump\t// in\n    tag_119:\n        /* \"#utility.yul\":3478:3484   */\n      dup2\n        /* \"#utility.yul\":3474:3514   */\n      add\n        /* \"#utility.yul\":3616:3622   */\n      dup2\n        /* \"#utility.yul\":3604:3614   */\n      dup2\n        /* \"#utility.yul\":3601:3623   */\n      lt\n        /* \"#utility.yul\":3580:3598   */\n      0xffffffffffffffff\n        /* \"#utility.yul\":3568:3578   */\n      dup3\n        /* \"#utility.yul\":3565:3599   */\n      gt\n        /* \"#utility.yul\":3562:3624   */\n      or\n        /* \"#utility.yul\":3559:3647   */\n      iszero\n      tag_120\n      jumpi\n        /* \"#utility.yul\":3627:3645   */\n      tag_121\n      tag_59\n      jump\t// in\n    tag_121:\n        /* \"#utility.yul\":3559:3647   */\n    tag_120:\n        /* \"#utility.yul\":3667:3677   */\n      dup1\n        /* \"#utility.yul\":3663:3665   */\n      0x40\n        /* \"#utility.yul\":3656:3678   */\n      mstore\n        /* \"#utility.yul\":3446:3684   */\n      pop\n        /* \"#utility.yul\":3403:3684   */\n      pop\n      pop\n      jump\t// out\n        /* \"#utility.yul\":3690:3819   */\n    tag_61:\n        /* \"#utility.yul\":3724:3730   */\n      0x00\n        /* \"#utility.yul\":3751:3771   */\n      tag_123\n      tag_46\n      jump\t// in\n    tag_123:\n        /* \"#utility.yul\":3741:3771   */\n      swap1\n      pop\n        /* \"#utility.yul\":3780:3813   */\n      tag_124\n        /* \"#utility.yul\":3808:3812   */\n      dup3\n        /* \"#utility.yul\":3800:3806   */\n      dup3\n        /* \"#utility.yul\":3780:3813   */\n      tag_60\n      jump\t// in\n    tag_124:\n        /* \"#utility.yul\":3690:3819   */\n      swap2\n      swap1\n      pop\n      jump\t// out\n        /* \"#utility.yul\":3825:4133   */\n    tag_62:\n        /* \"#utility.yul\":3887:3891   */\n      0x00\n        /* \"#utility.yul\":3977:3995   */\n      0xffffffffffffffff\n        /* \"#utility.yul\":3969:3975   */\n      dup3\n        /* \"#utility.yul\":3966:3996   */\n      gt\n        /* \"#utility.yul\":3963:4019   */\n      iszero\n      tag_126\n      jumpi\n        /* \"#utility.yul\":3999:4017   */\n      tag_127\n      tag_59\n      jump\t// in\n    tag_127:\n        /* \"#utility.yul\":3963:4019   */\n    tag_126:\n        /* \"#utility.yul\":4037:4066   */\n      tag_128\n        /* \"#utility.yul\":4059:4065   */\n      dup3\n        /* \"#utility.yul\":4037:4066   */\n      tag_55\n      jump\t// in\n    tag_128:\n        /* \"#utility.yul\":4029:4066   */\n      swap1\n      pop\n        /* \"#utility.yul\":4121:4125   */\n      0x20\n        /* \"#utility.yul\":4115:4119   */\n      dup2\n        /* \"#utility.yul\":4111:4126   */\n      add\n        /* \"#utility.yul\":4103:4126   */\n      swap1\n      pop\n        /* \"#utility.yul\":3825:4133   */\n      swap2\n      swap1\n      pop\n      jump\t// out\n        /* \"#utility.yul\":4139:4285   */\n    tag_63:\n        /* \"#utility.yul\":4236:4242   */\n      dup3\n        /* \"#utility.yul\":4231:4234   */\n      dup2\n        /* \"#utility.yul\":4226:4229   */\n      dup4\n        /* \"#utility.yul\":4213:4243   */\n      calldatacopy\n        /* \"#utility.yul\":4277:4278   */\n      0x00\n        /* \"#utility.yul\":4268:4274   */\n      dup4\n        /* \"#utility.yul\":4263:4266   */\n      dup4\n        /* \"#utility.yul\":4259:4275   */\n      add\n        /* \"#utility.yul\":4252:4279   */\n      mstore\n        /* \"#utility.yul\":4139:4285   */\n      pop\n      pop\n      pop\n      jump\t// out\n        /* \"#utility.yul\":4291:4716   */\n    tag_64:\n        /* \"#utility.yul\":4369:4374   */\n      0x00\n        /* \"#utility.yul\":4394:4460   */\n      tag_131\n        /* \"#utility.yul\":4410:4459   */\n      tag_132\n        /* \"#utility.yul\":4452:4458   */\n      dup5\n        /* \"#utility.yul\":4410:4459   */\n      tag_62\n      jump\t// in\n    tag_132:\n        /* \"#utility.yul\":4394:4460   */\n      tag_61\n      jump\t// in\n    tag_131:\n        /* \"#utility.yul\":4385:4460   */\n      swap1\n      pop\n        /* \"#utility.yul\":4483:4489   */\n      dup3\n        /* \"#utility.yul\":4476:4481   */\n      dup2\n        /* \"#utility.yul\":4469:4490   */\n      mstore\n        /* \"#utility.yul\":4521:4525   */\n      0x20\n        /* \"#utility.yul\":4514:4519   */\n      dup2\n        /* \"#utility.yul\":4510:4526   */\n      add\n        /* \"#utility.yul\":4559:4562   */\n      dup5\n        /* \"#utility.yul\":4550:4556   */\n      dup5\n        /* \"#utility.yul\":4545:4548   */\n      dup5\n        /* \"#utility.yul\":4541:4557   */\n      add\n        /* \"#utility.yul\":4538:4563   */\n      gt\n        /* \"#utility.yul\":4535:4647   */\n      iszero\n      tag_133\n      jumpi\n        /* \"#utility.yul\":4566:4645   */\n      tag_134\n      tag_58\n      jump\t// in\n    tag_134:\n        /* \"#utility.yul\":4535:4647   */\n    tag_133:\n        /* \"#utility.yul\":4656:4710   */\n      tag_135\n        /* \"#utility.yul\":4703:4709   */\n      dup5\n        /* \"#utility.yul\":4698:4701   */\n      dup3\n        /* \"#utility.yul\":4693:4696   */\n      dup6\n        /* \"#utility.yul\":4656:4710   */\n      tag_63\n      jump\t// in\n    tag_135:\n        /* \"#utility.yul\":4375:4716   */\n      pop\n        /* \"#utility.yul\":4291:4716   */\n      swap4\n      swap3\n      pop\n      pop\n      pop\n      jump\t// out\n        /* \"#utility.yul\":4736:5076   */\n    tag_65:\n        /* \"#utility.yul\":4792:4797   */\n      0x00\n        /* \"#utility.yul\":4841:4844   */\n      dup3\n        /* \"#utility.yul\":4834:4838   */\n      0x1f\n        /* \"#utility.yul\":4826:4832   */\n      dup4\n        /* \"#utility.yul\":4822:4839   */\n      add\n        /* \"#utility.yul\":4818:4845   */\n      slt\n        /* \"#utility.yul\":4808:4930   */\n      tag_137\n      jumpi\n        /* \"#utility.yul\":4849:4928   */\n      tag_138\n      tag_57\n      jump\t// in\n    tag_138:\n        /* \"#utility.yul\":4808:4930   */\n    tag_137:\n        /* \"#utility.yul\":4966:4972   */\n      dup2\n        /* \"#utility.yul\":4953:4973   */\n      calldataload\n        /* \"#utility.yul\":4991:5070   */\n      tag_139\n        /* \"#utility.yul\":5066:5069   */\n      dup5\n        /* \"#utility.yul\":5058:5064   */\n      dup3\n        /* \"#utility.yul\":5051:5055   */\n      0x20\n        /* \"#utility.yul\":5043:5049   */\n      dup7\n        /* \"#utility.yul\":5039:5056   */\n      add\n        /* \"#utility.yul\":4991:5070   */\n      tag_64\n      jump\t// in\n    tag_139:\n        /* \"#utility.yul\":4982:5070   */\n      swap2\n      pop\n        /* \"#utility.yul\":4798:5076   */\n      pop\n        /* \"#utility.yul\":4736:5076   */\n      swap3\n      swap2\n      pop\n      pop\n      jump\t// out\n        /* \"#utility.yul\":5082:6713   */\n    tag_13:\n        /* \"#utility.yul\":5217:5223   */\n      0x00\n        /* \"#utility.yul\":5225:5231   */\n      dup1\n        /* \"#utility.yul\":5233:5239   */\n      0x00\n        /* \"#utility.yul\":5241:5247   */\n      dup1\n        /* \"#utility.yul\":5249:5255   */\n      0x00\n        /* \"#utility.yul\":5298:5301   */\n      0xa0\n        /* \"#utility.yul\":5286:5295   */\n      dup7\n        /* \"#utility.yul\":5277:5284   */\n      dup9\n        /* \"#utility.yul\":5273:5296   */\n      sub\n        /* \"#utility.yul\":5269:5302   */\n      slt\n        /* \"#utility.yul\":5266:5386   */\n      iszero\n      tag_141\n      jumpi\n        /* \"#utility.yul\":5305:5384   */\n      tag_142\n      tag_47\n      jump\t// in\n    tag_142:\n        /* \"#utility.yul\":5266:5386   */\n    tag_141:\n        /* \"#utility.yul\":5425:5426   */\n      0x00\n        /* \"#utility.yul\":5450:5503   */\n      tag_143\n        /* \"#utility.yul\":5495:5502   */\n      dup9\n        /* \"#utility.yul\":5486:5492   */\n      dup3\n        /* \"#utility.yul\":5475:5484   */\n      dup10\n        /* \"#utility.yul\":5471:5493   */\n      add\n        /* \"#utility.yul\":5450:5503   */\n      tag_51\n      jump\t// in\n    tag_143:\n        /* \"#utility.yul\":5440:5503   */\n      swap6\n      pop\n        /* \"#utility.yul\":5396:5513   */\n      pop\n        /* \"#utility.yul\":5580:5582   */\n      0x20\n        /* \"#utility.yul\":5569:5578   */\n      dup7\n        /* \"#utility.yul\":5565:5583   */\n      add\n        /* \"#utility.yul\":5552:5584   */\n      calldataload\n        /* \"#utility.yul\":5611:5629   */\n      0xffffffffffffffff\n        /* \"#utility.yul\":5603:5609   */\n      dup2\n        /* \"#utility.yul\":5600:5630   */\n      gt\n        /* \"#utility.yul\":5597:5714   */\n      iszero\n      tag_144\n      jumpi\n        /* \"#utility.yul\":5633:5712   */\n      tag_145\n      tag_48\n      jump\t// in\n    tag_145:\n        /* \"#utility.yul\":5597:5714   */\n    tag_144:\n        /* \"#utility.yul\":5738:5801   */\n      tag_146\n        /* \"#utility.yul\":5793:5800   */\n      dup9\n        /* \"#utility.yul\":5784:5790   */\n      dup3\n        /* \"#utility.yul\":5773:5782   */\n      dup10\n        /* \"#utility.yul\":5769:5791   */\n      add\n        /* \"#utility.yul\":5738:5801   */\n      tag_65\n      jump\t// in\n    tag_146:\n        /* \"#utility.yul\":5728:5801   */\n      swap5\n      pop\n        /* \"#utility.yul\":5523:5811   */\n      pop\n        /* \"#utility.yul\":5878:5880   */\n      0x40\n        /* \"#utility.yul\":5867:5876   */\n      dup7\n        /* \"#utility.yul\":5863:5881   */\n      add\n        /* \"#utility.yul\":5850:5882   */\n      calldataload\n        /* \"#utility.yul\":5909:5927   */\n      0xffffffffffffffff\n        /* \"#utility.yul\":5901:5907   */\n      dup2\n        /* \"#utility.yul\":5898:5928   */\n      gt\n        /* \"#utility.yul\":5895:6012   */\n      iszero\n      tag_147\n      jumpi\n        /* \"#utility.yul\":5931:6010   */\n      tag_148\n      tag_48\n      jump\t// in\n    tag_148:\n        /* \"#utility.yul\":5895:6012   */\n    tag_147:\n        /* \"#utility.yul\":6036:6099   */\n      tag_149\n        /* \"#utility.yul\":6091:6098   */\n      dup9\n        /* \"#utility.yul\":6082:6088   */\n      dup3\n        /* \"#utility.yul\":6071:6080   */\n      dup10\n        /* \"#utility.yul\":6067:6089   */\n      add\n        /* \"#utility.yul\":6036:6099   */\n      tag_65\n      jump\t// in\n    tag_149:\n        /* \"#utility.yul\":6026:6099   */\n      swap4\n      pop\n        /* \"#utility.yul\":5821:6109   */\n      pop\n        /* \"#utility.yul\":6176:6178   */\n      0x60\n        /* \"#utility.yul\":6165:6174   */\n      dup7\n        /* \"#utility.yul\":6161:6179   */\n      add\n        /* \"#utility.yul\":6148:6180   */\n      calldataload\n        /* \"#utility.yul\":6207:6225   */\n      0xffffffffffffffff\n        /* \"#utility.yul\":6199:6205   */\n      dup2\n        /* \"#utility.yul\":6196:6226   */\n      gt\n        /* \"#utility.yul\":6193:6310   */\n      iszero\n      tag_150\n      jumpi\n        /* \"#utility.yul\":6229:6308   */\n      tag_151\n      tag_48\n      jump\t// in\n    tag_151:\n        /* \"#utility.yul\":6193:6310   */\n    tag_150:\n        /* \"#utility.yul\":6334:6397   */\n      tag_152\n        /* \"#utility.yul\":6389:6396   */\n      dup9\n        /* \"#utility.yul\":6380:6386   */\n      dup3\n        /* \"#utility.yul\":6369:6378   */\n      dup10\n        /* \"#utility.yul\":6365:6387   */\n      add\n        /* \"#utility.yul\":6334:6397   */\n      tag_65\n      jump\t// in\n    tag_152:\n        /* \"#utility.yul\":6324:6397   */\n      swap3\n      pop\n        /* \"#utility.yul\":6119:6407   */\n      pop\n        /* \"#utility.yul\":6474:6477   */\n      0x80\n        /* \"#utility.yul\":6463:6472   */\n      dup7\n        /* \"#utility.yul\":6459:6478   */\n      add\n        /* \"#utility.yul\":6446:6479   */\n      calldataload\n        /* \"#utility.yul\":6506:6524   */\n      0xffffffffffffffff\n        /* \"#utility.yul\":6498:6504   */\n      dup2\n        /* \"#utility.yul\":6495:6525   */\n      gt\n        /* \"#utility.yul\":6492:6609   */\n      iszero\n      tag_153\n      jumpi\n        /* \"#utility.yul\":6528:6607   */\n      tag_154\n      tag_48\n      jump\t// in\n    tag_154:\n        /* \"#utility.yul\":6492:6609   */\n    tag_153:\n        /* \"#utility.yul\":6633:6696   */\n      tag_155\n        /* \"#utility.yul\":6688:6695   */\n      dup9\n        /* \"#utility.yul\":6679:6685   */\n      dup3\n        /* \"#utility.yul\":6668:6677   */\n      dup10\n        /* \"#utility.yul\":6664:6686   */\n      add\n        /* \"#utility.yul\":6633:6696   */\n      tag_65\n      jump\t// in\n    tag_155:\n        /* \"#utility.yul\":6623:6696   */\n      swap2\n      pop\n        /* \"#utility.yul\":6417:6706   */\n      pop\n        /* \"#utility.yul\":5082:6713   */\n      swap3\n      swap6\n      pop\n      swap3\n      swap6\n      swap1\n      swap4\n      pop\n      jump\t// out\n        /* \"#utility.yul\":6719:6899   */\n    tag_66:\n        /* \"#utility.yul\":6767:6844   */\n      0x4e487b7100000000000000000000000000000000000000000000000000000000\n        /* \"#utility.yul\":6764:6765   */\n      0x00\n        /* \"#utility.yul\":6757:6845   */\n      mstore\n        /* \"#utility.yul\":6864:6868   */\n      0x22\n        /* \"#utility.yul\":6861:6862   */\n      0x04\n        /* \"#utility.yul\":6854:6869   */\n      mstore\n        /* \"#utility.yul\":6888:6892   */\n      0x24\n        /* \"#utility.yul\":6885:6886   */\n      0x00\n        /* \"#utility.yul\":6878:6893   */\n      revert\n        /* \"#utility.yul\":6905:7225   */\n    tag_16:\n        /* \"#utility.yul\":6949:6955   */\n      0x00\n        /* \"#utility.yul\":6986:6987   */\n      0x02\n        /* \"#utility.yul\":6980:6984   */\n      dup3\n        /* \"#utility.yul\":6976:6988   */\n      div\n        /* \"#utility.yul\":6966:6988   */\n      swap1\n      pop\n        /* \"#utility.yul\":7033:7034   */\n      0x01\n        /* \"#utility.yul\":7027:7031   */\n      dup3\n        /* \"#utility.yul\":7023:7035   */\n      and\n        /* \"#utility.yul\":7054:7072   */\n      dup1\n        /* \"#utility.yul\":7044:7125   */\n      tag_158\n      jumpi\n        /* \"#utility.yul\":7110:7114   */\n      0x7f\n        /* \"#utility.yul\":7102:7108   */\n      dup3\n        /* \"#utility.yul\":7098:7115   */\n      and\n        /* \"#utility.yul\":7088:7115   */\n      swap2\n      pop\n        /* \"#utility.yul\":7044:7125   */\n    tag_158:\n        /* \"#utility.yul\":7172:7174   */\n      0x20\n        /* \"#utility.yul\":7164:7170   */\n      dup3\n        /* \"#utility.yul\":7161:7175   */\n      lt\n        /* \"#utility.yul\":7141:7159   */\n      dup2\n        /* \"#utility.yul\":7138:7176   */\n      sub\n        /* \"#utility.yul\":7135:7219   */\n      tag_159\n      jumpi\n        /* \"#utility.yul\":7191:7209   */\n      tag_160\n      tag_66\n      jump\t// in\n    tag_160:\n        /* \"#utility.yul\":7135:7219   */\n    tag_159:\n        /* \"#utility.yul\":6956:7225   */\n      pop\n        /* \"#utility.yul\":6905:7225   */\n      swap2\n      swap1\n      pop\n      jump\t// out\n        /* \"#utility.yul\":7231:7452   */\n    tag_67:\n        /* \"#utility.yul\":7371:7405   */\n      0x4f6e6c792061646d696e732063616e2063616c6c20746869732066756e637469\n        /* \"#utility.yul\":7367:7368   */\n      0x00\n        /* \"#utility.yul\":7359:7365   */\n      dup3\n        /* \"#utility.yul\":7355:7369   */\n      add\n        /* \"#utility.yul\":7348:7406   */\n      mstore\n        /* \"#utility.yul\":7440:7444   */\n      0x6f6e000000000000000000000000000000000000000000000000000000000000\n        /* \"#utility.yul\":7435:7437   */\n      0x20\n        /* \"#utility.yul\":7427:7433   */\n      dup3\n        /* \"#utility.yul\":7423:7438   */\n      add\n        /* \"#utility.yul\":7416:7445   */\n      mstore\n        /* \"#utility.yul\":7231:7452   */\n      pop\n      jump\t// out\n        /* \"#utility.yul\":7458:7824   */\n    tag_68:\n        /* \"#utility.yul\":7600:7603   */\n      0x00\n        /* \"#utility.yul\":7621:7688   */\n      tag_163\n        /* \"#utility.yul\":7685:7687   */\n      0x22\n        /* \"#utility.yul\":7680:7683   */\n      dup4\n        /* \"#utility.yul\":7621:7688   */\n      tag_53\n      jump\t// in\n    tag_163:\n        /* \"#utility.yul\":7614:7688   */\n      swap2\n      pop\n        /* \"#utility.yul\":7697:7790   */\n      tag_164\n        /* \"#utility.yul\":7786:7789   */\n      dup3\n        /* \"#utility.yul\":7697:7790   */\n      tag_67\n      jump\t// in\n    tag_164:\n        /* \"#utility.yul\":7815:7817   */\n      0x40\n        /* \"#utility.yul\":7810:7813   */\n      dup3\n        /* \"#utility.yul\":7806:7818   */\n      add\n        /* \"#utility.yul\":7799:7818   */\n      swap1\n      pop\n        /* \"#utility.yul\":7458:7824   */\n      swap2\n      swap1\n      pop\n      jump\t// out\n        /* \"#utility.yul\":7830:8249   */\n    tag_39:\n        /* \"#utility.yul\":7996:8000   */\n      0x00\n        /* \"#utility.yul\":8034:8036   */\n      0x20\n        /* \"#utility.yul\":8023:8032   */\n      dup3\n        /* \"#utility.yul\":8019:8037   */\n      add\n        /* \"#utility.yul\":8011:8037   */\n      swap1\n      pop\n        /* \"#utility.yul\":8083:8092   */\n      dup2\n        /* \"#utility.yul\":8077:8081   */\n      dup2\n        /* \"#utility.yul\":8073:8093   */\n      sub\n        /* \"#utility.yul\":8069:8070   */\n      0x00\n        /* \"#utility.yul\":8058:8067   */\n      dup4\n        /* \"#utility.yul\":8054:8071   */\n      add\n        /* \"#utility.yul\":8047:8094   */\n      mstore\n        /* \"#utility.yul\":8111:8242   */\n      tag_166\n        /* \"#utility.yul\":8237:8241   */\n      dup2\n        /* \"#utility.yul\":8111:8242   */\n      tag_68\n      jump\t// in\n    tag_166:\n        /* \"#utility.yul\":8103:8242   */\n      swap1\n      pop\n        /* \"#utility.yul\":7830:8249   */\n      swap2\n      swap1\n      pop\n      jump\t// out\n        /* \"#utility.yul\":8255:8396   */\n    tag_69:\n        /* \"#utility.yul\":8304:8308   */\n      0x00\n        /* \"#utility.yul\":8327:8330   */\n      dup2\n        /* \"#utility.yul\":8319:8330   */\n      swap1\n      pop\n        /* \"#utility.yul\":8350:8353   */\n      dup2\n        /* \"#utility.yul\":8347:8348   */\n      0x00\n        /* \"#utility.yul\":8340:8354   */\n      mstore\n        /* \"#utility.yul\":8384:8388   */\n      0x20\n        /* \"#utility.yul\":8381:8382   */\n      0x00\n        /* \"#utility.yul\":8371:8389   */\n      keccak256\n        /* \"#utility.yul\":8363:8389   */\n      swap1\n      pop\n        /* \"#utility.yul\":8255:8396   */\n      swap2\n      swap1\n      pop\n      jump\t// out\n        /* \"#utility.yul\":8402:8495   */\n    tag_70:\n        /* \"#utility.yul\":8439:8445   */\n      0x00\n        /* \"#utility.yul\":8486:8488   */\n      0x20\n        /* \"#utility.yul\":8481:8483   */\n      0x1f\n        /* \"#utility.yul\":8474:8479   */\n      dup4\n        /* \"#utility.yul\":8470:8484   */\n      add\n        /* \"#utility.yul\":8466:8489   */\n      div\n        /* \"#utility.yul\":8456:8489   */\n      swap1\n      pop\n        /* \"#utility.yul\":8402:8495   */\n      swap2\n      swap1\n      pop\n      jump\t// out\n        /* \"#utility.yul\":8501:8608   */\n    tag_71:\n        /* \"#utility.yul\":8545:8553   */\n      0x00\n        /* \"#utility.yul\":8595:8600   */\n      dup3\n        /* \"#utility.yul\":8589:8593   */\n      dup3\n        /* \"#utility.yul\":8585:8601   */\n      shl\n        /* \"#utility.yul\":8564:8601   */\n      swap1\n      pop\n        /* \"#utility.yul\":8501:8608   */\n      swap3\n      swap2\n      pop\n      pop\n      jump\t// out\n        /* \"#utility.yul\":8614:9007   */\n    tag_72:\n        /* \"#utility.yul\":8683:8689   */\n      0x00\n        /* \"#utility.yul\":8733:8734   */\n      0x08\n        /* \"#utility.yul\":8721:8731   */\n      dup4\n        /* \"#utility.yul\":8717:8735   */\n      mul\n        /* \"#utility.yul\":8756:8853   */\n      tag_171\n        /* \"#utility.yul\":8786:8852   */\n      0xffffffffffffffffffffffffffffffffffffffffffffffffffffffffffffffff\n        /* \"#utility.yul\":8775:8784   */\n      dup3\n        /* \"#utility.yul\":8756:8853   */\n      tag_71\n      jump\t// in\n    tag_171:\n        /* \"#utility.yul\":8874:8913   */\n      tag_172\n        /* \"#utility.yul\":8904:8912   */\n      dup7\n        /* \"#utility.yul\":8893:8902   */\n      dup4\n        /* \"#utility.yul\":8874:8913   */\n      tag_71\n      jump\t// in\n    tag_172:\n        /* \"#utility.yul\":8862:8913   */\n      swap6\n      pop\n        /* \"#utility.yul\":8946:8950   */\n      dup1\n        /* \"#utility.yul\":8942:8951   */\n      not\n        /* \"#utility.yul\":8935:8940   */\n      dup5\n        /* \"#utility.yul\":8931:8952   */\n      and\n        /* \"#utility.yul\":8922:8952   */\n      swap4\n      pop\n        /* \"#utility.yul\":8995:8999   */\n      dup1\n        /* \"#utility.yul\":8985:8993   */\n      dup7\n        /* \"#utility.yul\":8981:9000   */\n      and\n        /* \"#utility.yul\":8974:8979   */\n      dup5\n        /* \"#utility.yul\":8971:9001   */\n      or\n        /* \"#utility.yul\":8961:9001   */\n      swap3\n      pop\n        /* \"#utility.yul\":8690:9007   */\n      pop\n      pop\n        /* \"#utility.yul\":8614:9007   */\n      swap4\n      swap3\n      pop\n      pop\n      pop\n      jump\t// out\n        /* \"#utility.yul\":9013:9073   */\n    tag_73:\n        /* \"#utility.yul\":9041:9044   */\n      0x00\n        /* \"#utility.yul\":9062:9067   */\n      dup2\n        /* \"#utility.yul\":9055:9067   */\n      swap1\n      pop\n        /* \"#utility.yul\":9013:9073   */\n      swap2\n      swap1\n      pop\n      jump\t// out\n        /* \"#utility.yul\":9079:9221   */\n    tag_74:\n        /* \"#utility.yul\":9129:9138   */\n      0x00\n        /* \"#utility.yul\":9162:9215   */\n      tag_175\n        /* \"#utility.yul\":9180:9214   */\n      tag_176\n        /* \"#utility.yul\":9189:9213   */\n      tag_177\n        /* \"#utility.yul\":9207:9212   */\n      dup5\n        /* \"#utility.yul\":9189:9213   */\n      tag_49\n      jump\t// in\n    tag_177:\n        /* \"#utility.yul\":9180:9214   */\n      tag_73\n      jump\t// in\n    tag_176:\n        /* \"#utility.yul\":9162:9215   */\n      tag_49\n      jump\t// in\n    tag_175:\n        /* \"#utility.yul\":9149:9215   */\n      swap1\n      pop\n        /* \"#utility.yul\":9079:9221   */\n      swap2\n      swap1\n      pop\n      jump\t// out\n        /* \"#utility.yul\":9227:9302   */\n    tag_75:\n        /* \"#utility.yul\":9270:9273   */\n      0x00\n        /* \"#utility.yul\":9291:9296   */\n      dup2\n        /* \"#utility.yul\":9284:9296   */\n      swap1\n      pop\n        /* \"#utility.yul\":9227:9302   */\n      swap2\n      swap1\n      pop\n      jump\t// out\n        /* \"#utility.yul\":9308:9577   */\n    tag_76:\n        /* \"#utility.yul\":9418:9457   */\n      tag_180\n        /* \"#utility.yul\":9449:9456   */\n      dup4\n        /* \"#utility.yul\":9418:9457   */\n      tag_74\n      jump\t// in\n    tag_180:\n        /* \"#utility.yul\":9479:9570   */\n      tag_181\n        /* \"#utility.yul\":9528:9569   */\n      tag_182\n        /* \"#utility.yul\":9552:9568   */\n      dup3\n        /* \"#utility.yul\":9528:9569   */\n      tag_75\n      jump\t// in\n    tag_182:\n        /* \"#utility.yul\":9520:9526   */\n      dup5\n        /* \"#utility.yul\":9513:9517   */\n      dup5\n        /* \"#utility.yul\":9507:9518   */\n      sload\n        /* \"#utility.yul\":9479:9570   */\n      tag_72\n      jump\t// in\n    tag_181:\n        /* \"#utility.yul\":9473:9477   */\n      dup3\n        /* \"#utility.yul\":9466:9571   */\n      sstore\n        /* \"#utility.yul\":9384:9577   */\n      pop\n        /* \"#utility.yul\":9308:9577   */\n      pop\n      pop\n      pop\n      jump\t// out\n        /* \"#utility.yul\":9583:9656   */\n    tag_77:\n        /* \"#utility.yul\":9628:9631   */\n      0x00\n        /* \"#utility.yul\":9583:9656   */\n      swap1\n      jump\t// out\n        /* \"#utility.yul\":9662:9851   */\n    tag_78:\n        /* \"#utility.yul\":9739:9771   */\n      tag_185\n      tag_77\n      jump\t// in\n    tag_185:\n        /* \"#utility.yul\":9780:9845   */\n      tag_186\n        /* \"#utility.yul\":9838:9844   */\n      dup2\n        /* \"#utility.yul\":9830:9836   */\n      dup5\n        /* \"#utility.yul\":9824:9828   */\n      dup5\n        /* \"#utility.yul\":9780:9845   */\n      tag_76\n      jump\t// in\n    tag_186:\n        /* \"#utility.yul\":9715:9851   */\n      pop\n        /* \"#utility.yul\":9662:9851   */\n      pop\n      pop\n      jump\t// out\n        /* \"#utility.yul\":9857:10043   */\n    tag_79:\n        /* \"#utility.yul\":9917:10037   */\n    tag_188:\n        /* \"#utility.yul\":9934:9937   */\n      dup2\n        /* \"#utility.yul\":9927:9932   */\n      dup2\n        /* \"#utility.yul\":9924:9938   */\n      lt\n        /* \"#utility.yul\":9917:10037   */\n      iszero\n      tag_190\n      jumpi\n        /* \"#utility.yul\":9988:10027   */\n      tag_191\n        /* \"#utility.yul\":10025:10026   */\n      0x00\n        /* \"#utility.yul\":10018:10023   */\n      dup3\n        /* \"#utility.yul\":9988:10027   */\n      tag_78\n      jump\t// in\n    tag_191:\n        /* \"#utility.yul\":9961:9962   */\n      0x01\n        /* \"#utility.yul\":9954:9959   */\n      dup2\n        /* \"#utility.yul\":9950:9963   */\n      add\n        /* \"#utility.yul\":9941:9963   */\n      swap1\n      pop\n        /* \"#utility.yul\":9917:10037   */\n      jump(tag_188)\n    tag_190:\n        /* \"#utility.yul\":9857:10043   */\n      pop\n      pop\n      jump\t// out\n        /* \"#utility.yul\":10049:10592   */\n    tag_80:\n        /* \"#utility.yul\":10150:10152   */\n      0x1f\n        /* \"#utility.yul\":10145:10148   */\n      dup3\n        /* \"#utility.yul\":10142:10153   */\n      gt\n        /* \"#utility.yul\":10139:10585   */\n      iszero\n      tag_193\n      jumpi\n        /* \"#utility.yul\":10184:10222   */\n      tag_194\n        /* \"#utility.yul\":10216:10221   */\n      dup2\n        /* \"#utility.yul\":10184:10222   */\n      tag_69\n      jump\t// in\n    tag_194:\n        /* \"#utility.yul\":10268:10297   */\n      tag_195\n        /* \"#utility.yul\":10286:10296   */\n      dup5\n        /* \"#utility.yul\":10268:10297   */\n      tag_70\n      jump\t// in\n    tag_195:\n        /* \"#utility.yul\":10258:10266   */\n      dup2\n        /* \"#utility.yul\":10254:10298   */\n      add\n        /* \"#utility.yul\":10451:10453   */\n      0x20\n        /* \"#utility.yul\":10439:10449   */\n      dup6\n        /* \"#utility.yul\":10436:10454   */\n      lt\n        /* \"#utility.yul\":10433:10482   */\n      iszero\n      tag_196\n      jumpi\n        /* \"#utility.yul\":10472:10480   */\n      dup2\n        /* \"#utility.yul\":10457:10480   */\n      swap1\n      pop\n        /* \"#utility.yul\":10433:10482   */\n    tag_196:\n        /* \"#utility.yul\":10495:10575   */\n      tag_197\n        /* \"#utility.yul\":10551:10573   */\n      tag_198\n        /* \"#utility.yul\":10569:10572   */\n      dup6\n        /* \"#utility.yul\":10551:10573   */\n      tag_70\n      jump\t// in\n    tag_198:\n        /* \"#utility.yul\":10541:10549   */\n      dup4\n        /* \"#utility.yul\":10537:10574   */\n      add\n        /* \"#utility.yul\":10524:10535   */\n      dup3\n        /* \"#utility.yul\":10495:10575   */\n      tag_79\n      jump\t// in\n    tag_197:\n        /* \"#utility.yul\":10154:10585   */\n      pop\n      pop\n        /* \"#utility.yul\":10139:10585   */\n    tag_193:\n        /* \"#utility.yul\":10049:10592   */\n      pop\n      pop\n      pop\n      jump\t// out\n        /* \"#utility.yul\":10598:10715   */\n    tag_81:\n        /* \"#utility.yul\":10652:10660   */\n      0x00\n        /* \"#utility.yul\":10702:10707   */\n      dup3\n        /* \"#utility.yul\":10696:10700   */\n      dup3\n        /* \"#utility.yul\":10692:10708   */\n      shr\n        /* \"#utility.yul\":10671:10708   */\n      swap1\n      pop\n        /* \"#utility.yul\":10598:10715   */\n      swap3\n      swap2\n      pop\n      pop\n      jump\t// out\n        /* \"#utility.yul\":10721:10890   */\n    tag_82:\n        /* \"#utility.yul\":10765:10771   */\n      0x00\n        /* \"#utility.yul\":10798:10849   */\n      tag_201\n        /* \"#utility.yul\":10846:10847   */\n      0x00\n        /* \"#utility.yul\":10842:10848   */\n      not\n        /* \"#utility.yul\":10834:10839   */\n      dup5\n        /* \"#utility.yul\":10831:10832   */\n      0x08\n        /* \"#utility.yul\":10827:10840   */\n      mul\n        /* \"#utility.yul\":10798:10849   */\n      tag_81\n      jump\t// in\n    tag_201:\n        /* \"#utility.yul\":10794:10850   */\n      not\n        /* \"#utility.yul\":10879:10883   */\n      dup1\n        /* \"#utility.yul\":10873:10877   */\n      dup4\n        /* \"#utility.yul\":10869:10884   */\n      and\n        /* \"#utility.yul\":10859:10884   */\n      swap2\n      pop\n        /* \"#utility.yul\":10772:10890   */\n      pop\n        /* \"#utility.yul\":10721:10890   */\n      swap3\n      swap2\n      pop\n      pop\n      jump\t// out\n        /* \"#utility.yul\":10895:11190   */\n    tag_83:\n        /* \"#utility.yul\":10971:10975   */\n      0x00\n        /* \"#utility.yul\":11117:11146   */\n      tag_203\n        /* \"#utility.yul\":11142:11145   */\n      dup4\n        /* \"#utility.yul\":11136:11140   */\n      dup4\n        /* \"#utility.yul\":11117:11146   */\n      tag_82\n      jump\t// in\n    tag_203:\n        /* \"#utility.yul\":11109:11146   */\n      swap2\n      pop\n        /* \"#utility.yul\":11179:11182   */\n      dup3\n        /* \"#utility.yul\":11176:11177   */\n      0x02\n        /* \"#utility.yul\":11172:11183   */\n      mul\n        /* \"#utility.yul\":11166:11170   */\n      dup3\n        /* \"#utility.yul\":11163:11184   */\n      or\n        /* \"#utility.yul\":11155:11184   */\n      swap1\n      pop\n        /* \"#utility.yul\":10895:11190   */\n      swap3\n      swap2\n      pop\n      pop\n      jump\t// out\n        /* \"#utility.yul\":11195:12590   */\n    tag_42:\n        /* \"#utility.yul\":11312:11349   */\n      tag_205\n        /* \"#utility.yul\":11345:11348   */\n      dup3\n        /* \"#utility.yul\":11312:11349   */\n      tag_52\n      jump\t// in\n    tag_205:\n        /* \"#utility.yul\":11414:11432   */\n      0xffffffffffffffff\n        /* \"#utility.yul\":11406:11412   */\n      dup2\n        /* \"#utility.yul\":11403:11433   */\n      gt\n        /* \"#utility.yul\":11400:11456   */\n      iszero\n      tag_206\n      jumpi\n        /* \"#utility.yul\":11436:11454   */\n      tag_207\n      tag_59\n      jump\t// in\n    tag_207:\n        /* \"#utility.yul\":11400:11456   */\n    tag_206:\n        /* \"#utility.yul\":11480:11518   */\n      tag_208\n        /* \"#utility.yul\":11512:11516   */\n      dup3\n        /* \"#utility.yul\":11506:11517   */\n      sload\n        /* \"#utility.yul\":11480:11518   */\n      tag_16\n      jump\t// in\n    tag_208:\n        /* \"#utility.yul\":11565:11632   */\n      tag_209\n        /* \"#utility.yul\":11625:11631   */\n      dup3\n        /* \"#utility.yul\":11617:11623   */\n      dup3\n        /* \"#utility.yul\":11611:11615   */\n      dup6\n        /* \"#utility.yul\":11565:11632   */\n      tag_80\n      jump\t// in\n    tag_209:\n        /* \"#utility.yul\":11659:11660   */\n      0x00\n        /* \"#utility.yul\":11683:11687   */\n      0x20\n        /* \"#utility.yul\":11670:11687   */\n      swap1\n      pop\n        /* \"#utility.yul\":11715:11717   */\n      0x1f\n        /* \"#utility.yul\":11707:11713   */\n      dup4\n        /* \"#utility.yul\":11704:11718   */\n      gt\n        /* \"#utility.yul\":11732:11733   */\n      0x01\n        /* \"#utility.yul\":11727:12345   */\n      dup2\n      eq\n      tag_211\n      jumpi\n        /* \"#utility.yul\":12389:12390   */\n      0x00\n        /* \"#utility.yul\":12406:12412   */\n      dup5\n        /* \"#utility.yul\":12403:12480   */\n      iszero\n      tag_212\n      jumpi\n        /* \"#utility.yul\":12455:12464   */\n      dup3\n        /* \"#utility.yul\":12450:12453   */\n      dup8\n        /* \"#utility.yul\":12446:12465   */\n      add\n        /* \"#utility.yul\":12440:12466   */\n      mload\n        /* \"#utility.yul\":12431:12466   */\n      swap1\n      pop\n        /* \"#utility.yul\":12403:12480   */\n    tag_212:\n        /* \"#utility.yul\":12506:12573   */\n      tag_213\n        /* \"#utility.yul\":12566:12572   */\n      dup6\n        /* \"#utility.yul\":12559:12564   */\n      dup3\n        /* \"#utility.yul\":12506:12573   */\n      tag_83\n      jump\t// in\n    tag_213:\n        /* \"#utility.yul\":12500:12504   */\n      dup7\n        /* \"#utility.yul\":12493:12574   */\n      sstore\n        /* \"#utility.yul\":12362:12584   */\n      pop\n        /* \"#utility.yul\":11697:12584   */\n      jump(tag_210)\n        /* \"#utility.yul\":11727:12345   */\n    tag_211:\n        /* \"#utility.yul\":11779:11783   */\n      0x1f\n        /* \"#utility.yul\":11775:11784   */\n      not\n        /* \"#utility.yul\":11767:11773   */\n      dup5\n        /* \"#utility.yul\":11763:11785   */\n      and\n        /* \"#utility.yul\":11813:11850   */\n      tag_214\n        /* \"#utility.yul\":11845:11849   */\n      dup7\n        /* \"#utility.yul\":11813:11850   */\n      tag_69\n      jump\t// in\n    tag_214:\n        /* \"#utility.yul\":11872:11873   */\n      0x00\n        /* \"#utility.yul\":11886:12094   */\n    tag_215:\n        /* \"#utility.yul\":11900:11907   */\n      dup3\n        /* \"#utility.yul\":11897:11898   */\n      dup2\n        /* \"#utility.yul\":11894:11908   */\n      lt\n        /* \"#utility.yul\":11886:12094   */\n      iszero\n      tag_217\n      jumpi\n        /* \"#utility.yul\":11979:11988   */\n      dup5\n        /* \"#utility.yul\":11974:11977   */\n      dup10\n        /* \"#utility.yul\":11970:11989   */\n      add\n        /* \"#utility.yul\":11964:11990   */\n      mload\n        /* \"#utility.yul\":11956:11962   */\n      dup3\n        /* \"#utility.yul\":11949:11991   */\n      sstore\n        /* \"#utility.yul\":12030:12031   */\n      0x01\n        /* \"#utility.yul\":12022:12028   */\n      dup3\n        /* \"#utility.yul\":12018:12032   */\n      add\n        /* \"#utility.yul\":12008:12032   */\n      swap2\n      pop\n        /* \"#utility.yul\":12077:12079   */\n      0x20\n        /* \"#utility.yul\":12066:12075   */\n      dup6\n        /* \"#utility.yul\":12062:12080   */\n      add\n        /* \"#utility.yul\":12049:12080   */\n      swap5\n      pop\n        /* \"#utility.yul\":11923:11927   */\n      0x20\n        /* \"#utility.yul\":11920:11921   */\n      dup2\n        /* \"#utility.yul\":11916:11928   */\n      add\n        /* \"#utility.yul\":11911:11928   */\n      swap1\n      pop\n        /* \"#utility.yul\":11886:12094   */\n      jump(tag_215)\n    tag_217:\n        /* \"#utility.yul\":12122:12128   */\n      dup7\n        /* \"#utility.yul\":12113:12120   */\n      dup4\n        /* \"#utility.yul\":12110:12129   */\n      lt\n        /* \"#utility.yul\":12107:12286   */\n      iszero\n      tag_218\n      jumpi\n        /* \"#utility.yul\":12180:12189   */\n      dup5\n        /* \"#utility.yul\":12175:12178   */\n      dup10\n        /* \"#utility.yul\":12171:12190   */\n      add\n        /* \"#utility.yul\":12165:12191   */\n      mload\n        /* \"#utility.yul\":12223:12271   */\n      tag_219\n        /* \"#utility.yul\":12265:12269   */\n      0x1f\n        /* \"#utility.yul\":12257:12263   */\n      dup10\n        /* \"#utility.yul\":12253:12270   */\n      and\n        /* \"#utility.yul\":12242:12251   */\n      dup3\n        /* \"#utility.yul\":12223:12271   */\n      tag_82\n      jump\t// in\n    tag_219:\n        /* \"#utility.yul\":12215:12221   */\n      dup4\n        /* \"#utility.yul\":12208:12272   */\n      sstore\n        /* \"#utility.yul\":12130:12286   */\n      pop\n        /* \"#utility.yul\":12107:12286   */\n    tag_218:\n        /* \"#utility.yul\":12332:12333   */\n      0x01\n        /* \"#utility.yul\":12328:12329   */\n      0x02\n        /* \"#utility.yul\":12320:12326   */\n      dup9\n        /* \"#utility.yul\":12316:12330   */\n      mul\n        /* \"#utility.yul\":12312:12334   */\n      add\n        /* \"#utility.yul\":12306:12310   */\n      dup9\n        /* \"#utility.yul\":12299:12335   */\n      sstore\n        /* \"#utility.yul\":11734:12345   */\n      pop\n      pop\n      pop\n        /* \"#utility.yul\":11697:12584   */\n    tag_210:\n      pop\n        /* \"#utility.yul\":11287:12590   */\n      pop\n      pop\n      pop\n        /* \"#utility.yul\":11195:12590   */\n      pop\n      pop\n      jump\t// out\n\n    auxdata: 0xa264697066735822122020df0298288874a8be347f7eddb30a4260457d32328e8d35cb5ac4f4c94aa97664736f6c63430008150033\n}\n",
				"bytecode": {
					"linkReferences": {},
					"object": "608060405234801561000f575f80fd5b50335f806101000a81548173ffffffffffffffffffffffffffffffffffffffff021916908373ffffffffffffffffffffffffffffffffffffffff160217905550610ae28061005c5f395ff3fe608060405234801561000f575f80fd5b5060043610610034575f3560e01c80639622c83614610038578063d8e6219e1461006b575b5f80fd5b610052600480360381019061004d919061042e565b610087565b60405161006294939291906104e3565b60405180910390f35b6100856004803603810190610080919061066e565b6102cb565b005b6001602052805f5260405f205f91509050805f0180546100a690610782565b80601f01602080910402602001604051908101604052809291908181526020018280546100d290610782565b801561011d5780601f106100f45761010080835404028352916020019161011d565b820191905f5260205f20905b81548152906001019060200180831161010057829003601f168201915b50505050509080600101805461013290610782565b80601f016020809104026020016040519081016040528092919081815260200182805461015e90610782565b80156101a95780601f10610180576101008083540402835291602001916101a9565b820191905f5260205f20905b81548152906001019060200180831161018c57829003601f168201915b5050505050908060020180546101be90610782565b80601f01602080910402602001604051908101604052809291908181526020018280546101ea90610782565b80156102355780601f1061020c57610100808354040283529160200191610235565b820191905f5260205f20905b81548152906001019060200180831161021857829003601f168201915b50505050509080600301805461024a90610782565b80601f016020809104026020016040519081016040528092919081815260200182805461027690610782565b80156102c15780601f10610298576101008083540402835291602001916102c1565b820191905f5260205f20905b8154815290600101906020018083116102a457829003601f168201915b5050505050905084565b3373ffffffffffffffffffffffffffffffffffffffff165f8054906101000a900473ffffffffffffffffffffffffffffffffffffffff1673ffffffffffffffffffffffffffffffffffffffff1614610358576040517f08c379a000000000000000000000000000000000000000000000000000000000815260040161034f90610822565b60405180910390fd5b60405180608001604052808581526020018481526020018381526020018281525060015f8781526020019081526020015f205f820151815f01908161039d91906109dd565b5060208201518160010190816103b391906109dd565b5060408201518160020190816103c991906109dd565b5060608201518160030190816103df91906109dd565b509050505050505050565b5f604051905090565b5f80fd5b5f80fd5b5f819050919050565b61040d816103fb565b8114610417575f80fd5b50565b5f8135905061042881610404565b92915050565b5f60208284031215610443576104426103f3565b5b5f6104508482850161041a565b91505092915050565b5f81519050919050565b5f82825260208201905092915050565b5f5b83811015610490578082015181840152602081019050610475565b5f8484015250505050565b5f601f19601f8301169050919050565b5f6104b582610459565b6104bf8185610463565b93506104cf818560208601610473565b6104d88161049b565b840191505092915050565b5f6080820190508181035f8301526104fb81876104ab565b9050818103602083015261050f81866104ab565b9050818103604083015261052381856104ab565b9050818103606083015261053781846104ab565b905095945050505050565b5f80fd5b5f80fd5b7f4e487b71000000000000000000000000000000000000000000000000000000005f52604160045260245ffd5b6105808261049b565b810181811067ffffffffffffffff8211171561059f5761059e61054a565b5b80604052505050565b5f6105b16103ea565b90506105bd8282610577565b919050565b5f67ffffffffffffffff8211156105dc576105db61054a565b5b6105e58261049b565b9050602081019050919050565b828183375f83830152505050565b5f61061261060d846105c2565b6105a8565b90508281526020810184848401111561062e5761062d610546565b5b6106398482856105f2565b509392505050565b5f82601f83011261065557610654610542565b5b8135610665848260208601610600565b91505092915050565b5f805f805f60a08688031215610687576106866103f3565b5b5f6106948882890161041a565b955050602086013567ffffffffffffffff8111156106b5576106b46103f7565b5b6106c188828901610641565b945050604086013567ffffffffffffffff8111156106e2576106e16103f7565b5b6106ee88828901610641565b935050606086013567ffffffffffffffff81111561070f5761070e6103f7565b5b61071b88828901610641565b925050608086013567ffffffffffffffff81111561073c5761073b6103f7565b5b61074888828901610641565b9150509295509295909350565b7f4e487b71000000000000000000000000000000000000000000000000000000005f52602260045260245ffd5b5f600282049050600182168061079957607f821691505b6020821081036107ac576107ab610755565b5b50919050565b7f4f6e6c792061646d696e732063616e2063616c6c20746869732066756e6374695f8201527f6f6e000000000000000000000000000000000000000000000000000000000000602082015250565b5f61080c602283610463565b9150610817826107b2565b604082019050919050565b5f6020820190508181035f83015261083981610800565b9050919050565b5f819050815f5260205f209050919050565b5f6020601f8301049050919050565b5f82821b905092915050565b5f6008830261089c7fffffffffffffffffffffffffffffffffffffffffffffffffffffffffffffffff82610861565b6108a68683610861565b95508019841693508086168417925050509392505050565b5f819050919050565b5f6108e16108dc6108d7846103fb565b6108be565b6103fb565b9050919050565b5f819050919050565b6108fa836108c7565b61090e610906826108e8565b84845461086d565b825550505050565b5f90565b610922610916565b61092d8184846108f1565b505050565b5b81811015610950576109455f8261091a565b600181019050610933565b5050565b601f8211156109955761096681610840565b61096f84610852565b8101602085101561097e578190505b61099261098a85610852565b830182610932565b50505b505050565b5f82821c905092915050565b5f6109b55f198460080261099a565b1980831691505092915050565b5f6109cd83836109a6565b9150826002028217905092915050565b6109e682610459565b67ffffffffffffffff8111156109ff576109fe61054a565b5b610a098254610782565b610a14828285610954565b5f60209050601f831160018114610a45575f8415610a33578287015190505b610a3d85826109c2565b865550610aa4565b601f198416610a5386610840565b5f5b82811015610a7a57848901518255600182019150602085019450602081019050610a55565b86831015610a975784890151610a93601f8916826109a6565b8355505b6001600288020188555050505b50505050505056fea264697066735822122020df0298288874a8be347f7eddb30a4260457d32328e8d35cb5ac4f4c94aa97664736f6c63430008150033",
					"opcodes": "PUSH1 0x80 PUSH1 0x40 MSTORE CALLVALUE DUP1 ISZERO PUSH2 0xF JUMPI PUSH0 DUP1 REVERT JUMPDEST POP CALLER PUSH0 DUP1 PUSH2 0x100 EXP DUP2 SLOAD DUP2 PUSH20 0xFFFFFFFFFFFFFFFFFFFFFFFFFFFFFFFFFFFFFFFF MUL NOT AND SWAP1 DUP4 PUSH20 0xFFFFFFFFFFFFFFFFFFFFFFFFFFFFFFFFFFFFFFFF AND MUL OR SWAP1 SSTORE POP PUSH2 0xAE2 DUP1 PUSH2 0x5C PUSH0 CODECOPY PUSH0 RETURN INVALID PUSH1 0x80 PUSH1 0x40 MSTORE CALLVALUE DUP1 ISZERO PUSH2 0xF JUMPI PUSH0 DUP1 REVERT JUMPDEST POP PUSH1 0x4 CALLDATASIZE LT PUSH2 0x34 JUMPI PUSH0 CALLDATALOAD PUSH1 0xE0 SHR DUP1 PUSH4 0x9622C836 EQ PUSH2 0x38 JUMPI DUP1 PUSH4 0xD8E6219E EQ PUSH2 0x6B JUMPI JUMPDEST PUSH0 DUP1 REVERT JUMPDEST PUSH2 0x52 PUSH1 0x4 DUP1 CALLDATASIZE SUB DUP2 ADD SWAP1 PUSH2 0x4D SWAP2 SWAP1 PUSH2 0x42E JUMP JUMPDEST PUSH2 0x87 JUMP JUMPDEST PUSH1 0x40 MLOAD PUSH2 0x62 SWAP5 SWAP4 SWAP3 SWAP2 SWAP1 PUSH2 0x4E3 JUMP JUMPDEST PUSH1 0x40 MLOAD DUP1 SWAP2 SUB SWAP1 RETURN JUMPDEST PUSH2 0x85 PUSH1 0x4 DUP1 CALLDATASIZE SUB DUP2 ADD SWAP1 PUSH2 0x80 SWAP2 SWAP1 PUSH2 0x66E JUMP JUMPDEST PUSH2 0x2CB JUMP JUMPDEST STOP JUMPDEST PUSH1 0x1 PUSH1 0x20 MSTORE DUP1 PUSH0 MSTORE PUSH1 0x40 PUSH0 KECCAK256 PUSH0 SWAP2 POP SWAP1 POP DUP1 PUSH0 ADD DUP1 SLOAD PUSH2 0xA6 SWAP1 PUSH2 0x782 JUMP JUMPDEST DUP1 PUSH1 0x1F ADD PUSH1 0x20 DUP1 SWAP2 DIV MUL PUSH1 0x20 ADD PUSH1 0x40 MLOAD SWAP1 DUP2 ADD PUSH1 0x40 MSTORE DUP1 SWAP3 SWAP2 SWAP1 DUP2 DUP2 MSTORE PUSH1 0x20 ADD DUP3 DUP1 SLOAD PUSH2 0xD2 SWAP1 PUSH2 0x782 JUMP JUMPDEST DUP1 ISZERO PUSH2 0x11D JUMPI DUP1 PUSH1 0x1F LT PUSH2 0xF4 JUMPI PUSH2 0x100 DUP1 DUP4 SLOAD DIV MUL DUP4 MSTORE SWAP2 PUSH1 0x20 ADD SWAP2 PUSH2 0x11D JUMP JUMPDEST DUP3 ADD SWAP2 SWAP1 PUSH0 MSTORE PUSH1 0x20 PUSH0 KECCAK256 SWAP1 JUMPDEST DUP2 SLOAD DUP2 MSTORE SWAP1 PUSH1 0x1 ADD SWAP1 PUSH1 0x20 ADD DUP1 DUP4 GT PUSH2 0x100 JUMPI DUP3 SWAP1 SUB PUSH1 0x1F AND DUP3 ADD SWAP2 JUMPDEST POP POP POP POP POP SWAP1 DUP1 PUSH1 0x1 ADD DUP1 SLOAD PUSH2 0x132 SWAP1 PUSH2 0x782 JUMP JUMPDEST DUP1 PUSH1 0x1F ADD PUSH1 0x20 DUP1 SWAP2 DIV MUL PUSH1 0x20 ADD PUSH1 0x40 MLOAD SWAP1 DUP2 ADD PUSH1 0x40 MSTORE DUP1 SWAP3 SWAP2 SWAP1 DUP2 DUP2 MSTORE PUSH1 0x20 ADD DUP3 DUP1 SLOAD PUSH2 0x15E SWAP1 PUSH2 0x782 JUMP JUMPDEST DUP1 ISZERO PUSH2 0x1A9 JUMPI DUP1 PUSH1 0x1F LT PUSH2 0x180 JUMPI PUSH2 0x100 DUP1 DUP4 SLOAD DIV MUL DUP4 MSTORE SWAP2 PUSH1 0x20 ADD SWAP2 PUSH2 0x1A9 JUMP JUMPDEST DUP3 ADD SWAP2 SWAP1 PUSH0 MSTORE PUSH1 0x20 PUSH0 KECCAK256 SWAP1 JUMPDEST DUP2 SLOAD DUP2 MSTORE SWAP1 PUSH1 0x1 ADD SWAP1 PUSH1 0x20 ADD DUP1 DUP4 GT PUSH2 0x18C JUMPI DUP3 SWAP1 SUB PUSH1 0x1F AND DUP3 ADD SWAP2 JUMPDEST POP POP POP POP POP SWAP1 DUP1 PUSH1 0x2 ADD DUP1 SLOAD PUSH2 0x1BE SWAP1 PUSH2 0x782 JUMP JUMPDEST DUP1 PUSH1 0x1F ADD PUSH1 0x20 DUP1 SWAP2 DIV MUL PUSH1 0x20 ADD PUSH1 0x40 MLOAD SWAP1 DUP2 ADD PUSH1 0x40 MSTORE DUP1 SWAP3 SWAP2 SWAP1 DUP2 DUP2 MSTORE PUSH1 0x20 ADD DUP3 DUP1 SLOAD PUSH2 0x1EA SWAP1 PUSH2 0x782 JUMP JUMPDEST DUP1 ISZERO PUSH2 0x235 JUMPI DUP1 PUSH1 0x1F LT PUSH2 0x20C JUMPI PUSH2 0x100 DUP1 DUP4 SLOAD DIV MUL DUP4 MSTORE SWAP2 PUSH1 0x20 ADD SWAP2 PUSH2 0x235 JUMP JUMPDEST DUP3 ADD SWAP2 SWAP1 PUSH0 MSTORE PUSH1 0x20 PUSH0 KECCAK256 SWAP1 JUMPDEST DUP2 SLOAD DUP2 MSTORE SWAP1 PUSH1 0x1 ADD SWAP1 PUSH1 0x20 ADD DUP1 DUP4 GT PUSH2 0x218 JUMPI DUP3 SWAP1 SUB PUSH1 0x1F AND DUP3 ADD SWAP2 JUMPDEST POP POP POP POP POP SWAP1 DUP1 PUSH1 0x3 ADD DUP1 SLOAD PUSH2 0x24A SWAP1 PUSH2 0x782 JUMP JUMPDEST DUP1 PUSH1 0x1F ADD PUSH1 0x20 DUP1 SWAP2 DIV MUL PUSH1 0x20 ADD PUSH1 0x40 MLOAD SWAP1 DUP2 ADD PUSH1 0x40 MSTORE DUP1 SWAP3 SWAP2 SWAP1 DUP2 DUP2 MSTORE PUSH1 0x20 ADD DUP3 DUP1 SLOAD PUSH2 0x276 SWAP1 PUSH2 0x782 JUMP JUMPDEST DUP1 ISZERO PUSH2 0x2C1 JUMPI DUP1 PUSH1 0x1F LT PUSH2 0x298 JUMPI PUSH2 0x100 DUP1 DUP4 SLOAD DIV MUL DUP4 MSTORE SWAP2 PUSH1 0x20 ADD SWAP2 PUSH2 0x2C1 JUMP JUMPDEST DUP3 ADD SWAP2 SWAP1 PUSH0 MSTORE PUSH1 0x20 PUSH0 KECCAK256 SWAP1 JUMPDEST DUP2 SLOAD DUP2 MSTORE SWAP1 PUSH1 0x1 ADD SWAP1 PUSH1 0x20 ADD DUP1 DUP4 GT PUSH2 0x2A4 JUMPI DUP3 SWAP1 SUB PUSH1 0x1F AND DUP3 ADD SWAP2 JUMPDEST POP POP POP POP POP SWAP1 POP DUP5 JUMP JUMPDEST CALLER PUSH20 0xFFFFFFFFFFFFFFFFFFFFFFFFFFFFFFFFFFFFFFFF AND PUSH0 DUP1 SLOAD SWAP1 PUSH2 0x100 EXP SWAP1 DIV PUSH20 0xFFFFFFFFFFFFFFFFFFFFFFFFFFFFFFFFFFFFFFFF AND PUSH20 0xFFFFFFFFFFFFFFFFFFFFFFFFFFFFFFFFFFFFFFFF AND EQ PUSH2 0x358 JUMPI PUSH1 0x40 MLOAD PUSH32 0x8C379A000000000000000000000000000000000000000000000000000000000 DUP2 MSTORE PUSH1 0x4 ADD PUSH2 0x34F SWAP1 PUSH2 0x822 JUMP JUMPDEST PUSH1 0x40 MLOAD DUP1 SWAP2 SUB SWAP1 REVERT JUMPDEST PUSH1 0x40 MLOAD DUP1 PUSH1 0x80 ADD PUSH1 0x40 MSTORE DUP1 DUP6 DUP2 MSTORE PUSH1 0x20 ADD DUP5 DUP2 MSTORE PUSH1 0x20 ADD DUP4 DUP2 MSTORE PUSH1 0x20 ADD DUP3 DUP2 MSTORE POP PUSH1 0x1 PUSH0 DUP8 DUP2 MSTORE PUSH1 0x20 ADD SWAP1 DUP2 MSTORE PUSH1 0x20 ADD PUSH0 KECCAK256 PUSH0 DUP3 ADD MLOAD DUP2 PUSH0 ADD SWAP1 DUP2 PUSH2 0x39D SWAP2 SWAP1 PUSH2 0x9DD JUMP JUMPDEST POP PUSH1 0x20 DUP3 ADD MLOAD DUP2 PUSH1 0x1 ADD SWAP1 DUP2 PUSH2 0x3B3 SWAP2 SWAP1 PUSH2 0x9DD JUMP JUMPDEST POP PUSH1 0x40 DUP3 ADD MLOAD DUP2 PUSH1 0x2 ADD SWAP1 DUP2 PUSH2 0x3C9 SWAP2 SWAP1 PUSH2 0x9DD JUMP JUMPDEST POP PUSH1 0x60 DUP3 ADD MLOAD DUP2 PUSH1 0x3 ADD SWAP1 DUP2 PUSH2 0x3DF SWAP2 SWAP1 PUSH2 0x9DD JUMP JUMPDEST POP SWAP1 POP POP POP POP POP POP POP JUMP JUMPDEST PUSH0 PUSH1 0x40 MLOAD SWAP1 POP SWAP1 JUMP JUMPDEST PUSH0 DUP1 REVERT JUMPDEST PUSH0 DUP1 REVERT JUMPDEST PUSH0 DUP2 SWAP1 POP SWAP2 SWAP1 POP JUMP JUMPDEST PUSH2 0x40D DUP2 PUSH2 0x3FB JUMP JUMPDEST DUP2 EQ PUSH2 0x417 JUMPI PUSH0 DUP1 REVERT JUMPDEST POP JUMP JUMPDEST PUSH0 DUP2 CALLDATALOAD SWAP1 POP PUSH2 0x428 DUP2 PUSH2 0x404 JUMP JUMPDEST SWAP3 SWAP2 POP POP JUMP JUMPDEST PUSH0 PUSH1 0x20 DUP3 DUP5 SUB SLT ISZERO PUSH2 0x443 JUMPI PUSH2 0x442 PUSH2 0x3F3 JUMP JUMPDEST JUMPDEST PUSH0 PUSH2 0x450 DUP5 DUP3 DUP6 ADD PUSH2 0x41A JUMP JUMPDEST SWAP2 POP POP SWAP3 SWAP2 POP POP JUMP JUMPDEST PUSH0 DUP2 MLOAD SWAP1 POP SWAP2 SWAP1 POP JUMP JUMPDEST PUSH0 DUP3 DUP3 MSTORE PUSH1 0x20 DUP3 ADD SWAP1 POP SWAP3 SWAP2 POP POP JUMP JUMPDEST PUSH0 JUMPDEST DUP4 DUP2 LT ISZERO PUSH2 0x490 JUMPI DUP1 DUP3 ADD MLOAD DUP2 DUP5 ADD MSTORE PUSH1 0x20 DUP2 ADD SWAP1 POP PUSH2 0x475 JUMP JUMPDEST PUSH0 DUP5 DUP5 ADD MSTORE POP POP POP POP JUMP JUMPDEST PUSH0 PUSH1 0x1F NOT PUSH1 0x1F DUP4 ADD AND SWAP1 POP SWAP2 SWAP1 POP JUMP JUMPDEST PUSH0 PUSH2 0x4B5 DUP3 PUSH2 0x459 JUMP JUMPDEST PUSH2 0x4BF DUP2 DUP6 PUSH2 0x463 JUMP JUMPDEST SWAP4 POP PUSH2 0x4CF DUP2 DUP6 PUSH1 0x20 DUP7 ADD PUSH2 0x473 JUMP JUMPDEST PUSH2 0x4D8 DUP2 PUSH2 0x49B JUMP JUMPDEST DUP5 ADD SWAP2 POP POP SWAP3 SWAP2 POP POP JUMP JUMPDEST PUSH0 PUSH1 0x80 DUP3 ADD SWAP1 POP DUP2 DUP2 SUB PUSH0 DUP4 ADD MSTORE PUSH2 0x4FB DUP2 DUP8 PUSH2 0x4AB JUMP JUMPDEST SWAP1 POP DUP2 DUP2 SUB PUSH1 0x20 DUP4 ADD MSTORE PUSH2 0x50F DUP2 DUP7 PUSH2 0x4AB JUMP JUMPDEST SWAP1 POP DUP2 DUP2 SUB PUSH1 0x40 DUP4 ADD MSTORE PUSH2 0x523 DUP2 DUP6 PUSH2 0x4AB JUMP JUMPDEST SWAP1 POP DUP2 DUP2 SUB PUSH1 0x60 DUP4 ADD MSTORE PUSH2 0x537 DUP2 DUP5 PUSH2 0x4AB JUMP JUMPDEST SWAP1 POP SWAP6 SWAP5 POP POP POP POP POP JUMP JUMPDEST PUSH0 DUP1 REVERT JUMPDEST PUSH0 DUP1 REVERT JUMPDEST PUSH32 0x4E487B7100000000000000000000000000000000000000000000000000000000 PUSH0 MSTORE PUSH1 0x41 PUSH1 0x4 MSTORE PUSH1 0x24 PUSH0 REVERT JUMPDEST PUSH2 0x580 DUP3 PUSH2 0x49B JUMP JUMPDEST DUP2 ADD DUP2 DUP2 LT PUSH8 0xFFFFFFFFFFFFFFFF DUP3 GT OR ISZERO PUSH2 0x59F JUMPI PUSH2 0x59E PUSH2 0x54A JUMP JUMPDEST JUMPDEST DUP1 PUSH1 0x40 MSTORE POP POP POP JUMP JUMPDEST PUSH0 PUSH2 0x5B1 PUSH2 0x3EA JUMP JUMPDEST SWAP1 POP PUSH2 0x5BD DUP3 DUP3 PUSH2 0x577 JUMP JUMPDEST SWAP2 SWAP1 POP JUMP JUMPDEST PUSH0 PUSH8 0xFFFFFFFFFFFFFFFF DUP3 GT ISZERO PUSH2 0x5DC JUMPI PUSH2 0x5DB PUSH2 0x54A JUMP JUMPDEST JUMPDEST PUSH2 0x5E5 DUP3 PUSH2 0x49B JUMP JUMPDEST SWAP1 POP PUSH1 0x20 DUP2 ADD SWAP1 POP SWAP2 SWAP1 POP JUMP JUMPDEST DUP3 DUP2 DUP4 CALLDATACOPY PUSH0 DUP4 DUP4 ADD MSTORE POP POP POP JUMP JUMPDEST PUSH0 PUSH2 0x612 PUSH2 0x60D DUP5 PUSH2 0x5C2 JUMP JUMPDEST PUSH2 0x5A8 JUMP JUMPDEST SWAP1 POP DUP3 DUP2 MSTORE PUSH1 0x20 DUP2 ADD DUP5 DUP5 DUP5 ADD GT ISZERO PUSH2 0x62E JUMPI PUSH2 0x62D PUSH2 0x546 JUMP JUMPDEST JUMPDEST PUSH2 0x639 DUP5 DUP3 DUP6 PUSH2 0x5F2 JUMP JUMPDEST POP SWAP4 SWAP3 POP POP POP JUMP JUMPDEST PUSH0 DUP3 PUSH1 0x1F DUP4 ADD SLT PUSH2 0x655 JUMPI PUSH2 0x654 PUSH2 0x542 JUMP JUMPDEST JUMPDEST DUP2 CALLDATALOAD PUSH2 0x665 DUP5 DUP3 PUSH1 0x20 DUP7 ADD PUSH2 0x600 JUMP JUMPDEST SWAP2 POP POP SWAP3 SWAP2 POP POP JUMP JUMPDEST PUSH0 DUP1 PUSH0 DUP1 PUSH0 PUSH1 0xA0 DUP7 DUP9 SUB SLT ISZERO PUSH2 0x687 JUMPI PUSH2 0x686 PUSH2 0x3F3 JUMP JUMPDEST JUMPDEST PUSH0 PUSH2 0x694 DUP9 DUP3 DUP10 ADD PUSH2 0x41A JUMP JUMPDEST SWAP6 POP POP PUSH1 0x20 DUP7 ADD CALLDATALOAD PUSH8 0xFFFFFFFFFFFFFFFF DUP2 GT ISZERO PUSH2 0x6B5 JUMPI PUSH2 0x6B4 PUSH2 0x3F7 JUMP JUMPDEST JUMPDEST PUSH2 0x6C1 DUP9 DUP3 DUP10 ADD PUSH2 0x641 JUMP JUMPDEST SWAP5 POP POP PUSH1 0x40 DUP7 ADD CALLDATALOAD PUSH8 0xFFFFFFFFFFFFFFFF DUP2 GT ISZERO PUSH2 0x6E2 JUMPI PUSH2 0x6E1 PUSH2 0x3F7 JUMP JUMPDEST JUMPDEST PUSH2 0x6EE DUP9 DUP3 DUP10 ADD PUSH2 0x641 JUMP JUMPDEST SWAP4 POP POP PUSH1 0x60 DUP7 ADD CALLDATALOAD PUSH8 0xFFFFFFFFFFFFFFFF DUP2 GT ISZERO PUSH2 0x70F JUMPI PUSH2 0x70E PUSH2 0x3F7 JUMP JUMPDEST JUMPDEST PUSH2 0x71B DUP9 DUP3 DUP10 ADD PUSH2 0x641 JUMP JUMPDEST SWAP3 POP POP PUSH1 0x80 DUP7 ADD CALLDATALOAD PUSH8 0xFFFFFFFFFFFFFFFF DUP2 GT ISZERO PUSH2 0x73C JUMPI PUSH2 0x73B PUSH2 0x3F7 JUMP JUMPDEST JUMPDEST PUSH2 0x748 DUP9 DUP3 DUP10 ADD PUSH2 0x641 JUMP JUMPDEST SWAP2 POP POP SWAP3 SWAP6 POP SWAP3 SWAP6 SWAP1 SWAP4 POP JUMP JUMPDEST PUSH32 0x4E487B7100000000000000000000000000000000000000000000000000000000 PUSH0 MSTORE PUSH1 0x22 PUSH1 0x4 MSTORE PUSH1 0x24 PUSH0 REVERT JUMPDEST PUSH0 PUSH1 0x2 DUP3 DIV SWAP1 POP PUSH1 0x1 DUP3 AND DUP1 PUSH2 0x799 JUMPI PUSH1 0x7F DUP3 AND SWAP2 POP JUMPDEST PUSH1 0x20 DUP3 LT DUP2 SUB PUSH2 0x7AC JUMPI PUSH2 0x7AB PUSH2 0x755 JUMP JUMPDEST JUMPDEST POP SWAP2 SWAP1 POP JUMP JUMPDEST PUSH32 0x4F6E6C792061646D696E732063616E2063616C6C20746869732066756E637469 PUSH0 DUP3 ADD MSTORE PUSH32 0x6F6E000000000000000000000000000000000000000000000000000000000000 PUSH1 0x20 DUP3 ADD MSTORE POP JUMP JUMPDEST PUSH0 PUSH2 0x80C PUSH1 0x22 DUP4 PUSH2 0x463 JUMP JUMPDEST SWAP2 POP PUSH2 0x817 DUP3 PUSH2 0x7B2 JUMP JUMPDEST PUSH1 0x40 DUP3 ADD SWAP1 POP SWAP2 SWAP1 POP JUMP JUMPDEST PUSH0 PUSH1 0x20 DUP3 ADD SWAP1 POP DUP2 DUP2 SUB PUSH0 DUP4 ADD MSTORE PUSH2 0x839 DUP2 PUSH2 0x800 JUMP JUMPDEST SWAP1 POP SWAP2 SWAP1 POP JUMP JUMPDEST PUSH0 DUP2 SWAP1 POP DUP2 PUSH0 MSTORE PUSH1 0x20 PUSH0 KECCAK256 SWAP1 POP SWAP2 SWAP1 POP JUMP JUMPDEST PUSH0 PUSH1 0x20 PUSH1 0x1F DUP4 ADD DIV SWAP1 POP SWAP2 SWAP1 POP JUMP JUMPDEST PUSH0 DUP3 DUP3 SHL SWAP1 POP SWAP3 SWAP2 POP POP JUMP JUMPDEST PUSH0 PUSH1 0x8 DUP4 MUL PUSH2 0x89C PUSH32 0xFFFFFFFFFFFFFFFFFFFFFFFFFFFFFFFFFFFFFFFFFFFFFFFFFFFFFFFFFFFFFFFF DUP3 PUSH2 0x861 JUMP JUMPDEST PUSH2 0x8A6 DUP7 DUP4 PUSH2 0x861 JUMP JUMPDEST SWAP6 POP DUP1 NOT DUP5 AND SWAP4 POP DUP1 DUP7 AND DUP5 OR SWAP3 POP POP POP SWAP4 SWAP3 POP POP POP JUMP JUMPDEST PUSH0 DUP2 SWAP1 POP SWAP2 SWAP1 POP JUMP JUMPDEST PUSH0 PUSH2 0x8E1 PUSH2 0x8DC PUSH2 0x8D7 DUP5 PUSH2 0x3FB JUMP JUMPDEST PUSH2 0x8BE JUMP JUMPDEST PUSH2 0x3FB JUMP JUMPDEST SWAP1 POP SWAP2 SWAP1 POP JUMP JUMPDEST PUSH0 DUP2 SWAP1 POP SWAP2 SWAP1 POP JUMP JUMPDEST PUSH2 0x8FA DUP4 PUSH2 0x8C7 JUMP JUMPDEST PUSH2 0x90E PUSH2 0x906 DUP3 PUSH2 0x8E8 JUMP JUMPDEST DUP5 DUP5 SLOAD PUSH2 0x86D JUMP JUMPDEST DUP3 SSTORE POP POP POP POP JUMP JUMPDEST PUSH0 SWAP1 JUMP JUMPDEST PUSH2 0x922 PUSH2 0x916 JUMP JUMPDEST PUSH2 0x92D DUP2 DUP5 DUP5 PUSH2 0x8F1 JUMP JUMPDEST POP POP POP JUMP JUMPDEST JUMPDEST DUP2 DUP2 LT ISZERO PUSH2 0x950 JUMPI PUSH2 0x945 PUSH0 DUP3 PUSH2 0x91A JUMP JUMPDEST PUSH1 0x1 DUP2 ADD SWAP1 POP PUSH2 0x933 JUMP JUMPDEST POP POP JUMP JUMPDEST PUSH1 0x1F DUP3 GT ISZERO PUSH2 0x995 JUMPI PUSH2 0x966 DUP2 PUSH2 0x840 JUMP JUMPDEST PUSH2 0x96F DUP5 PUSH2 0x852 JUMP JUMPDEST DUP2 ADD PUSH1 0x20 DUP6 LT ISZERO PUSH2 0x97E JUMPI DUP2 SWAP1 POP JUMPDEST PUSH2 0x992 PUSH2 0x98A DUP6 PUSH2 0x852 JUMP JUMPDEST DUP4 ADD DUP3 PUSH2 0x932 JUMP JUMPDEST POP POP JUMPDEST POP POP POP JUMP JUMPDEST PUSH0 DUP3 DUP3 SHR SWAP1 POP SWAP3 SWAP2 POP POP JUMP JUMPDEST PUSH0 PUSH2 0x9B5 PUSH0 NOT DUP5 PUSH1 0x8 MUL PUSH2 0x99A JUMP JUMPDEST NOT DUP1 DUP4 AND SWAP2 POP POP SWAP3 SWAP2 POP POP JUMP JUMPDEST PUSH0 PUSH2 0x9CD DUP4 DUP4 PUSH2 0x9A6 JUMP JUMPDEST SWAP2 POP DUP3 PUSH1 0x2 MUL DUP3 OR SWAP1 POP SWAP3 SWAP2 POP POP JUMP JUMPDEST PUSH2 0x9E6 DUP3 PUSH2 0x459 JUMP JUMPDEST PUSH8 0xFFFFFFFFFFFFFFFF DUP2 GT ISZERO PUSH2 0x9FF JUMPI PUSH2 0x9FE PUSH2 0x54A JUMP JUMPDEST JUMPDEST PUSH2 0xA09 DUP3 SLOAD PUSH2 0x782 JUMP JUMPDEST PUSH2 0xA14 DUP3 DUP3 DUP6 PUSH2 0x954 JUMP JUMPDEST PUSH0 PUSH1 0x20 SWAP1 POP PUSH1 0x1F DUP4 GT PUSH1 0x1 DUP2 EQ PUSH2 0xA45 JUMPI PUSH0 DUP5 ISZERO PUSH2 0xA33 JUMPI DUP3 DUP8 ADD MLOAD SWAP1 POP JUMPDEST PUSH2 0xA3D DUP6 DUP3 PUSH2 0x9C2 JUMP JUMPDEST DUP7 SSTORE POP PUSH2 0xAA4 JUMP JUMPDEST PUSH1 0x1F NOT DUP5 AND PUSH2 0xA53 DUP7 PUSH2 0x840 JUMP JUMPDEST PUSH0 JUMPDEST DUP3 DUP2 LT ISZERO PUSH2 0xA7A JUMPI DUP5 DUP10 ADD MLOAD DUP3 SSTORE PUSH1 0x1 DUP3 ADD SWAP2 POP PUSH1 0x20 DUP6 ADD SWAP5 POP PUSH1 0x20 DUP2 ADD SWAP1 POP PUSH2 0xA55 JUMP JUMPDEST DUP7 DUP4 LT ISZERO PUSH2 0xA97 JUMPI DUP5 DUP10 ADD MLOAD PUSH2 0xA93 PUSH1 0x1F DUP10 AND DUP3 PUSH2 0x9A6 JUMP JUMPDEST DUP4 SSTORE POP JUMPDEST PUSH1 0x1 PUSH1 0x2 DUP9 MUL ADD DUP9 SSTORE POP POP POP JUMPDEST POP POP POP POP POP POP JUMP INVALID LOG2 PUSH5 0x6970667358 0x22 SLT KECCAK256 KECCAK256 0xDF MUL SWAP9 0x28 DUP9 PUSH21 0xA8BE347F7EDDB30A4260457D32328E8D35CB5AC4F4 0xC9 0x4A 0xA9 PUSH23 0x64736F6C63430008150033000000000000000000000000 "
				},
				"gasEstimates": {
					"creation": {
						"codeDepositCost": "557200",
						"executionCost": "24857",
						"totalCost": "582057"
					},
					"external": {
						"Certificates(uint256)": "infinite",
						"issueCertificate(uint256,string,string,string,string)": "infinite"
					}
				},
				"methodIdentifiers": {
					"Certificates(uint256)": "9622c836",
					"issueCertificate(uint256,string,string,string,string)": "d8e6219e"
				}
			},
			"storageLayout": {
				"storage": [
					{
						"astId": 3,
						"contract": "contracts/Cert.sol:Cert",
						"label": "admin",
						"offset": 0,
						"slot": "0",
						"type": "t_address"
					},
					{
						"astId": 38,
						"contract": "contracts/Cert.sol:Cert",
						"label": "Certificates",
						"offset": 0,
						"slot": "1",
						"type": "t_mapping(t_uint256,t_struct(Certificate)21_storage)"
					}
				],
				"types": {
					"t_address": {
						"encoding": "inplace",
						"label": "address",
						"numberOfBytes": "20"
					},
					"t_mapping(t_uint256,t_struct(Certificate)21_storage)": {
						"encoding": "mapping",
						"key": "t_uint256",
						"label": "mapping(uint256 => struct Cert.Certificate)",
						"numberOfBytes": "32",
						"value": "t_struct(Certificate)21_storage"
					},
					"t_string_storage": {
						"encoding": "bytes",
						"label": "string",
						"numberOfBytes": "32"
					},
					"t_struct(Certificate)21_storage": {
						"encoding": "inplace",
						"label": "struct Cert.Certificate",
						"members": [
							{
								"astId": 14,
								"contract": "contracts/Cert.sol:Cert",
								"label": "name",
								"offset": 0,
								"slot": "0",
								"type": "t_string_storage"
							},
							{
								"astId": 16,
								"contract": "contracts/Cert.sol:Cert",
								"label": "course",
								"offset": 0,
								"slot": "1",
								"type": "t_string_storage"
							},
							{
								"astId": 18,
								"contract": "contracts/Cert.sol:Cert",
								"label": "grade",
								"offset": 0,
								"slot": "2",
								"type": "t_string_storage"
							},
							{
								"astId": 20,
								"contract": "contracts/Cert.sol:Cert",
								"label": "date",
								"offset": 0,
								"slot": "3",
								"type": "t_string_storage"
							}
						],
						"numberOfBytes": "128"
					},
					"t_uint256": {
						"encoding": "inplace",
						"label": "uint256",
						"numberOfBytes": "32"
					}
				}
			},
			"userdoc": {
				"kind": "user",
				"methods": {},
				"version": 1
			}
		}
	}
}