{
	"contracts/BookToken.sol": {
		"BookToken": {
			"abi": [
				{
					"inputs": [
						{
							"internalType": "uint256",
							"name": "bookId",
							"type": "uint256"
						}
					],
					"name": "buyBook",
					"outputs": [],
					"stateMutability": "payable",
					"type": "function"
				},
				{
					"inputs": [
						{
							"internalType": "uint256",
							"name": "tokenId",
							"type": "uint256"
						},
						{
							"internalType": "address",
							"name": "newOwner",
							"type": "address"
						}
					],
					"name": "changeOwner",
					"outputs": [],
					"stateMutability": "nonpayable",
					"type": "function"
				},
				{
					"inputs": [
						{
							"internalType": "uint256",
							"name": "bookId",
							"type": "uint256"
						}
					],
					"name": "getBookDetails",
					"outputs": [
						{
							"internalType": "string",
							"name": "",
							"type": "string"
						},
						{
							"internalType": "uint256",
							"name": "",
							"type": "uint256"
						},
						{
							"internalType": "address",
							"name": "",
							"type": "address"
						}
					],
					"stateMutability": "view",
					"type": "function"
				},
				{
					"inputs": [
						{
							"internalType": "uint256",
							"name": "tokenId",
							"type": "uint256"
						}
					],
					"name": "getOwner",
					"outputs": [
						{
							"internalType": "address",
							"name": "",
							"type": "address"
						}
					],
					"stateMutability": "view",
					"type": "function"
				},
				{
					"inputs": [],
					"name": "mintToken",
					"outputs": [
						{
							"internalType": "uint256",
							"name": "",
							"type": "uint256"
						}
					],
					"stateMutability": "nonpayable",
					"type": "function"
				},
				{
					"inputs": [
						{
							"internalType": "string",
							"name": "_title",
							"type": "string"
						},
						{
							"internalType": "uint256",
							"name": "_price",
							"type": "uint256"
						}
					],
					"name": "setBook",
					"outputs": [
						{
							"internalType": "uint256",
							"name": "",
							"type": "uint256"
						}
					],
					"stateMutability": "nonpayable",
					"type": "function"
				}
			],
			"devdoc": {
				"kind": "dev",
				"methods": {},
				"version": 1
			},
			"evm": {
				"assembly": "    /* \"contracts/BookToken.sol\":80:1139  contract BookToken is Token{... */\n  mstore(0x40, 0x80)\n  callvalue\n  dup1\n  iszero\n  tag_1\n  jumpi\n  0x00\n  dup1\n  revert\ntag_1:\n  pop\n  dataSize(sub_0)\n  dup1\n  dataOffset(sub_0)\n  0x00\n  codecopy\n  0x00\n  return\nstop\n\nsub_0: assembly {\n        /* \"contracts/BookToken.sol\":80:1139  contract BookToken is Token{... */\n      mstore(0x40, 0x80)\n      jumpi(tag_1, lt(calldatasize, 0x04))\n      shr(0xe0, calldataload(0x00))\n      dup1\n      0x2004ffd9\n      eq\n      tag_2\n      jumpi\n      dup1\n      0x6ee26566\n      eq\n      tag_3\n      jumpi\n      dup1\n      0x74ff4818\n      eq\n      tag_4\n      jumpi\n      dup1\n      0x784796f7\n      eq\n      tag_5\n      jumpi\n      dup1\n      0x808f0114\n      eq\n      tag_6\n      jumpi\n      dup1\n      0xc41a360a\n      eq\n      tag_7\n      jumpi\n    tag_1:\n      0x00\n      dup1\n      revert\n        /* \"contracts/Token.sol\":124:286  function mintToken() public returns(uint){... */\n    tag_2:\n      callvalue\n      dup1\n      iszero\n      tag_8\n      jumpi\n      0x00\n      dup1\n      revert\n    tag_8:\n      pop\n      tag_9\n      tag_10\n      jump\t// in\n    tag_9:\n      mload(0x40)\n      tag_11\n      swap2\n      swap1\n      tag_12\n      jump\t// in\n    tag_11:\n      mload(0x40)\n      dup1\n      swap2\n      sub\n      swap1\n      return\n        /* \"contracts/BookToken.sol\":521:719  function buyBook(uint bookId) public payable{... */\n    tag_3:\n      tag_13\n      0x04\n      dup1\n      calldatasize\n      sub\n      dup2\n      add\n      swap1\n      tag_14\n      swap2\n      swap1\n      tag_15\n      jump\t// in\n    tag_14:\n      tag_16\n      jump\t// in\n    tag_13:\n      stop\n        /* \"contracts/BookToken.sol\":731:1042  function getBookDetails(uint bookId) public view returns(string memory, uint, address){... */\n    tag_4:\n      callvalue\n      dup1\n      iszero\n      tag_17\n      jumpi\n      0x00\n      dup1\n      revert\n    tag_17:\n      pop\n      tag_18\n      0x04\n      dup1\n      calldatasize\n      sub\n      dup2\n      add\n      swap1\n      tag_19\n      swap2\n      swap1\n      tag_15\n      jump\t// in\n    tag_19:\n      tag_20\n      jump\t// in\n    tag_18:\n      mload(0x40)\n      tag_21\n      swap4\n      swap3\n      swap2\n      swap1\n      tag_22\n      jump\t// in\n    tag_21:\n      mload(0x40)\n      dup1\n      swap2\n      sub\n      swap1\n      return\n        /* \"contracts/BookToken.sol\":1054:1136  function changeOwner(uint tokenId, address newOwner) public override{... */\n    tag_5:\n      callvalue\n      dup1\n      iszero\n      tag_23\n      jumpi\n      0x00\n      dup1\n      revert\n    tag_23:\n      pop\n      tag_24\n      0x04\n      dup1\n      calldatasize\n      sub\n      dup2\n      add\n      swap1\n      tag_25\n      swap2\n      swap1\n      tag_26\n      jump\t// in\n    tag_25:\n      tag_27\n      jump\t// in\n    tag_24:\n      stop\n        /* \"contracts/BookToken.sol\":255:509  function setBook(string memory _title, uint _price) public returns(uint){... */\n    tag_6:\n      callvalue\n      dup1\n      iszero\n      tag_28\n      jumpi\n      0x00\n      dup1\n      revert\n    tag_28:\n      pop\n      tag_29\n      0x04\n      dup1\n      calldatasize\n      sub\n      dup2\n      add\n      swap1\n      tag_30\n      swap2\n      swap1\n      tag_31\n      jump\t// in\n    tag_30:\n      tag_32\n      jump\t// in\n    tag_29:\n      mload(0x40)\n      tag_33\n      swap2\n      swap1\n      tag_12\n      jump\t// in\n    tag_33:\n      mload(0x40)\n      dup1\n      swap2\n      sub\n      swap1\n      return\n        /* \"contracts/Token.sol\":294:403  function getOwner(uint tokenId) public view returns(address){... */\n    tag_7:\n      callvalue\n      dup1\n      iszero\n      tag_34\n      jumpi\n      0x00\n      dup1\n      revert\n    tag_34:\n      pop\n      tag_35\n      0x04\n      dup1\n      calldatasize\n      sub\n      dup2\n      add\n      swap1\n      tag_36\n      swap2\n      swap1\n      tag_15\n      jump\t// in\n    tag_36:\n      tag_37\n      jump\t// in\n    tag_35:\n      mload(0x40)\n      tag_38\n      swap2\n      swap1\n      tag_39\n      jump\t// in\n    tag_38:\n      mload(0x40)\n      dup1\n      swap2\n      sub\n      swap1\n      return\n        /* \"contracts/Token.sol\":124:286  function mintToken() public returns(uint){... */\n    tag_10:\n        /* \"contracts/Token.sol\":160:164  uint */\n      0x00\n        /* \"contracts/Token.sol\":176:188  uint tokenId */\n      dup1\n        /* \"contracts/Token.sol\":191:206  block.timestamp */\n      timestamp\n        /* \"contracts/Token.sol\":176:206  uint tokenId = block.timestamp */\n      swap1\n      pop\n        /* \"contracts/Token.sol\":243:253  msg.sender */\n      caller\n        /* \"contracts/Token.sol\":217:231  tokenOwnership */\n      0x00\n        /* \"contracts/Token.sol\":217:240  tokenOwnership[tokenId] */\n      dup1\n        /* \"contracts/Token.sol\":232:239  tokenId */\n      dup4\n        /* \"contracts/Token.sol\":217:240  tokenOwnership[tokenId] */\n      dup2\n      mstore\n      0x20\n      add\n      swap1\n      dup2\n      mstore\n      0x20\n      add\n      0x00\n      keccak256\n      0x00\n        /* \"contracts/Token.sol\":217:253  tokenOwnership[tokenId] = msg.sender */\n      0x0100\n      exp\n      dup2\n      sload\n      dup2\n      0xffffffffffffffffffffffffffffffffffffffff\n      mul\n      not\n      and\n      swap1\n      dup4\n      0xffffffffffffffffffffffffffffffffffffffff\n      and\n      mul\n      or\n      swap1\n      sstore\n      pop\n        /* \"contracts/Token.sol\":271:278  tokenId */\n      dup1\n        /* \"contracts/Token.sol\":264:278  return tokenId */\n      swap2\n      pop\n      pop\n        /* \"contracts/Token.sol\":124:286  function mintToken() public returns(uint){... */\n      swap1\n      jump\t// out\n        /* \"contracts/BookToken.sol\":521:719  function buyBook(uint bookId) public payable{... */\n    tag_16:\n        /* \"contracts/BookToken.sol\":610:623  bookOwnership */\n      0x01\n        /* \"contracts/BookToken.sol\":610:631  bookOwnership[bookId] */\n      0x00\n        /* \"contracts/BookToken.sol\":624:630  bookId */\n      dup3\n        /* \"contracts/BookToken.sol\":610:631  bookOwnership[bookId] */\n      dup2\n      mstore\n      0x20\n      add\n      swap1\n      dup2\n      mstore\n      0x20\n      add\n      0x00\n      keccak256\n        /* \"contracts/BookToken.sol\":610:637  bookOwnership[bookId].price */\n      0x01\n      add\n      sload\n        /* \"contracts/BookToken.sol\":600:607  1 ether */\n      0x0de0b6b3a7640000\n        /* \"contracts/BookToken.sol\":588:597  msg.value */\n      callvalue\n        /* \"contracts/BookToken.sol\":588:607  msg.value / 1 ether */\n      tag_42\n      swap2\n      swap1\n      tag_43\n      jump\t// in\n    tag_42:\n        /* \"contracts/BookToken.sol\":588:637  msg.value / 1 ether >=bookOwnership[bookId].price */\n      lt\n      iszero\n        /* \"contracts/BookToken.sol\":580:661  require(msg.value / 1 ether >=bookOwnership[bookId].price,\"Insufficient balance\") */\n      tag_44\n      jumpi\n      mload(0x40)\n      0x08c379a000000000000000000000000000000000000000000000000000000000\n      dup2\n      mstore\n      0x04\n      add\n      tag_45\n      swap1\n      tag_46\n      jump\t// in\n    tag_45:\n      mload(0x40)\n      dup1\n      swap2\n      sub\n      swap1\n      revert\n    tag_44:\n        /* \"contracts/BookToken.sol\":676:707  changeOwner(bookId, msg.sender) */\n      tag_47\n        /* \"contracts/BookToken.sol\":688:694  bookId */\n      dup2\n        /* \"contracts/BookToken.sol\":696:706  msg.sender */\n      caller\n        /* \"contracts/BookToken.sol\":676:687  changeOwner */\n      tag_27\n        /* \"contracts/BookToken.sol\":676:707  changeOwner(bookId, msg.sender) */\n      jump\t// in\n    tag_47:\n        /* \"contracts/BookToken.sol\":521:719  function buyBook(uint bookId) public payable{... */\n      pop\n      jump\t// out\n        /* \"contracts/BookToken.sol\":731:1042  function getBookDetails(uint bookId) public view returns(string memory, uint, address){... */\n    tag_20:\n        /* \"contracts/BookToken.sol\":788:801  string memory */\n      0x60\n        /* \"contracts/BookToken.sol\":803:807  uint */\n      0x00\n        /* \"contracts/BookToken.sol\":809:816  address */\n      dup1\n        /* \"contracts/BookToken.sol\":832:851  string memory title */\n      0x00\n        /* \"contracts/BookToken.sol\":854:867  bookOwnership */\n      0x01\n        /* \"contracts/BookToken.sol\":854:875  bookOwnership[bookId] */\n      0x00\n        /* \"contracts/BookToken.sol\":868:874  bookId */\n      dup7\n        /* \"contracts/BookToken.sol\":854:875  bookOwnership[bookId] */\n      dup2\n      mstore\n      0x20\n      add\n      swap1\n      dup2\n      mstore\n      0x20\n      add\n      0x00\n      keccak256\n        /* \"contracts/BookToken.sol\":854:881  bookOwnership[bookId].title */\n      0x00\n      add\n        /* \"contracts/BookToken.sol\":832:881  string memory title = bookOwnership[bookId].title */\n      dup1\n      sload\n      tag_49\n      swap1\n      tag_50\n      jump\t// in\n    tag_49:\n      dup1\n      0x1f\n      add\n      0x20\n      dup1\n      swap2\n      div\n      mul\n      0x20\n      add\n      mload(0x40)\n      swap1\n      dup2\n      add\n      0x40\n      mstore\n      dup1\n      swap3\n      swap2\n      swap1\n      dup2\n      dup2\n      mstore\n      0x20\n      add\n      dup3\n      dup1\n      sload\n      tag_51\n      swap1\n      tag_50\n      jump\t// in\n    tag_51:\n      dup1\n      iszero\n      tag_52\n      jumpi\n      dup1\n      0x1f\n      lt\n      tag_53\n      jumpi\n      0x0100\n      dup1\n      dup4\n      sload\n      div\n      mul\n      dup4\n      mstore\n      swap2\n      0x20\n      add\n      swap2\n      jump(tag_52)\n    tag_53:\n      dup3\n      add\n      swap2\n      swap1\n      0x00\n      mstore\n      keccak256(0x00, 0x20)\n      swap1\n    tag_54:\n      dup2\n      sload\n      dup2\n      mstore\n      swap1\n      0x01\n      add\n      swap1\n      0x20\n      add\n      dup1\n      dup4\n      gt\n      tag_54\n      jumpi\n      dup3\n      swap1\n      sub\n      0x1f\n      and\n      dup3\n      add\n      swap2\n    tag_52:\n      pop\n      pop\n      pop\n      pop\n      pop\n      swap1\n      pop\n        /* \"contracts/BookToken.sol\":896:906  uint price */\n      0x00\n        /* \"contracts/BookToken.sol\":909:922  bookOwnership */\n      0x01\n        /* \"contracts/BookToken.sol\":909:930  bookOwnership[bookId] */\n      0x00\n        /* \"contracts/BookToken.sol\":923:929  bookId */\n      dup8\n        /* \"contracts/BookToken.sol\":909:930  bookOwnership[bookId] */\n      dup2\n      mstore\n      0x20\n      add\n      swap1\n      dup2\n      mstore\n      0x20\n      add\n      0x00\n      keccak256\n        /* \"contracts/BookToken.sol\":909:936  bookOwnership[bookId].price */\n      0x01\n      add\n      sload\n        /* \"contracts/BookToken.sol\":896:936  uint price = bookOwnership[bookId].price */\n      swap1\n      pop\n        /* \"contracts/BookToken.sol\":951:964  address owner */\n      0x00\n        /* \"contracts/BookToken.sol\":967:981  tokenOwnership */\n      dup1\n        /* \"contracts/BookToken.sol\":967:989  tokenOwnership[bookId] */\n      0x00\n        /* \"contracts/BookToken.sol\":982:988  bookId */\n      dup9\n        /* \"contracts/BookToken.sol\":967:989  tokenOwnership[bookId] */\n      dup2\n      mstore\n      0x20\n      add\n      swap1\n      dup2\n      mstore\n      0x20\n      add\n      0x00\n      keccak256\n      0x00\n      swap1\n      sload\n      swap1\n      0x0100\n      exp\n      swap1\n      div\n      0xffffffffffffffffffffffffffffffffffffffff\n      and\n        /* \"contracts/BookToken.sol\":951:989  address owner = tokenOwnership[bookId] */\n      swap1\n      pop\n        /* \"contracts/BookToken.sol\":1012:1017  title */\n      dup3\n        /* \"contracts/BookToken.sol\":1018:1023  price */\n      dup3\n        /* \"contracts/BookToken.sol\":1024:1029  owner */\n      dup3\n        /* \"contracts/BookToken.sol\":1004:1030  return (title,price,owner) */\n      swap6\n      pop\n      swap6\n      pop\n      swap6\n      pop\n      pop\n      pop\n      pop\n        /* \"contracts/BookToken.sol\":731:1042  function getBookDetails(uint bookId) public view returns(string memory, uint, address){... */\n      swap2\n      swap4\n      swap1\n      swap3\n      pop\n      jump\t// out\n        /* \"contracts/BookToken.sol\":1054:1136  function changeOwner(uint tokenId, address newOwner) public override{... */\n    tag_27:\n      pop\n      pop\n      jump\t// out\n        /* \"contracts/BookToken.sol\":255:509  function setBook(string memory _title, uint _price) public returns(uint){... */\n    tag_32:\n        /* \"contracts/BookToken.sol\":322:326  uint */\n      0x00\n        /* \"contracts/BookToken.sol\":342:353  uint bookId */\n      dup1\n        /* \"contracts/BookToken.sol\":356:367  mintToken() */\n      tag_57\n        /* \"contracts/BookToken.sol\":356:365  mintToken */\n      tag_10\n        /* \"contracts/BookToken.sol\":356:367  mintToken() */\n      jump\t// in\n    tag_57:\n        /* \"contracts/BookToken.sol\":342:367  uint bookId = mintToken() */\n      swap1\n      pop\n        /* \"contracts/BookToken.sol\":412:418  _title */\n      dup4\n        /* \"contracts/BookToken.sol\":382:395  bookOwnership */\n      0x01\n        /* \"contracts/BookToken.sol\":382:403  bookOwnership[bookId] */\n      0x00\n        /* \"contracts/BookToken.sol\":396:402  bookId */\n      dup4\n        /* \"contracts/BookToken.sol\":382:403  bookOwnership[bookId] */\n      dup2\n      mstore\n      0x20\n      add\n      swap1\n      dup2\n      mstore\n      0x20\n      add\n      0x00\n      keccak256\n        /* \"contracts/BookToken.sol\":382:409  bookOwnership[bookId].title */\n      0x00\n      add\n        /* \"contracts/BookToken.sol\":382:418  bookOwnership[bookId].title = _title */\n      swap1\n      dup2\n      tag_58\n      swap2\n      swap1\n      tag_59\n      jump\t// in\n    tag_58:\n      pop\n        /* \"contracts/BookToken.sol\":463:469  _price */\n      dup3\n        /* \"contracts/BookToken.sol\":433:446  bookOwnership */\n      0x01\n        /* \"contracts/BookToken.sol\":433:454  bookOwnership[bookId] */\n      0x00\n        /* \"contracts/BookToken.sol\":447:453  bookId */\n      dup4\n        /* \"contracts/BookToken.sol\":433:454  bookOwnership[bookId] */\n      dup2\n      mstore\n      0x20\n      add\n      swap1\n      dup2\n      mstore\n      0x20\n      add\n      0x00\n      keccak256\n        /* \"contracts/BookToken.sol\":433:460  bookOwnership[bookId].price */\n      0x01\n      add\n        /* \"contracts/BookToken.sol\":433:469  bookOwnership[bookId].price = _price */\n      dup2\n      swap1\n      sstore\n      pop\n        /* \"contracts/BookToken.sol\":491:497  bookId */\n      dup1\n        /* \"contracts/BookToken.sol\":484:497  return bookId */\n      swap2\n      pop\n      pop\n        /* \"contracts/BookToken.sol\":255:509  function setBook(string memory _title, uint _price) public returns(uint){... */\n      swap3\n      swap2\n      pop\n      pop\n      jump\t// out\n        /* \"contracts/Token.sol\":294:403  function getOwner(uint tokenId) public view returns(address){... */\n    tag_37:\n        /* \"contracts/Token.sol\":346:353  address */\n      0x00\n        /* \"contracts/Token.sol\":372:386  tokenOwnership */\n      dup1\n        /* \"contracts/Token.sol\":372:395  tokenOwnership[tokenId] */\n      0x00\n        /* \"contracts/Token.sol\":387:394  tokenId */\n      dup4\n        /* \"contracts/Token.sol\":372:395  tokenOwnership[tokenId] */\n      dup2\n      mstore\n      0x20\n      add\n      swap1\n      dup2\n      mstore\n      0x20\n      add\n      0x00\n      keccak256\n      0x00\n      swap1\n      sload\n      swap1\n      0x0100\n      exp\n      swap1\n      div\n      0xffffffffffffffffffffffffffffffffffffffff\n      and\n        /* \"contracts/Token.sol\":365:395  return tokenOwnership[tokenId] */\n      swap1\n      pop\n        /* \"contracts/Token.sol\":294:403  function getOwner(uint tokenId) public view returns(address){... */\n      swap2\n      swap1\n      pop\n      jump\t// out\n        /* \"#utility.yul\":7:84   */\n    tag_61:\n        /* \"#utility.yul\":44:51   */\n      0x00\n        /* \"#utility.yul\":73:78   */\n      dup2\n        /* \"#utility.yul\":62:78   */\n      swap1\n      pop\n        /* \"#utility.yul\":7:84   */\n      swap2\n      swap1\n      pop\n      jump\t// out\n        /* \"#utility.yul\":90:208   */\n    tag_62:\n        /* \"#utility.yul\":177:201   */\n      tag_110\n        /* \"#utility.yul\":195:200   */\n      dup2\n        /* \"#utility.yul\":177:201   */\n      tag_61\n      jump\t// in\n    tag_110:\n        /* \"#utility.yul\":172:175   */\n      dup3\n        /* \"#utility.yul\":165:202   */\n      mstore\n        /* \"#utility.yul\":90:208   */\n      pop\n      pop\n      jump\t// out\n        /* \"#utility.yul\":214:436   */\n    tag_12:\n        /* \"#utility.yul\":307:311   */\n      0x00\n        /* \"#utility.yul\":345:347   */\n      0x20\n        /* \"#utility.yul\":334:343   */\n      dup3\n        /* \"#utility.yul\":330:348   */\n      add\n        /* \"#utility.yul\":322:348   */\n      swap1\n      pop\n        /* \"#utility.yul\":358:429   */\n      tag_112\n        /* \"#utility.yul\":426:427   */\n      0x00\n        /* \"#utility.yul\":415:424   */\n      dup4\n        /* \"#utility.yul\":411:428   */\n      add\n        /* \"#utility.yul\":402:408   */\n      dup5\n        /* \"#utility.yul\":358:429   */\n      tag_62\n      jump\t// in\n    tag_112:\n        /* \"#utility.yul\":214:436   */\n      swap3\n      swap2\n      pop\n      pop\n      jump\t// out\n        /* \"#utility.yul\":442:517   */\n    tag_63:\n        /* \"#utility.yul\":475:481   */\n      0x00\n        /* \"#utility.yul\":508:510   */\n      0x40\n        /* \"#utility.yul\":502:511   */\n      mload\n        /* \"#utility.yul\":492:511   */\n      swap1\n      pop\n        /* \"#utility.yul\":442:517   */\n      swap1\n      jump\t// out\n        /* \"#utility.yul\":523:640   */\n    tag_64:\n        /* \"#utility.yul\":632:633   */\n      0x00\n        /* \"#utility.yul\":629:630   */\n      dup1\n        /* \"#utility.yul\":622:634   */\n      revert\n        /* \"#utility.yul\":646:763   */\n    tag_65:\n        /* \"#utility.yul\":755:756   */\n      0x00\n        /* \"#utility.yul\":752:753   */\n      dup1\n        /* \"#utility.yul\":745:757   */\n      revert\n        /* \"#utility.yul\":769:891   */\n    tag_66:\n        /* \"#utility.yul\":842:866   */\n      tag_117\n        /* \"#utility.yul\":860:865   */\n      dup2\n        /* \"#utility.yul\":842:866   */\n      tag_61\n      jump\t// in\n    tag_117:\n        /* \"#utility.yul\":835:840   */\n      dup2\n        /* \"#utility.yul\":832:867   */\n      eq\n        /* \"#utility.yul\":822:885   */\n      tag_118\n      jumpi\n        /* \"#utility.yul\":881:882   */\n      0x00\n        /* \"#utility.yul\":878:879   */\n      dup1\n        /* \"#utility.yul\":871:883   */\n      revert\n        /* \"#utility.yul\":822:885   */\n    tag_118:\n        /* \"#utility.yul\":769:891   */\n      pop\n      jump\t// out\n        /* \"#utility.yul\":897:1036   */\n    tag_67:\n        /* \"#utility.yul\":943:948   */\n      0x00\n        /* \"#utility.yul\":981:987   */\n      dup2\n        /* \"#utility.yul\":968:988   */\n      calldataload\n        /* \"#utility.yul\":959:988   */\n      swap1\n      pop\n        /* \"#utility.yul\":997:1030   */\n      tag_120\n        /* \"#utility.yul\":1024:1029   */\n      dup2\n        /* \"#utility.yul\":997:1030   */\n      tag_66\n      jump\t// in\n    tag_120:\n        /* \"#utility.yul\":897:1036   */\n      swap3\n      swap2\n      pop\n      pop\n      jump\t// out\n        /* \"#utility.yul\":1042:1371   */\n    tag_15:\n        /* \"#utility.yul\":1101:1107   */\n      0x00\n        /* \"#utility.yul\":1150:1152   */\n      0x20\n        /* \"#utility.yul\":1138:1147   */\n      dup3\n        /* \"#utility.yul\":1129:1136   */\n      dup5\n        /* \"#utility.yul\":1125:1148   */\n      sub\n        /* \"#utility.yul\":1121:1153   */\n      slt\n        /* \"#utility.yul\":1118:1237   */\n      iszero\n      tag_122\n      jumpi\n        /* \"#utility.yul\":1156:1235   */\n      tag_123\n      tag_64\n      jump\t// in\n    tag_123:\n        /* \"#utility.yul\":1118:1237   */\n    tag_122:\n        /* \"#utility.yul\":1276:1277   */\n      0x00\n        /* \"#utility.yul\":1301:1354   */\n      tag_124\n        /* \"#utility.yul\":1346:1353   */\n      dup5\n        /* \"#utility.yul\":1337:1343   */\n      dup3\n        /* \"#utility.yul\":1326:1335   */\n      dup6\n        /* \"#utility.yul\":1322:1344   */\n      add\n        /* \"#utility.yul\":1301:1354   */\n      tag_67\n      jump\t// in\n    tag_124:\n        /* \"#utility.yul\":1291:1354   */\n      swap2\n      pop\n        /* \"#utility.yul\":1247:1364   */\n      pop\n        /* \"#utility.yul\":1042:1371   */\n      swap3\n      swap2\n      pop\n      pop\n      jump\t// out\n        /* \"#utility.yul\":1377:1476   */\n    tag_68:\n        /* \"#utility.yul\":1429:1435   */\n      0x00\n        /* \"#utility.yul\":1463:1468   */\n      dup2\n        /* \"#utility.yul\":1457:1469   */\n      mload\n        /* \"#utility.yul\":1447:1469   */\n      swap1\n      pop\n        /* \"#utility.yul\":1377:1476   */\n      swap2\n      swap1\n      pop\n      jump\t// out\n        /* \"#utility.yul\":1482:1651   */\n    tag_69:\n        /* \"#utility.yul\":1566:1577   */\n      0x00\n        /* \"#utility.yul\":1600:1606   */\n      dup3\n        /* \"#utility.yul\":1595:1598   */\n      dup3\n        /* \"#utility.yul\":1588:1607   */\n      mstore\n        /* \"#utility.yul\":1640:1644   */\n      0x20\n        /* \"#utility.yul\":1635:1638   */\n      dup3\n        /* \"#utility.yul\":1631:1645   */\n      add\n        /* \"#utility.yul\":1616:1645   */\n      swap1\n      pop\n        /* \"#utility.yul\":1482:1651   */\n      swap3\n      swap2\n      pop\n      pop\n      jump\t// out\n        /* \"#utility.yul\":1657:1903   */\n    tag_70:\n        /* \"#utility.yul\":1738:1739   */\n      0x00\n        /* \"#utility.yul\":1748:1861   */\n    tag_128:\n        /* \"#utility.yul\":1762:1768   */\n      dup4\n        /* \"#utility.yul\":1759:1760   */\n      dup2\n        /* \"#utility.yul\":1756:1769   */\n      lt\n        /* \"#utility.yul\":1748:1861   */\n      iszero\n      tag_130\n      jumpi\n        /* \"#utility.yul\":1847:1848   */\n      dup1\n        /* \"#utility.yul\":1842:1845   */\n      dup3\n        /* \"#utility.yul\":1838:1849   */\n      add\n        /* \"#utility.yul\":1832:1850   */\n      mload\n        /* \"#utility.yul\":1828:1829   */\n      dup2\n        /* \"#utility.yul\":1823:1826   */\n      dup5\n        /* \"#utility.yul\":1819:1830   */\n      add\n        /* \"#utility.yul\":1812:1851   */\n      mstore\n        /* \"#utility.yul\":1784:1786   */\n      0x20\n        /* \"#utility.yul\":1781:1782   */\n      dup2\n        /* \"#utility.yul\":1777:1787   */\n      add\n        /* \"#utility.yul\":1772:1787   */\n      swap1\n      pop\n        /* \"#utility.yul\":1748:1861   */\n      jump(tag_128)\n    tag_130:\n        /* \"#utility.yul\":1895:1896   */\n      0x00\n        /* \"#utility.yul\":1886:1892   */\n      dup5\n        /* \"#utility.yul\":1881:1884   */\n      dup5\n        /* \"#utility.yul\":1877:1893   */\n      add\n        /* \"#utility.yul\":1870:1897   */\n      mstore\n        /* \"#utility.yul\":1719:1903   */\n      pop\n        /* \"#utility.yul\":1657:1903   */\n      pop\n      pop\n      pop\n      jump\t// out\n        /* \"#utility.yul\":1909:2011   */\n    tag_71:\n        /* \"#utility.yul\":1950:1956   */\n      0x00\n        /* \"#utility.yul\":2001:2003   */\n      0x1f\n        /* \"#utility.yul\":1997:2004   */\n      not\n        /* \"#utility.yul\":1992:1994   */\n      0x1f\n        /* \"#utility.yul\":1985:1990   */\n      dup4\n        /* \"#utility.yul\":1981:1995   */\n      add\n        /* \"#utility.yul\":1977:2005   */\n      and\n        /* \"#utility.yul\":1967:2005   */\n      swap1\n      pop\n        /* \"#utility.yul\":1909:2011   */\n      swap2\n      swap1\n      pop\n      jump\t// out\n        /* \"#utility.yul\":2017:2394   */\n    tag_72:\n        /* \"#utility.yul\":2105:2108   */\n      0x00\n        /* \"#utility.yul\":2133:2172   */\n      tag_133\n        /* \"#utility.yul\":2166:2171   */\n      dup3\n        /* \"#utility.yul\":2133:2172   */\n      tag_68\n      jump\t// in\n    tag_133:\n        /* \"#utility.yul\":2188:2259   */\n      tag_134\n        /* \"#utility.yul\":2252:2258   */\n      dup2\n        /* \"#utility.yul\":2247:2250   */\n      dup6\n        /* \"#utility.yul\":2188:2259   */\n      tag_69\n      jump\t// in\n    tag_134:\n        /* \"#utility.yul\":2181:2259   */\n      swap4\n      pop\n        /* \"#utility.yul\":2268:2333   */\n      tag_135\n        /* \"#utility.yul\":2326:2332   */\n      dup2\n        /* \"#utility.yul\":2321:2324   */\n      dup6\n        /* \"#utility.yul\":2314:2318   */\n      0x20\n        /* \"#utility.yul\":2307:2312   */\n      dup7\n        /* \"#utility.yul\":2303:2319   */\n      add\n        /* \"#utility.yul\":2268:2333   */\n      tag_70\n      jump\t// in\n    tag_135:\n        /* \"#utility.yul\":2358:2387   */\n      tag_136\n        /* \"#utility.yul\":2380:2386   */\n      dup2\n        /* \"#utility.yul\":2358:2387   */\n      tag_71\n      jump\t// in\n    tag_136:\n        /* \"#utility.yul\":2353:2356   */\n      dup5\n        /* \"#utility.yul\":2349:2388   */\n      add\n        /* \"#utility.yul\":2342:2388   */\n      swap2\n      pop\n        /* \"#utility.yul\":2109:2394   */\n      pop\n        /* \"#utility.yul\":2017:2394   */\n      swap3\n      swap2\n      pop\n      pop\n      jump\t// out\n        /* \"#utility.yul\":2400:2526   */\n    tag_73:\n        /* \"#utility.yul\":2437:2444   */\n      0x00\n        /* \"#utility.yul\":2477:2519   */\n      0xffffffffffffffffffffffffffffffffffffffff\n        /* \"#utility.yul\":2470:2475   */\n      dup3\n        /* \"#utility.yul\":2466:2520   */\n      and\n        /* \"#utility.yul\":2455:2520   */\n      swap1\n      pop\n        /* \"#utility.yul\":2400:2526   */\n      swap2\n      swap1\n      pop\n      jump\t// out\n        /* \"#utility.yul\":2532:2628   */\n    tag_74:\n        /* \"#utility.yul\":2569:2576   */\n      0x00\n        /* \"#utility.yul\":2598:2622   */\n      tag_139\n        /* \"#utility.yul\":2616:2621   */\n      dup3\n        /* \"#utility.yul\":2598:2622   */\n      tag_73\n      jump\t// in\n    tag_139:\n        /* \"#utility.yul\":2587:2622   */\n      swap1\n      pop\n        /* \"#utility.yul\":2532:2628   */\n      swap2\n      swap1\n      pop\n      jump\t// out\n        /* \"#utility.yul\":2634:2752   */\n    tag_75:\n        /* \"#utility.yul\":2721:2745   */\n      tag_141\n        /* \"#utility.yul\":2739:2744   */\n      dup2\n        /* \"#utility.yul\":2721:2745   */\n      tag_74\n      jump\t// in\n    tag_141:\n        /* \"#utility.yul\":2716:2719   */\n      dup3\n        /* \"#utility.yul\":2709:2746   */\n      mstore\n        /* \"#utility.yul\":2634:2752   */\n      pop\n      pop\n      jump\t// out\n        /* \"#utility.yul\":2758:3291   */\n    tag_22:\n        /* \"#utility.yul\":2927:2931   */\n      0x00\n        /* \"#utility.yul\":2965:2967   */\n      0x60\n        /* \"#utility.yul\":2954:2963   */\n      dup3\n        /* \"#utility.yul\":2950:2968   */\n      add\n        /* \"#utility.yul\":2942:2968   */\n      swap1\n      pop\n        /* \"#utility.yul\":3014:3023   */\n      dup2\n        /* \"#utility.yul\":3008:3012   */\n      dup2\n        /* \"#utility.yul\":3004:3024   */\n      sub\n        /* \"#utility.yul\":3000:3001   */\n      0x00\n        /* \"#utility.yul\":2989:2998   */\n      dup4\n        /* \"#utility.yul\":2985:3002   */\n      add\n        /* \"#utility.yul\":2978:3025   */\n      mstore\n        /* \"#utility.yul\":3042:3120   */\n      tag_143\n        /* \"#utility.yul\":3115:3119   */\n      dup2\n        /* \"#utility.yul\":3106:3112   */\n      dup7\n        /* \"#utility.yul\":3042:3120   */\n      tag_72\n      jump\t// in\n    tag_143:\n        /* \"#utility.yul\":3034:3120   */\n      swap1\n      pop\n        /* \"#utility.yul\":3130:3202   */\n      tag_144\n        /* \"#utility.yul\":3198:3200   */\n      0x20\n        /* \"#utility.yul\":3187:3196   */\n      dup4\n        /* \"#utility.yul\":3183:3201   */\n      add\n        /* \"#utility.yul\":3174:3180   */\n      dup6\n        /* \"#utility.yul\":3130:3202   */\n      tag_62\n      jump\t// in\n    tag_144:\n        /* \"#utility.yul\":3212:3284   */\n      tag_145\n        /* \"#utility.yul\":3280:3282   */\n      0x40\n        /* \"#utility.yul\":3269:3278   */\n      dup4\n        /* \"#utility.yul\":3265:3283   */\n      add\n        /* \"#utility.yul\":3256:3262   */\n      dup5\n        /* \"#utility.yul\":3212:3284   */\n      tag_75\n      jump\t// in\n    tag_145:\n        /* \"#utility.yul\":2758:3291   */\n      swap5\n      swap4\n      pop\n      pop\n      pop\n      pop\n      jump\t// out\n        /* \"#utility.yul\":3297:3419   */\n    tag_76:\n        /* \"#utility.yul\":3370:3394   */\n      tag_147\n        /* \"#utility.yul\":3388:3393   */\n      dup2\n        /* \"#utility.yul\":3370:3394   */\n      tag_74\n      jump\t// in\n    tag_147:\n        /* \"#utility.yul\":3363:3368   */\n      dup2\n        /* \"#utility.yul\":3360:3395   */\n      eq\n        /* \"#utility.yul\":3350:3413   */\n      tag_148\n      jumpi\n        /* \"#utility.yul\":3409:3410   */\n      0x00\n        /* \"#utility.yul\":3406:3407   */\n      dup1\n        /* \"#utility.yul\":3399:3411   */\n      revert\n        /* \"#utility.yul\":3350:3413   */\n    tag_148:\n        /* \"#utility.yul\":3297:3419   */\n      pop\n      jump\t// out\n        /* \"#utility.yul\":3425:3564   */\n    tag_77:\n        /* \"#utility.yul\":3471:3476   */\n      0x00\n        /* \"#utility.yul\":3509:3515   */\n      dup2\n        /* \"#utility.yul\":3496:3516   */\n      calldataload\n        /* \"#utility.yul\":3487:3516   */\n      swap1\n      pop\n        /* \"#utility.yul\":3525:3558   */\n      tag_150\n        /* \"#utility.yul\":3552:3557   */\n      dup2\n        /* \"#utility.yul\":3525:3558   */\n      tag_76\n      jump\t// in\n    tag_150:\n        /* \"#utility.yul\":3425:3564   */\n      swap3\n      swap2\n      pop\n      pop\n      jump\t// out\n        /* \"#utility.yul\":3570:4044   */\n    tag_26:\n        /* \"#utility.yul\":3638:3644   */\n      0x00\n        /* \"#utility.yul\":3646:3652   */\n      dup1\n        /* \"#utility.yul\":3695:3697   */\n      0x40\n        /* \"#utility.yul\":3683:3692   */\n      dup4\n        /* \"#utility.yul\":3674:3681   */\n      dup6\n        /* \"#utility.yul\":3670:3693   */\n      sub\n        /* \"#utility.yul\":3666:3698   */\n      slt\n        /* \"#utility.yul\":3663:3782   */\n      iszero\n      tag_152\n      jumpi\n        /* \"#utility.yul\":3701:3780   */\n      tag_153\n      tag_64\n      jump\t// in\n    tag_153:\n        /* \"#utility.yul\":3663:3782   */\n    tag_152:\n        /* \"#utility.yul\":3821:3822   */\n      0x00\n        /* \"#utility.yul\":3846:3899   */\n      tag_154\n        /* \"#utility.yul\":3891:3898   */\n      dup6\n        /* \"#utility.yul\":3882:3888   */\n      dup3\n        /* \"#utility.yul\":3871:3880   */\n      dup7\n        /* \"#utility.yul\":3867:3889   */\n      add\n        /* \"#utility.yul\":3846:3899   */\n      tag_67\n      jump\t// in\n    tag_154:\n        /* \"#utility.yul\":3836:3899   */\n      swap3\n      pop\n        /* \"#utility.yul\":3792:3909   */\n      pop\n        /* \"#utility.yul\":3948:3950   */\n      0x20\n        /* \"#utility.yul\":3974:4027   */\n      tag_155\n        /* \"#utility.yul\":4019:4026   */\n      dup6\n        /* \"#utility.yul\":4010:4016   */\n      dup3\n        /* \"#utility.yul\":3999:4008   */\n      dup7\n        /* \"#utility.yul\":3995:4017   */\n      add\n        /* \"#utility.yul\":3974:4027   */\n      tag_77\n      jump\t// in\n    tag_155:\n        /* \"#utility.yul\":3964:4027   */\n      swap2\n      pop\n        /* \"#utility.yul\":3919:4037   */\n      pop\n        /* \"#utility.yul\":3570:4044   */\n      swap3\n      pop\n      swap3\n      swap1\n      pop\n      jump\t// out\n        /* \"#utility.yul\":4050:4167   */\n    tag_78:\n        /* \"#utility.yul\":4159:4160   */\n      0x00\n        /* \"#utility.yul\":4156:4157   */\n      dup1\n        /* \"#utility.yul\":4149:4161   */\n      revert\n        /* \"#utility.yul\":4173:4290   */\n    tag_79:\n        /* \"#utility.yul\":4282:4283   */\n      0x00\n        /* \"#utility.yul\":4279:4280   */\n      dup1\n        /* \"#utility.yul\":4272:4284   */\n      revert\n        /* \"#utility.yul\":4296:4476   */\n    tag_80:\n        /* \"#utility.yul\":4344:4421   */\n      0x4e487b7100000000000000000000000000000000000000000000000000000000\n        /* \"#utility.yul\":4341:4342   */\n      0x00\n        /* \"#utility.yul\":4334:4422   */\n      mstore\n        /* \"#utility.yul\":4441:4445   */\n      0x41\n        /* \"#utility.yul\":4438:4439   */\n      0x04\n        /* \"#utility.yul\":4431:4446   */\n      mstore\n        /* \"#utility.yul\":4465:4469   */\n      0x24\n        /* \"#utility.yul\":4462:4463   */\n      0x00\n        /* \"#utility.yul\":4455:4470   */\n      revert\n        /* \"#utility.yul\":4482:4763   */\n    tag_81:\n        /* \"#utility.yul\":4565:4592   */\n      tag_160\n        /* \"#utility.yul\":4587:4591   */\n      dup3\n        /* \"#utility.yul\":4565:4592   */\n      tag_71\n      jump\t// in\n    tag_160:\n        /* \"#utility.yul\":4557:4563   */\n      dup2\n        /* \"#utility.yul\":4553:4593   */\n      add\n        /* \"#utility.yul\":4695:4701   */\n      dup2\n        /* \"#utility.yul\":4683:4693   */\n      dup2\n        /* \"#utility.yul\":4680:4702   */\n      lt\n        /* \"#utility.yul\":4659:4677   */\n      0xffffffffffffffff\n        /* \"#utility.yul\":4647:4657   */\n      dup3\n        /* \"#utility.yul\":4644:4678   */\n      gt\n        /* \"#utility.yul\":4641:4703   */\n      or\n        /* \"#utility.yul\":4638:4726   */\n      iszero\n      tag_161\n      jumpi\n        /* \"#utility.yul\":4706:4724   */\n      tag_162\n      tag_80\n      jump\t// in\n    tag_162:\n        /* \"#utility.yul\":4638:4726   */\n    tag_161:\n        /* \"#utility.yul\":4746:4756   */\n      dup1\n        /* \"#utility.yul\":4742:4744   */\n      0x40\n        /* \"#utility.yul\":4735:4757   */\n      mstore\n        /* \"#utility.yul\":4525:4763   */\n      pop\n        /* \"#utility.yul\":4482:4763   */\n      pop\n      pop\n      jump\t// out\n        /* \"#utility.yul\":4769:4898   */\n    tag_82:\n        /* \"#utility.yul\":4803:4809   */\n      0x00\n        /* \"#utility.yul\":4830:4850   */\n      tag_164\n      tag_63\n      jump\t// in\n    tag_164:\n        /* \"#utility.yul\":4820:4850   */\n      swap1\n      pop\n        /* \"#utility.yul\":4859:4892   */\n      tag_165\n        /* \"#utility.yul\":4887:4891   */\n      dup3\n        /* \"#utility.yul\":4879:4885   */\n      dup3\n        /* \"#utility.yul\":4859:4892   */\n      tag_81\n      jump\t// in\n    tag_165:\n        /* \"#utility.yul\":4769:4898   */\n      swap2\n      swap1\n      pop\n      jump\t// out\n        /* \"#utility.yul\":4904:5212   */\n    tag_83:\n        /* \"#utility.yul\":4966:4970   */\n      0x00\n        /* \"#utility.yul\":5056:5074   */\n      0xffffffffffffffff\n        /* \"#utility.yul\":5048:5054   */\n      dup3\n        /* \"#utility.yul\":5045:5075   */\n      gt\n        /* \"#utility.yul\":5042:5098   */\n      iszero\n      tag_167\n      jumpi\n        /* \"#utility.yul\":5078:5096   */\n      tag_168\n      tag_80\n      jump\t// in\n    tag_168:\n        /* \"#utility.yul\":5042:5098   */\n    tag_167:\n        /* \"#utility.yul\":5116:5145   */\n      tag_169\n        /* \"#utility.yul\":5138:5144   */\n      dup3\n        /* \"#utility.yul\":5116:5145   */\n      tag_71\n      jump\t// in\n    tag_169:\n        /* \"#utility.yul\":5108:5145   */\n      swap1\n      pop\n        /* \"#utility.yul\":5200:5204   */\n      0x20\n        /* \"#utility.yul\":5194:5198   */\n      dup2\n        /* \"#utility.yul\":5190:5205   */\n      add\n        /* \"#utility.yul\":5182:5205   */\n      swap1\n      pop\n        /* \"#utility.yul\":4904:5212   */\n      swap2\n      swap1\n      pop\n      jump\t// out\n        /* \"#utility.yul\":5218:5364   */\n    tag_84:\n        /* \"#utility.yul\":5315:5321   */\n      dup3\n        /* \"#utility.yul\":5310:5313   */\n      dup2\n        /* \"#utility.yul\":5305:5308   */\n      dup4\n        /* \"#utility.yul\":5292:5322   */\n      calldatacopy\n        /* \"#utility.yul\":5356:5357   */\n      0x00\n        /* \"#utility.yul\":5347:5353   */\n      dup4\n        /* \"#utility.yul\":5342:5345   */\n      dup4\n        /* \"#utility.yul\":5338:5354   */\n      add\n        /* \"#utility.yul\":5331:5358   */\n      mstore\n        /* \"#utility.yul\":5218:5364   */\n      pop\n      pop\n      pop\n      jump\t// out\n        /* \"#utility.yul\":5370:5795   */\n    tag_85:\n        /* \"#utility.yul\":5448:5453   */\n      0x00\n        /* \"#utility.yul\":5473:5539   */\n      tag_172\n        /* \"#utility.yul\":5489:5538   */\n      tag_173\n        /* \"#utility.yul\":5531:5537   */\n      dup5\n        /* \"#utility.yul\":5489:5538   */\n      tag_83\n      jump\t// in\n    tag_173:\n        /* \"#utility.yul\":5473:5539   */\n      tag_82\n      jump\t// in\n    tag_172:\n        /* \"#utility.yul\":5464:5539   */\n      swap1\n      pop\n        /* \"#utility.yul\":5562:5568   */\n      dup3\n        /* \"#utility.yul\":5555:5560   */\n      dup2\n        /* \"#utility.yul\":5548:5569   */\n      mstore\n        /* \"#utility.yul\":5600:5604   */\n      0x20\n        /* \"#utility.yul\":5593:5598   */\n      dup2\n        /* \"#utility.yul\":5589:5605   */\n      add\n        /* \"#utility.yul\":5638:5641   */\n      dup5\n        /* \"#utility.yul\":5629:5635   */\n      dup5\n        /* \"#utility.yul\":5624:5627   */\n      dup5\n        /* \"#utility.yul\":5620:5636   */\n      add\n        /* \"#utility.yul\":5617:5642   */\n      gt\n        /* \"#utility.yul\":5614:5726   */\n      iszero\n      tag_174\n      jumpi\n        /* \"#utility.yul\":5645:5724   */\n      tag_175\n      tag_79\n      jump\t// in\n    tag_175:\n        /* \"#utility.yul\":5614:5726   */\n    tag_174:\n        /* \"#utility.yul\":5735:5789   */\n      tag_176\n        /* \"#utility.yul\":5782:5788   */\n      dup5\n        /* \"#utility.yul\":5777:5780   */\n      dup3\n        /* \"#utility.yul\":5772:5775   */\n      dup6\n        /* \"#utility.yul\":5735:5789   */\n      tag_84\n      jump\t// in\n    tag_176:\n        /* \"#utility.yul\":5454:5795   */\n      pop\n        /* \"#utility.yul\":5370:5795   */\n      swap4\n      swap3\n      pop\n      pop\n      pop\n      jump\t// out\n        /* \"#utility.yul\":5815:6155   */\n    tag_86:\n        /* \"#utility.yul\":5871:5876   */\n      0x00\n        /* \"#utility.yul\":5920:5923   */\n      dup3\n        /* \"#utility.yul\":5913:5917   */\n      0x1f\n        /* \"#utility.yul\":5905:5911   */\n      dup4\n        /* \"#utility.yul\":5901:5918   */\n      add\n        /* \"#utility.yul\":5897:5924   */\n      slt\n        /* \"#utility.yul\":5887:6009   */\n      tag_178\n      jumpi\n        /* \"#utility.yul\":5928:6007   */\n      tag_179\n      tag_78\n      jump\t// in\n    tag_179:\n        /* \"#utility.yul\":5887:6009   */\n    tag_178:\n        /* \"#utility.yul\":6045:6051   */\n      dup2\n        /* \"#utility.yul\":6032:6052   */\n      calldataload\n        /* \"#utility.yul\":6070:6149   */\n      tag_180\n        /* \"#utility.yul\":6145:6148   */\n      dup5\n        /* \"#utility.yul\":6137:6143   */\n      dup3\n        /* \"#utility.yul\":6130:6134   */\n      0x20\n        /* \"#utility.yul\":6122:6128   */\n      dup7\n        /* \"#utility.yul\":6118:6135   */\n      add\n        /* \"#utility.yul\":6070:6149   */\n      tag_85\n      jump\t// in\n    tag_180:\n        /* \"#utility.yul\":6061:6149   */\n      swap2\n      pop\n        /* \"#utility.yul\":5877:6155   */\n      pop\n        /* \"#utility.yul\":5815:6155   */\n      swap3\n      swap2\n      pop\n      pop\n      jump\t// out\n        /* \"#utility.yul\":6161:6815   */\n    tag_31:\n        /* \"#utility.yul\":6239:6245   */\n      0x00\n        /* \"#utility.yul\":6247:6253   */\n      dup1\n        /* \"#utility.yul\":6296:6298   */\n      0x40\n        /* \"#utility.yul\":6284:6293   */\n      dup4\n        /* \"#utility.yul\":6275:6282   */\n      dup6\n        /* \"#utility.yul\":6271:6294   */\n      sub\n        /* \"#utility.yul\":6267:6299   */\n      slt\n        /* \"#utility.yul\":6264:6383   */\n      iszero\n      tag_182\n      jumpi\n        /* \"#utility.yul\":6302:6381   */\n      tag_183\n      tag_64\n      jump\t// in\n    tag_183:\n        /* \"#utility.yul\":6264:6383   */\n    tag_182:\n        /* \"#utility.yul\":6450:6451   */\n      0x00\n        /* \"#utility.yul\":6439:6448   */\n      dup4\n        /* \"#utility.yul\":6435:6452   */\n      add\n        /* \"#utility.yul\":6422:6453   */\n      calldataload\n        /* \"#utility.yul\":6480:6498   */\n      0xffffffffffffffff\n        /* \"#utility.yul\":6472:6478   */\n      dup2\n        /* \"#utility.yul\":6469:6499   */\n      gt\n        /* \"#utility.yul\":6466:6583   */\n      iszero\n      tag_184\n      jumpi\n        /* \"#utility.yul\":6502:6581   */\n      tag_185\n      tag_65\n      jump\t// in\n    tag_185:\n        /* \"#utility.yul\":6466:6583   */\n    tag_184:\n        /* \"#utility.yul\":6607:6670   */\n      tag_186\n        /* \"#utility.yul\":6662:6669   */\n      dup6\n        /* \"#utility.yul\":6653:6659   */\n      dup3\n        /* \"#utility.yul\":6642:6651   */\n      dup7\n        /* \"#utility.yul\":6638:6660   */\n      add\n        /* \"#utility.yul\":6607:6670   */\n      tag_86\n      jump\t// in\n    tag_186:\n        /* \"#utility.yul\":6597:6670   */\n      swap3\n      pop\n        /* \"#utility.yul\":6393:6680   */\n      pop\n        /* \"#utility.yul\":6719:6721   */\n      0x20\n        /* \"#utility.yul\":6745:6798   */\n      tag_187\n        /* \"#utility.yul\":6790:6797   */\n      dup6\n        /* \"#utility.yul\":6781:6787   */\n      dup3\n        /* \"#utility.yul\":6770:6779   */\n      dup7\n        /* \"#utility.yul\":6766:6788   */\n      add\n        /* \"#utility.yul\":6745:6798   */\n      tag_67\n      jump\t// in\n    tag_187:\n        /* \"#utility.yul\":6735:6798   */\n      swap2\n      pop\n        /* \"#utility.yul\":6690:6808   */\n      pop\n        /* \"#utility.yul\":6161:6815   */\n      swap3\n      pop\n      swap3\n      swap1\n      pop\n      jump\t// out\n        /* \"#utility.yul\":6821:7043   */\n    tag_39:\n        /* \"#utility.yul\":6914:6918   */\n      0x00\n        /* \"#utility.yul\":6952:6954   */\n      0x20\n        /* \"#utility.yul\":6941:6950   */\n      dup3\n        /* \"#utility.yul\":6937:6955   */\n      add\n        /* \"#utility.yul\":6929:6955   */\n      swap1\n      pop\n        /* \"#utility.yul\":6965:7036   */\n      tag_189\n        /* \"#utility.yul\":7033:7034   */\n      0x00\n        /* \"#utility.yul\":7022:7031   */\n      dup4\n        /* \"#utility.yul\":7018:7035   */\n      add\n        /* \"#utility.yul\":7009:7015   */\n      dup5\n        /* \"#utility.yul\":6965:7036   */\n      tag_75\n      jump\t// in\n    tag_189:\n        /* \"#utility.yul\":6821:7043   */\n      swap3\n      swap2\n      pop\n      pop\n      jump\t// out\n        /* \"#utility.yul\":7049:7229   */\n    tag_87:\n        /* \"#utility.yul\":7097:7174   */\n      0x4e487b7100000000000000000000000000000000000000000000000000000000\n        /* \"#utility.yul\":7094:7095   */\n      0x00\n        /* \"#utility.yul\":7087:7175   */\n      mstore\n        /* \"#utility.yul\":7194:7198   */\n      0x12\n        /* \"#utility.yul\":7191:7192   */\n      0x04\n        /* \"#utility.yul\":7184:7199   */\n      mstore\n        /* \"#utility.yul\":7218:7222   */\n      0x24\n        /* \"#utility.yul\":7215:7216   */\n      0x00\n        /* \"#utility.yul\":7208:7223   */\n      revert\n        /* \"#utility.yul\":7421:7606   */\n    tag_43:\n        /* \"#utility.yul\":7461:7462   */\n      0x00\n        /* \"#utility.yul\":7478:7498   */\n      tag_193\n        /* \"#utility.yul\":7496:7497   */\n      dup3\n        /* \"#utility.yul\":7478:7498   */\n      tag_61\n      jump\t// in\n    tag_193:\n        /* \"#utility.yul\":7473:7498   */\n      swap2\n      pop\n        /* \"#utility.yul\":7512:7532   */\n      tag_194\n        /* \"#utility.yul\":7530:7531   */\n      dup4\n        /* \"#utility.yul\":7512:7532   */\n      tag_61\n      jump\t// in\n    tag_194:\n        /* \"#utility.yul\":7507:7532   */\n      swap3\n      pop\n        /* \"#utility.yul\":7551:7552   */\n      dup3\n        /* \"#utility.yul\":7541:7576   */\n      tag_195\n      jumpi\n        /* \"#utility.yul\":7556:7574   */\n      tag_196\n      tag_87\n      jump\t// in\n    tag_196:\n        /* \"#utility.yul\":7541:7576   */\n    tag_195:\n        /* \"#utility.yul\":7598:7599   */\n      dup3\n        /* \"#utility.yul\":7595:7596   */\n      dup3\n        /* \"#utility.yul\":7591:7600   */\n      div\n        /* \"#utility.yul\":7586:7600   */\n      swap1\n      pop\n        /* \"#utility.yul\":7421:7606   */\n      swap3\n      swap2\n      pop\n      pop\n      jump\t// out\n        /* \"#utility.yul\":7612:7782   */\n    tag_89:\n        /* \"#utility.yul\":7752:7774   */\n      0x496e73756666696369656e742062616c616e6365000000000000000000000000\n        /* \"#utility.yul\":7748:7749   */\n      0x00\n        /* \"#utility.yul\":7740:7746   */\n      dup3\n        /* \"#utility.yul\":7736:7750   */\n      add\n        /* \"#utility.yul\":7729:7775   */\n      mstore\n        /* \"#utility.yul\":7612:7782   */\n      pop\n      jump\t// out\n        /* \"#utility.yul\":7788:8154   */\n    tag_90:\n        /* \"#utility.yul\":7930:7933   */\n      0x00\n        /* \"#utility.yul\":7951:8018   */\n      tag_199\n        /* \"#utility.yul\":8015:8017   */\n      0x14\n        /* \"#utility.yul\":8010:8013   */\n      dup4\n        /* \"#utility.yul\":7951:8018   */\n      tag_69\n      jump\t// in\n    tag_199:\n        /* \"#utility.yul\":7944:8018   */\n      swap2\n      pop\n        /* \"#utility.yul\":8027:8120   */\n      tag_200\n        /* \"#utility.yul\":8116:8119   */\n      dup3\n        /* \"#utility.yul\":8027:8120   */\n      tag_89\n      jump\t// in\n    tag_200:\n        /* \"#utility.yul\":8145:8147   */\n      0x20\n        /* \"#utility.yul\":8140:8143   */\n      dup3\n        /* \"#utility.yul\":8136:8148   */\n      add\n        /* \"#utility.yul\":8129:8148   */\n      swap1\n      pop\n        /* \"#utility.yul\":7788:8154   */\n      swap2\n      swap1\n      pop\n      jump\t// out\n        /* \"#utility.yul\":8160:8579   */\n    tag_46:\n        /* \"#utility.yul\":8326:8330   */\n      0x00\n        /* \"#utility.yul\":8364:8366   */\n      0x20\n        /* \"#utility.yul\":8353:8362   */\n      dup3\n        /* \"#utility.yul\":8349:8367   */\n      add\n        /* \"#utility.yul\":8341:8367   */\n      swap1\n      pop\n        /* \"#utility.yul\":8413:8422   */\n      dup2\n        /* \"#utility.yul\":8407:8411   */\n      dup2\n        /* \"#utility.yul\":8403:8423   */\n      sub\n        /* \"#utility.yul\":8399:8400   */\n      0x00\n        /* \"#utility.yul\":8388:8397   */\n      dup4\n        /* \"#utility.yul\":8384:8401   */\n      add\n        /* \"#utility.yul\":8377:8424   */\n      mstore\n        /* \"#utility.yul\":8441:8572   */\n      tag_202\n        /* \"#utility.yul\":8567:8571   */\n      dup2\n        /* \"#utility.yul\":8441:8572   */\n      tag_90\n      jump\t// in\n    tag_202:\n        /* \"#utility.yul\":8433:8572   */\n      swap1\n      pop\n        /* \"#utility.yul\":8160:8579   */\n      swap2\n      swap1\n      pop\n      jump\t// out\n        /* \"#utility.yul\":8585:8765   */\n    tag_91:\n        /* \"#utility.yul\":8633:8710   */\n      0x4e487b7100000000000000000000000000000000000000000000000000000000\n        /* \"#utility.yul\":8630:8631   */\n      0x00\n        /* \"#utility.yul\":8623:8711   */\n      mstore\n        /* \"#utility.yul\":8730:8734   */\n      0x22\n        /* \"#utility.yul\":8727:8728   */\n      0x04\n        /* \"#utility.yul\":8720:8735   */\n      mstore\n        /* \"#utility.yul\":8754:8758   */\n      0x24\n        /* \"#utility.yul\":8751:8752   */\n      0x00\n        /* \"#utility.yul\":8744:8759   */\n      revert\n        /* \"#utility.yul\":8771:9091   */\n    tag_50:\n        /* \"#utility.yul\":8815:8821   */\n      0x00\n        /* \"#utility.yul\":8852:8853   */\n      0x02\n        /* \"#utility.yul\":8846:8850   */\n      dup3\n        /* \"#utility.yul\":8842:8854   */\n      div\n        /* \"#utility.yul\":8832:8854   */\n      swap1\n      pop\n        /* \"#utility.yul\":8899:8900   */\n      0x01\n        /* \"#utility.yul\":8893:8897   */\n      dup3\n        /* \"#utility.yul\":8889:8901   */\n      and\n        /* \"#utility.yul\":8920:8938   */\n      dup1\n        /* \"#utility.yul\":8910:8991   */\n      tag_205\n      jumpi\n        /* \"#utility.yul\":8976:8980   */\n      0x7f\n        /* \"#utility.yul\":8968:8974   */\n      dup3\n        /* \"#utility.yul\":8964:8981   */\n      and\n        /* \"#utility.yul\":8954:8981   */\n      swap2\n      pop\n        /* \"#utility.yul\":8910:8991   */\n    tag_205:\n        /* \"#utility.yul\":9038:9040   */\n      0x20\n        /* \"#utility.yul\":9030:9036   */\n      dup3\n        /* \"#utility.yul\":9027:9041   */\n      lt\n        /* \"#utility.yul\":9007:9025   */\n      dup2\n        /* \"#utility.yul\":9004:9042   */\n      sub\n        /* \"#utility.yul\":9001:9085   */\n      tag_206\n      jumpi\n        /* \"#utility.yul\":9057:9075   */\n      tag_207\n      tag_91\n      jump\t// in\n    tag_207:\n        /* \"#utility.yul\":9001:9085   */\n    tag_206:\n        /* \"#utility.yul\":8822:9091   */\n      pop\n        /* \"#utility.yul\":8771:9091   */\n      swap2\n      swap1\n      pop\n      jump\t// out\n        /* \"#utility.yul\":9097:9238   */\n    tag_92:\n        /* \"#utility.yul\":9146:9150   */\n      0x00\n        /* \"#utility.yul\":9169:9172   */\n      dup2\n        /* \"#utility.yul\":9161:9172   */\n      swap1\n      pop\n        /* \"#utility.yul\":9192:9195   */\n      dup2\n        /* \"#utility.yul\":9189:9190   */\n      0x00\n        /* \"#utility.yul\":9182:9196   */\n      mstore\n        /* \"#utility.yul\":9226:9230   */\n      0x20\n        /* \"#utility.yul\":9223:9224   */\n      0x00\n        /* \"#utility.yul\":9213:9231   */\n      keccak256\n        /* \"#utility.yul\":9205:9231   */\n      swap1\n      pop\n        /* \"#utility.yul\":9097:9238   */\n      swap2\n      swap1\n      pop\n      jump\t// out\n        /* \"#utility.yul\":9244:9337   */\n    tag_93:\n        /* \"#utility.yul\":9281:9287   */\n      0x00\n        /* \"#utility.yul\":9328:9330   */\n      0x20\n        /* \"#utility.yul\":9323:9325   */\n      0x1f\n        /* \"#utility.yul\":9316:9321   */\n      dup4\n        /* \"#utility.yul\":9312:9326   */\n      add\n        /* \"#utility.yul\":9308:9331   */\n      div\n        /* \"#utility.yul\":9298:9331   */\n      swap1\n      pop\n        /* \"#utility.yul\":9244:9337   */\n      swap2\n      swap1\n      pop\n      jump\t// out\n        /* \"#utility.yul\":9343:9450   */\n    tag_94:\n        /* \"#utility.yul\":9387:9395   */\n      0x00\n        /* \"#utility.yul\":9437:9442   */\n      dup3\n        /* \"#utility.yul\":9431:9435   */\n      dup3\n        /* \"#utility.yul\":9427:9443   */\n      shl\n        /* \"#utility.yul\":9406:9443   */\n      swap1\n      pop\n        /* \"#utility.yul\":9343:9450   */\n      swap3\n      swap2\n      pop\n      pop\n      jump\t// out\n        /* \"#utility.yul\":9456:9849   */\n    tag_95:\n        /* \"#utility.yul\":9525:9531   */\n      0x00\n        /* \"#utility.yul\":9575:9576   */\n      0x08\n        /* \"#utility.yul\":9563:9573   */\n      dup4\n        /* \"#utility.yul\":9559:9577   */\n      mul\n        /* \"#utility.yul\":9598:9695   */\n      tag_212\n        /* \"#utility.yul\":9628:9694   */\n      0xffffffffffffffffffffffffffffffffffffffffffffffffffffffffffffffff\n        /* \"#utility.yul\":9617:9626   */\n      dup3\n        /* \"#utility.yul\":9598:9695   */\n      tag_94\n      jump\t// in\n    tag_212:\n        /* \"#utility.yul\":9716:9755   */\n      tag_213\n        /* \"#utility.yul\":9746:9754   */\n      dup7\n        /* \"#utility.yul\":9735:9744   */\n      dup4\n        /* \"#utility.yul\":9716:9755   */\n      tag_94\n      jump\t// in\n    tag_213:\n        /* \"#utility.yul\":9704:9755   */\n      swap6\n      pop\n        /* \"#utility.yul\":9788:9792   */\n      dup1\n        /* \"#utility.yul\":9784:9793   */\n      not\n        /* \"#utility.yul\":9777:9782   */\n      dup5\n        /* \"#utility.yul\":9773:9794   */\n      and\n        /* \"#utility.yul\":9764:9794   */\n      swap4\n      pop\n        /* \"#utility.yul\":9837:9841   */\n      dup1\n        /* \"#utility.yul\":9827:9835   */\n      dup7\n        /* \"#utility.yul\":9823:9842   */\n      and\n        /* \"#utility.yul\":9816:9821   */\n      dup5\n        /* \"#utility.yul\":9813:9843   */\n      or\n        /* \"#utility.yul\":9803:9843   */\n      swap3\n      pop\n        /* \"#utility.yul\":9532:9849   */\n      pop\n      pop\n        /* \"#utility.yul\":9456:9849   */\n      swap4\n      swap3\n      pop\n      pop\n      pop\n      jump\t// out\n        /* \"#utility.yul\":9855:9915   */\n    tag_96:\n        /* \"#utility.yul\":9883:9886   */\n      0x00\n        /* \"#utility.yul\":9904:9909   */\n      dup2\n        /* \"#utility.yul\":9897:9909   */\n      swap1\n      pop\n        /* \"#utility.yul\":9855:9915   */\n      swap2\n      swap1\n      pop\n      jump\t// out\n        /* \"#utility.yul\":9921:10063   */\n    tag_97:\n        /* \"#utility.yul\":9971:9980   */\n      0x00\n        /* \"#utility.yul\":10004:10057   */\n      tag_216\n        /* \"#utility.yul\":10022:10056   */\n      tag_217\n        /* \"#utility.yul\":10031:10055   */\n      tag_218\n        /* \"#utility.yul\":10049:10054   */\n      dup5\n        /* \"#utility.yul\":10031:10055   */\n      tag_61\n      jump\t// in\n    tag_218:\n        /* \"#utility.yul\":10022:10056   */\n      tag_96\n      jump\t// in\n    tag_217:\n        /* \"#utility.yul\":10004:10057   */\n      tag_61\n      jump\t// in\n    tag_216:\n        /* \"#utility.yul\":9991:10057   */\n      swap1\n      pop\n        /* \"#utility.yul\":9921:10063   */\n      swap2\n      swap1\n      pop\n      jump\t// out\n        /* \"#utility.yul\":10069:10144   */\n    tag_98:\n        /* \"#utility.yul\":10112:10115   */\n      0x00\n        /* \"#utility.yul\":10133:10138   */\n      dup2\n        /* \"#utility.yul\":10126:10138   */\n      swap1\n      pop\n        /* \"#utility.yul\":10069:10144   */\n      swap2\n      swap1\n      pop\n      jump\t// out\n        /* \"#utility.yul\":10150:10419   */\n    tag_99:\n        /* \"#utility.yul\":10260:10299   */\n      tag_221\n        /* \"#utility.yul\":10291:10298   */\n      dup4\n        /* \"#utility.yul\":10260:10299   */\n      tag_97\n      jump\t// in\n    tag_221:\n        /* \"#utility.yul\":10321:10412   */\n      tag_222\n        /* \"#utility.yul\":10370:10411   */\n      tag_223\n        /* \"#utility.yul\":10394:10410   */\n      dup3\n        /* \"#utility.yul\":10370:10411   */\n      tag_98\n      jump\t// in\n    tag_223:\n        /* \"#utility.yul\":10362:10368   */\n      dup5\n        /* \"#utility.yul\":10355:10359   */\n      dup5\n        /* \"#utility.yul\":10349:10360   */\n      sload\n        /* \"#utility.yul\":10321:10412   */\n      tag_95\n      jump\t// in\n    tag_222:\n        /* \"#utility.yul\":10315:10319   */\n      dup3\n        /* \"#utility.yul\":10308:10413   */\n      sstore\n        /* \"#utility.yul\":10226:10419   */\n      pop\n        /* \"#utility.yul\":10150:10419   */\n      pop\n      pop\n      pop\n      jump\t// out\n        /* \"#utility.yul\":10425:10498   */\n    tag_100:\n        /* \"#utility.yul\":10470:10473   */\n      0x00\n        /* \"#utility.yul\":10425:10498   */\n      swap1\n      jump\t// out\n        /* \"#utility.yul\":10504:10693   */\n    tag_101:\n        /* \"#utility.yul\":10581:10613   */\n      tag_226\n      tag_100\n      jump\t// in\n    tag_226:\n        /* \"#utility.yul\":10622:10687   */\n      tag_227\n        /* \"#utility.yul\":10680:10686   */\n      dup2\n        /* \"#utility.yul\":10672:10678   */\n      dup5\n        /* \"#utility.yul\":10666:10670   */\n      dup5\n        /* \"#utility.yul\":10622:10687   */\n      tag_99\n      jump\t// in\n    tag_227:\n        /* \"#utility.yul\":10557:10693   */\n      pop\n        /* \"#utility.yul\":10504:10693   */\n      pop\n      pop\n      jump\t// out\n        /* \"#utility.yul\":10699:10885   */\n    tag_102:\n        /* \"#utility.yul\":10759:10879   */\n    tag_229:\n        /* \"#utility.yul\":10776:10779   */\n      dup2\n        /* \"#utility.yul\":10769:10774   */\n      dup2\n        /* \"#utility.yul\":10766:10780   */\n      lt\n        /* \"#utility.yul\":10759:10879   */\n      iszero\n      tag_231\n      jumpi\n        /* \"#utility.yul\":10830:10869   */\n      tag_232\n        /* \"#utility.yul\":10867:10868   */\n      0x00\n        /* \"#utility.yul\":10860:10865   */\n      dup3\n        /* \"#utility.yul\":10830:10869   */\n      tag_101\n      jump\t// in\n    tag_232:\n        /* \"#utility.yul\":10803:10804   */\n      0x01\n        /* \"#utility.yul\":10796:10801   */\n      dup2\n        /* \"#utility.yul\":10792:10805   */\n      add\n        /* \"#utility.yul\":10783:10805   */\n      swap1\n      pop\n        /* \"#utility.yul\":10759:10879   */\n      jump(tag_229)\n    tag_231:\n        /* \"#utility.yul\":10699:10885   */\n      pop\n      pop\n      jump\t// out\n        /* \"#utility.yul\":10891:11434   */\n    tag_103:\n        /* \"#utility.yul\":10992:10994   */\n      0x1f\n        /* \"#utility.yul\":10987:10990   */\n      dup3\n        /* \"#utility.yul\":10984:10995   */\n      gt\n        /* \"#utility.yul\":10981:11427   */\n      iszero\n      tag_234\n      jumpi\n        /* \"#utility.yul\":11026:11064   */\n      tag_235\n        /* \"#utility.yul\":11058:11063   */\n      dup2\n        /* \"#utility.yul\":11026:11064   */\n      tag_92\n      jump\t// in\n    tag_235:\n        /* \"#utility.yul\":11110:11139   */\n      tag_236\n        /* \"#utility.yul\":11128:11138   */\n      dup5\n        /* \"#utility.yul\":11110:11139   */\n      tag_93\n      jump\t// in\n    tag_236:\n        /* \"#utility.yul\":11100:11108   */\n      dup2\n        /* \"#utility.yul\":11096:11140   */\n      add\n        /* \"#utility.yul\":11293:11295   */\n      0x20\n        /* \"#utility.yul\":11281:11291   */\n      dup6\n        /* \"#utility.yul\":11278:11296   */\n      lt\n        /* \"#utility.yul\":11275:11324   */\n      iszero\n      tag_237\n      jumpi\n        /* \"#utility.yul\":11314:11322   */\n      dup2\n        /* \"#utility.yul\":11299:11322   */\n      swap1\n      pop\n        /* \"#utility.yul\":11275:11324   */\n    tag_237:\n        /* \"#utility.yul\":11337:11417   */\n      tag_238\n        /* \"#utility.yul\":11393:11415   */\n      tag_239\n        /* \"#utility.yul\":11411:11414   */\n      dup6\n        /* \"#utility.yul\":11393:11415   */\n      tag_93\n      jump\t// in\n    tag_239:\n        /* \"#utility.yul\":11383:11391   */\n      dup4\n        /* \"#utility.yul\":11379:11416   */\n      add\n        /* \"#utility.yul\":11366:11377   */\n      dup3\n        /* \"#utility.yul\":11337:11417   */\n      tag_102\n      jump\t// in\n    tag_238:\n        /* \"#utility.yul\":10996:11427   */\n      pop\n      pop\n        /* \"#utility.yul\":10981:11427   */\n    tag_234:\n        /* \"#utility.yul\":10891:11434   */\n      pop\n      pop\n      pop\n      jump\t// out\n        /* \"#utility.yul\":11440:11557   */\n    tag_104:\n        /* \"#utility.yul\":11494:11502   */\n      0x00\n        /* \"#utility.yul\":11544:11549   */\n      dup3\n        /* \"#utility.yul\":11538:11542   */\n      dup3\n        /* \"#utility.yul\":11534:11550   */\n      shr\n        /* \"#utility.yul\":11513:11550   */\n      swap1\n      pop\n        /* \"#utility.yul\":11440:11557   */\n      swap3\n      swap2\n      pop\n      pop\n      jump\t// out\n        /* \"#utility.yul\":11563:11732   */\n    tag_105:\n        /* \"#utility.yul\":11607:11613   */\n      0x00\n        /* \"#utility.yul\":11640:11691   */\n      tag_242\n        /* \"#utility.yul\":11688:11689   */\n      0x00\n        /* \"#utility.yul\":11684:11690   */\n      not\n        /* \"#utility.yul\":11676:11681   */\n      dup5\n        /* \"#utility.yul\":11673:11674   */\n      0x08\n        /* \"#utility.yul\":11669:11682   */\n      mul\n        /* \"#utility.yul\":11640:11691   */\n      tag_104\n      jump\t// in\n    tag_242:\n        /* \"#utility.yul\":11636:11692   */\n      not\n        /* \"#utility.yul\":11721:11725   */\n      dup1\n        /* \"#utility.yul\":11715:11719   */\n      dup4\n        /* \"#utility.yul\":11711:11726   */\n      and\n        /* \"#utility.yul\":11701:11726   */\n      swap2\n      pop\n        /* \"#utility.yul\":11614:11732   */\n      pop\n        /* \"#utility.yul\":11563:11732   */\n      swap3\n      swap2\n      pop\n      pop\n      jump\t// out\n        /* \"#utility.yul\":11737:12032   */\n    tag_106:\n        /* \"#utility.yul\":11813:11817   */\n      0x00\n        /* \"#utility.yul\":11959:11988   */\n      tag_244\n        /* \"#utility.yul\":11984:11987   */\n      dup4\n        /* \"#utility.yul\":11978:11982   */\n      dup4\n        /* \"#utility.yul\":11959:11988   */\n      tag_105\n      jump\t// in\n    tag_244:\n        /* \"#utility.yul\":11951:11988   */\n      swap2\n      pop\n        /* \"#utility.yul\":12021:12024   */\n      dup3\n        /* \"#utility.yul\":12018:12019   */\n      0x02\n        /* \"#utility.yul\":12014:12025   */\n      mul\n        /* \"#utility.yul\":12008:12012   */\n      dup3\n        /* \"#utility.yul\":12005:12026   */\n      or\n        /* \"#utility.yul\":11997:12026   */\n      swap1\n      pop\n        /* \"#utility.yul\":11737:12032   */\n      swap3\n      swap2\n      pop\n      pop\n      jump\t// out\n        /* \"#utility.yul\":12037:13432   */\n    tag_59:\n        /* \"#utility.yul\":12154:12191   */\n      tag_246\n        /* \"#utility.yul\":12187:12190   */\n      dup3\n        /* \"#utility.yul\":12154:12191   */\n      tag_68\n      jump\t// in\n    tag_246:\n        /* \"#utility.yul\":12256:12274   */\n      0xffffffffffffffff\n        /* \"#utility.yul\":12248:12254   */\n      dup2\n        /* \"#utility.yul\":12245:12275   */\n      gt\n        /* \"#utility.yul\":12242:12298   */\n      iszero\n      tag_247\n      jumpi\n        /* \"#utility.yul\":12278:12296   */\n      tag_248\n      tag_80\n      jump\t// in\n    tag_248:\n        /* \"#utility.yul\":12242:12298   */\n    tag_247:\n        /* \"#utility.yul\":12322:12360   */\n      tag_249\n        /* \"#utility.yul\":12354:12358   */\n      dup3\n        /* \"#utility.yul\":12348:12359   */\n      sload\n        /* \"#utility.yul\":12322:12360   */\n      tag_50\n      jump\t// in\n    tag_249:\n        /* \"#utility.yul\":12407:12474   */\n      tag_250\n        /* \"#utility.yul\":12467:12473   */\n      dup3\n        /* \"#utility.yul\":12459:12465   */\n      dup3\n        /* \"#utility.yul\":12453:12457   */\n      dup6\n        /* \"#utility.yul\":12407:12474   */\n      tag_103\n      jump\t// in\n    tag_250:\n        /* \"#utility.yul\":12501:12502   */\n      0x00\n        /* \"#utility.yul\":12525:12529   */\n      0x20\n        /* \"#utility.yul\":12512:12529   */\n      swap1\n      pop\n        /* \"#utility.yul\":12557:12559   */\n      0x1f\n        /* \"#utility.yul\":12549:12555   */\n      dup4\n        /* \"#utility.yul\":12546:12560   */\n      gt\n        /* \"#utility.yul\":12574:12575   */\n      0x01\n        /* \"#utility.yul\":12569:13187   */\n      dup2\n      eq\n      tag_252\n      jumpi\n        /* \"#utility.yul\":13231:13232   */\n      0x00\n        /* \"#utility.yul\":13248:13254   */\n      dup5\n        /* \"#utility.yul\":13245:13322   */\n      iszero\n      tag_253\n      jumpi\n        /* \"#utility.yul\":13297:13306   */\n      dup3\n        /* \"#utility.yul\":13292:13295   */\n      dup8\n        /* \"#utility.yul\":13288:13307   */\n      add\n        /* \"#utility.yul\":13282:13308   */\n      mload\n        /* \"#utility.yul\":13273:13308   */\n      swap1\n      pop\n        /* \"#utility.yul\":13245:13322   */\n    tag_253:\n        /* \"#utility.yul\":13348:13415   */\n      tag_254\n        /* \"#utility.yul\":13408:13414   */\n      dup6\n        /* \"#utility.yul\":13401:13406   */\n      dup3\n        /* \"#utility.yul\":13348:13415   */\n      tag_106\n      jump\t// in\n    tag_254:\n        /* \"#utility.yul\":13342:13346   */\n      dup7\n        /* \"#utility.yul\":13335:13416   */\n      sstore\n        /* \"#utility.yul\":13204:13426   */\n      pop\n        /* \"#utility.yul\":12539:13426   */\n      jump(tag_251)\n        /* \"#utility.yul\":12569:13187   */\n    tag_252:\n        /* \"#utility.yul\":12621:12625   */\n      0x1f\n        /* \"#utility.yul\":12617:12626   */\n      not\n        /* \"#utility.yul\":12609:12615   */\n      dup5\n        /* \"#utility.yul\":12605:12627   */\n      and\n        /* \"#utility.yul\":12655:12692   */\n      tag_255\n        /* \"#utility.yul\":12687:12691   */\n      dup7\n        /* \"#utility.yul\":12655:12692   */\n      tag_92\n      jump\t// in\n    tag_255:\n        /* \"#utility.yul\":12714:12715   */\n      0x00\n        /* \"#utility.yul\":12728:12936   */\n    tag_256:\n        /* \"#utility.yul\":12742:12749   */\n      dup3\n        /* \"#utility.yul\":12739:12740   */\n      dup2\n        /* \"#utility.yul\":12736:12750   */\n      lt\n        /* \"#utility.yul\":12728:12936   */\n      iszero\n      tag_258\n      jumpi\n        /* \"#utility.yul\":12821:12830   */\n      dup5\n        /* \"#utility.yul\":12816:12819   */\n      dup10\n        /* \"#utility.yul\":12812:12831   */\n      add\n        /* \"#utility.yul\":12806:12832   */\n      mload\n        /* \"#utility.yul\":12798:12804   */\n      dup3\n        /* \"#utility.yul\":12791:12833   */\n      sstore\n        /* \"#utility.yul\":12872:12873   */\n      0x01\n        /* \"#utility.yul\":12864:12870   */\n      dup3\n        /* \"#utility.yul\":12860:12874   */\n      add\n        /* \"#utility.yul\":12850:12874   */\n      swap2\n      pop\n        /* \"#utility.yul\":12919:12921   */\n      0x20\n        /* \"#utility.yul\":12908:12917   */\n      dup6\n        /* \"#utility.yul\":12904:12922   */\n      add\n        /* \"#utility.yul\":12891:12922   */\n      swap5\n      pop\n        /* \"#utility.yul\":12765:12769   */\n      0x20\n        /* \"#utility.yul\":12762:12763   */\n      dup2\n        /* \"#utility.yul\":12758:12770   */\n      add\n        /* \"#utility.yul\":12753:12770   */\n      swap1\n      pop\n        /* \"#utility.yul\":12728:12936   */\n      jump(tag_256)\n    tag_258:\n        /* \"#utility.yul\":12964:12970   */\n      dup7\n        /* \"#utility.yul\":12955:12962   */\n      dup4\n        /* \"#utility.yul\":12952:12971   */\n      lt\n        /* \"#utility.yul\":12949:13128   */\n      iszero\n      tag_259\n      jumpi\n        /* \"#utility.yul\":13022:13031   */\n      dup5\n        /* \"#utility.yul\":13017:13020   */\n      dup10\n        /* \"#utility.yul\":13013:13032   */\n      add\n        /* \"#utility.yul\":13007:13033   */\n      mload\n        /* \"#utility.yul\":13065:13113   */\n      tag_260\n        /* \"#utility.yul\":13107:13111   */\n      0x1f\n        /* \"#utility.yul\":13099:13105   */\n      dup10\n        /* \"#utility.yul\":13095:13112   */\n      and\n        /* \"#utility.yul\":13084:13093   */\n      dup3\n        /* \"#utility.yul\":13065:13113   */\n      tag_105\n      jump\t// in\n    tag_260:\n        /* \"#utility.yul\":13057:13063   */\n      dup4\n        /* \"#utility.yul\":13050:13114   */\n      sstore\n        /* \"#utility.yul\":12972:13128   */\n      pop\n        /* \"#utility.yul\":12949:13128   */\n    tag_259:\n        /* \"#utility.yul\":13174:13175   */\n      0x01\n        /* \"#utility.yul\":13170:13171   */\n      0x02\n        /* \"#utility.yul\":13162:13168   */\n      dup9\n        /* \"#utility.yul\":13158:13172   */\n      mul\n        /* \"#utility.yul\":13154:13176   */\n      add\n        /* \"#utility.yul\":13148:13152   */\n      dup9\n        /* \"#utility.yul\":13141:13177   */\n      sstore\n        /* \"#utility.yul\":12576:13187   */\n      pop\n      pop\n      pop\n        /* \"#utility.yul\":12539:13426   */\n    tag_251:\n      pop\n        /* \"#utility.yul\":12129:13432   */\n      pop\n      pop\n      pop\n        /* \"#utility.yul\":12037:13432   */\n      pop\n      pop\n      jump\t// out\n\n    auxdata: 0xa2646970667358221220125ec3c9be15b77e689c442261e3b3958412b184d8d00b8836fa78fac668d1c364736f6c63430008150033\n}\n",
				"bytecode": {
					"linkReferences": {},
					"object": "608060405234801561000f575f80fd5b50610b3f8061001d5f395ff3fe608060405260043610610054575f3560e01c80632004ffd9146100585780636ee265661461008257806374ff48181461009e578063784796f7146100dc578063808f011414610104578063c41a360a14610140575b5f80fd5b348015610063575f80fd5b5061006c61017c565b60405161007991906103f0565b60405180910390f35b61009c60048036038101906100979190610444565b6101d6565b005b3480156100a9575f80fd5b506100c460048036038101906100bf9190610444565b61024d565b6040516100d393929190610538565b60405180910390f35b3480156100e7575f80fd5b5061010260048036038101906100fd919061059e565b61034c565b005b34801561010f575f80fd5b5061012a60048036038101906101259190610708565b610350565b60405161013791906103f0565b60405180910390f35b34801561014b575f80fd5b5061016660048036038101906101619190610444565b6103a0565b6040516101739190610762565b60405180910390f35b5f80429050335f808381526020019081526020015f205f6101000a81548173ffffffffffffffffffffffffffffffffffffffff021916908373ffffffffffffffffffffffffffffffffffffffff1602179055508091505090565b60015f8281526020019081526020015f2060010154670de0b6b3a7640000346101ff91906107a8565b1015610240576040517f08c379a000000000000000000000000000000000000000000000000000000000815260040161023790610822565b60405180910390fd5b61024a813361034c565b50565b60605f805f60015f8681526020019081526020015f205f0180546102709061086d565b80601f016020809104026020016040519081016040528092919081815260200182805461029c9061086d565b80156102e75780601f106102be576101008083540402835291602001916102e7565b820191905f5260205f20905b8154815290600101906020018083116102ca57829003601f168201915b505050505090505f60015f8781526020019081526020015f206001015490505f805f8881526020019081526020015f205f9054906101000a900473ffffffffffffffffffffffffffffffffffffffff1690508282829550955095505050509193909250565b5050565b5f8061035a61017c565b90508360015f8381526020019081526020015f205f01908161037c9190610a3a565b508260015f8381526020019081526020015f20600101819055508091505092915050565b5f805f8381526020019081526020015f205f9054906101000a900473ffffffffffffffffffffffffffffffffffffffff169050919050565b5f819050919050565b6103ea816103d8565b82525050565b5f6020820190506104035f8301846103e1565b92915050565b5f604051905090565b5f80fd5b5f80fd5b610423816103d8565b811461042d575f80fd5b50565b5f8135905061043e8161041a565b92915050565b5f6020828403121561045957610458610412565b5b5f61046684828501610430565b91505092915050565b5f81519050919050565b5f82825260208201905092915050565b5f5b838110156104a657808201518184015260208101905061048b565b5f8484015250505050565b5f601f19601f8301169050919050565b5f6104cb8261046f565b6104d58185610479565b93506104e5818560208601610489565b6104ee816104b1565b840191505092915050565b5f73ffffffffffffffffffffffffffffffffffffffff82169050919050565b5f610522826104f9565b9050919050565b61053281610518565b82525050565b5f6060820190508181035f83015261055081866104c1565b905061055f60208301856103e1565b61056c6040830184610529565b949350505050565b61057d81610518565b8114610587575f80fd5b50565b5f8135905061059881610574565b92915050565b5f80604083850312156105b4576105b3610412565b5b5f6105c185828601610430565b92505060206105d28582860161058a565b9150509250929050565b5f80fd5b5f80fd5b7f4e487b71000000000000000000000000000000000000000000000000000000005f52604160045260245ffd5b61061a826104b1565b810181811067ffffffffffffffff82111715610639576106386105e4565b5b80604052505050565b5f61064b610409565b90506106578282610611565b919050565b5f67ffffffffffffffff821115610676576106756105e4565b5b61067f826104b1565b9050602081019050919050565b828183375f83830152505050565b5f6106ac6106a78461065c565b610642565b9050828152602081018484840111156106c8576106c76105e0565b5b6106d384828561068c565b509392505050565b5f82601f8301126106ef576106ee6105dc565b5b81356106ff84826020860161069a565b91505092915050565b5f806040838503121561071e5761071d610412565b5b5f83013567ffffffffffffffff81111561073b5761073a610416565b5b610747858286016106db565b925050602061075885828601610430565b9150509250929050565b5f6020820190506107755f830184610529565b92915050565b7f4e487b71000000000000000000000000000000000000000000000000000000005f52601260045260245ffd5b5f6107b2826103d8565b91506107bd836103d8565b9250826107cd576107cc61077b565b5b828204905092915050565b7f496e73756666696369656e742062616c616e63650000000000000000000000005f82015250565b5f61080c601483610479565b9150610817826107d8565b602082019050919050565b5f6020820190508181035f83015261083981610800565b9050919050565b7f4e487b71000000000000000000000000000000000000000000000000000000005f52602260045260245ffd5b5f600282049050600182168061088457607f821691505b60208210810361089757610896610840565b5b50919050565b5f819050815f5260205f209050919050565b5f6020601f8301049050919050565b5f82821b905092915050565b5f600883026108f97fffffffffffffffffffffffffffffffffffffffffffffffffffffffffffffffff826108be565b61090386836108be565b95508019841693508086168417925050509392505050565b5f819050919050565b5f61093e610939610934846103d8565b61091b565b6103d8565b9050919050565b5f819050919050565b61095783610924565b61096b61096382610945565b8484546108ca565b825550505050565b5f90565b61097f610973565b61098a81848461094e565b505050565b5b818110156109ad576109a25f82610977565b600181019050610990565b5050565b601f8211156109f2576109c38161089d565b6109cc846108af565b810160208510156109db578190505b6109ef6109e7856108af565b83018261098f565b50505b505050565b5f82821c905092915050565b5f610a125f19846008026109f7565b1980831691505092915050565b5f610a2a8383610a03565b9150826002028217905092915050565b610a438261046f565b67ffffffffffffffff811115610a5c57610a5b6105e4565b5b610a66825461086d565b610a718282856109b1565b5f60209050601f831160018114610aa2575f8415610a90578287015190505b610a9a8582610a1f565b865550610b01565b601f198416610ab08661089d565b5f5b82811015610ad757848901518255600182019150602085019450602081019050610ab2565b86831015610af45784890151610af0601f891682610a03565b8355505b6001600288020188555050505b50505050505056fea2646970667358221220125ec3c9be15b77e689c442261e3b3958412b184d8d00b8836fa78fac668d1c364736f6c63430008150033",
					"opcodes": "PUSH1 0x80 PUSH1 0x40 MSTORE CALLVALUE DUP1 ISZERO PUSH2 0xF JUMPI PUSH0 DUP1 REVERT JUMPDEST POP PUSH2 0xB3F DUP1 PUSH2 0x1D PUSH0 CODECOPY PUSH0 RETURN INVALID PUSH1 0x80 PUSH1 0x40 MSTORE PUSH1 0x4 CALLDATASIZE LT PUSH2 0x54 JUMPI PUSH0 CALLDATALOAD PUSH1 0xE0 SHR DUP1 PUSH4 0x2004FFD9 EQ PUSH2 0x58 JUMPI DUP1 PUSH4 0x6EE26566 EQ PUSH2 0x82 JUMPI DUP1 PUSH4 0x74FF4818 EQ PUSH2 0x9E JUMPI DUP1 PUSH4 0x784796F7 EQ PUSH2 0xDC JUMPI DUP1 PUSH4 0x808F0114 EQ PUSH2 0x104 JUMPI DUP1 PUSH4 0xC41A360A EQ PUSH2 0x140 JUMPI JUMPDEST PUSH0 DUP1 REVERT JUMPDEST CALLVALUE DUP1 ISZERO PUSH2 0x63 JUMPI PUSH0 DUP1 REVERT JUMPDEST POP PUSH2 0x6C PUSH2 0x17C JUMP JUMPDEST PUSH1 0x40 MLOAD PUSH2 0x79 SWAP2 SWAP1 PUSH2 0x3F0 JUMP JUMPDEST PUSH1 0x40 MLOAD DUP1 SWAP2 SUB SWAP1 RETURN JUMPDEST PUSH2 0x9C PUSH1 0x4 DUP1 CALLDATASIZE SUB DUP2 ADD SWAP1 PUSH2 0x97 SWAP2 SWAP1 PUSH2 0x444 JUMP JUMPDEST PUSH2 0x1D6 JUMP JUMPDEST STOP JUMPDEST CALLVALUE DUP1 ISZERO PUSH2 0xA9 JUMPI PUSH0 DUP1 REVERT JUMPDEST POP PUSH2 0xC4 PUSH1 0x4 DUP1 CALLDATASIZE SUB DUP2 ADD SWAP1 PUSH2 0xBF SWAP2 SWAP1 PUSH2 0x444 JUMP JUMPDEST PUSH2 0x24D JUMP JUMPDEST PUSH1 0x40 MLOAD PUSH2 0xD3 SWAP4 SWAP3 SWAP2 SWAP1 PUSH2 0x538 JUMP JUMPDEST PUSH1 0x40 MLOAD DUP1 SWAP2 SUB SWAP1 RETURN JUMPDEST CALLVALUE DUP1 ISZERO PUSH2 0xE7 JUMPI PUSH0 DUP1 REVERT JUMPDEST POP PUSH2 0x102 PUSH1 0x4 DUP1 CALLDATASIZE SUB DUP2 ADD SWAP1 PUSH2 0xFD SWAP2 SWAP1 PUSH2 0x59E JUMP JUMPDEST PUSH2 0x34C JUMP JUMPDEST STOP JUMPDEST CALLVALUE DUP1 ISZERO PUSH2 0x10F JUMPI PUSH0 DUP1 REVERT JUMPDEST POP PUSH2 0x12A PUSH1 0x4 DUP1 CALLDATASIZE SUB DUP2 ADD SWAP1 PUSH2 0x125 SWAP2 SWAP1 PUSH2 0x708 JUMP JUMPDEST PUSH2 0x350 JUMP JUMPDEST PUSH1 0x40 MLOAD PUSH2 0x137 SWAP2 SWAP1 PUSH2 0x3F0 JUMP JUMPDEST PUSH1 0x40 MLOAD DUP1 SWAP2 SUB SWAP1 RETURN JUMPDEST CALLVALUE DUP1 ISZERO PUSH2 0x14B JUMPI PUSH0 DUP1 REVERT JUMPDEST POP PUSH2 0x166 PUSH1 0x4 DUP1 CALLDATASIZE SUB DUP2 ADD SWAP1 PUSH2 0x161 SWAP2 SWAP1 PUSH2 0x444 JUMP JUMPDEST PUSH2 0x3A0 JUMP JUMPDEST PUSH1 0x40 MLOAD PUSH2 0x173 SWAP2 SWAP1 PUSH2 0x762 JUMP JUMPDEST PUSH1 0x40 MLOAD DUP1 SWAP2 SUB SWAP1 RETURN JUMPDEST PUSH0 DUP1 TIMESTAMP SWAP1 POP CALLER PUSH0 DUP1 DUP4 DUP2 MSTORE PUSH1 0x20 ADD SWAP1 DUP2 MSTORE PUSH1 0x20 ADD PUSH0 KECCAK256 PUSH0 PUSH2 0x100 EXP DUP2 SLOAD DUP2 PUSH20 0xFFFFFFFFFFFFFFFFFFFFFFFFFFFFFFFFFFFFFFFF MUL NOT AND SWAP1 DUP4 PUSH20 0xFFFFFFFFFFFFFFFFFFFFFFFFFFFFFFFFFFFFFFFF AND MUL OR SWAP1 SSTORE POP DUP1 SWAP2 POP POP SWAP1 JUMP JUMPDEST PUSH1 0x1 PUSH0 DUP3 DUP2 MSTORE PUSH1 0x20 ADD SWAP1 DUP2 MSTORE PUSH1 0x20 ADD PUSH0 KECCAK256 PUSH1 0x1 ADD SLOAD PUSH8 0xDE0B6B3A7640000 CALLVALUE PUSH2 0x1FF SWAP2 SWAP1 PUSH2 0x7A8 JUMP JUMPDEST LT ISZERO PUSH2 0x240 JUMPI PUSH1 0x40 MLOAD PUSH32 0x8C379A000000000000000000000000000000000000000000000000000000000 DUP2 MSTORE PUSH1 0x4 ADD PUSH2 0x237 SWAP1 PUSH2 0x822 JUMP JUMPDEST PUSH1 0x40 MLOAD DUP1 SWAP2 SUB SWAP1 REVERT JUMPDEST PUSH2 0x24A DUP2 CALLER PUSH2 0x34C JUMP JUMPDEST POP JUMP JUMPDEST PUSH1 0x60 PUSH0 DUP1 PUSH0 PUSH1 0x1 PUSH0 DUP7 DUP2 MSTORE PUSH1 0x20 ADD SWAP1 DUP2 MSTORE PUSH1 0x20 ADD PUSH0 KECCAK256 PUSH0 ADD DUP1 SLOAD PUSH2 0x270 SWAP1 PUSH2 0x86D JUMP JUMPDEST DUP1 PUSH1 0x1F ADD PUSH1 0x20 DUP1 SWAP2 DIV MUL PUSH1 0x20 ADD PUSH1 0x40 MLOAD SWAP1 DUP2 ADD PUSH1 0x40 MSTORE DUP1 SWAP3 SWAP2 SWAP1 DUP2 DUP2 MSTORE PUSH1 0x20 ADD DUP3 DUP1 SLOAD PUSH2 0x29C SWAP1 PUSH2 0x86D JUMP JUMPDEST DUP1 ISZERO PUSH2 0x2E7 JUMPI DUP1 PUSH1 0x1F LT PUSH2 0x2BE JUMPI PUSH2 0x100 DUP1 DUP4 SLOAD DIV MUL DUP4 MSTORE SWAP2 PUSH1 0x20 ADD SWAP2 PUSH2 0x2E7 JUMP JUMPDEST DUP3 ADD SWAP2 SWAP1 PUSH0 MSTORE PUSH1 0x20 PUSH0 KECCAK256 SWAP1 JUMPDEST DUP2 SLOAD DUP2 MSTORE SWAP1 PUSH1 0x1 ADD SWAP1 PUSH1 0x20 ADD DUP1 DUP4 GT PUSH2 0x2CA JUMPI DUP3 SWAP1 SUB PUSH1 0x1F AND DUP3 ADD SWAP2 JUMPDEST POP POP POP POP POP SWAP1 POP PUSH0 PUSH1 0x1 PUSH0 DUP8 DUP2 MSTORE PUSH1 0x20 ADD SWAP1 DUP2 MSTORE PUSH1 0x20 ADD PUSH0 KECCAK256 PUSH1 0x1 ADD SLOAD SWAP1 POP PUSH0 DUP1 PUSH0 DUP9 DUP2 MSTORE PUSH1 0x20 ADD SWAP1 DUP2 MSTORE PUSH1 0x20 ADD PUSH0 KECCAK256 PUSH0 SWAP1 SLOAD SWAP1 PUSH2 0x100 EXP SWAP1 DIV PUSH20 0xFFFFFFFFFFFFFFFFFFFFFFFFFFFFFFFFFFFFFFFF AND SWAP1 POP DUP3 DUP3 DUP3 SWAP6 POP SWAP6 POP SWAP6 POP POP POP POP SWAP2 SWAP4 SWAP1 SWAP3 POP JUMP JUMPDEST POP POP JUMP JUMPDEST PUSH0 DUP1 PUSH2 0x35A PUSH2 0x17C JUMP JUMPDEST SWAP1 POP DUP4 PUSH1 0x1 PUSH0 DUP4 DUP2 MSTORE PUSH1 0x20 ADD SWAP1 DUP2 MSTORE PUSH1 0x20 ADD PUSH0 KECCAK256 PUSH0 ADD SWAP1 DUP2 PUSH2 0x37C SWAP2 SWAP1 PUSH2 0xA3A JUMP JUMPDEST POP DUP3 PUSH1 0x1 PUSH0 DUP4 DUP2 MSTORE PUSH1 0x20 ADD SWAP1 DUP2 MSTORE PUSH1 0x20 ADD PUSH0 KECCAK256 PUSH1 0x1 ADD DUP2 SWAP1 SSTORE POP DUP1 SWAP2 POP POP SWAP3 SWAP2 POP POP JUMP JUMPDEST PUSH0 DUP1 PUSH0 DUP4 DUP2 MSTORE PUSH1 0x20 ADD SWAP1 DUP2 MSTORE PUSH1 0x20 ADD PUSH0 KECCAK256 PUSH0 SWAP1 SLOAD SWAP1 PUSH2 0x100 EXP SWAP1 DIV PUSH20 0xFFFFFFFFFFFFFFFFFFFFFFFFFFFFFFFFFFFFFFFF AND SWAP1 POP SWAP2 SWAP1 POP JUMP JUMPDEST PUSH0 DUP2 SWAP1 POP SWAP2 SWAP1 POP JUMP JUMPDEST PUSH2 0x3EA DUP2 PUSH2 0x3D8 JUMP JUMPDEST DUP3 MSTORE POP POP JUMP JUMPDEST PUSH0 PUSH1 0x20 DUP3 ADD SWAP1 POP PUSH2 0x403 PUSH0 DUP4 ADD DUP5 PUSH2 0x3E1 JUMP JUMPDEST SWAP3 SWAP2 POP POP JUMP JUMPDEST PUSH0 PUSH1 0x40 MLOAD SWAP1 POP SWAP1 JUMP JUMPDEST PUSH0 DUP1 REVERT JUMPDEST PUSH0 DUP1 REVERT JUMPDEST PUSH2 0x423 DUP2 PUSH2 0x3D8 JUMP JUMPDEST DUP2 EQ PUSH2 0x42D JUMPI PUSH0 DUP1 REVERT JUMPDEST POP JUMP JUMPDEST PUSH0 DUP2 CALLDATALOAD SWAP1 POP PUSH2 0x43E DUP2 PUSH2 0x41A JUMP JUMPDEST SWAP3 SWAP2 POP POP JUMP JUMPDEST PUSH0 PUSH1 0x20 DUP3 DUP5 SUB SLT ISZERO PUSH2 0x459 JUMPI PUSH2 0x458 PUSH2 0x412 JUMP JUMPDEST JUMPDEST PUSH0 PUSH2 0x466 DUP5 DUP3 DUP6 ADD PUSH2 0x430 JUMP JUMPDEST SWAP2 POP POP SWAP3 SWAP2 POP POP JUMP JUMPDEST PUSH0 DUP2 MLOAD SWAP1 POP SWAP2 SWAP1 POP JUMP JUMPDEST PUSH0 DUP3 DUP3 MSTORE PUSH1 0x20 DUP3 ADD SWAP1 POP SWAP3 SWAP2 POP POP JUMP JUMPDEST PUSH0 JUMPDEST DUP4 DUP2 LT ISZERO PUSH2 0x4A6 JUMPI DUP1 DUP3 ADD MLOAD DUP2 DUP5 ADD MSTORE PUSH1 0x20 DUP2 ADD SWAP1 POP PUSH2 0x48B JUMP JUMPDEST PUSH0 DUP5 DUP5 ADD MSTORE POP POP POP POP JUMP JUMPDEST PUSH0 PUSH1 0x1F NOT PUSH1 0x1F DUP4 ADD AND SWAP1 POP SWAP2 SWAP1 POP JUMP JUMPDEST PUSH0 PUSH2 0x4CB DUP3 PUSH2 0x46F JUMP JUMPDEST PUSH2 0x4D5 DUP2 DUP6 PUSH2 0x479 JUMP JUMPDEST SWAP4 POP PUSH2 0x4E5 DUP2 DUP6 PUSH1 0x20 DUP7 ADD PUSH2 0x489 JUMP JUMPDEST PUSH2 0x4EE DUP2 PUSH2 0x4B1 JUMP JUMPDEST DUP5 ADD SWAP2 POP POP SWAP3 SWAP2 POP POP JUMP JUMPDEST PUSH0 PUSH20 0xFFFFFFFFFFFFFFFFFFFFFFFFFFFFFFFFFFFFFFFF DUP3 AND SWAP1 POP SWAP2 SWAP1 POP JUMP JUMPDEST PUSH0 PUSH2 0x522 DUP3 PUSH2 0x4F9 JUMP JUMPDEST SWAP1 POP SWAP2 SWAP1 POP JUMP JUMPDEST PUSH2 0x532 DUP2 PUSH2 0x518 JUMP JUMPDEST DUP3 MSTORE POP POP JUMP JUMPDEST PUSH0 PUSH1 0x60 DUP3 ADD SWAP1 POP DUP2 DUP2 SUB PUSH0 DUP4 ADD MSTORE PUSH2 0x550 DUP2 DUP7 PUSH2 0x4C1 JUMP JUMPDEST SWAP1 POP PUSH2 0x55F PUSH1 0x20 DUP4 ADD DUP6 PUSH2 0x3E1 JUMP JUMPDEST PUSH2 0x56C PUSH1 0x40 DUP4 ADD DUP5 PUSH2 0x529 JUMP JUMPDEST SWAP5 SWAP4 POP POP POP POP JUMP JUMPDEST PUSH2 0x57D DUP2 PUSH2 0x518 JUMP JUMPDEST DUP2 EQ PUSH2 0x587 JUMPI PUSH0 DUP1 REVERT JUMPDEST POP JUMP JUMPDEST PUSH0 DUP2 CALLDATALOAD SWAP1 POP PUSH2 0x598 DUP2 PUSH2 0x574 JUMP JUMPDEST SWAP3 SWAP2 POP POP JUMP JUMPDEST PUSH0 DUP1 PUSH1 0x40 DUP4 DUP6 SUB SLT ISZERO PUSH2 0x5B4 JUMPI PUSH2 0x5B3 PUSH2 0x412 JUMP JUMPDEST JUMPDEST PUSH0 PUSH2 0x5C1 DUP6 DUP3 DUP7 ADD PUSH2 0x430 JUMP JUMPDEST SWAP3 POP POP PUSH1 0x20 PUSH2 0x5D2 DUP6 DUP3 DUP7 ADD PUSH2 0x58A JUMP JUMPDEST SWAP2 POP POP SWAP3 POP SWAP3 SWAP1 POP JUMP JUMPDEST PUSH0 DUP1 REVERT JUMPDEST PUSH0 DUP1 REVERT JUMPDEST PUSH32 0x4E487B7100000000000000000000000000000000000000000000000000000000 PUSH0 MSTORE PUSH1 0x41 PUSH1 0x4 MSTORE PUSH1 0x24 PUSH0 REVERT JUMPDEST PUSH2 0x61A DUP3 PUSH2 0x4B1 JUMP JUMPDEST DUP2 ADD DUP2 DUP2 LT PUSH8 0xFFFFFFFFFFFFFFFF DUP3 GT OR ISZERO PUSH2 0x639 JUMPI PUSH2 0x638 PUSH2 0x5E4 JUMP JUMPDEST JUMPDEST DUP1 PUSH1 0x40 MSTORE POP POP POP JUMP JUMPDEST PUSH0 PUSH2 0x64B PUSH2 0x409 JUMP JUMPDEST SWAP1 POP PUSH2 0x657 DUP3 DUP3 PUSH2 0x611 JUMP JUMPDEST SWAP2 SWAP1 POP JUMP JUMPDEST PUSH0 PUSH8 0xFFFFFFFFFFFFFFFF DUP3 GT ISZERO PUSH2 0x676 JUMPI PUSH2 0x675 PUSH2 0x5E4 JUMP JUMPDEST JUMPDEST PUSH2 0x67F DUP3 PUSH2 0x4B1 JUMP JUMPDEST SWAP1 POP PUSH1 0x20 DUP2 ADD SWAP1 POP SWAP2 SWAP1 POP JUMP JUMPDEST DUP3 DUP2 DUP4 CALLDATACOPY PUSH0 DUP4 DUP4 ADD MSTORE POP POP POP JUMP JUMPDEST PUSH0 PUSH2 0x6AC PUSH2 0x6A7 DUP5 PUSH2 0x65C JUMP JUMPDEST PUSH2 0x642 JUMP JUMPDEST SWAP1 POP DUP3 DUP2 MSTORE PUSH1 0x20 DUP2 ADD DUP5 DUP5 DUP5 ADD GT ISZERO PUSH2 0x6C8 JUMPI PUSH2 0x6C7 PUSH2 0x5E0 JUMP JUMPDEST JUMPDEST PUSH2 0x6D3 DUP5 DUP3 DUP6 PUSH2 0x68C JUMP JUMPDEST POP SWAP4 SWAP3 POP POP POP JUMP JUMPDEST PUSH0 DUP3 PUSH1 0x1F DUP4 ADD SLT PUSH2 0x6EF JUMPI PUSH2 0x6EE PUSH2 0x5DC JUMP JUMPDEST JUMPDEST DUP2 CALLDATALOAD PUSH2 0x6FF DUP5 DUP3 PUSH1 0x20 DUP7 ADD PUSH2 0x69A JUMP JUMPDEST SWAP2 POP POP SWAP3 SWAP2 POP POP JUMP JUMPDEST PUSH0 DUP1 PUSH1 0x40 DUP4 DUP6 SUB SLT ISZERO PUSH2 0x71E JUMPI PUSH2 0x71D PUSH2 0x412 JUMP JUMPDEST JUMPDEST PUSH0 DUP4 ADD CALLDATALOAD PUSH8 0xFFFFFFFFFFFFFFFF DUP2 GT ISZERO PUSH2 0x73B JUMPI PUSH2 0x73A PUSH2 0x416 JUMP JUMPDEST JUMPDEST PUSH2 0x747 DUP6 DUP3 DUP7 ADD PUSH2 0x6DB JUMP JUMPDEST SWAP3 POP POP PUSH1 0x20 PUSH2 0x758 DUP6 DUP3 DUP7 ADD PUSH2 0x430 JUMP JUMPDEST SWAP2 POP POP SWAP3 POP SWAP3 SWAP1 POP JUMP JUMPDEST PUSH0 PUSH1 0x20 DUP3 ADD SWAP1 POP PUSH2 0x775 PUSH0 DUP4 ADD DUP5 PUSH2 0x529 JUMP JUMPDEST SWAP3 SWAP2 POP POP JUMP JUMPDEST PUSH32 0x4E487B7100000000000000000000000000000000000000000000000000000000 PUSH0 MSTORE PUSH1 0x12 PUSH1 0x4 MSTORE PUSH1 0x24 PUSH0 REVERT JUMPDEST PUSH0 PUSH2 0x7B2 DUP3 PUSH2 0x3D8 JUMP JUMPDEST SWAP2 POP PUSH2 0x7BD DUP4 PUSH2 0x3D8 JUMP JUMPDEST SWAP3 POP DUP3 PUSH2 0x7CD JUMPI PUSH2 0x7CC PUSH2 0x77B JUMP JUMPDEST JUMPDEST DUP3 DUP3 DIV SWAP1 POP SWAP3 SWAP2 POP POP JUMP JUMPDEST PUSH32 0x496E73756666696369656E742062616C616E6365000000000000000000000000 PUSH0 DUP3 ADD MSTORE POP JUMP JUMPDEST PUSH0 PUSH2 0x80C PUSH1 0x14 DUP4 PUSH2 0x479 JUMP JUMPDEST SWAP2 POP PUSH2 0x817 DUP3 PUSH2 0x7D8 JUMP JUMPDEST PUSH1 0x20 DUP3 ADD SWAP1 POP SWAP2 SWAP1 POP JUMP JUMPDEST PUSH0 PUSH1 0x20 DUP3 ADD SWAP1 POP DUP2 DUP2 SUB PUSH0 DUP4 ADD MSTORE PUSH2 0x839 DUP2 PUSH2 0x800 JUMP JUMPDEST SWAP1 POP SWAP2 SWAP1 POP JUMP JUMPDEST PUSH32 0x4E487B7100000000000000000000000000000000000000000000000000000000 PUSH0 MSTORE PUSH1 0x22 PUSH1 0x4 MSTORE PUSH1 0x24 PUSH0 REVERT JUMPDEST PUSH0 PUSH1 0x2 DUP3 DIV SWAP1 POP PUSH1 0x1 DUP3 AND DUP1 PUSH2 0x884 JUMPI PUSH1 0x7F DUP3 AND SWAP2 POP JUMPDEST PUSH1 0x20 DUP3 LT DUP2 SUB PUSH2 0x897 JUMPI PUSH2 0x896 PUSH2 0x840 JUMP JUMPDEST JUMPDEST POP SWAP2 SWAP1 POP JUMP JUMPDEST PUSH0 DUP2 SWAP1 POP DUP2 PUSH0 MSTORE PUSH1 0x20 PUSH0 KECCAK256 SWAP1 POP SWAP2 SWAP1 POP JUMP JUMPDEST PUSH0 PUSH1 0x20 PUSH1 0x1F DUP4 ADD DIV SWAP1 POP SWAP2 SWAP1 POP JUMP JUMPDEST PUSH0 DUP3 DUP3 SHL SWAP1 POP SWAP3 SWAP2 POP POP JUMP JUMPDEST PUSH0 PUSH1 0x8 DUP4 MUL PUSH2 0x8F9 PUSH32 0xFFFFFFFFFFFFFFFFFFFFFFFFFFFFFFFFFFFFFFFFFFFFFFFFFFFFFFFFFFFFFFFF DUP3 PUSH2 0x8BE JUMP JUMPDEST PUSH2 0x903 DUP7 DUP4 PUSH2 0x8BE JUMP JUMPDEST SWAP6 POP DUP1 NOT DUP5 AND SWAP4 POP DUP1 DUP7 AND DUP5 OR SWAP3 POP POP POP SWAP4 SWAP3 POP POP POP JUMP JUMPDEST PUSH0 DUP2 SWAP1 POP SWAP2 SWAP1 POP JUMP JUMPDEST PUSH0 PUSH2 0x93E PUSH2 0x939 PUSH2 0x934 DUP5 PUSH2 0x3D8 JUMP JUMPDEST PUSH2 0x91B JUMP JUMPDEST PUSH2 0x3D8 JUMP JUMPDEST SWAP1 POP SWAP2 SWAP1 POP JUMP JUMPDEST PUSH0 DUP2 SWAP1 POP SWAP2 SWAP1 POP JUMP JUMPDEST PUSH2 0x957 DUP4 PUSH2 0x924 JUMP JUMPDEST PUSH2 0x96B PUSH2 0x963 DUP3 PUSH2 0x945 JUMP JUMPDEST DUP5 DUP5 SLOAD PUSH2 0x8CA JUMP JUMPDEST DUP3 SSTORE POP POP POP POP JUMP JUMPDEST PUSH0 SWAP1 JUMP JUMPDEST PUSH2 0x97F PUSH2 0x973 JUMP JUMPDEST PUSH2 0x98A DUP2 DUP5 DUP5 PUSH2 0x94E JUMP JUMPDEST POP POP POP JUMP JUMPDEST JUMPDEST DUP2 DUP2 LT ISZERO PUSH2 0x9AD JUMPI PUSH2 0x9A2 PUSH0 DUP3 PUSH2 0x977 JUMP JUMPDEST PUSH1 0x1 DUP2 ADD SWAP1 POP PUSH2 0x990 JUMP JUMPDEST POP POP JUMP JUMPDEST PUSH1 0x1F DUP3 GT ISZERO PUSH2 0x9F2 JUMPI PUSH2 0x9C3 DUP2 PUSH2 0x89D JUMP JUMPDEST PUSH2 0x9CC DUP5 PUSH2 0x8AF JUMP JUMPDEST DUP2 ADD PUSH1 0x20 DUP6 LT ISZERO PUSH2 0x9DB JUMPI DUP2 SWAP1 POP JUMPDEST PUSH2 0x9EF PUSH2 0x9E7 DUP6 PUSH2 0x8AF JUMP JUMPDEST DUP4 ADD DUP3 PUSH2 0x98F JUMP JUMPDEST POP POP JUMPDEST POP POP POP JUMP JUMPDEST PUSH0 DUP3 DUP3 SHR SWAP1 POP SWAP3 SWAP2 POP POP JUMP JUMPDEST PUSH0 PUSH2 0xA12 PUSH0 NOT DUP5 PUSH1 0x8 MUL PUSH2 0x9F7 JUMP JUMPDEST NOT DUP1 DUP4 AND SWAP2 POP POP SWAP3 SWAP2 POP POP JUMP JUMPDEST PUSH0 PUSH2 0xA2A DUP4 DUP4 PUSH2 0xA03 JUMP JUMPDEST SWAP2 POP DUP3 PUSH1 0x2 MUL DUP3 OR SWAP1 POP SWAP3 SWAP2 POP POP JUMP JUMPDEST PUSH2 0xA43 DUP3 PUSH2 0x46F JUMP JUMPDEST PUSH8 0xFFFFFFFFFFFFFFFF DUP2 GT ISZERO PUSH2 0xA5C JUMPI PUSH2 0xA5B PUSH2 0x5E4 JUMP JUMPDEST JUMPDEST PUSH2 0xA66 DUP3 SLOAD PUSH2 0x86D JUMP JUMPDEST PUSH2 0xA71 DUP3 DUP3 DUP6 PUSH2 0x9B1 JUMP JUMPDEST PUSH0 PUSH1 0x20 SWAP1 POP PUSH1 0x1F DUP4 GT PUSH1 0x1 DUP2 EQ PUSH2 0xAA2 JUMPI PUSH0 DUP5 ISZERO PUSH2 0xA90 JUMPI DUP3 DUP8 ADD MLOAD SWAP1 POP JUMPDEST PUSH2 0xA9A DUP6 DUP3 PUSH2 0xA1F JUMP JUMPDEST DUP7 SSTORE POP PUSH2 0xB01 JUMP JUMPDEST PUSH1 0x1F NOT DUP5 AND PUSH2 0xAB0 DUP7 PUSH2 0x89D JUMP JUMPDEST PUSH0 JUMPDEST DUP3 DUP2 LT ISZERO PUSH2 0xAD7 JUMPI DUP5 DUP10 ADD MLOAD DUP3 SSTORE PUSH1 0x1 DUP3 ADD SWAP2 POP PUSH1 0x20 DUP6 ADD SWAP5 POP PUSH1 0x20 DUP2 ADD SWAP1 POP PUSH2 0xAB2 JUMP JUMPDEST DUP7 DUP4 LT ISZERO PUSH2 0xAF4 JUMPI DUP5 DUP10 ADD MLOAD PUSH2 0xAF0 PUSH1 0x1F DUP10 AND DUP3 PUSH2 0xA03 JUMP JUMPDEST DUP4 SSTORE POP JUMPDEST PUSH1 0x1 PUSH1 0x2 DUP9 MUL ADD DUP9 SSTORE POP POP POP JUMPDEST POP POP POP POP POP POP JUMP INVALID LOG2 PUSH5 0x6970667358 0x22 SLT KECCAK256 SLT 0x5E 0xC3 0xC9 0xBE ISZERO 0xB7 PUSH31 0x689C442261E3B3958412B184D8D00B8836FA78FAC668D1C364736F6C634300 ADDMOD ISZERO STOP CALLER "
				},
				"gasEstimates": {
					"creation": {
						"codeDepositCost": "575800",
						"executionCost": "604",
						"totalCost": "576404"
					},
					"external": {
						"buyBook(uint256)": "infinite",
						"changeOwner(uint256,address)": "664",
						"getBookDetails(uint256)": "infinite",
						"getOwner(uint256)": "2940",
						"mintToken()": "24663",
						"setBook(string,uint256)": "infinite"
					}
				},
				"methodIdentifiers": {
					"buyBook(uint256)": "6ee26566",
					"changeOwner(uint256,address)": "784796f7",
					"getBookDetails(uint256)": "74ff4818",
					"getOwner(uint256)": "c41a360a",
					"mintToken()": "2004ffd9",
					"setBook(string,uint256)": "808f0114"
				}
			},
			"storageLayout": {
				"storage": [
					{
						"astId": 123,
						"contract": "contracts/BookToken.sol:BookToken",
						"label": "tokenOwnership",
						"offset": 0,
						"slot": "0",
						"type": "t_mapping(t_uint256,t_address)"
					},
					{
						"astId": 14,
						"contract": "contracts/BookToken.sol:BookToken",
						"label": "bookOwnership",
						"offset": 0,
						"slot": "1",
						"type": "t_mapping(t_uint256,t_struct(Book)9_storage)"
					}
				],
				"types": {
					"t_address": {
						"encoding": "inplace",
						"label": "address",
						"numberOfBytes": "20"
					},
					"t_mapping(t_uint256,t_address)": {
						"encoding": "mapping",
						"key": "t_uint256",
						"label": "mapping(uint256 => address)",
						"numberOfBytes": "32",
						"value": "t_address"
					},
					"t_mapping(t_uint256,t_struct(Book)9_storage)": {
						"encoding": "mapping",
						"key": "t_uint256",
						"label": "mapping(uint256 => struct BookToken.Book)",
						"numberOfBytes": "32",
						"value": "t_struct(Book)9_storage"
					},
					"t_string_storage": {
						"encoding": "bytes",
						"label": "string",
						"numberOfBytes": "32"
					},
					"t_struct(Book)9_storage": {
						"encoding": "inplace",
						"label": "struct BookToken.Book",
						"members": [
							{
								"astId": 6,
								"contract": "contracts/BookToken.sol:BookToken",
								"label": "title",
								"offset": 0,
								"slot": "0",
								"type": "t_string_storage"
							},
							{
								"astId": 8,
								"contract": "contracts/BookToken.sol:BookToken",
								"label": "price",
								"offset": 0,
								"slot": "1",
								"type": "t_uint256"
							}
						],
						"numberOfBytes": "64"
					},
					"t_uint256": {
						"encoding": "inplace",
						"label": "uint256",
						"numberOfBytes": "32"
					}
				}
			},
			"userdoc": {
				"kind": "user",
				"methods": {},
				"version": 1
			}
		}
	}
}