{
	"DOS/Auction.sol": {
		"Auction": {
			"abi": [
				{
					"inputs": [],
					"name": "bid",
					"outputs": [],
					"stateMutability": "payable",
					"type": "function"
				},
				{
					"inputs": [],
					"name": "currentLeader",
					"outputs": [
						{
							"internalType": "address payable",
							"name": "",
							"type": "address"
						}
					],
					"stateMutability": "view",
					"type": "function"
				},
				{
					"inputs": [],
					"name": "highestBid",
					"outputs": [
						{
							"internalType": "uint256",
							"name": "",
							"type": "uint256"
						}
					],
					"stateMutability": "view",
					"type": "function"
				}
			],
			"devdoc": {
				"kind": "dev",
				"methods": {},
				"version": 1
			},
			"evm": {
				"assembly": "    /* \"DOS/Auction.sol\":57:460  contract Auction{... */\n  mstore(0x40, 0x80)\n  callvalue\n  dup1\n  iszero\n  tag_1\n  jumpi\n  0x00\n  dup1\n  revert\ntag_1:\n  pop\n  dataSize(sub_0)\n  dup1\n  dataOffset(sub_0)\n  0x00\n  codecopy\n  0x00\n  return\nstop\n\nsub_0: assembly {\n        /* \"DOS/Auction.sol\":57:460  contract Auction{... */\n      mstore(0x40, 0x80)\n      jumpi(tag_1, lt(calldatasize, 0x04))\n      shr(0xe0, calldataload(0x00))\n      dup1\n      0x1998aeef\n      eq\n      tag_2\n      jumpi\n      dup1\n      0xac4bd53a\n      eq\n      tag_3\n      jumpi\n      dup1\n      0xd57bde79\n      eq\n      tag_4\n      jumpi\n    tag_1:\n      0x00\n      dup1\n      revert\n        /* \"DOS/Auction.sol\":154:457  function bid() public payable... */\n    tag_2:\n      tag_5\n      tag_6\n      jump\t// in\n    tag_5:\n      stop\n        /* \"DOS/Auction.sol\":80:116  address payable public currentLeader */\n    tag_3:\n      callvalue\n      dup1\n      iszero\n      tag_7\n      jumpi\n      0x00\n      dup1\n      revert\n    tag_7:\n      pop\n      tag_8\n      tag_9\n      jump\t// in\n    tag_8:\n      mload(0x40)\n      tag_10\n      swap2\n      swap1\n      tag_11\n      jump\t// in\n    tag_10:\n      mload(0x40)\n      dup1\n      swap2\n      sub\n      swap1\n      return\n        /* \"DOS/Auction.sol\":123:145  uint public highestBid */\n    tag_4:\n      callvalue\n      dup1\n      iszero\n      tag_12\n      jumpi\n      0x00\n      dup1\n      revert\n    tag_12:\n      pop\n      tag_13\n      tag_14\n      jump\t// in\n    tag_13:\n      mload(0x40)\n      tag_15\n      swap2\n      swap1\n      tag_16\n      jump\t// in\n    tag_15:\n      mload(0x40)\n      dup1\n      swap2\n      sub\n      swap1\n      return\n        /* \"DOS/Auction.sol\":154:457  function bid() public payable... */\n    tag_6:\n        /* \"DOS/Auction.sol\":218:228  highestBid */\n      sload(0x01)\n        /* \"DOS/Auction.sol\":208:217  msg.value */\n      callvalue\n        /* \"DOS/Auction.sol\":208:228  msg.value>highestBid */\n      gt\n        /* \"DOS/Auction.sol\":200:246  require(msg.value>highestBid, \"Try next time\") */\n      tag_18\n      jumpi\n      mload(0x40)\n      0x08c379a000000000000000000000000000000000000000000000000000000000\n      dup2\n      mstore\n      0x04\n      add\n      tag_19\n      swap1\n      tag_20\n      jump\t// in\n    tag_19:\n      mload(0x40)\n      dup1\n      swap2\n      sub\n      swap1\n      revert\n    tag_18:\n        /* \"DOS/Auction.sol\":258:267  bool sent */\n      0x00\n        /* \"DOS/Auction.sol\":273:286  currentLeader */\n      dup1\n      0x00\n      swap1\n      sload\n      swap1\n      0x0100\n      exp\n      swap1\n      div\n      0xffffffffffffffffffffffffffffffffffffffff\n      and\n        /* \"DOS/Auction.sol\":273:291  currentLeader.call */\n      0xffffffffffffffffffffffffffffffffffffffff\n      and\n        /* \"DOS/Auction.sol\":299:309  highestBid */\n      sload(0x01)\n        /* \"DOS/Auction.sol\":273:314  currentLeader.call{value: highestBid}(\"\") */\n      mload(0x40)\n      tag_21\n      swap1\n      tag_22\n      jump\t// in\n    tag_21:\n      0x00\n      mload(0x40)\n      dup1\n      dup4\n      sub\n      dup2\n      dup6\n      dup8\n      gas\n      call\n      swap3\n      pop\n      pop\n      pop\n      returndatasize\n      dup1\n      0x00\n      dup2\n      eq\n      tag_25\n      jumpi\n      mload(0x40)\n      swap2\n      pop\n      and(add(returndatasize, 0x3f), not(0x1f))\n      dup3\n      add\n      0x40\n      mstore\n      returndatasize\n      dup3\n      mstore\n      returndatasize\n      0x00\n      0x20\n      dup5\n      add\n      returndatacopy\n      jump(tag_24)\n    tag_25:\n      0x60\n      swap2\n      pop\n    tag_24:\n      pop\n        /* \"DOS/Auction.sol\":257:314  (bool sent, ) = currentLeader.call{value: highestBid}(\"\") */\n      pop\n      swap1\n      pop\n        /* \"DOS/Auction.sol\":341:345  sent */\n      dup1\n        /* \"DOS/Auction.sol\":333:370  require(sent, \"Failed to send ether\") */\n      tag_26\n      jumpi\n      mload(0x40)\n      0x08c379a000000000000000000000000000000000000000000000000000000000\n      dup2\n      mstore\n      0x04\n      add\n      tag_27\n      swap1\n      tag_28\n      jump\t// in\n    tag_27:\n      mload(0x40)\n      dup1\n      swap2\n      sub\n      swap1\n      revert\n    tag_26:\n        /* \"DOS/Auction.sol\":394:403  msg.value */\n      callvalue\n        /* \"DOS/Auction.sol\":381:391  highestBid */\n      0x01\n        /* \"DOS/Auction.sol\":381:403  highestBid = msg.value */\n      dup2\n      swap1\n      sstore\n      pop\n        /* \"DOS/Auction.sol\":438:448  msg.sender */\n      caller\n        /* \"DOS/Auction.sol\":414:427  currentLeader */\n      0x00\n      dup1\n        /* \"DOS/Auction.sol\":414:449  currentLeader = payable(msg.sender) */\n      0x0100\n      exp\n      dup2\n      sload\n      dup2\n      0xffffffffffffffffffffffffffffffffffffffff\n      mul\n      not\n      and\n      swap1\n      dup4\n      0xffffffffffffffffffffffffffffffffffffffff\n      and\n      mul\n      or\n      swap1\n      sstore\n      pop\n        /* \"DOS/Auction.sol\":189:457  {... */\n      pop\n        /* \"DOS/Auction.sol\":154:457  function bid() public payable... */\n      jump\t// out\n        /* \"DOS/Auction.sol\":80:116  address payable public currentLeader */\n    tag_9:\n      0x00\n      dup1\n      sload\n      swap1\n      0x0100\n      exp\n      swap1\n      div\n      0xffffffffffffffffffffffffffffffffffffffff\n      and\n      dup2\n      jump\t// out\n        /* \"DOS/Auction.sol\":123:145  uint public highestBid */\n    tag_14:\n      sload(0x01)\n      dup2\n      jump\t// out\n        /* \"#utility.yul\":7:133   */\n    tag_29:\n        /* \"#utility.yul\":44:51   */\n      0x00\n        /* \"#utility.yul\":84:126   */\n      0xffffffffffffffffffffffffffffffffffffffff\n        /* \"#utility.yul\":77:82   */\n      dup3\n        /* \"#utility.yul\":73:127   */\n      and\n        /* \"#utility.yul\":62:127   */\n      swap1\n      pop\n        /* \"#utility.yul\":7:133   */\n      swap2\n      swap1\n      pop\n      jump\t// out\n        /* \"#utility.yul\":139:243   */\n    tag_30:\n        /* \"#utility.yul\":184:191   */\n      0x00\n        /* \"#utility.yul\":213:237   */\n      tag_45\n        /* \"#utility.yul\":231:236   */\n      dup3\n        /* \"#utility.yul\":213:237   */\n      tag_29\n      jump\t// in\n    tag_45:\n        /* \"#utility.yul\":202:237   */\n      swap1\n      pop\n        /* \"#utility.yul\":139:243   */\n      swap2\n      swap1\n      pop\n      jump\t// out\n        /* \"#utility.yul\":249:391   */\n    tag_31:\n        /* \"#utility.yul\":352:384   */\n      tag_47\n        /* \"#utility.yul\":378:383   */\n      dup2\n        /* \"#utility.yul\":352:384   */\n      tag_30\n      jump\t// in\n    tag_47:\n        /* \"#utility.yul\":347:350   */\n      dup3\n        /* \"#utility.yul\":340:385   */\n      mstore\n        /* \"#utility.yul\":249:391   */\n      pop\n      pop\n      jump\t// out\n        /* \"#utility.yul\":397:651   */\n    tag_11:\n        /* \"#utility.yul\":506:510   */\n      0x00\n        /* \"#utility.yul\":544:546   */\n      0x20\n        /* \"#utility.yul\":533:542   */\n      dup3\n        /* \"#utility.yul\":529:547   */\n      add\n        /* \"#utility.yul\":521:547   */\n      swap1\n      pop\n        /* \"#utility.yul\":557:644   */\n      tag_49\n        /* \"#utility.yul\":641:642   */\n      0x00\n        /* \"#utility.yul\":630:639   */\n      dup4\n        /* \"#utility.yul\":626:643   */\n      add\n        /* \"#utility.yul\":617:623   */\n      dup5\n        /* \"#utility.yul\":557:644   */\n      tag_31\n      jump\t// in\n    tag_49:\n        /* \"#utility.yul\":397:651   */\n      swap3\n      swap2\n      pop\n      pop\n      jump\t// out\n        /* \"#utility.yul\":657:734   */\n    tag_32:\n        /* \"#utility.yul\":694:701   */\n      0x00\n        /* \"#utility.yul\":723:728   */\n      dup2\n        /* \"#utility.yul\":712:728   */\n      swap1\n      pop\n        /* \"#utility.yul\":657:734   */\n      swap2\n      swap1\n      pop\n      jump\t// out\n        /* \"#utility.yul\":740:858   */\n    tag_33:\n        /* \"#utility.yul\":827:851   */\n      tag_52\n        /* \"#utility.yul\":845:850   */\n      dup2\n        /* \"#utility.yul\":827:851   */\n      tag_32\n      jump\t// in\n    tag_52:\n        /* \"#utility.yul\":822:825   */\n      dup3\n        /* \"#utility.yul\":815:852   */\n      mstore\n        /* \"#utility.yul\":740:858   */\n      pop\n      pop\n      jump\t// out\n        /* \"#utility.yul\":864:1086   */\n    tag_16:\n        /* \"#utility.yul\":957:961   */\n      0x00\n        /* \"#utility.yul\":995:997   */\n      0x20\n        /* \"#utility.yul\":984:993   */\n      dup3\n        /* \"#utility.yul\":980:998   */\n      add\n        /* \"#utility.yul\":972:998   */\n      swap1\n      pop\n        /* \"#utility.yul\":1008:1079   */\n      tag_54\n        /* \"#utility.yul\":1076:1077   */\n      0x00\n        /* \"#utility.yul\":1065:1074   */\n      dup4\n        /* \"#utility.yul\":1061:1078   */\n      add\n        /* \"#utility.yul\":1052:1058   */\n      dup5\n        /* \"#utility.yul\":1008:1079   */\n      tag_33\n      jump\t// in\n    tag_54:\n        /* \"#utility.yul\":864:1086   */\n      swap3\n      swap2\n      pop\n      pop\n      jump\t// out\n        /* \"#utility.yul\":1092:1261   */\n    tag_34:\n        /* \"#utility.yul\":1176:1187   */\n      0x00\n        /* \"#utility.yul\":1210:1216   */\n      dup3\n        /* \"#utility.yul\":1205:1208   */\n      dup3\n        /* \"#utility.yul\":1198:1217   */\n      mstore\n        /* \"#utility.yul\":1250:1254   */\n      0x20\n        /* \"#utility.yul\":1245:1248   */\n      dup3\n        /* \"#utility.yul\":1241:1255   */\n      add\n        /* \"#utility.yul\":1226:1255   */\n      swap1\n      pop\n        /* \"#utility.yul\":1092:1261   */\n      swap3\n      swap2\n      pop\n      pop\n      jump\t// out\n        /* \"#utility.yul\":1267:1430   */\n    tag_35:\n        /* \"#utility.yul\":1407:1422   */\n      0x547279206e6578742074696d6500000000000000000000000000000000000000\n        /* \"#utility.yul\":1403:1404   */\n      0x00\n        /* \"#utility.yul\":1395:1401   */\n      dup3\n        /* \"#utility.yul\":1391:1405   */\n      add\n        /* \"#utility.yul\":1384:1423   */\n      mstore\n        /* \"#utility.yul\":1267:1430   */\n      pop\n      jump\t// out\n        /* \"#utility.yul\":1436:1802   */\n    tag_36:\n        /* \"#utility.yul\":1578:1581   */\n      0x00\n        /* \"#utility.yul\":1599:1666   */\n      tag_58\n        /* \"#utility.yul\":1663:1665   */\n      0x0d\n        /* \"#utility.yul\":1658:1661   */\n      dup4\n        /* \"#utility.yul\":1599:1666   */\n      tag_34\n      jump\t// in\n    tag_58:\n        /* \"#utility.yul\":1592:1666   */\n      swap2\n      pop\n        /* \"#utility.yul\":1675:1768   */\n      tag_59\n        /* \"#utility.yul\":1764:1767   */\n      dup3\n        /* \"#utility.yul\":1675:1768   */\n      tag_35\n      jump\t// in\n    tag_59:\n        /* \"#utility.yul\":1793:1795   */\n      0x20\n        /* \"#utility.yul\":1788:1791   */\n      dup3\n        /* \"#utility.yul\":1784:1796   */\n      add\n        /* \"#utility.yul\":1777:1796   */\n      swap1\n      pop\n        /* \"#utility.yul\":1436:1802   */\n      swap2\n      swap1\n      pop\n      jump\t// out\n        /* \"#utility.yul\":1808:2227   */\n    tag_20:\n        /* \"#utility.yul\":1974:1978   */\n      0x00\n        /* \"#utility.yul\":2012:2014   */\n      0x20\n        /* \"#utility.yul\":2001:2010   */\n      dup3\n        /* \"#utility.yul\":1997:2015   */\n      add\n        /* \"#utility.yul\":1989:2015   */\n      swap1\n      pop\n        /* \"#utility.yul\":2061:2070   */\n      dup2\n        /* \"#utility.yul\":2055:2059   */\n      dup2\n        /* \"#utility.yul\":2051:2071   */\n      sub\n        /* \"#utility.yul\":2047:2048   */\n      0x00\n        /* \"#utility.yul\":2036:2045   */\n      dup4\n        /* \"#utility.yul\":2032:2049   */\n      add\n        /* \"#utility.yul\":2025:2072   */\n      mstore\n        /* \"#utility.yul\":2089:2220   */\n      tag_61\n        /* \"#utility.yul\":2215:2219   */\n      dup2\n        /* \"#utility.yul\":2089:2220   */\n      tag_36\n      jump\t// in\n    tag_61:\n        /* \"#utility.yul\":2081:2220   */\n      swap1\n      pop\n        /* \"#utility.yul\":1808:2227   */\n      swap2\n      swap1\n      pop\n      jump\t// out\n        /* \"#utility.yul\":2233:2380   */\n    tag_37:\n        /* \"#utility.yul\":2334:2345   */\n      0x00\n        /* \"#utility.yul\":2371:2374   */\n      dup2\n        /* \"#utility.yul\":2356:2374   */\n      swap1\n      pop\n        /* \"#utility.yul\":2233:2380   */\n      swap3\n      swap2\n      pop\n      pop\n      jump\t// out\n        /* \"#utility.yul\":2386:2500   */\n    tag_38:\n      pop\n      jump\t// out\n        /* \"#utility.yul\":2506:2904   */\n    tag_39:\n        /* \"#utility.yul\":2665:2668   */\n      0x00\n        /* \"#utility.yul\":2686:2769   */\n      tag_65\n        /* \"#utility.yul\":2767:2768   */\n      0x00\n        /* \"#utility.yul\":2762:2765   */\n      dup4\n        /* \"#utility.yul\":2686:2769   */\n      tag_37\n      jump\t// in\n    tag_65:\n        /* \"#utility.yul\":2679:2769   */\n      swap2\n      pop\n        /* \"#utility.yul\":2778:2871   */\n      tag_66\n        /* \"#utility.yul\":2867:2870   */\n      dup3\n        /* \"#utility.yul\":2778:2871   */\n      tag_38\n      jump\t// in\n    tag_66:\n        /* \"#utility.yul\":2896:2897   */\n      0x00\n        /* \"#utility.yul\":2891:2894   */\n      dup3\n        /* \"#utility.yul\":2887:2898   */\n      add\n        /* \"#utility.yul\":2880:2898   */\n      swap1\n      pop\n        /* \"#utility.yul\":2506:2904   */\n      swap2\n      swap1\n      pop\n      jump\t// out\n        /* \"#utility.yul\":2910:3289   */\n    tag_22:\n        /* \"#utility.yul\":3094:3097   */\n      0x00\n        /* \"#utility.yul\":3116:3263   */\n      tag_68\n        /* \"#utility.yul\":3259:3262   */\n      dup3\n        /* \"#utility.yul\":3116:3263   */\n      tag_39\n      jump\t// in\n    tag_68:\n        /* \"#utility.yul\":3109:3263   */\n      swap2\n      pop\n        /* \"#utility.yul\":3280:3283   */\n      dup2\n        /* \"#utility.yul\":3273:3283   */\n      swap1\n      pop\n        /* \"#utility.yul\":2910:3289   */\n      swap2\n      swap1\n      pop\n      jump\t// out\n        /* \"#utility.yul\":3295:3465   */\n    tag_40:\n        /* \"#utility.yul\":3435:3457   */\n      0x4661696c656420746f2073656e64206574686572000000000000000000000000\n        /* \"#utility.yul\":3431:3432   */\n      0x00\n        /* \"#utility.yul\":3423:3429   */\n      dup3\n        /* \"#utility.yul\":3419:3433   */\n      add\n        /* \"#utility.yul\":3412:3458   */\n      mstore\n        /* \"#utility.yul\":3295:3465   */\n      pop\n      jump\t// out\n        /* \"#utility.yul\":3471:3837   */\n    tag_41:\n        /* \"#utility.yul\":3613:3616   */\n      0x00\n        /* \"#utility.yul\":3634:3701   */\n      tag_71\n        /* \"#utility.yul\":3698:3700   */\n      0x14\n        /* \"#utility.yul\":3693:3696   */\n      dup4\n        /* \"#utility.yul\":3634:3701   */\n      tag_34\n      jump\t// in\n    tag_71:\n        /* \"#utility.yul\":3627:3701   */\n      swap2\n      pop\n        /* \"#utility.yul\":3710:3803   */\n      tag_72\n        /* \"#utility.yul\":3799:3802   */\n      dup3\n        /* \"#utility.yul\":3710:3803   */\n      tag_40\n      jump\t// in\n    tag_72:\n        /* \"#utility.yul\":3828:3830   */\n      0x20\n        /* \"#utility.yul\":3823:3826   */\n      dup3\n        /* \"#utility.yul\":3819:3831   */\n      add\n        /* \"#utility.yul\":3812:3831   */\n      swap1\n      pop\n        /* \"#utility.yul\":3471:3837   */\n      swap2\n      swap1\n      pop\n      jump\t// out\n        /* \"#utility.yul\":3843:4262   */\n    tag_28:\n        /* \"#utility.yul\":4009:4013   */\n      0x00\n        /* \"#utility.yul\":4047:4049   */\n      0x20\n        /* \"#utility.yul\":4036:4045   */\n      dup3\n        /* \"#utility.yul\":4032:4050   */\n      add\n        /* \"#utility.yul\":4024:4050   */\n      swap1\n      pop\n        /* \"#utility.yul\":4096:4105   */\n      dup2\n        /* \"#utility.yul\":4090:4094   */\n      dup2\n        /* \"#utility.yul\":4086:4106   */\n      sub\n        /* \"#utility.yul\":4082:4083   */\n      0x00\n        /* \"#utility.yul\":4071:4080   */\n      dup4\n        /* \"#utility.yul\":4067:4084   */\n      add\n        /* \"#utility.yul\":4060:4107   */\n      mstore\n        /* \"#utility.yul\":4124:4255   */\n      tag_74\n        /* \"#utility.yul\":4250:4254   */\n      dup2\n        /* \"#utility.yul\":4124:4255   */\n      tag_41\n      jump\t// in\n    tag_74:\n        /* \"#utility.yul\":4116:4255   */\n      swap1\n      pop\n        /* \"#utility.yul\":3843:4262   */\n      swap2\n      swap1\n      pop\n      jump\t// out\n\n    auxdata: 0xa26469706673582212204d58ebe8bf352825257938792b4257aa0c25572d8d89148d5ec0e6bbb9d7b49964736f6c63430008150033\n}\n",
				"bytecode": {
					"linkReferences": {},
					"object": "608060405234801561000f575f80fd5b506103f58061001d5f395ff3fe608060405260043610610033575f3560e01c80631998aeef14610037578063ac4bd53a14610041578063d57bde791461006b575b5f80fd5b61003f610095565b005b34801561004c575f80fd5b506100556101ec565b6040516100629190610254565b60405180910390f35b348015610076575f80fd5b5061007f61020f565b60405161008c9190610285565b60405180910390f35b60015434116100d9576040517f08c379a00000000000000000000000000000000000000000000000000000000081526004016100d0906102f8565b60405180910390fd5b5f805f9054906101000a900473ffffffffffffffffffffffffffffffffffffffff1673ffffffffffffffffffffffffffffffffffffffff1660015460405161012090610343565b5f6040518083038185875af1925050503d805f811461015a576040519150601f19603f3d011682016040523d82523d5f602084013e61015f565b606091505b50509050806101a3576040517f08c379a000000000000000000000000000000000000000000000000000000000815260040161019a906103a1565b60405180910390fd5b34600181905550335f806101000a81548173ffffffffffffffffffffffffffffffffffffffff021916908373ffffffffffffffffffffffffffffffffffffffff16021790555050565b5f8054906101000a900473ffffffffffffffffffffffffffffffffffffffff1681565b60015481565b5f73ffffffffffffffffffffffffffffffffffffffff82169050919050565b5f61023e82610215565b9050919050565b61024e81610234565b82525050565b5f6020820190506102675f830184610245565b92915050565b5f819050919050565b61027f8161026d565b82525050565b5f6020820190506102985f830184610276565b92915050565b5f82825260208201905092915050565b7f547279206e6578742074696d65000000000000000000000000000000000000005f82015250565b5f6102e2600d8361029e565b91506102ed826102ae565b602082019050919050565b5f6020820190508181035f83015261030f816102d6565b9050919050565b5f81905092915050565b50565b5f61032e5f83610316565b915061033982610320565b5f82019050919050565b5f61034d82610323565b9150819050919050565b7f4661696c656420746f2073656e642065746865720000000000000000000000005f82015250565b5f61038b60148361029e565b915061039682610357565b602082019050919050565b5f6020820190508181035f8301526103b88161037f565b905091905056fea26469706673582212204d58ebe8bf352825257938792b4257aa0c25572d8d89148d5ec0e6bbb9d7b49964736f6c63430008150033",
					"opcodes": "PUSH1 0x80 PUSH1 0x40 MSTORE CALLVALUE DUP1 ISZERO PUSH2 0xF JUMPI PUSH0 DUP1 REVERT JUMPDEST POP PUSH2 0x3F5 DUP1 PUSH2 0x1D PUSH0 CODECOPY PUSH0 RETURN INVALID PUSH1 0x80 PUSH1 0x40 MSTORE PUSH1 0x4 CALLDATASIZE LT PUSH2 0x33 JUMPI PUSH0 CALLDATALOAD PUSH1 0xE0 SHR DUP1 PUSH4 0x1998AEEF EQ PUSH2 0x37 JUMPI DUP1 PUSH4 0xAC4BD53A EQ PUSH2 0x41 JUMPI DUP1 PUSH4 0xD57BDE79 EQ PUSH2 0x6B JUMPI JUMPDEST PUSH0 DUP1 REVERT JUMPDEST PUSH2 0x3F PUSH2 0x95 JUMP JUMPDEST STOP JUMPDEST CALLVALUE DUP1 ISZERO PUSH2 0x4C JUMPI PUSH0 DUP1 REVERT JUMPDEST POP PUSH2 0x55 PUSH2 0x1EC JUMP JUMPDEST PUSH1 0x40 MLOAD PUSH2 0x62 SWAP2 SWAP1 PUSH2 0x254 JUMP JUMPDEST PUSH1 0x40 MLOAD DUP1 SWAP2 SUB SWAP1 RETURN JUMPDEST CALLVALUE DUP1 ISZERO PUSH2 0x76 JUMPI PUSH0 DUP1 REVERT JUMPDEST POP PUSH2 0x7F PUSH2 0x20F JUMP JUMPDEST PUSH1 0x40 MLOAD PUSH2 0x8C SWAP2 SWAP1 PUSH2 0x285 JUMP JUMPDEST PUSH1 0x40 MLOAD DUP1 SWAP2 SUB SWAP1 RETURN JUMPDEST PUSH1 0x1 SLOAD CALLVALUE GT PUSH2 0xD9 JUMPI PUSH1 0x40 MLOAD PUSH32 0x8C379A000000000000000000000000000000000000000000000000000000000 DUP2 MSTORE PUSH1 0x4 ADD PUSH2 0xD0 SWAP1 PUSH2 0x2F8 JUMP JUMPDEST PUSH1 0x40 MLOAD DUP1 SWAP2 SUB SWAP1 REVERT JUMPDEST PUSH0 DUP1 PUSH0 SWAP1 SLOAD SWAP1 PUSH2 0x100 EXP SWAP1 DIV PUSH20 0xFFFFFFFFFFFFFFFFFFFFFFFFFFFFFFFFFFFFFFFF AND PUSH20 0xFFFFFFFFFFFFFFFFFFFFFFFFFFFFFFFFFFFFFFFF AND PUSH1 0x1 SLOAD PUSH1 0x40 MLOAD PUSH2 0x120 SWAP1 PUSH2 0x343 JUMP JUMPDEST PUSH0 PUSH1 0x40 MLOAD DUP1 DUP4 SUB DUP2 DUP6 DUP8 GAS CALL SWAP3 POP POP POP RETURNDATASIZE DUP1 PUSH0 DUP2 EQ PUSH2 0x15A JUMPI PUSH1 0x40 MLOAD SWAP2 POP PUSH1 0x1F NOT PUSH1 0x3F RETURNDATASIZE ADD AND DUP3 ADD PUSH1 0x40 MSTORE RETURNDATASIZE DUP3 MSTORE RETURNDATASIZE PUSH0 PUSH1 0x20 DUP5 ADD RETURNDATACOPY PUSH2 0x15F JUMP JUMPDEST PUSH1 0x60 SWAP2 POP JUMPDEST POP POP SWAP1 POP DUP1 PUSH2 0x1A3 JUMPI PUSH1 0x40 MLOAD PUSH32 0x8C379A000000000000000000000000000000000000000000000000000000000 DUP2 MSTORE PUSH1 0x4 ADD PUSH2 0x19A SWAP1 PUSH2 0x3A1 JUMP JUMPDEST PUSH1 0x40 MLOAD DUP1 SWAP2 SUB SWAP1 REVERT JUMPDEST CALLVALUE PUSH1 0x1 DUP2 SWAP1 SSTORE POP CALLER PUSH0 DUP1 PUSH2 0x100 EXP DUP2 SLOAD DUP2 PUSH20 0xFFFFFFFFFFFFFFFFFFFFFFFFFFFFFFFFFFFFFFFF MUL NOT AND SWAP1 DUP4 PUSH20 0xFFFFFFFFFFFFFFFFFFFFFFFFFFFFFFFFFFFFFFFF AND MUL OR SWAP1 SSTORE POP POP JUMP JUMPDEST PUSH0 DUP1 SLOAD SWAP1 PUSH2 0x100 EXP SWAP1 DIV PUSH20 0xFFFFFFFFFFFFFFFFFFFFFFFFFFFFFFFFFFFFFFFF AND DUP2 JUMP JUMPDEST PUSH1 0x1 SLOAD DUP2 JUMP JUMPDEST PUSH0 PUSH20 0xFFFFFFFFFFFFFFFFFFFFFFFFFFFFFFFFFFFFFFFF DUP3 AND SWAP1 POP SWAP2 SWAP1 POP JUMP JUMPDEST PUSH0 PUSH2 0x23E DUP3 PUSH2 0x215 JUMP JUMPDEST SWAP1 POP SWAP2 SWAP1 POP JUMP JUMPDEST PUSH2 0x24E DUP2 PUSH2 0x234 JUMP JUMPDEST DUP3 MSTORE POP POP JUMP JUMPDEST PUSH0 PUSH1 0x20 DUP3 ADD SWAP1 POP PUSH2 0x267 PUSH0 DUP4 ADD DUP5 PUSH2 0x245 JUMP JUMPDEST SWAP3 SWAP2 POP POP JUMP JUMPDEST PUSH0 DUP2 SWAP1 POP SWAP2 SWAP1 POP JUMP JUMPDEST PUSH2 0x27F DUP2 PUSH2 0x26D JUMP JUMPDEST DUP3 MSTORE POP POP JUMP JUMPDEST PUSH0 PUSH1 0x20 DUP3 ADD SWAP1 POP PUSH2 0x298 PUSH0 DUP4 ADD DUP5 PUSH2 0x276 JUMP JUMPDEST SWAP3 SWAP2 POP POP JUMP JUMPDEST PUSH0 DUP3 DUP3 MSTORE PUSH1 0x20 DUP3 ADD SWAP1 POP SWAP3 SWAP2 POP POP JUMP JUMPDEST PUSH32 0x547279206E6578742074696D6500000000000000000000000000000000000000 PUSH0 DUP3 ADD MSTORE POP JUMP JUMPDEST PUSH0 PUSH2 0x2E2 PUSH1 0xD DUP4 PUSH2 0x29E JUMP JUMPDEST SWAP2 POP PUSH2 0x2ED DUP3 PUSH2 0x2AE JUMP JUMPDEST PUSH1 0x20 DUP3 ADD SWAP1 POP SWAP2 SWAP1 POP JUMP JUMPDEST PUSH0 PUSH1 0x20 DUP3 ADD SWAP1 POP DUP2 DUP2 SUB PUSH0 DUP4 ADD MSTORE PUSH2 0x30F DUP2 PUSH2 0x2D6 JUMP JUMPDEST SWAP1 POP SWAP2 SWAP1 POP JUMP JUMPDEST PUSH0 DUP2 SWAP1 POP SWAP3 SWAP2 POP POP JUMP JUMPDEST POP JUMP JUMPDEST PUSH0 PUSH2 0x32E PUSH0 DUP4 PUSH2 0x316 JUMP JUMPDEST SWAP2 POP PUSH2 0x339 DUP3 PUSH2 0x320 JUMP JUMPDEST PUSH0 DUP3 ADD SWAP1 POP SWAP2 SWAP1 POP JUMP JUMPDEST PUSH0 PUSH2 0x34D DUP3 PUSH2 0x323 JUMP JUMPDEST SWAP2 POP DUP2 SWAP1 POP SWAP2 SWAP1 POP JUMP JUMPDEST PUSH32 0x4661696C656420746F2073656E64206574686572000000000000000000000000 PUSH0 DUP3 ADD MSTORE POP JUMP JUMPDEST PUSH0 PUSH2 0x38B PUSH1 0x14 DUP4 PUSH2 0x29E JUMP JUMPDEST SWAP2 POP PUSH2 0x396 DUP3 PUSH2 0x357 JUMP JUMPDEST PUSH1 0x20 DUP3 ADD SWAP1 POP SWAP2 SWAP1 POP JUMP JUMPDEST PUSH0 PUSH1 0x20 DUP3 ADD SWAP1 POP DUP2 DUP2 SUB PUSH0 DUP4 ADD MSTORE PUSH2 0x3B8 DUP2 PUSH2 0x37F JUMP JUMPDEST SWAP1 POP SWAP2 SWAP1 POP JUMP INVALID LOG2 PUSH5 0x6970667358 0x22 SLT KECCAK256 0x4D PC 0xEB 0xE8 0xBF CALLDATALOAD 0x28 0x25 0x25 PUSH26 0x38792B4257AA0C25572D8D89148D5EC0E6BBB9D7B49964736F6C PUSH4 0x43000815 STOP CALLER "
				},
				"gasEstimates": {
					"creation": {
						"codeDepositCost": "202600",
						"executionCost": "243",
						"totalCost": "202843"
					},
					"external": {
						"bid()": "infinite",
						"currentLeader()": "2505",
						"highestBid()": "2447"
					}
				},
				"methodIdentifiers": {
					"bid()": "1998aeef",
					"currentLeader()": "ac4bd53a",
					"highestBid()": "d57bde79"
				}
			},
			"storageLayout": {
				"storage": [
					{
						"astId": 3,
						"contract": "DOS/Auction.sol:Auction",
						"label": "currentLeader",
						"offset": 0,
						"slot": "0",
						"type": "t_address_payable"
					},
					{
						"astId": 5,
						"contract": "DOS/Auction.sol:Auction",
						"label": "highestBid",
						"offset": 0,
						"slot": "1",
						"type": "t_uint256"
					}
				],
				"types": {
					"t_address_payable": {
						"encoding": "inplace",
						"label": "address payable",
						"numberOfBytes": "20"
					},
					"t_uint256": {
						"encoding": "inplace",
						"label": "uint256",
						"numberOfBytes": "32"
					}
				}
			},
			"userdoc": {
				"kind": "user",
				"methods": {},
				"version": 1
			}
		}
	}
}