{
	"data": {
		"bytecode": {
			"linkReferences": {},
			"object": "608060405234801561000f575f80fd5b506105228061001d5f395ff3fe608060405234801561000f575f80fd5b5060043610610034575f3560e01c80630e4628dd146100385780636a9d8b8914610068575b5f80fd5b610052600480360381019061004d91906101dc565b610084565b60405161005f9190610291565b60405180910390f35b610082600480360381019061007d91906103dd565b610102565b005b60605f8290508073ffffffffffffffffffffffffffffffffffffffff16634976fd7d6040518163ffffffff1660e01b81526004015f60405180830381865afa1580156100d2573d5f803e3d5ffd5b505050506040513d5f823e3d601f19601f820116820180604052508101906100fa91906104a5565b915050919050565b5f8290508073ffffffffffffffffffffffffffffffffffffffff166350222c43836040518263ffffffff1660e01b815260040161013f9190610291565b5f604051808303815f87803b158015610156575f80fd5b505af1158015610168573d5f803e3d5ffd5b50505050505050565b5f604051905090565b5f80fd5b5f80fd5b5f73ffffffffffffffffffffffffffffffffffffffff82169050919050565b5f6101ab82610182565b9050919050565b6101bb816101a1565b81146101c5575f80fd5b50565b5f813590506101d6816101b2565b92915050565b5f602082840312156101f1576101f061017a565b5b5f6101fe848285016101c8565b91505092915050565b5f81519050919050565b5f82825260208201905092915050565b5f5b8381101561023e578082015181840152602081019050610223565b5f8484015250505050565b5f601f19601f8301169050919050565b5f61026382610207565b61026d8185610211565b935061027d818560208601610221565b61028681610249565b840191505092915050565b5f6020820190508181035f8301526102a98184610259565b905092915050565b5f80fd5b5f80fd5b7f4e487b71000000000000000000000000000000000000000000000000000000005f52604160045260245ffd5b6102ef82610249565b810181811067ffffffffffffffff8211171561030e5761030d6102b9565b5b80604052505050565b5f610320610171565b905061032c82826102e6565b919050565b5f67ffffffffffffffff82111561034b5761034a6102b9565b5b61035482610249565b9050602081019050919050565b828183375f83830152505050565b5f61038161037c84610331565b610317565b90508281526020810184848401111561039d5761039c6102b5565b5b6103a8848285610361565b509392505050565b5f82601f8301126103c4576103c36102b1565b5b81356103d484826020860161036f565b91505092915050565b5f80604083850312156103f3576103f261017a565b5b5f610400858286016101c8565b925050602083013567ffffffffffffffff8111156104215761042061017e565b5b61042d858286016103b0565b9150509250929050565b5f61044961044484610331565b610317565b905082815260208101848484011115610465576104646102b5565b5b610470848285610221565b509392505050565b5f82601f83011261048c5761048b6102b1565b5b815161049c848260208601610437565b91505092915050565b5f602082840312156104ba576104b961017a565b5b5f82015167ffffffffffffffff8111156104d7576104d661017e565b5b6104e384828501610478565b9150509291505056fea2646970667358221220fe8a77f730bc211a7fea01c61d6bf4e901754048daa1593d46b1fe873340d0d964736f6c63430008150033",
			"opcodes": "PUSH1 0x80 PUSH1 0x40 MSTORE CALLVALUE DUP1 ISZERO PUSH2 0xF JUMPI PUSH0 DUP1 REVERT JUMPDEST POP PUSH2 0x522 DUP1 PUSH2 0x1D PUSH0 CODECOPY PUSH0 RETURN INVALID PUSH1 0x80 PUSH1 0x40 MSTORE CALLVALUE DUP1 ISZERO PUSH2 0xF JUMPI PUSH0 DUP1 REVERT JUMPDEST POP PUSH1 0x4 CALLDATASIZE LT PUSH2 0x34 JUMPI PUSH0 CALLDATALOAD PUSH1 0xE0 SHR DUP1 PUSH4 0xE4628DD EQ PUSH2 0x38 JUMPI DUP1 PUSH4 0x6A9D8B89 EQ PUSH2 0x68 JUMPI JUMPDEST PUSH0 DUP1 REVERT JUMPDEST PUSH2 0x52 PUSH1 0x4 DUP1 CALLDATASIZE SUB DUP2 ADD SWAP1 PUSH2 0x4D SWAP2 SWAP1 PUSH2 0x1DC JUMP JUMPDEST PUSH2 0x84 JUMP JUMPDEST PUSH1 0x40 MLOAD PUSH2 0x5F SWAP2 SWAP1 PUSH2 0x291 JUMP JUMPDEST PUSH1 0x40 MLOAD DUP1 SWAP2 SUB SWAP1 RETURN JUMPDEST PUSH2 0x82 PUSH1 0x4 DUP1 CALLDATASIZE SUB DUP2 ADD SWAP1 PUSH2 0x7D SWAP2 SWAP1 PUSH2 0x3DD JUMP JUMPDEST PUSH2 0x102 JUMP JUMPDEST STOP JUMPDEST PUSH1 0x60 PUSH0 DUP3 SWAP1 POP DUP1 PUSH20 0xFFFFFFFFFFFFFFFFFFFFFFFFFFFFFFFFFFFFFFFF AND PUSH4 0x4976FD7D PUSH1 0x40 MLOAD DUP2 PUSH4 0xFFFFFFFF AND PUSH1 0xE0 SHL DUP2 MSTORE PUSH1 0x4 ADD PUSH0 PUSH1 0x40 MLOAD DUP1 DUP4 SUB DUP2 DUP7 GAS STATICCALL ISZERO DUP1 ISZERO PUSH2 0xD2 JUMPI RETURNDATASIZE PUSH0 DUP1 RETURNDATACOPY RETURNDATASIZE PUSH0 REVERT JUMPDEST POP POP POP POP PUSH1 0x40 MLOAD RETURNDATASIZE PUSH0 DUP3 RETURNDATACOPY RETURNDATASIZE PUSH1 0x1F NOT PUSH1 0x1F DUP3 ADD AND DUP3 ADD DUP1 PUSH1 0x40 MSTORE POP DUP2 ADD SWAP1 PUSH2 0xFA SWAP2 SWAP1 PUSH2 0x4A5 JUMP JUMPDEST SWAP2 POP POP SWAP2 SWAP1 POP JUMP JUMPDEST PUSH0 DUP3 SWAP1 POP DUP1 PUSH20 0xFFFFFFFFFFFFFFFFFFFFFFFFFFFFFFFFFFFFFFFF AND PUSH4 0x50222C43 DUP4 PUSH1 0x40 MLOAD DUP3 PUSH4 0xFFFFFFFF AND PUSH1 0xE0 SHL DUP2 MSTORE PUSH1 0x4 ADD PUSH2 0x13F SWAP2 SWAP1 PUSH2 0x291 JUMP JUMPDEST PUSH0 PUSH1 0x40 MLOAD DUP1 DUP4 SUB DUP2 PUSH0 DUP8 DUP1 EXTCODESIZE ISZERO DUP1 ISZERO PUSH2 0x156 JUMPI PUSH0 DUP1 REVERT JUMPDEST POP GAS CALL ISZERO DUP1 ISZERO PUSH2 0x168 JUMPI RETURNDATASIZE PUSH0 DUP1 RETURNDATACOPY RETURNDATASIZE PUSH0 REVERT JUMPDEST POP POP POP POP POP POP POP JUMP JUMPDEST PUSH0 PUSH1 0x40 MLOAD SWAP1 POP SWAP1 JUMP JUMPDEST PUSH0 DUP1 REVERT JUMPDEST PUSH0 DUP1 REVERT JUMPDEST PUSH0 PUSH20 0xFFFFFFFFFFFFFFFFFFFFFFFFFFFFFFFFFFFFFFFF DUP3 AND SWAP1 POP SWAP2 SWAP1 POP JUMP JUMPDEST PUSH0 PUSH2 0x1AB DUP3 PUSH2 0x182 JUMP JUMPDEST SWAP1 POP SWAP2 SWAP1 POP JUMP JUMPDEST PUSH2 0x1BB DUP2 PUSH2 0x1A1 JUMP JUMPDEST DUP2 EQ PUSH2 0x1C5 JUMPI PUSH0 DUP1 REVERT JUMPDEST POP JUMP JUMPDEST PUSH0 DUP2 CALLDATALOAD SWAP1 POP PUSH2 0x1D6 DUP2 PUSH2 0x1B2 JUMP JUMPDEST SWAP3 SWAP2 POP POP JUMP JUMPDEST PUSH0 PUSH1 0x20 DUP3 DUP5 SUB SLT ISZERO PUSH2 0x1F1 JUMPI PUSH2 0x1F0 PUSH2 0x17A JUMP JUMPDEST JUMPDEST PUSH0 PUSH2 0x1FE DUP5 DUP3 DUP6 ADD PUSH2 0x1C8 JUMP JUMPDEST SWAP2 POP POP SWAP3 SWAP2 POP POP JUMP JUMPDEST PUSH0 DUP2 MLOAD SWAP1 POP SWAP2 SWAP1 POP JUMP JUMPDEST PUSH0 DUP3 DUP3 MSTORE PUSH1 0x20 DUP3 ADD SWAP1 POP SWAP3 SWAP2 POP POP JUMP JUMPDEST PUSH0 JUMPDEST DUP4 DUP2 LT ISZERO PUSH2 0x23E JUMPI DUP1 DUP3 ADD MLOAD DUP2 DUP5 ADD MSTORE PUSH1 0x20 DUP2 ADD SWAP1 POP PUSH2 0x223 JUMP JUMPDEST PUSH0 DUP5 DUP5 ADD MSTORE POP POP POP POP JUMP JUMPDEST PUSH0 PUSH1 0x1F NOT PUSH1 0x1F DUP4 ADD AND SWAP1 POP SWAP2 SWAP1 POP JUMP JUMPDEST PUSH0 PUSH2 0x263 DUP3 PUSH2 0x207 JUMP JUMPDEST PUSH2 0x26D DUP2 DUP6 PUSH2 0x211 JUMP JUMPDEST SWAP4 POP PUSH2 0x27D DUP2 DUP6 PUSH1 0x20 DUP7 ADD PUSH2 0x221 JUMP JUMPDEST PUSH2 0x286 DUP2 PUSH2 0x249 JUMP JUMPDEST DUP5 ADD SWAP2 POP POP SWAP3 SWAP2 POP POP JUMP JUMPDEST PUSH0 PUSH1 0x20 DUP3 ADD SWAP1 POP DUP2 DUP2 SUB PUSH0 DUP4 ADD MSTORE PUSH2 0x2A9 DUP2 DUP5 PUSH2 0x259 JUMP JUMPDEST SWAP1 POP SWAP3 SWAP2 POP POP JUMP JUMPDEST PUSH0 DUP1 REVERT JUMPDEST PUSH0 DUP1 REVERT JUMPDEST PUSH32 0x4E487B7100000000000000000000000000000000000000000000000000000000 PUSH0 MSTORE PUSH1 0x41 PUSH1 0x4 MSTORE PUSH1 0x24 PUSH0 REVERT JUMPDEST PUSH2 0x2EF DUP3 PUSH2 0x249 JUMP JUMPDEST DUP2 ADD DUP2 DUP2 LT PUSH8 0xFFFFFFFFFFFFFFFF DUP3 GT OR ISZERO PUSH2 0x30E JUMPI PUSH2 0x30D PUSH2 0x2B9 JUMP JUMPDEST JUMPDEST DUP1 PUSH1 0x40 MSTORE POP POP POP JUMP JUMPDEST PUSH0 PUSH2 0x320 PUSH2 0x171 JUMP JUMPDEST SWAP1 POP PUSH2 0x32C DUP3 DUP3 PUSH2 0x2E6 JUMP JUMPDEST SWAP2 SWAP1 POP JUMP JUMPDEST PUSH0 PUSH8 0xFFFFFFFFFFFFFFFF DUP3 GT ISZERO PUSH2 0x34B JUMPI PUSH2 0x34A PUSH2 0x2B9 JUMP JUMPDEST JUMPDEST PUSH2 0x354 DUP3 PUSH2 0x249 JUMP JUMPDEST SWAP1 POP PUSH1 0x20 DUP2 ADD SWAP1 POP SWAP2 SWAP1 POP JUMP JUMPDEST DUP3 DUP2 DUP4 CALLDATACOPY PUSH0 DUP4 DUP4 ADD MSTORE POP POP POP JUMP JUMPDEST PUSH0 PUSH2 0x381 PUSH2 0x37C DUP5 PUSH2 0x331 JUMP JUMPDEST PUSH2 0x317 JUMP JUMPDEST SWAP1 POP DUP3 DUP2 MSTORE PUSH1 0x20 DUP2 ADD DUP5 DUP5 DUP5 ADD GT ISZERO PUSH2 0x39D JUMPI PUSH2 0x39C PUSH2 0x2B5 JUMP JUMPDEST JUMPDEST PUSH2 0x3A8 DUP5 DUP3 DUP6 PUSH2 0x361 JUMP JUMPDEST POP SWAP4 SWAP3 POP POP POP JUMP JUMPDEST PUSH0 DUP3 PUSH1 0x1F DUP4 ADD SLT PUSH2 0x3C4 JUMPI PUSH2 0x3C3 PUSH2 0x2B1 JUMP JUMPDEST JUMPDEST DUP2 CALLDATALOAD PUSH2 0x3D4 DUP5 DUP3 PUSH1 0x20 DUP7 ADD PUSH2 0x36F JUMP JUMPDEST SWAP2 POP POP SWAP3 SWAP2 POP POP JUMP JUMPDEST PUSH0 DUP1 PUSH1 0x40 DUP4 DUP6 SUB SLT ISZERO PUSH2 0x3F3 JUMPI PUSH2 0x3F2 PUSH2 0x17A JUMP JUMPDEST JUMPDEST PUSH0 PUSH2 0x400 DUP6 DUP3 DUP7 ADD PUSH2 0x1C8 JUMP JUMPDEST SWAP3 POP POP PUSH1 0x20 DUP4 ADD CALLDATALOAD PUSH8 0xFFFFFFFFFFFFFFFF DUP2 GT ISZERO PUSH2 0x421 JUMPI PUSH2 0x420 PUSH2 0x17E JUMP JUMPDEST JUMPDEST PUSH2 0x42D DUP6 DUP3 DUP7 ADD PUSH2 0x3B0 JUMP JUMPDEST SWAP2 POP POP SWAP3 POP SWAP3 SWAP1 POP JUMP JUMPDEST PUSH0 PUSH2 0x449 PUSH2 0x444 DUP5 PUSH2 0x331 JUMP JUMPDEST PUSH2 0x317 JUMP JUMPDEST SWAP1 POP DUP3 DUP2 MSTORE PUSH1 0x20 DUP2 ADD DUP5 DUP5 DUP5 ADD GT ISZERO PUSH2 0x465 JUMPI PUSH2 0x464 PUSH2 0x2B5 JUMP JUMPDEST JUMPDEST PUSH2 0x470 DUP5 DUP3 DUP6 PUSH2 0x221 JUMP JUMPDEST POP SWAP4 SWAP3 POP POP POP JUMP JUMPDEST PUSH0 DUP3 PUSH1 0x1F DUP4 ADD SLT PUSH2 0x48C JUMPI PUSH2 0x48B PUSH2 0x2B1 JUMP JUMPDEST JUMPDEST DUP2 MLOAD PUSH2 0x49C DUP5 DUP3 PUSH1 0x20 DUP7 ADD PUSH2 0x437 JUMP JUMPDEST SWAP2 POP POP SWAP3 SWAP2 POP POP JUMP JUMPDEST PUSH0 PUSH1 0x20 DUP3 DUP5 SUB SLT ISZERO PUSH2 0x4BA JUMPI PUSH2 0x4B9 PUSH2 0x17A JUMP JUMPDEST JUMPDEST PUSH0 DUP3 ADD MLOAD PUSH8 0xFFFFFFFFFFFFFFFF DUP2 GT ISZERO PUSH2 0x4D7 JUMPI PUSH2 0x4D6 PUSH2 0x17E JUMP JUMPDEST JUMPDEST PUSH2 0x4E3 DUP5 DUP3 DUP6 ADD PUSH2 0x478 JUMP JUMPDEST SWAP2 POP POP SWAP3 SWAP2 POP POP JUMP INVALID LOG2 PUSH5 0x6970667358 0x22 SLT KECCAK256 INVALID DUP11 PUSH24 0xF730BC211A7FEA01C61D6BF4E901754048DAA1593D46B1FE DUP8 CALLER BLOCKHASH 0xD0 0xD9 PUSH5 0x736F6C6343 STOP ADDMOD ISZERO STOP CALLER "
		},
		"gasEstimates": {
			"creation": {
				"codeDepositCost": "262800",
				"executionCost": "304",
				"totalCost": "263104"
			},
			"external": {
				"getMsgFromA(address)": "infinite",
				"setMsgFromA(address,string)": "infinite"
			}
		},
		"methodIdentifiers": {
			"getMsgFromA(address)": "0e4628dd",
			"setMsgFromA(address,string)": "6a9d8b89"
		}
	},
	"abi": [
		{
			"inputs": [
				{
					"internalType": "address",
					"name": "contractAddress",
					"type": "address"
				}
			],
			"name": "getMsgFromA",
			"outputs": [
				{
					"internalType": "string",
					"name": "",
					"type": "string"
				}
			],
			"stateMutability": "view",
			"type": "function"
		},
		{
			"inputs": [
				{
					"internalType": "address",
					"name": "contractAddress",
					"type": "address"
				},
				{
					"internalType": "string",
					"name": "_msg",
					"type": "string"
				}
			],
			"name": "setMsgFromA",
			"outputs": [],
			"stateMutability": "nonpayable",
			"type": "function"
		}
	]
}