{
	"data": {
		"bytecode": {
			"linkReferences": {},
			"object": "608060405234801561000f575f80fd5b50610c7a8061001d5f395ff3fe608060405260043610610037575f3560e01c80630e4628dd1461004b57806355e46476146100875780636a9d8b89146100b15761003e565b3661003e57005b348015610049575f80fd5b005b348015610056575f80fd5b50610071600480360381019061006c91906102a6565b6100d9565b60405161007e919061035b565b60405180910390f35b348015610092575f80fd5b5061009b610157565b6040516100a8919061038a565b60405180910390f35b3480156100bc575f80fd5b506100d760048036038101906100d291906104cf565b6101bf565b005b60605f8290508073ffffffffffffffffffffffffffffffffffffffff16634976fd7d6040518163ffffffff1660e01b81526004015f60405180830381865afa158015610127573d5f803e3d5ffd5b505050506040513d5f823e3d601f19601f8201168201806040525081019061014f9190610597565b915050919050565b5f806040516101659061022e565b604051809103905ff08015801561017e573d5f803e3d5ffd5b5090507fdc2c6c4b7c66d0c34be0cdd110150da1c0820cfd570213bd74fc6daa5f04444b816040516101b0919061038a565b60405180910390a18091505090565b5f8290508073ffffffffffffffffffffffffffffffffffffffff166350222c43836040518263ffffffff1660e01b81526004016101fc919061035b565b5f604051808303815f87803b158015610213575f80fd5b505af1158015610225573d5f803e3d5ffd5b50505050505050565b610666806105df83390190565b5f604051905090565b5f80fd5b5f80fd5b5f73ffffffffffffffffffffffffffffffffffffffff82169050919050565b5f6102758261024c565b9050919050565b6102858161026b565b811461028f575f80fd5b50565b5f813590506102a08161027c565b92915050565b5f602082840312156102bb576102ba610244565b5b5f6102c884828501610292565b91505092915050565b5f81519050919050565b5f82825260208201905092915050565b5f5b838110156103085780820151818401526020810190506102ed565b5f8484015250505050565b5f601f19601f8301169050919050565b5f61032d826102d1565b61033781856102db565b93506103478185602086016102eb565b61035081610313565b840191505092915050565b5f6020820190508181035f8301526103738184610323565b905092915050565b6103848161026b565b82525050565b5f60208201905061039d5f83018461037b565b92915050565b5f80fd5b5f80fd5b7f4e487b71000000000000000000000000000000000000000000000000000000005f52604160045260245ffd5b6103e182610313565b810181811067ffffffffffffffff82111715610400576103ff6103ab565b5b80604052505050565b5f61041261023b565b905061041e82826103d8565b919050565b5f67ffffffffffffffff82111561043d5761043c6103ab565b5b61044682610313565b9050602081019050919050565b828183375f83830152505050565b5f61047361046e84610423565b610409565b90508281526020810184848401111561048f5761048e6103a7565b5b61049a848285610453565b509392505050565b5f82601f8301126104b6576104b56103a3565b5b81356104c6848260208601610461565b91505092915050565b5f80604083850312156104e5576104e4610244565b5b5f6104f285828601610292565b925050602083013567ffffffffffffffff81111561051357610512610248565b5b61051f858286016104a2565b9150509250929050565b5f61053b61053684610423565b610409565b905082815260208101848484011115610557576105566103a7565b5b6105628482856102eb565b509392505050565b5f82601f83011261057e5761057d6103a3565b5b815161058e848260208601610529565b91505092915050565b5f602082840312156105ac576105ab610244565b5b5f82015167ffffffffffffffff8111156105c9576105c8610248565b5b6105d58482850161056a565b9150509291505056fe608060405234801561000f575f80fd5b506106498061001d5f395ff3fe608060405234801561000f575f80fd5b5060043610610034575f3560e01c80634976fd7d1461003857806350222c4314610056575b5f80fd5b610040610072565b60405161004d919061019d565b60405180910390f35b610070600480360381019061006b91906102fa565b610101565b005b60605f80546100809061036e565b80601f01602080910402602001604051908101604052809291908181526020018280546100ac9061036e565b80156100f75780601f106100ce576101008083540402835291602001916100f7565b820191905f5260205f20905b8154815290600101906020018083116100da57829003601f168201915b5050505050905090565b805f908161010f9190610544565b5050565b5f81519050919050565b5f82825260208201905092915050565b5f5b8381101561014a57808201518184015260208101905061012f565b5f8484015250505050565b5f601f19601f8301169050919050565b5f61016f82610113565b610179818561011d565b935061018981856020860161012d565b61019281610155565b840191505092915050565b5f6020820190508181035f8301526101b58184610165565b905092915050565b5f604051905090565b5f80fd5b5f80fd5b5f80fd5b5f80fd5b7f4e487b71000000000000000000000000000000000000000000000000000000005f52604160045260245ffd5b61020c82610155565b810181811067ffffffffffffffff8211171561022b5761022a6101d6565b5b80604052505050565b5f61023d6101bd565b90506102498282610203565b919050565b5f67ffffffffffffffff821115610268576102676101d6565b5b61027182610155565b9050602081019050919050565b828183375f83830152505050565b5f61029e6102998461024e565b610234565b9050828152602081018484840111156102ba576102b96101d2565b5b6102c584828561027e565b509392505050565b5f82601f8301126102e1576102e06101ce565b5b81356102f184826020860161028c565b91505092915050565b5f6020828403121561030f5761030e6101c6565b5b5f82013567ffffffffffffffff81111561032c5761032b6101ca565b5b610338848285016102cd565b91505092915050565b7f4e487b71000000000000000000000000000000000000000000000000000000005f52602260045260245ffd5b5f600282049050600182168061038557607f821691505b60208210810361039857610397610341565b5b50919050565b5f819050815f5260205f209050919050565b5f6020601f8301049050919050565b5f82821b905092915050565b5f600883026103fa7fffffffffffffffffffffffffffffffffffffffffffffffffffffffffffffffff826103bf565b61040486836103bf565b95508019841693508086168417925050509392505050565b5f819050919050565b5f819050919050565b5f61044861044361043e8461041c565b610425565b61041c565b9050919050565b5f819050919050565b6104618361042e565b61047561046d8261044f565b8484546103cb565b825550505050565b5f90565b61048961047d565b610494818484610458565b505050565b5b818110156104b7576104ac5f82610481565b60018101905061049a565b5050565b601f8211156104fc576104cd8161039e565b6104d6846103b0565b810160208510156104e5578190505b6104f96104f1856103b0565b830182610499565b50505b505050565b5f82821c905092915050565b5f61051c5f1984600802610501565b1980831691505092915050565b5f610534838361050d565b9150826002028217905092915050565b61054d82610113565b67ffffffffffffffff811115610566576105656101d6565b5b610570825461036e565b61057b8282856104bb565b5f60209050601f8311600181146105ac575f841561059a578287015190505b6105a48582610529565b86555061060b565b601f1984166105ba8661039e565b5f5b828110156105e1578489015182556001820191506020850194506020810190506105bc565b868310156105fe57848901516105fa601f89168261050d565b8355505b6001600288020188555050505b50505050505056fea2646970667358221220d171eaada4cab6346af2d1dae55b7ae6d9534692d4ed81d39c289bee67996e7664736f6c63430008150033a26469706673582212203187f38c0e2656b8fcc31b42e4d75242ec6e035d5ce918e118dd22ac9995efe064736f6c63430008150033",
			"opcodes": "PUSH1 0x80 PUSH1 0x40 MSTORE CALLVALUE DUP1 ISZERO PUSH2 0xF JUMPI PUSH0 DUP1 REVERT JUMPDEST POP PUSH2 0xC7A DUP1 PUSH2 0x1D PUSH0 CODECOPY PUSH0 RETURN INVALID PUSH1 0x80 PUSH1 0x40 MSTORE PUSH1 0x4 CALLDATASIZE LT PUSH2 0x37 JUMPI PUSH0 CALLDATALOAD PUSH1 0xE0 SHR DUP1 PUSH4 0xE4628DD EQ PUSH2 0x4B JUMPI DUP1 PUSH4 0x55E46476 EQ PUSH2 0x87 JUMPI DUP1 PUSH4 0x6A9D8B89 EQ PUSH2 0xB1 JUMPI PUSH2 0x3E JUMP JUMPDEST CALLDATASIZE PUSH2 0x3E JUMPI STOP JUMPDEST CALLVALUE DUP1 ISZERO PUSH2 0x49 JUMPI PUSH0 DUP1 REVERT JUMPDEST STOP JUMPDEST CALLVALUE DUP1 ISZERO PUSH2 0x56 JUMPI PUSH0 DUP1 REVERT JUMPDEST POP PUSH2 0x71 PUSH1 0x4 DUP1 CALLDATASIZE SUB DUP2 ADD SWAP1 PUSH2 0x6C SWAP2 SWAP1 PUSH2 0x2A6 JUMP JUMPDEST PUSH2 0xD9 JUMP JUMPDEST PUSH1 0x40 MLOAD PUSH2 0x7E SWAP2 SWAP1 PUSH2 0x35B JUMP JUMPDEST PUSH1 0x40 MLOAD DUP1 SWAP2 SUB SWAP1 RETURN JUMPDEST CALLVALUE DUP1 ISZERO PUSH2 0x92 JUMPI PUSH0 DUP1 REVERT JUMPDEST POP PUSH2 0x9B PUSH2 0x157 JUMP JUMPDEST PUSH1 0x40 MLOAD PUSH2 0xA8 SWAP2 SWAP1 PUSH2 0x38A JUMP JUMPDEST PUSH1 0x40 MLOAD DUP1 SWAP2 SUB SWAP1 RETURN JUMPDEST CALLVALUE DUP1 ISZERO PUSH2 0xBC JUMPI PUSH0 DUP1 REVERT JUMPDEST POP PUSH2 0xD7 PUSH1 0x4 DUP1 CALLDATASIZE SUB DUP2 ADD SWAP1 PUSH2 0xD2 SWAP2 SWAP1 PUSH2 0x4CF JUMP JUMPDEST PUSH2 0x1BF JUMP JUMPDEST STOP JUMPDEST PUSH1 0x60 PUSH0 DUP3 SWAP1 POP DUP1 PUSH20 0xFFFFFFFFFFFFFFFFFFFFFFFFFFFFFFFFFFFFFFFF AND PUSH4 0x4976FD7D PUSH1 0x40 MLOAD DUP2 PUSH4 0xFFFFFFFF AND PUSH1 0xE0 SHL DUP2 MSTORE PUSH1 0x4 ADD PUSH0 PUSH1 0x40 MLOAD DUP1 DUP4 SUB DUP2 DUP7 GAS STATICCALL ISZERO DUP1 ISZERO PUSH2 0x127 JUMPI RETURNDATASIZE PUSH0 DUP1 RETURNDATACOPY RETURNDATASIZE PUSH0 REVERT JUMPDEST POP POP POP POP PUSH1 0x40 MLOAD RETURNDATASIZE PUSH0 DUP3 RETURNDATACOPY RETURNDATASIZE PUSH1 0x1F NOT PUSH1 0x1F DUP3 ADD AND DUP3 ADD DUP1 PUSH1 0x40 MSTORE POP DUP2 ADD SWAP1 PUSH2 0x14F SWAP2 SWAP1 PUSH2 0x597 JUMP JUMPDEST SWAP2 POP POP SWAP2 SWAP1 POP JUMP JUMPDEST PUSH0 DUP1 PUSH1 0x40 MLOAD PUSH2 0x165 SWAP1 PUSH2 0x22E JUMP JUMPDEST PUSH1 0x40 MLOAD DUP1 SWAP2 SUB SWAP1 PUSH0 CREATE DUP1 ISZERO DUP1 ISZERO PUSH2 0x17E JUMPI RETURNDATASIZE PUSH0 DUP1 RETURNDATACOPY RETURNDATASIZE PUSH0 REVERT JUMPDEST POP SWAP1 POP PUSH32 0xDC2C6C4B7C66D0C34BE0CDD110150DA1C0820CFD570213BD74FC6DAA5F04444B DUP2 PUSH1 0x40 MLOAD PUSH2 0x1B0 SWAP2 SWAP1 PUSH2 0x38A JUMP JUMPDEST PUSH1 0x40 MLOAD DUP1 SWAP2 SUB SWAP1 LOG1 DUP1 SWAP2 POP POP SWAP1 JUMP JUMPDEST PUSH0 DUP3 SWAP1 POP DUP1 PUSH20 0xFFFFFFFFFFFFFFFFFFFFFFFFFFFFFFFFFFFFFFFF AND PUSH4 0x50222C43 DUP4 PUSH1 0x40 MLOAD DUP3 PUSH4 0xFFFFFFFF AND PUSH1 0xE0 SHL DUP2 MSTORE PUSH1 0x4 ADD PUSH2 0x1FC SWAP2 SWAP1 PUSH2 0x35B JUMP JUMPDEST PUSH0 PUSH1 0x40 MLOAD DUP1 DUP4 SUB DUP2 PUSH0 DUP8 DUP1 EXTCODESIZE ISZERO DUP1 ISZERO PUSH2 0x213 JUMPI PUSH0 DUP1 REVERT JUMPDEST POP GAS CALL ISZERO DUP1 ISZERO PUSH2 0x225 JUMPI RETURNDATASIZE PUSH0 DUP1 RETURNDATACOPY RETURNDATASIZE PUSH0 REVERT JUMPDEST POP POP POP POP POP POP POP JUMP JUMPDEST PUSH2 0x666 DUP1 PUSH2 0x5DF DUP4 CODECOPY ADD SWAP1 JUMP JUMPDEST PUSH0 PUSH1 0x40 MLOAD SWAP1 POP SWAP1 JUMP JUMPDEST PUSH0 DUP1 REVERT JUMPDEST PUSH0 DUP1 REVERT JUMPDEST PUSH0 PUSH20 0xFFFFFFFFFFFFFFFFFFFFFFFFFFFFFFFFFFFFFFFF DUP3 AND SWAP1 POP SWAP2 SWAP1 POP JUMP JUMPDEST PUSH0 PUSH2 0x275 DUP3 PUSH2 0x24C JUMP JUMPDEST SWAP1 POP SWAP2 SWAP1 POP JUMP JUMPDEST PUSH2 0x285 DUP2 PUSH2 0x26B JUMP JUMPDEST DUP2 EQ PUSH2 0x28F JUMPI PUSH0 DUP1 REVERT JUMPDEST POP JUMP JUMPDEST PUSH0 DUP2 CALLDATALOAD SWAP1 POP PUSH2 0x2A0 DUP2 PUSH2 0x27C JUMP JUMPDEST SWAP3 SWAP2 POP POP JUMP JUMPDEST PUSH0 PUSH1 0x20 DUP3 DUP5 SUB SLT ISZERO PUSH2 0x2BB JUMPI PUSH2 0x2BA PUSH2 0x244 JUMP JUMPDEST JUMPDEST PUSH0 PUSH2 0x2C8 DUP5 DUP3 DUP6 ADD PUSH2 0x292 JUMP JUMPDEST SWAP2 POP POP SWAP3 SWAP2 POP POP JUMP JUMPDEST PUSH0 DUP2 MLOAD SWAP1 POP SWAP2 SWAP1 POP JUMP JUMPDEST PUSH0 DUP3 DUP3 MSTORE PUSH1 0x20 DUP3 ADD SWAP1 POP SWAP3 SWAP2 POP POP JUMP JUMPDEST PUSH0 JUMPDEST DUP4 DUP2 LT ISZERO PUSH2 0x308 JUMPI DUP1 DUP3 ADD MLOAD DUP2 DUP5 ADD MSTORE PUSH1 0x20 DUP2 ADD SWAP1 POP PUSH2 0x2ED JUMP JUMPDEST PUSH0 DUP5 DUP5 ADD MSTORE POP POP POP POP JUMP JUMPDEST PUSH0 PUSH1 0x1F NOT PUSH1 0x1F DUP4 ADD AND SWAP1 POP SWAP2 SWAP1 POP JUMP JUMPDEST PUSH0 PUSH2 0x32D DUP3 PUSH2 0x2D1 JUMP JUMPDEST PUSH2 0x337 DUP2 DUP6 PUSH2 0x2DB JUMP JUMPDEST SWAP4 POP PUSH2 0x347 DUP2 DUP6 PUSH1 0x20 DUP7 ADD PUSH2 0x2EB JUMP JUMPDEST PUSH2 0x350 DUP2 PUSH2 0x313 JUMP JUMPDEST DUP5 ADD SWAP2 POP POP SWAP3 SWAP2 POP POP JUMP JUMPDEST PUSH0 PUSH1 0x20 DUP3 ADD SWAP1 POP DUP2 DUP2 SUB PUSH0 DUP4 ADD MSTORE PUSH2 0x373 DUP2 DUP5 PUSH2 0x323 JUMP JUMPDEST SWAP1 POP SWAP3 SWAP2 POP POP JUMP JUMPDEST PUSH2 0x384 DUP2 PUSH2 0x26B JUMP JUMPDEST DUP3 MSTORE POP POP JUMP JUMPDEST PUSH0 PUSH1 0x20 DUP3 ADD SWAP1 POP PUSH2 0x39D PUSH0 DUP4 ADD DUP5 PUSH2 0x37B JUMP JUMPDEST SWAP3 SWAP2 POP POP JUMP JUMPDEST PUSH0 DUP1 REVERT JUMPDEST PUSH0 DUP1 REVERT JUMPDEST PUSH32 0x4E487B7100000000000000000000000000000000000000000000000000000000 PUSH0 MSTORE PUSH1 0x41 PUSH1 0x4 MSTORE PUSH1 0x24 PUSH0 REVERT JUMPDEST PUSH2 0x3E1 DUP3 PUSH2 0x313 JUMP JUMPDEST DUP2 ADD DUP2 DUP2 LT PUSH8 0xFFFFFFFFFFFFFFFF DUP3 GT OR ISZERO PUSH2 0x400 JUMPI PUSH2 0x3FF PUSH2 0x3AB JUMP JUMPDEST JUMPDEST DUP1 PUSH1 0x40 MSTORE POP POP POP JUMP JUMPDEST PUSH0 PUSH2 0x412 PUSH2 0x23B JUMP JUMPDEST SWAP1 POP PUSH2 0x41E DUP3 DUP3 PUSH2 0x3D8 JUMP JUMPDEST SWAP2 SWAP1 POP JUMP JUMPDEST PUSH0 PUSH8 0xFFFFFFFFFFFFFFFF DUP3 GT ISZERO PUSH2 0x43D JUMPI PUSH2 0x43C PUSH2 0x3AB JUMP JUMPDEST JUMPDEST PUSH2 0x446 DUP3 PUSH2 0x313 JUMP JUMPDEST SWAP1 POP PUSH1 0x20 DUP2 ADD SWAP1 POP SWAP2 SWAP1 POP JUMP JUMPDEST DUP3 DUP2 DUP4 CALLDATACOPY PUSH0 DUP4 DUP4 ADD MSTORE POP POP POP JUMP JUMPDEST PUSH0 PUSH2 0x473 PUSH2 0x46E DUP5 PUSH2 0x423 JUMP JUMPDEST PUSH2 0x409 JUMP JUMPDEST SWAP1 POP DUP3 DUP2 MSTORE PUSH1 0x20 DUP2 ADD DUP5 DUP5 DUP5 ADD GT ISZERO PUSH2 0x48F JUMPI PUSH2 0x48E PUSH2 0x3A7 JUMP JUMPDEST JUMPDEST PUSH2 0x49A DUP5 DUP3 DUP6 PUSH2 0x453 JUMP JUMPDEST POP SWAP4 SWAP3 POP POP POP JUMP JUMPDEST PUSH0 DUP3 PUSH1 0x1F DUP4 ADD SLT PUSH2 0x4B6 JUMPI PUSH2 0x4B5 PUSH2 0x3A3 JUMP JUMPDEST JUMPDEST DUP2 CALLDATALOAD PUSH2 0x4C6 DUP5 DUP3 PUSH1 0x20 DUP7 ADD PUSH2 0x461 JUMP JUMPDEST SWAP2 POP POP SWAP3 SWAP2 POP POP JUMP JUMPDEST PUSH0 DUP1 PUSH1 0x40 DUP4 DUP6 SUB SLT ISZERO PUSH2 0x4E5 JUMPI PUSH2 0x4E4 PUSH2 0x244 JUMP JUMPDEST JUMPDEST PUSH0 PUSH2 0x4F2 DUP6 DUP3 DUP7 ADD PUSH2 0x292 JUMP JUMPDEST SWAP3 POP POP PUSH1 0x20 DUP4 ADD CALLDATALOAD PUSH8 0xFFFFFFFFFFFFFFFF DUP2 GT ISZERO PUSH2 0x513 JUMPI PUSH2 0x512 PUSH2 0x248 JUMP JUMPDEST JUMPDEST PUSH2 0x51F DUP6 DUP3 DUP7 ADD PUSH2 0x4A2 JUMP JUMPDEST SWAP2 POP POP SWAP3 POP SWAP3 SWAP1 POP JUMP JUMPDEST PUSH0 PUSH2 0x53B PUSH2 0x536 DUP5 PUSH2 0x423 JUMP JUMPDEST PUSH2 0x409 JUMP JUMPDEST SWAP1 POP DUP3 DUP2 MSTORE PUSH1 0x20 DUP2 ADD DUP5 DUP5 DUP5 ADD GT ISZERO PUSH2 0x557 JUMPI PUSH2 0x556 PUSH2 0x3A7 JUMP JUMPDEST JUMPDEST PUSH2 0x562 DUP5 DUP3 DUP6 PUSH2 0x2EB JUMP JUMPDEST POP SWAP4 SWAP3 POP POP POP JUMP JUMPDEST PUSH0 DUP3 PUSH1 0x1F DUP4 ADD SLT PUSH2 0x57E JUMPI PUSH2 0x57D PUSH2 0x3A3 JUMP JUMPDEST JUMPDEST DUP2 MLOAD PUSH2 0x58E DUP5 DUP3 PUSH1 0x20 DUP7 ADD PUSH2 0x529 JUMP JUMPDEST SWAP2 POP POP SWAP3 SWAP2 POP POP JUMP JUMPDEST PUSH0 PUSH1 0x20 DUP3 DUP5 SUB SLT ISZERO PUSH2 0x5AC JUMPI PUSH2 0x5AB PUSH2 0x244 JUMP JUMPDEST JUMPDEST PUSH0 DUP3 ADD MLOAD PUSH8 0xFFFFFFFFFFFFFFFF DUP2 GT ISZERO PUSH2 0x5C9 JUMPI PUSH2 0x5C8 PUSH2 0x248 JUMP JUMPDEST JUMPDEST PUSH2 0x5D5 DUP5 DUP3 DUP6 ADD PUSH2 0x56A JUMP JUMPDEST SWAP2 POP POP SWAP3 SWAP2 POP POP JUMP INVALID PUSH1 0x80 PUSH1 0x40 MSTORE CALLVALUE DUP1 ISZERO PUSH2 0xF JUMPI PUSH0 DUP1 REVERT JUMPDEST POP PUSH2 0x649 DUP1 PUSH2 0x1D PUSH0 CODECOPY PUSH0 RETURN INVALID PUSH1 0x80 PUSH1 0x40 MSTORE CALLVALUE DUP1 ISZERO PUSH2 0xF JUMPI PUSH0 DUP1 REVERT JUMPDEST POP PUSH1 0x4 CALLDATASIZE LT PUSH2 0x34 JUMPI PUSH0 CALLDATALOAD PUSH1 0xE0 SHR DUP1 PUSH4 0x4976FD7D EQ PUSH2 0x38 JUMPI DUP1 PUSH4 0x50222C43 EQ PUSH2 0x56 JUMPI JUMPDEST PUSH0 DUP1 REVERT JUMPDEST PUSH2 0x40 PUSH2 0x72 JUMP JUMPDEST PUSH1 0x40 MLOAD PUSH2 0x4D SWAP2 SWAP1 PUSH2 0x19D JUMP JUMPDEST PUSH1 0x40 MLOAD DUP1 SWAP2 SUB SWAP1 RETURN JUMPDEST PUSH2 0x70 PUSH1 0x4 DUP1 CALLDATASIZE SUB DUP2 ADD SWAP1 PUSH2 0x6B SWAP2 SWAP1 PUSH2 0x2FA JUMP JUMPDEST PUSH2 0x101 JUMP JUMPDEST STOP JUMPDEST PUSH1 0x60 PUSH0 DUP1 SLOAD PUSH2 0x80 SWAP1 PUSH2 0x36E JUMP JUMPDEST DUP1 PUSH1 0x1F ADD PUSH1 0x20 DUP1 SWAP2 DIV MUL PUSH1 0x20 ADD PUSH1 0x40 MLOAD SWAP1 DUP2 ADD PUSH1 0x40 MSTORE DUP1 SWAP3 SWAP2 SWAP1 DUP2 DUP2 MSTORE PUSH1 0x20 ADD DUP3 DUP1 SLOAD PUSH2 0xAC SWAP1 PUSH2 0x36E JUMP JUMPDEST DUP1 ISZERO PUSH2 0xF7 JUMPI DUP1 PUSH1 0x1F LT PUSH2 0xCE JUMPI PUSH2 0x100 DUP1 DUP4 SLOAD DIV MUL DUP4 MSTORE SWAP2 PUSH1 0x20 ADD SWAP2 PUSH2 0xF7 JUMP JUMPDEST DUP3 ADD SWAP2 SWAP1 PUSH0 MSTORE PUSH1 0x20 PUSH0 KECCAK256 SWAP1 JUMPDEST DUP2 SLOAD DUP2 MSTORE SWAP1 PUSH1 0x1 ADD SWAP1 PUSH1 0x20 ADD DUP1 DUP4 GT PUSH2 0xDA JUMPI DUP3 SWAP1 SUB PUSH1 0x1F AND DUP3 ADD SWAP2 JUMPDEST POP POP POP POP POP SWAP1 POP SWAP1 JUMP JUMPDEST DUP1 PUSH0 SWAP1 DUP2 PUSH2 0x10F SWAP2 SWAP1 PUSH2 0x544 JUMP JUMPDEST POP POP JUMP JUMPDEST PUSH0 DUP2 MLOAD SWAP1 POP SWAP2 SWAP1 POP JUMP JUMPDEST PUSH0 DUP3 DUP3 MSTORE PUSH1 0x20 DUP3 ADD SWAP1 POP SWAP3 SWAP2 POP POP JUMP JUMPDEST PUSH0 JUMPDEST DUP4 DUP2 LT ISZERO PUSH2 0x14A JUMPI DUP1 DUP3 ADD MLOAD DUP2 DUP5 ADD MSTORE PUSH1 0x20 DUP2 ADD SWAP1 POP PUSH2 0x12F JUMP JUMPDEST PUSH0 DUP5 DUP5 ADD MSTORE POP POP POP POP JUMP JUMPDEST PUSH0 PUSH1 0x1F NOT PUSH1 0x1F DUP4 ADD AND SWAP1 POP SWAP2 SWAP1 POP JUMP JUMPDEST PUSH0 PUSH2 0x16F DUP3 PUSH2 0x113 JUMP JUMPDEST PUSH2 0x179 DUP2 DUP6 PUSH2 0x11D JUMP JUMPDEST SWAP4 POP PUSH2 0x189 DUP2 DUP6 PUSH1 0x20 DUP7 ADD PUSH2 0x12D JUMP JUMPDEST PUSH2 0x192 DUP2 PUSH2 0x155 JUMP JUMPDEST DUP5 ADD SWAP2 POP POP SWAP3 SWAP2 POP POP JUMP JUMPDEST PUSH0 PUSH1 0x20 DUP3 ADD SWAP1 POP DUP2 DUP2 SUB PUSH0 DUP4 ADD MSTORE PUSH2 0x1B5 DUP2 DUP5 PUSH2 0x165 JUMP JUMPDEST SWAP1 POP SWAP3 SWAP2 POP POP JUMP JUMPDEST PUSH0 PUSH1 0x40 MLOAD SWAP1 POP SWAP1 JUMP JUMPDEST PUSH0 DUP1 REVERT JUMPDEST PUSH0 DUP1 REVERT JUMPDEST PUSH0 DUP1 REVERT JUMPDEST PUSH0 DUP1 REVERT JUMPDEST PUSH32 0x4E487B7100000000000000000000000000000000000000000000000000000000 PUSH0 MSTORE PUSH1 0x41 PUSH1 0x4 MSTORE PUSH1 0x24 PUSH0 REVERT JUMPDEST PUSH2 0x20C DUP3 PUSH2 0x155 JUMP JUMPDEST DUP2 ADD DUP2 DUP2 LT PUSH8 0xFFFFFFFFFFFFFFFF DUP3 GT OR ISZERO PUSH2 0x22B JUMPI PUSH2 0x22A PUSH2 0x1D6 JUMP JUMPDEST JUMPDEST DUP1 PUSH1 0x40 MSTORE POP POP POP JUMP JUMPDEST PUSH0 PUSH2 0x23D PUSH2 0x1BD JUMP JUMPDEST SWAP1 POP PUSH2 0x249 DUP3 DUP3 PUSH2 0x203 JUMP JUMPDEST SWAP2 SWAP1 POP JUMP JUMPDEST PUSH0 PUSH8 0xFFFFFFFFFFFFFFFF DUP3 GT ISZERO PUSH2 0x268 JUMPI PUSH2 0x267 PUSH2 0x1D6 JUMP JUMPDEST JUMPDEST PUSH2 0x271 DUP3 PUSH2 0x155 JUMP JUMPDEST SWAP1 POP PUSH1 0x20 DUP2 ADD SWAP1 POP SWAP2 SWAP1 POP JUMP JUMPDEST DUP3 DUP2 DUP4 CALLDATACOPY PUSH0 DUP4 DUP4 ADD MSTORE POP POP POP JUMP JUMPDEST PUSH0 PUSH2 0x29E PUSH2 0x299 DUP5 PUSH2 0x24E JUMP JUMPDEST PUSH2 0x234 JUMP JUMPDEST SWAP1 POP DUP3 DUP2 MSTORE PUSH1 0x20 DUP2 ADD DUP5 DUP5 DUP5 ADD GT ISZERO PUSH2 0x2BA JUMPI PUSH2 0x2B9 PUSH2 0x1D2 JUMP JUMPDEST JUMPDEST PUSH2 0x2C5 DUP5 DUP3 DUP6 PUSH2 0x27E JUMP JUMPDEST POP SWAP4 SWAP3 POP POP POP JUMP JUMPDEST PUSH0 DUP3 PUSH1 0x1F DUP4 ADD SLT PUSH2 0x2E1 JUMPI PUSH2 0x2E0 PUSH2 0x1CE JUMP JUMPDEST JUMPDEST DUP2 CALLDATALOAD PUSH2 0x2F1 DUP5 DUP3 PUSH1 0x20 DUP7 ADD PUSH2 0x28C JUMP JUMPDEST SWAP2 POP POP SWAP3 SWAP2 POP POP JUMP JUMPDEST PUSH0 PUSH1 0x20 DUP3 DUP5 SUB SLT ISZERO PUSH2 0x30F JUMPI PUSH2 0x30E PUSH2 0x1C6 JUMP JUMPDEST JUMPDEST PUSH0 DUP3 ADD CALLDATALOAD PUSH8 0xFFFFFFFFFFFFFFFF DUP2 GT ISZERO PUSH2 0x32C JUMPI PUSH2 0x32B PUSH2 0x1CA JUMP JUMPDEST JUMPDEST PUSH2 0x338 DUP5 DUP3 DUP6 ADD PUSH2 0x2CD JUMP JUMPDEST SWAP2 POP POP SWAP3 SWAP2 POP POP JUMP JUMPDEST PUSH32 0x4E487B7100000000000000000000000000000000000000000000000000000000 PUSH0 MSTORE PUSH1 0x22 PUSH1 0x4 MSTORE PUSH1 0x24 PUSH0 REVERT JUMPDEST PUSH0 PUSH1 0x2 DUP3 DIV SWAP1 POP PUSH1 0x1 DUP3 AND DUP1 PUSH2 0x385 JUMPI PUSH1 0x7F DUP3 AND SWAP2 POP JUMPDEST PUSH1 0x20 DUP3 LT DUP2 SUB PUSH2 0x398 JUMPI PUSH2 0x397 PUSH2 0x341 JUMP JUMPDEST JUMPDEST POP SWAP2 SWAP1 POP JUMP JUMPDEST PUSH0 DUP2 SWAP1 POP DUP2 PUSH0 MSTORE PUSH1 0x20 PUSH0 KECCAK256 SWAP1 POP SWAP2 SWAP1 POP JUMP JUMPDEST PUSH0 PUSH1 0x20 PUSH1 0x1F DUP4 ADD DIV SWAP1 POP SWAP2 SWAP1 POP JUMP JUMPDEST PUSH0 DUP3 DUP3 SHL SWAP1 POP SWAP3 SWAP2 POP POP JUMP JUMPDEST PUSH0 PUSH1 0x8 DUP4 MUL PUSH2 0x3FA PUSH32 0xFFFFFFFFFFFFFFFFFFFFFFFFFFFFFFFFFFFFFFFFFFFFFFFFFFFFFFFFFFFFFFFF DUP3 PUSH2 0x3BF JUMP JUMPDEST PUSH2 0x404 DUP7 DUP4 PUSH2 0x3BF JUMP JUMPDEST SWAP6 POP DUP1 NOT DUP5 AND SWAP4 POP DUP1 DUP7 AND DUP5 OR SWAP3 POP POP POP SWAP4 SWAP3 POP POP POP JUMP JUMPDEST PUSH0 DUP2 SWAP1 POP SWAP2 SWAP1 POP JUMP JUMPDEST PUSH0 DUP2 SWAP1 POP SWAP2 SWAP1 POP JUMP JUMPDEST PUSH0 PUSH2 0x448 PUSH2 0x443 PUSH2 0x43E DUP5 PUSH2 0x41C JUMP JUMPDEST PUSH2 0x425 JUMP JUMPDEST PUSH2 0x41C JUMP JUMPDEST SWAP1 POP SWAP2 SWAP1 POP JUMP JUMPDEST PUSH0 DUP2 SWAP1 POP SWAP2 SWAP1 POP JUMP JUMPDEST PUSH2 0x461 DUP4 PUSH2 0x42E JUMP JUMPDEST PUSH2 0x475 PUSH2 0x46D DUP3 PUSH2 0x44F JUMP JUMPDEST DUP5 DUP5 SLOAD PUSH2 0x3CB JUMP JUMPDEST DUP3 SSTORE POP POP POP POP JUMP JUMPDEST PUSH0 SWAP1 JUMP JUMPDEST PUSH2 0x489 PUSH2 0x47D JUMP JUMPDEST PUSH2 0x494 DUP2 DUP5 DUP5 PUSH2 0x458 JUMP JUMPDEST POP POP POP JUMP JUMPDEST JUMPDEST DUP2 DUP2 LT ISZERO PUSH2 0x4B7 JUMPI PUSH2 0x4AC PUSH0 DUP3 PUSH2 0x481 JUMP JUMPDEST PUSH1 0x1 DUP2 ADD SWAP1 POP PUSH2 0x49A JUMP JUMPDEST POP POP JUMP JUMPDEST PUSH1 0x1F DUP3 GT ISZERO PUSH2 0x4FC JUMPI PUSH2 0x4CD DUP2 PUSH2 0x39E JUMP JUMPDEST PUSH2 0x4D6 DUP5 PUSH2 0x3B0 JUMP JUMPDEST DUP2 ADD PUSH1 0x20 DUP6 LT ISZERO PUSH2 0x4E5 JUMPI DUP2 SWAP1 POP JUMPDEST PUSH2 0x4F9 PUSH2 0x4F1 DUP6 PUSH2 0x3B0 JUMP JUMPDEST DUP4 ADD DUP3 PUSH2 0x499 JUMP JUMPDEST POP POP JUMPDEST POP POP POP JUMP JUMPDEST PUSH0 DUP3 DUP3 SHR SWAP1 POP SWAP3 SWAP2 POP POP JUMP JUMPDEST PUSH0 PUSH2 0x51C PUSH0 NOT DUP5 PUSH1 0x8 MUL PUSH2 0x501 JUMP JUMPDEST NOT DUP1 DUP4 AND SWAP2 POP POP SWAP3 SWAP2 POP POP JUMP JUMPDEST PUSH0 PUSH2 0x534 DUP4 DUP4 PUSH2 0x50D JUMP JUMPDEST SWAP2 POP DUP3 PUSH1 0x2 MUL DUP3 OR SWAP1 POP SWAP3 SWAP2 POP POP JUMP JUMPDEST PUSH2 0x54D DUP3 PUSH2 0x113 JUMP JUMPDEST PUSH8 0xFFFFFFFFFFFFFFFF DUP2 GT ISZERO PUSH2 0x566 JUMPI PUSH2 0x565 PUSH2 0x1D6 JUMP JUMPDEST JUMPDEST PUSH2 0x570 DUP3 SLOAD PUSH2 0x36E JUMP JUMPDEST PUSH2 0x57B DUP3 DUP3 DUP6 PUSH2 0x4BB JUMP JUMPDEST PUSH0 PUSH1 0x20 SWAP1 POP PUSH1 0x1F DUP4 GT PUSH1 0x1 DUP2 EQ PUSH2 0x5AC JUMPI PUSH0 DUP5 ISZERO PUSH2 0x59A JUMPI DUP3 DUP8 ADD MLOAD SWAP1 POP JUMPDEST PUSH2 0x5A4 DUP6 DUP3 PUSH2 0x529 JUMP JUMPDEST DUP7 SSTORE POP PUSH2 0x60B JUMP JUMPDEST PUSH1 0x1F NOT DUP5 AND PUSH2 0x5BA DUP7 PUSH2 0x39E JUMP JUMPDEST PUSH0 JUMPDEST DUP3 DUP2 LT ISZERO PUSH2 0x5E1 JUMPI DUP5 DUP10 ADD MLOAD DUP3 SSTORE PUSH1 0x1 DUP3 ADD SWAP2 POP PUSH1 0x20 DUP6 ADD SWAP5 POP PUSH1 0x20 DUP2 ADD SWAP1 POP PUSH2 0x5BC JUMP JUMPDEST DUP7 DUP4 LT ISZERO PUSH2 0x5FE JUMPI DUP5 DUP10 ADD MLOAD PUSH2 0x5FA PUSH1 0x1F DUP10 AND DUP3 PUSH2 0x50D JUMP JUMPDEST DUP4 SSTORE POP JUMPDEST PUSH1 0x1 PUSH1 0x2 DUP9 MUL ADD DUP9 SSTORE POP POP POP JUMPDEST POP POP POP POP POP POP JUMP INVALID LOG2 PUSH5 0x6970667358 0x22 SLT KECCAK256 0xD1 PUSH18 0xEAADA4CAB6346AF2D1DAE55B7AE6D9534692 0xD4 0xED DUP2 0xD3 SWAP13 0x28 SWAP12 0xEE PUSH8 0x996E7664736F6C63 NUMBER STOP ADDMOD ISZERO STOP CALLER LOG2 PUSH5 0x6970667358 0x22 SLT KECCAK256 BALANCE DUP8 RETURN DUP13 0xE 0x26 JUMP 0xB8 0xFC 0xC3 SHL TIMESTAMP 0xE4 0xD7 MSTORE TIMESTAMP 0xEC PUSH15 0x35D5CE918E118DD22AC9995EFE064 PUSH20 0x6F6C634300081500330000000000000000000000 "
		},
		"gasEstimates": {
			"creation": {
				"codeDepositCost": "638800",
				"executionCost": "668",
				"totalCost": "639468"
			},
			"external": {
				"": "154",
				"createA()": "infinite",
				"getMsgFromA(address)": "infinite",
				"setMsgFromA(address,string)": "infinite"
			}
		},
		"methodIdentifiers": {
			"createA()": "55e46476",
			"getMsgFromA(address)": "0e4628dd",
			"setMsgFromA(address,string)": "6a9d8b89"
		}
	},
	"abi": [
		{
			"anonymous": false,
			"inputs": [
				{
					"indexed": false,
					"internalType": "address",
					"name": "",
					"type": "address"
				}
			],
			"name": "createdA",
			"type": "event"
		},
		{
			"stateMutability": "nonpayable",
			"type": "fallback"
		},
		{
			"inputs": [],
			"name": "createA",
			"outputs": [
				{
					"internalType": "address",
					"name": "",
					"type": "address"
				}
			],
			"stateMutability": "nonpayable",
			"type": "function"
		},
		{
			"inputs": [
				{
					"internalType": "address",
					"name": "contractAddress",
					"type": "address"
				}
			],
			"name": "getMsgFromA",
			"outputs": [
				{
					"internalType": "string",
					"name": "",
					"type": "string"
				}
			],
			"stateMutability": "view",
			"type": "function"
		},
		{
			"inputs": [
				{
					"internalType": "address",
					"name": "contractAddress",
					"type": "address"
				},
				{
					"internalType": "string",
					"name": "_msg",
					"type": "string"
				}
			],
			"name": "setMsgFromA",
			"outputs": [],
			"stateMutability": "nonpayable",
			"type": "function"
		},
		{
			"stateMutability": "payable",
			"type": "receive"
		}
	]
}