{
	"data": {
		"bytecode": {
			"linkReferences": {},
			"object": "608060405234801561000f575f80fd5b50610b8d8061001d5f395ff3fe608060405260043610610054575f3560e01c80632004ffd9146100585780636ee265661461008257806374ff48181461009e578063784796f7146100dc578063808f011414610104578063c41a360a14610140575b5f80fd5b348015610063575f80fd5b5061006c61017c565b604051610079919061043e565b60405180910390f35b61009c60048036038101906100979190610492565b6101d6565b005b3480156100a9575f80fd5b506100c460048036038101906100bf9190610492565b61024d565b6040516100d393929190610586565b60405180910390f35b3480156100e7575f80fd5b5061010260048036038101906100fd91906105ec565b61034c565b005b34801561010f575f80fd5b5061012a60048036038101906101259190610756565b61039e565b604051610137919061043e565b60405180910390f35b34801561014b575f80fd5b5061016660048036038101906101619190610492565b6103ee565b60405161017391906107b0565b60405180910390f35b5f80429050335f808381526020019081526020015f205f6101000a81548173ffffffffffffffffffffffffffffffffffffffff021916908373ffffffffffffffffffffffffffffffffffffffff1602179055508091505090565b60015f8281526020019081526020015f2060010154670de0b6b3a7640000346101ff91906107f6565b1015610240576040517f08c379a000000000000000000000000000000000000000000000000000000000815260040161023790610870565b60405180910390fd5b61024a813361034c565b50565b60605f805f60015f8681526020019081526020015f205f018054610270906108bb565b80601f016020809104026020016040519081016040528092919081815260200182805461029c906108bb565b80156102e75780601f106102be576101008083540402835291602001916102e7565b820191905f5260205f20905b8154815290600101906020018083116102ca57829003601f168201915b505050505090505f60015f8781526020019081526020015f206001015490505f805f8881526020019081526020015f205f9054906101000a900473ffffffffffffffffffffffffffffffffffffffff1690508282829550955095505050509193909250565b805f808481526020019081526020015f205f6101000a81548173ffffffffffffffffffffffffffffffffffffffff021916908373ffffffffffffffffffffffffffffffffffffffff1602179055505050565b5f806103a861017c565b90508360015f8381526020019081526020015f205f0190816103ca9190610a88565b508260015f8381526020019081526020015f20600101819055508091505092915050565b5f805f8381526020019081526020015f205f9054906101000a900473ffffffffffffffffffffffffffffffffffffffff169050919050565b5f819050919050565b61043881610426565b82525050565b5f6020820190506104515f83018461042f565b92915050565b5f604051905090565b5f80fd5b5f80fd5b61047181610426565b811461047b575f80fd5b50565b5f8135905061048c81610468565b92915050565b5f602082840312156104a7576104a6610460565b5b5f6104b48482850161047e565b91505092915050565b5f81519050919050565b5f82825260208201905092915050565b5f5b838110156104f45780820151818401526020810190506104d9565b5f8484015250505050565b5f601f19601f8301169050919050565b5f610519826104bd565b61052381856104c7565b93506105338185602086016104d7565b61053c816104ff565b840191505092915050565b5f73ffffffffffffffffffffffffffffffffffffffff82169050919050565b5f61057082610547565b9050919050565b61058081610566565b82525050565b5f6060820190508181035f83015261059e818661050f565b90506105ad602083018561042f565b6105ba6040830184610577565b949350505050565b6105cb81610566565b81146105d5575f80fd5b50565b5f813590506105e6816105c2565b92915050565b5f806040838503121561060257610601610460565b5b5f61060f8582860161047e565b9250506020610620858286016105d8565b9150509250929050565b5f80fd5b5f80fd5b7f4e487b71000000000000000000000000000000000000000000000000000000005f52604160045260245ffd5b610668826104ff565b810181811067ffffffffffffffff8211171561068757610686610632565b5b80604052505050565b5f610699610457565b90506106a5828261065f565b919050565b5f67ffffffffffffffff8211156106c4576106c3610632565b5b6106cd826104ff565b9050602081019050919050565b828183375f83830152505050565b5f6106fa6106f5846106aa565b610690565b9050828152602081018484840111156107165761071561062e565b5b6107218482856106da565b509392505050565b5f82601f83011261073d5761073c61062a565b5b813561074d8482602086016106e8565b91505092915050565b5f806040838503121561076c5761076b610460565b5b5f83013567ffffffffffffffff81111561078957610788610464565b5b61079585828601610729565b92505060206107a68582860161047e565b9150509250929050565b5f6020820190506107c35f830184610577565b92915050565b7f4e487b71000000000000000000000000000000000000000000000000000000005f52601260045260245ffd5b5f61080082610426565b915061080b83610426565b92508261081b5761081a6107c9565b5b828204905092915050565b7f496e73756666696369656e742062616c616e63650000000000000000000000005f82015250565b5f61085a6014836104c7565b915061086582610826565b602082019050919050565b5f6020820190508181035f8301526108878161084e565b9050919050565b7f4e487b71000000000000000000000000000000000000000000000000000000005f52602260045260245ffd5b5f60028204905060018216806108d257607f821691505b6020821081036108e5576108e461088e565b5b50919050565b5f819050815f5260205f209050919050565b5f6020601f8301049050919050565b5f82821b905092915050565b5f600883026109477fffffffffffffffffffffffffffffffffffffffffffffffffffffffffffffffff8261090c565b610951868361090c565b95508019841693508086168417925050509392505050565b5f819050919050565b5f61098c61098761098284610426565b610969565b610426565b9050919050565b5f819050919050565b6109a583610972565b6109b96109b182610993565b848454610918565b825550505050565b5f90565b6109cd6109c1565b6109d881848461099c565b505050565b5b818110156109fb576109f05f826109c5565b6001810190506109de565b5050565b601f821115610a4057610a11816108eb565b610a1a846108fd565b81016020851015610a29578190505b610a3d610a35856108fd565b8301826109dd565b50505b505050565b5f82821c905092915050565b5f610a605f1984600802610a45565b1980831691505092915050565b5f610a788383610a51565b9150826002028217905092915050565b610a91826104bd565b67ffffffffffffffff811115610aaa57610aa9610632565b5b610ab482546108bb565b610abf8282856109ff565b5f60209050601f831160018114610af0575f8415610ade578287015190505b610ae88582610a6d565b865550610b4f565b601f198416610afe866108eb565b5f5b82811015610b2557848901518255600182019150602085019450602081019050610b00565b86831015610b425784890151610b3e601f891682610a51565b8355505b6001600288020188555050505b50505050505056fea2646970667358221220851bdac0a8f9f51621efbec55208597ccac5a7e16eae854c4b68877a505703ba64736f6c63430008150033",
			"opcodes": "PUSH1 0x80 PUSH1 0x40 MSTORE CALLVALUE DUP1 ISZERO PUSH2 0xF JUMPI PUSH0 DUP1 REVERT JUMPDEST POP PUSH2 0xB8D DUP1 PUSH2 0x1D PUSH0 CODECOPY PUSH0 RETURN INVALID PUSH1 0x80 PUSH1 0x40 MSTORE PUSH1 0x4 CALLDATASIZE LT PUSH2 0x54 JUMPI PUSH0 CALLDATALOAD PUSH1 0xE0 SHR DUP1 PUSH4 0x2004FFD9 EQ PUSH2 0x58 JUMPI DUP1 PUSH4 0x6EE26566 EQ PUSH2 0x82 JUMPI DUP1 PUSH4 0x74FF4818 EQ PUSH2 0x9E JUMPI DUP1 PUSH4 0x784796F7 EQ PUSH2 0xDC JUMPI DUP1 PUSH4 0x808F0114 EQ PUSH2 0x104 JUMPI DUP1 PUSH4 0xC41A360A EQ PUSH2 0x140 JUMPI JUMPDEST PUSH0 DUP1 REVERT JUMPDEST CALLVALUE DUP1 ISZERO PUSH2 0x63 JUMPI PUSH0 DUP1 REVERT JUMPDEST POP PUSH2 0x6C PUSH2 0x17C JUMP JUMPDEST PUSH1 0x40 MLOAD PUSH2 0x79 SWAP2 SWAP1 PUSH2 0x43E JUMP JUMPDEST PUSH1 0x40 MLOAD DUP1 SWAP2 SUB SWAP1 RETURN JUMPDEST PUSH2 0x9C PUSH1 0x4 DUP1 CALLDATASIZE SUB DUP2 ADD SWAP1 PUSH2 0x97 SWAP2 SWAP1 PUSH2 0x492 JUMP JUMPDEST PUSH2 0x1D6 JUMP JUMPDEST STOP JUMPDEST CALLVALUE DUP1 ISZERO PUSH2 0xA9 JUMPI PUSH0 DUP1 REVERT JUMPDEST POP PUSH2 0xC4 PUSH1 0x4 DUP1 CALLDATASIZE SUB DUP2 ADD SWAP1 PUSH2 0xBF SWAP2 SWAP1 PUSH2 0x492 JUMP JUMPDEST PUSH2 0x24D JUMP JUMPDEST PUSH1 0x40 MLOAD PUSH2 0xD3 SWAP4 SWAP3 SWAP2 SWAP1 PUSH2 0x586 JUMP JUMPDEST PUSH1 0x40 MLOAD DUP1 SWAP2 SUB SWAP1 RETURN JUMPDEST CALLVALUE DUP1 ISZERO PUSH2 0xE7 JUMPI PUSH0 DUP1 REVERT JUMPDEST POP PUSH2 0x102 PUSH1 0x4 DUP1 CALLDATASIZE SUB DUP2 ADD SWAP1 PUSH2 0xFD SWAP2 SWAP1 PUSH2 0x5EC JUMP JUMPDEST PUSH2 0x34C JUMP JUMPDEST STOP JUMPDEST CALLVALUE DUP1 ISZERO PUSH2 0x10F JUMPI PUSH0 DUP1 REVERT JUMPDEST POP PUSH2 0x12A PUSH1 0x4 DUP1 CALLDATASIZE SUB DUP2 ADD SWAP1 PUSH2 0x125 SWAP2 SWAP1 PUSH2 0x756 JUMP JUMPDEST PUSH2 0x39E JUMP JUMPDEST PUSH1 0x40 MLOAD PUSH2 0x137 SWAP2 SWAP1 PUSH2 0x43E JUMP JUMPDEST PUSH1 0x40 MLOAD DUP1 SWAP2 SUB SWAP1 RETURN JUMPDEST CALLVALUE DUP1 ISZERO PUSH2 0x14B JUMPI PUSH0 DUP1 REVERT JUMPDEST POP PUSH2 0x166 PUSH1 0x4 DUP1 CALLDATASIZE SUB DUP2 ADD SWAP1 PUSH2 0x161 SWAP2 SWAP1 PUSH2 0x492 JUMP JUMPDEST PUSH2 0x3EE JUMP JUMPDEST PUSH1 0x40 MLOAD PUSH2 0x173 SWAP2 SWAP1 PUSH2 0x7B0 JUMP JUMPDEST PUSH1 0x40 MLOAD DUP1 SWAP2 SUB SWAP1 RETURN JUMPDEST PUSH0 DUP1 TIMESTAMP SWAP1 POP CALLER PUSH0 DUP1 DUP4 DUP2 MSTORE PUSH1 0x20 ADD SWAP1 DUP2 MSTORE PUSH1 0x20 ADD PUSH0 KECCAK256 PUSH0 PUSH2 0x100 EXP DUP2 SLOAD DUP2 PUSH20 0xFFFFFFFFFFFFFFFFFFFFFFFFFFFFFFFFFFFFFFFF MUL NOT AND SWAP1 DUP4 PUSH20 0xFFFFFFFFFFFFFFFFFFFFFFFFFFFFFFFFFFFFFFFF AND MUL OR SWAP1 SSTORE POP DUP1 SWAP2 POP POP SWAP1 JUMP JUMPDEST PUSH1 0x1 PUSH0 DUP3 DUP2 MSTORE PUSH1 0x20 ADD SWAP1 DUP2 MSTORE PUSH1 0x20 ADD PUSH0 KECCAK256 PUSH1 0x1 ADD SLOAD PUSH8 0xDE0B6B3A7640000 CALLVALUE PUSH2 0x1FF SWAP2 SWAP1 PUSH2 0x7F6 JUMP JUMPDEST LT ISZERO PUSH2 0x240 JUMPI PUSH1 0x40 MLOAD PUSH32 0x8C379A000000000000000000000000000000000000000000000000000000000 DUP2 MSTORE PUSH1 0x4 ADD PUSH2 0x237 SWAP1 PUSH2 0x870 JUMP JUMPDEST PUSH1 0x40 MLOAD DUP1 SWAP2 SUB SWAP1 REVERT JUMPDEST PUSH2 0x24A DUP2 CALLER PUSH2 0x34C JUMP JUMPDEST POP JUMP JUMPDEST PUSH1 0x60 PUSH0 DUP1 PUSH0 PUSH1 0x1 PUSH0 DUP7 DUP2 MSTORE PUSH1 0x20 ADD SWAP1 DUP2 MSTORE PUSH1 0x20 ADD PUSH0 KECCAK256 PUSH0 ADD DUP1 SLOAD PUSH2 0x270 SWAP1 PUSH2 0x8BB JUMP JUMPDEST DUP1 PUSH1 0x1F ADD PUSH1 0x20 DUP1 SWAP2 DIV MUL PUSH1 0x20 ADD PUSH1 0x40 MLOAD SWAP1 DUP2 ADD PUSH1 0x40 MSTORE DUP1 SWAP3 SWAP2 SWAP1 DUP2 DUP2 MSTORE PUSH1 0x20 ADD DUP3 DUP1 SLOAD PUSH2 0x29C SWAP1 PUSH2 0x8BB JUMP JUMPDEST DUP1 ISZERO PUSH2 0x2E7 JUMPI DUP1 PUSH1 0x1F LT PUSH2 0x2BE JUMPI PUSH2 0x100 DUP1 DUP4 SLOAD DIV MUL DUP4 MSTORE SWAP2 PUSH1 0x20 ADD SWAP2 PUSH2 0x2E7 JUMP JUMPDEST DUP3 ADD SWAP2 SWAP1 PUSH0 MSTORE PUSH1 0x20 PUSH0 KECCAK256 SWAP1 JUMPDEST DUP2 SLOAD DUP2 MSTORE SWAP1 PUSH1 0x1 ADD SWAP1 PUSH1 0x20 ADD DUP1 DUP4 GT PUSH2 0x2CA JUMPI DUP3 SWAP1 SUB PUSH1 0x1F AND DUP3 ADD SWAP2 JUMPDEST POP POP POP POP POP SWAP1 POP PUSH0 PUSH1 0x1 PUSH0 DUP8 DUP2 MSTORE PUSH1 0x20 ADD SWAP1 DUP2 MSTORE PUSH1 0x20 ADD PUSH0 KECCAK256 PUSH1 0x1 ADD SLOAD SWAP1 POP PUSH0 DUP1 PUSH0 DUP9 DUP2 MSTORE PUSH1 0x20 ADD SWAP1 DUP2 MSTORE PUSH1 0x20 ADD PUSH0 KECCAK256 PUSH0 SWAP1 SLOAD SWAP1 PUSH2 0x100 EXP SWAP1 DIV PUSH20 0xFFFFFFFFFFFFFFFFFFFFFFFFFFFFFFFFFFFFFFFF AND SWAP1 POP DUP3 DUP3 DUP3 SWAP6 POP SWAP6 POP SWAP6 POP POP POP POP SWAP2 SWAP4 SWAP1 SWAP3 POP JUMP JUMPDEST DUP1 PUSH0 DUP1 DUP5 DUP2 MSTORE PUSH1 0x20 ADD SWAP1 DUP2 MSTORE PUSH1 0x20 ADD PUSH0 KECCAK256 PUSH0 PUSH2 0x100 EXP DUP2 SLOAD DUP2 PUSH20 0xFFFFFFFFFFFFFFFFFFFFFFFFFFFFFFFFFFFFFFFF MUL NOT AND SWAP1 DUP4 PUSH20 0xFFFFFFFFFFFFFFFFFFFFFFFFFFFFFFFFFFFFFFFF AND MUL OR SWAP1 SSTORE POP POP POP JUMP JUMPDEST PUSH0 DUP1 PUSH2 0x3A8 PUSH2 0x17C JUMP JUMPDEST SWAP1 POP DUP4 PUSH1 0x1 PUSH0 DUP4 DUP2 MSTORE PUSH1 0x20 ADD SWAP1 DUP2 MSTORE PUSH1 0x20 ADD PUSH0 KECCAK256 PUSH0 ADD SWAP1 DUP2 PUSH2 0x3CA SWAP2 SWAP1 PUSH2 0xA88 JUMP JUMPDEST POP DUP3 PUSH1 0x1 PUSH0 DUP4 DUP2 MSTORE PUSH1 0x20 ADD SWAP1 DUP2 MSTORE PUSH1 0x20 ADD PUSH0 KECCAK256 PUSH1 0x1 ADD DUP2 SWAP1 SSTORE POP DUP1 SWAP2 POP POP SWAP3 SWAP2 POP POP JUMP JUMPDEST PUSH0 DUP1 PUSH0 DUP4 DUP2 MSTORE PUSH1 0x20 ADD SWAP1 DUP2 MSTORE PUSH1 0x20 ADD PUSH0 KECCAK256 PUSH0 SWAP1 SLOAD SWAP1 PUSH2 0x100 EXP SWAP1 DIV PUSH20 0xFFFFFFFFFFFFFFFFFFFFFFFFFFFFFFFFFFFFFFFF AND SWAP1 POP SWAP2 SWAP1 POP JUMP JUMPDEST PUSH0 DUP2 SWAP1 POP SWAP2 SWAP1 POP JUMP JUMPDEST PUSH2 0x438 DUP2 PUSH2 0x426 JUMP JUMPDEST DUP3 MSTORE POP POP JUMP JUMPDEST PUSH0 PUSH1 0x20 DUP3 ADD SWAP1 POP PUSH2 0x451 PUSH0 DUP4 ADD DUP5 PUSH2 0x42F JUMP JUMPDEST SWAP3 SWAP2 POP POP JUMP JUMPDEST PUSH0 PUSH1 0x40 MLOAD SWAP1 POP SWAP1 JUMP JUMPDEST PUSH0 DUP1 REVERT JUMPDEST PUSH0 DUP1 REVERT JUMPDEST PUSH2 0x471 DUP2 PUSH2 0x426 JUMP JUMPDEST DUP2 EQ PUSH2 0x47B JUMPI PUSH0 DUP1 REVERT JUMPDEST POP JUMP JUMPDEST PUSH0 DUP2 CALLDATALOAD SWAP1 POP PUSH2 0x48C DUP2 PUSH2 0x468 JUMP JUMPDEST SWAP3 SWAP2 POP POP JUMP JUMPDEST PUSH0 PUSH1 0x20 DUP3 DUP5 SUB SLT ISZERO PUSH2 0x4A7 JUMPI PUSH2 0x4A6 PUSH2 0x460 JUMP JUMPDEST JUMPDEST PUSH0 PUSH2 0x4B4 DUP5 DUP3 DUP6 ADD PUSH2 0x47E JUMP JUMPDEST SWAP2 POP POP SWAP3 SWAP2 POP POP JUMP JUMPDEST PUSH0 DUP2 MLOAD SWAP1 POP SWAP2 SWAP1 POP JUMP JUMPDEST PUSH0 DUP3 DUP3 MSTORE PUSH1 0x20 DUP3 ADD SWAP1 POP SWAP3 SWAP2 POP POP JUMP JUMPDEST PUSH0 JUMPDEST DUP4 DUP2 LT ISZERO PUSH2 0x4F4 JUMPI DUP1 DUP3 ADD MLOAD DUP2 DUP5 ADD MSTORE PUSH1 0x20 DUP2 ADD SWAP1 POP PUSH2 0x4D9 JUMP JUMPDEST PUSH0 DUP5 DUP5 ADD MSTORE POP POP POP POP JUMP JUMPDEST PUSH0 PUSH1 0x1F NOT PUSH1 0x1F DUP4 ADD AND SWAP1 POP SWAP2 SWAP1 POP JUMP JUMPDEST PUSH0 PUSH2 0x519 DUP3 PUSH2 0x4BD JUMP JUMPDEST PUSH2 0x523 DUP2 DUP6 PUSH2 0x4C7 JUMP JUMPDEST SWAP4 POP PUSH2 0x533 DUP2 DUP6 PUSH1 0x20 DUP7 ADD PUSH2 0x4D7 JUMP JUMPDEST PUSH2 0x53C DUP2 PUSH2 0x4FF JUMP JUMPDEST DUP5 ADD SWAP2 POP POP SWAP3 SWAP2 POP POP JUMP JUMPDEST PUSH0 PUSH20 0xFFFFFFFFFFFFFFFFFFFFFFFFFFFFFFFFFFFFFFFF DUP3 AND SWAP1 POP SWAP2 SWAP1 POP JUMP JUMPDEST PUSH0 PUSH2 0x570 DUP3 PUSH2 0x547 JUMP JUMPDEST SWAP1 POP SWAP2 SWAP1 POP JUMP JUMPDEST PUSH2 0x580 DUP2 PUSH2 0x566 JUMP JUMPDEST DUP3 MSTORE POP POP JUMP JUMPDEST PUSH0 PUSH1 0x60 DUP3 ADD SWAP1 POP DUP2 DUP2 SUB PUSH0 DUP4 ADD MSTORE PUSH2 0x59E DUP2 DUP7 PUSH2 0x50F JUMP JUMPDEST SWAP1 POP PUSH2 0x5AD PUSH1 0x20 DUP4 ADD DUP6 PUSH2 0x42F JUMP JUMPDEST PUSH2 0x5BA PUSH1 0x40 DUP4 ADD DUP5 PUSH2 0x577 JUMP JUMPDEST SWAP5 SWAP4 POP POP POP POP JUMP JUMPDEST PUSH2 0x5CB DUP2 PUSH2 0x566 JUMP JUMPDEST DUP2 EQ PUSH2 0x5D5 JUMPI PUSH0 DUP1 REVERT JUMPDEST POP JUMP JUMPDEST PUSH0 DUP2 CALLDATALOAD SWAP1 POP PUSH2 0x5E6 DUP2 PUSH2 0x5C2 JUMP JUMPDEST SWAP3 SWAP2 POP POP JUMP JUMPDEST PUSH0 DUP1 PUSH1 0x40 DUP4 DUP6 SUB SLT ISZERO PUSH2 0x602 JUMPI PUSH2 0x601 PUSH2 0x460 JUMP JUMPDEST JUMPDEST PUSH0 PUSH2 0x60F DUP6 DUP3 DUP7 ADD PUSH2 0x47E JUMP JUMPDEST SWAP3 POP POP PUSH1 0x20 PUSH2 0x620 DUP6 DUP3 DUP7 ADD PUSH2 0x5D8 JUMP JUMPDEST SWAP2 POP POP SWAP3 POP SWAP3 SWAP1 POP JUMP JUMPDEST PUSH0 DUP1 REVERT JUMPDEST PUSH0 DUP1 REVERT JUMPDEST PUSH32 0x4E487B7100000000000000000000000000000000000000000000000000000000 PUSH0 MSTORE PUSH1 0x41 PUSH1 0x4 MSTORE PUSH1 0x24 PUSH0 REVERT JUMPDEST PUSH2 0x668 DUP3 PUSH2 0x4FF JUMP JUMPDEST DUP2 ADD DUP2 DUP2 LT PUSH8 0xFFFFFFFFFFFFFFFF DUP3 GT OR ISZERO PUSH2 0x687 JUMPI PUSH2 0x686 PUSH2 0x632 JUMP JUMPDEST JUMPDEST DUP1 PUSH1 0x40 MSTORE POP POP POP JUMP JUMPDEST PUSH0 PUSH2 0x699 PUSH2 0x457 JUMP JUMPDEST SWAP1 POP PUSH2 0x6A5 DUP3 DUP3 PUSH2 0x65F JUMP JUMPDEST SWAP2 SWAP1 POP JUMP JUMPDEST PUSH0 PUSH8 0xFFFFFFFFFFFFFFFF DUP3 GT ISZERO PUSH2 0x6C4 JUMPI PUSH2 0x6C3 PUSH2 0x632 JUMP JUMPDEST JUMPDEST PUSH2 0x6CD DUP3 PUSH2 0x4FF JUMP JUMPDEST SWAP1 POP PUSH1 0x20 DUP2 ADD SWAP1 POP SWAP2 SWAP1 POP JUMP JUMPDEST DUP3 DUP2 DUP4 CALLDATACOPY PUSH0 DUP4 DUP4 ADD MSTORE POP POP POP JUMP JUMPDEST PUSH0 PUSH2 0x6FA PUSH2 0x6F5 DUP5 PUSH2 0x6AA JUMP JUMPDEST PUSH2 0x690 JUMP JUMPDEST SWAP1 POP DUP3 DUP2 MSTORE PUSH1 0x20 DUP2 ADD DUP5 DUP5 DUP5 ADD GT ISZERO PUSH2 0x716 JUMPI PUSH2 0x715 PUSH2 0x62E JUMP JUMPDEST JUMPDEST PUSH2 0x721 DUP5 DUP3 DUP6 PUSH2 0x6DA JUMP JUMPDEST POP SWAP4 SWAP3 POP POP POP JUMP JUMPDEST PUSH0 DUP3 PUSH1 0x1F DUP4 ADD SLT PUSH2 0x73D JUMPI PUSH2 0x73C PUSH2 0x62A JUMP JUMPDEST JUMPDEST DUP2 CALLDATALOAD PUSH2 0x74D DUP5 DUP3 PUSH1 0x20 DUP7 ADD PUSH2 0x6E8 JUMP JUMPDEST SWAP2 POP POP SWAP3 SWAP2 POP POP JUMP JUMPDEST PUSH0 DUP1 PUSH1 0x40 DUP4 DUP6 SUB SLT ISZERO PUSH2 0x76C JUMPI PUSH2 0x76B PUSH2 0x460 JUMP JUMPDEST JUMPDEST PUSH0 DUP4 ADD CALLDATALOAD PUSH8 0xFFFFFFFFFFFFFFFF DUP2 GT ISZERO PUSH2 0x789 JUMPI PUSH2 0x788 PUSH2 0x464 JUMP JUMPDEST JUMPDEST PUSH2 0x795 DUP6 DUP3 DUP7 ADD PUSH2 0x729 JUMP JUMPDEST SWAP3 POP POP PUSH1 0x20 PUSH2 0x7A6 DUP6 DUP3 DUP7 ADD PUSH2 0x47E JUMP JUMPDEST SWAP2 POP POP SWAP3 POP SWAP3 SWAP1 POP JUMP JUMPDEST PUSH0 PUSH1 0x20 DUP3 ADD SWAP1 POP PUSH2 0x7C3 PUSH0 DUP4 ADD DUP5 PUSH2 0x577 JUMP JUMPDEST SWAP3 SWAP2 POP POP JUMP JUMPDEST PUSH32 0x4E487B7100000000000000000000000000000000000000000000000000000000 PUSH0 MSTORE PUSH1 0x12 PUSH1 0x4 MSTORE PUSH1 0x24 PUSH0 REVERT JUMPDEST PUSH0 PUSH2 0x800 DUP3 PUSH2 0x426 JUMP JUMPDEST SWAP2 POP PUSH2 0x80B DUP4 PUSH2 0x426 JUMP JUMPDEST SWAP3 POP DUP3 PUSH2 0x81B JUMPI PUSH2 0x81A PUSH2 0x7C9 JUMP JUMPDEST JUMPDEST DUP3 DUP3 DIV SWAP1 POP SWAP3 SWAP2 POP POP JUMP JUMPDEST PUSH32 0x496E73756666696369656E742062616C616E6365000000000000000000000000 PUSH0 DUP3 ADD MSTORE POP JUMP JUMPDEST PUSH0 PUSH2 0x85A PUSH1 0x14 DUP4 PUSH2 0x4C7 JUMP JUMPDEST SWAP2 POP PUSH2 0x865 DUP3 PUSH2 0x826 JUMP JUMPDEST PUSH1 0x20 DUP3 ADD SWAP1 POP SWAP2 SWAP1 POP JUMP JUMPDEST PUSH0 PUSH1 0x20 DUP3 ADD SWAP1 POP DUP2 DUP2 SUB PUSH0 DUP4 ADD MSTORE PUSH2 0x887 DUP2 PUSH2 0x84E JUMP JUMPDEST SWAP1 POP SWAP2 SWAP1 POP JUMP JUMPDEST PUSH32 0x4E487B7100000000000000000000000000000000000000000000000000000000 PUSH0 MSTORE PUSH1 0x22 PUSH1 0x4 MSTORE PUSH1 0x24 PUSH0 REVERT JUMPDEST PUSH0 PUSH1 0x2 DUP3 DIV SWAP1 POP PUSH1 0x1 DUP3 AND DUP1 PUSH2 0x8D2 JUMPI PUSH1 0x7F DUP3 AND SWAP2 POP JUMPDEST PUSH1 0x20 DUP3 LT DUP2 SUB PUSH2 0x8E5 JUMPI PUSH2 0x8E4 PUSH2 0x88E JUMP JUMPDEST JUMPDEST POP SWAP2 SWAP1 POP JUMP JUMPDEST PUSH0 DUP2 SWAP1 POP DUP2 PUSH0 MSTORE PUSH1 0x20 PUSH0 KECCAK256 SWAP1 POP SWAP2 SWAP1 POP JUMP JUMPDEST PUSH0 PUSH1 0x20 PUSH1 0x1F DUP4 ADD DIV SWAP1 POP SWAP2 SWAP1 POP JUMP JUMPDEST PUSH0 DUP3 DUP3 SHL SWAP1 POP SWAP3 SWAP2 POP POP JUMP JUMPDEST PUSH0 PUSH1 0x8 DUP4 MUL PUSH2 0x947 PUSH32 0xFFFFFFFFFFFFFFFFFFFFFFFFFFFFFFFFFFFFFFFFFFFFFFFFFFFFFFFFFFFFFFFF DUP3 PUSH2 0x90C JUMP JUMPDEST PUSH2 0x951 DUP7 DUP4 PUSH2 0x90C JUMP JUMPDEST SWAP6 POP DUP1 NOT DUP5 AND SWAP4 POP DUP1 DUP7 AND DUP5 OR SWAP3 POP POP POP SWAP4 SWAP3 POP POP POP JUMP JUMPDEST PUSH0 DUP2 SWAP1 POP SWAP2 SWAP1 POP JUMP JUMPDEST PUSH0 PUSH2 0x98C PUSH2 0x987 PUSH2 0x982 DUP5 PUSH2 0x426 JUMP JUMPDEST PUSH2 0x969 JUMP JUMPDEST PUSH2 0x426 JUMP JUMPDEST SWAP1 POP SWAP2 SWAP1 POP JUMP JUMPDEST PUSH0 DUP2 SWAP1 POP SWAP2 SWAP1 POP JUMP JUMPDEST PUSH2 0x9A5 DUP4 PUSH2 0x972 JUMP JUMPDEST PUSH2 0x9B9 PUSH2 0x9B1 DUP3 PUSH2 0x993 JUMP JUMPDEST DUP5 DUP5 SLOAD PUSH2 0x918 JUMP JUMPDEST DUP3 SSTORE POP POP POP POP JUMP JUMPDEST PUSH0 SWAP1 JUMP JUMPDEST PUSH2 0x9CD PUSH2 0x9C1 JUMP JUMPDEST PUSH2 0x9D8 DUP2 DUP5 DUP5 PUSH2 0x99C JUMP JUMPDEST POP POP POP JUMP JUMPDEST JUMPDEST DUP2 DUP2 LT ISZERO PUSH2 0x9FB JUMPI PUSH2 0x9F0 PUSH0 DUP3 PUSH2 0x9C5 JUMP JUMPDEST PUSH1 0x1 DUP2 ADD SWAP1 POP PUSH2 0x9DE JUMP JUMPDEST POP POP JUMP JUMPDEST PUSH1 0x1F DUP3 GT ISZERO PUSH2 0xA40 JUMPI PUSH2 0xA11 DUP2 PUSH2 0x8EB JUMP JUMPDEST PUSH2 0xA1A DUP5 PUSH2 0x8FD JUMP JUMPDEST DUP2 ADD PUSH1 0x20 DUP6 LT ISZERO PUSH2 0xA29 JUMPI DUP2 SWAP1 POP JUMPDEST PUSH2 0xA3D PUSH2 0xA35 DUP6 PUSH2 0x8FD JUMP JUMPDEST DUP4 ADD DUP3 PUSH2 0x9DD JUMP JUMPDEST POP POP JUMPDEST POP POP POP JUMP JUMPDEST PUSH0 DUP3 DUP3 SHR SWAP1 POP SWAP3 SWAP2 POP POP JUMP JUMPDEST PUSH0 PUSH2 0xA60 PUSH0 NOT DUP5 PUSH1 0x8 MUL PUSH2 0xA45 JUMP JUMPDEST NOT DUP1 DUP4 AND SWAP2 POP POP SWAP3 SWAP2 POP POP JUMP JUMPDEST PUSH0 PUSH2 0xA78 DUP4 DUP4 PUSH2 0xA51 JUMP JUMPDEST SWAP2 POP DUP3 PUSH1 0x2 MUL DUP3 OR SWAP1 POP SWAP3 SWAP2 POP POP JUMP JUMPDEST PUSH2 0xA91 DUP3 PUSH2 0x4BD JUMP JUMPDEST PUSH8 0xFFFFFFFFFFFFFFFF DUP2 GT ISZERO PUSH2 0xAAA JUMPI PUSH2 0xAA9 PUSH2 0x632 JUMP JUMPDEST JUMPDEST PUSH2 0xAB4 DUP3 SLOAD PUSH2 0x8BB JUMP JUMPDEST PUSH2 0xABF DUP3 DUP3 DUP6 PUSH2 0x9FF JUMP JUMPDEST PUSH0 PUSH1 0x20 SWAP1 POP PUSH1 0x1F DUP4 GT PUSH1 0x1 DUP2 EQ PUSH2 0xAF0 JUMPI PUSH0 DUP5 ISZERO PUSH2 0xADE JUMPI DUP3 DUP8 ADD MLOAD SWAP1 POP JUMPDEST PUSH2 0xAE8 DUP6 DUP3 PUSH2 0xA6D JUMP JUMPDEST DUP7 SSTORE POP PUSH2 0xB4F JUMP JUMPDEST PUSH1 0x1F NOT DUP5 AND PUSH2 0xAFE DUP7 PUSH2 0x8EB JUMP JUMPDEST PUSH0 JUMPDEST DUP3 DUP2 LT ISZERO PUSH2 0xB25 JUMPI DUP5 DUP10 ADD MLOAD DUP3 SSTORE PUSH1 0x1 DUP3 ADD SWAP2 POP PUSH1 0x20 DUP6 ADD SWAP5 POP PUSH1 0x20 DUP2 ADD SWAP1 POP PUSH2 0xB00 JUMP JUMPDEST DUP7 DUP4 LT ISZERO PUSH2 0xB42 JUMPI DUP5 DUP10 ADD MLOAD PUSH2 0xB3E PUSH1 0x1F DUP10 AND DUP3 PUSH2 0xA51 JUMP JUMPDEST DUP4 SSTORE POP JUMPDEST PUSH1 0x1 PUSH1 0x2 DUP9 MUL ADD DUP9 SSTORE POP POP POP JUMPDEST POP POP POP POP POP POP JUMP INVALID LOG2 PUSH5 0x6970667358 0x22 SLT KECCAK256 DUP6 SHL 0xDA 0xC0 0xA8 0xF9 CREATE2 AND 0x21 0xEF 0xBE 0xC5 MSTORE ADDMOD MSIZE PUSH29 0xCAC5A7E16EAE854C4B68877A505703BA64736F6C634300081500330000 "
		},
		"gasEstimates": {
			"creation": {
				"codeDepositCost": "591400",
				"executionCost": "623",
				"totalCost": "592023"
			},
			"external": {
				"buyBook(uint256)": "infinite",
				"changeOwner(uint256,address)": "25006",
				"getBookDetails(uint256)": "infinite",
				"getOwner(uint256)": "2940",
				"mintToken()": "24663",
				"setBook(string,uint256)": "infinite"
			}
		},
		"methodIdentifiers": {
			"buyBook(uint256)": "6ee26566",
			"changeOwner(uint256,address)": "784796f7",
			"getBookDetails(uint256)": "74ff4818",
			"getOwner(uint256)": "c41a360a",
			"mintToken()": "2004ffd9",
			"setBook(string,uint256)": "808f0114"
		}
	},
	"abi": [
		{
			"inputs": [
				{
					"internalType": "uint256",
					"name": "bookId",
					"type": "uint256"
				}
			],
			"name": "buyBook",
			"outputs": [],
			"stateMutability": "payable",
			"type": "function"
		},
		{
			"inputs": [
				{
					"internalType": "uint256",
					"name": "tokenId",
					"type": "uint256"
				},
				{
					"internalType": "address",
					"name": "newOwner",
					"type": "address"
				}
			],
			"name": "changeOwner",
			"outputs": [],
			"stateMutability": "nonpayable",
			"type": "function"
		},
		{
			"inputs": [
				{
					"internalType": "uint256",
					"name": "bookId",
					"type": "uint256"
				}
			],
			"name": "getBookDetails",
			"outputs": [
				{
					"internalType": "string",
					"name": "",
					"type": "string"
				},
				{
					"internalType": "uint256",
					"name": "",
					"type": "uint256"
				},
				{
					"internalType": "address",
					"name": "",
					"type": "address"
				}
			],
			"stateMutability": "view",
			"type": "function"
		},
		{
			"inputs": [
				{
					"internalType": "uint256",
					"name": "tokenId",
					"type": "uint256"
				}
			],
			"name": "getOwner",
			"outputs": [
				{
					"internalType": "address",
					"name": "",
					"type": "address"
				}
			],
			"stateMutability": "view",
			"type": "function"
		},
		{
			"inputs": [],
			"name": "mintToken",
			"outputs": [
				{
					"internalType": "uint256",
					"name": "",
					"type": "uint256"
				}
			],
			"stateMutability": "nonpayable",
			"type": "function"
		},
		{
			"inputs": [
				{
					"internalType": "string",
					"name": "_title",
					"type": "string"
				},
				{
					"internalType": "uint256",
					"name": "_price",
					"type": "uint256"
				}
			],
			"name": "setBook",
			"outputs": [
				{
					"internalType": "uint256",
					"name": "",
					"type": "uint256"
				}
			],
			"stateMutability": "nonpayable",
			"type": "function"
		}
	]
}