{
	"contracts/Reentrancy/DAOBank.sol": {
		"DAOBank": {
			"abi": [
				{
					"inputs": [
						{
							"internalType": "address",
							"name": "",
							"type": "address"
						}
					],
					"name": "balanceUpdate",
					"outputs": [
						{
							"internalType": "uint256",
							"name": "",
							"type": "uint256"
						}
					],
					"stateMutability": "view",
					"type": "function"
				},
				{
					"inputs": [],
					"name": "deposit",
					"outputs": [],
					"stateMutability": "payable",
					"type": "function"
				},
				{
					"inputs": [],
					"name": "withdraw",
					"outputs": [],
					"stateMutability": "nonpayable",
					"type": "function"
				}
			],
			"devdoc": {
				"kind": "dev",
				"methods": {},
				"version": 1
			},
			"evm": {
				"assembly": "    /* \"contracts/Reentrancy/DAOBank.sol\":58:507  contract DAOBank{\r... */\n  mstore(0x40, 0x80)\n  callvalue\n  dup1\n  iszero\n  tag_1\n  jumpi\n  0x00\n  dup1\n  revert\ntag_1:\n  pop\n  dataSize(sub_0)\n  dup1\n  dataOffset(sub_0)\n  0x00\n  codecopy\n  0x00\n  return\nstop\n\nsub_0: assembly {\n        /* \"contracts/Reentrancy/DAOBank.sol\":58:507  contract DAOBank{\r... */\n      mstore(0x40, 0x80)\n      jumpi(tag_1, lt(calldatasize, 0x04))\n      shr(0xe0, calldataload(0x00))\n      dup1\n      0x3ccfd60b\n      eq\n      tag_2\n      jumpi\n      dup1\n      0x67e34335\n      eq\n      tag_3\n      jumpi\n      dup1\n      0xd0e30db0\n      eq\n      tag_4\n      jumpi\n    tag_1:\n      0x00\n      dup1\n      revert\n        /* \"contracts/Reentrancy/DAOBank.sol\":236:502  function withdraw() public{\r... */\n    tag_2:\n      callvalue\n      dup1\n      iszero\n      tag_5\n      jumpi\n      0x00\n      dup1\n      revert\n    tag_5:\n      pop\n      tag_6\n      tag_7\n      jump\t// in\n    tag_6:\n      stop\n        /* \"contracts/Reentrancy/DAOBank.sol\":83:129  mapping(address=>uint256) public balanceUpdate */\n    tag_3:\n      callvalue\n      dup1\n      iszero\n      tag_8\n      jumpi\n      0x00\n      dup1\n      revert\n    tag_8:\n      pop\n      tag_9\n      0x04\n      dup1\n      calldatasize\n      sub\n      dup2\n      add\n      swap1\n      tag_10\n      swap2\n      swap1\n      tag_11\n      jump\t// in\n    tag_10:\n      tag_12\n      jump\t// in\n    tag_9:\n      mload(0x40)\n      tag_13\n      swap2\n      swap1\n      tag_14\n      jump\t// in\n    tag_13:\n      mload(0x40)\n      dup1\n      swap2\n      sub\n      swap1\n      return\n        /* \"contracts/Reentrancy/DAOBank.sol\":138:228  function deposit() payable public{\r... */\n    tag_4:\n      tag_15\n      tag_16\n      jump\t// in\n    tag_15:\n      stop\n        /* \"contracts/Reentrancy/DAOBank.sol\":236:502  function withdraw() public{\r... */\n    tag_7:\n        /* \"contracts/Reentrancy/DAOBank.sol\":273:284  uint256 bal */\n      0x00\n        /* \"contracts/Reentrancy/DAOBank.sol\":287:300  balanceUpdate */\n      dup1\n        /* \"contracts/Reentrancy/DAOBank.sol\":287:312  balanceUpdate[msg.sender] */\n      0x00\n        /* \"contracts/Reentrancy/DAOBank.sol\":301:311  msg.sender */\n      caller\n        /* \"contracts/Reentrancy/DAOBank.sol\":287:312  balanceUpdate[msg.sender] */\n      0xffffffffffffffffffffffffffffffffffffffff\n      and\n      0xffffffffffffffffffffffffffffffffffffffff\n      and\n      dup2\n      mstore\n      0x20\n      add\n      swap1\n      dup2\n      mstore\n      0x20\n      add\n      0x00\n      keccak256\n      sload\n        /* \"contracts/Reentrancy/DAOBank.sol\":273:312  uint256 bal = balanceUpdate[msg.sender] */\n      swap1\n      pop\n        /* \"contracts/Reentrancy/DAOBank.sol\":335:336  0 */\n      0x00\n        /* \"contracts/Reentrancy/DAOBank.sol\":331:334  bal */\n      dup2\n        /* \"contracts/Reentrancy/DAOBank.sol\":331:336  bal>0 */\n      gt\n        /* \"contracts/Reentrancy/DAOBank.sol\":323:337  require(bal>0) */\n      tag_18\n      jumpi\n      0x00\n      dup1\n      revert\n    tag_18:\n        /* \"contracts/Reentrancy/DAOBank.sol\":351:360  bool sent */\n      0x00\n        /* \"contracts/Reentrancy/DAOBank.sol\":366:376  msg.sender */\n      caller\n        /* \"contracts/Reentrancy/DAOBank.sol\":366:381  msg.sender.call */\n      0xffffffffffffffffffffffffffffffffffffffff\n      and\n        /* \"contracts/Reentrancy/DAOBank.sol\":388:391  bal */\n      dup3\n        /* \"contracts/Reentrancy/DAOBank.sol\":366:396  msg.sender.call{value:bal}(\"\") */\n      mload(0x40)\n      tag_19\n      swap1\n      tag_20\n      jump\t// in\n    tag_19:\n      0x00\n      mload(0x40)\n      dup1\n      dup4\n      sub\n      dup2\n      dup6\n      dup8\n      gas\n      call\n      swap3\n      pop\n      pop\n      pop\n      returndatasize\n      dup1\n      0x00\n      dup2\n      eq\n      tag_23\n      jumpi\n      mload(0x40)\n      swap2\n      pop\n      and(add(returndatasize, 0x3f), not(0x1f))\n      dup3\n      add\n      0x40\n      mstore\n      returndatasize\n      dup3\n      mstore\n      returndatasize\n      0x00\n      0x20\n      dup5\n      add\n      returndatacopy\n      jump(tag_22)\n    tag_23:\n      0x60\n      swap2\n      pop\n    tag_22:\n      pop\n        /* \"contracts/Reentrancy/DAOBank.sol\":350:396  (bool sent, ) = msg.sender.call{value:bal}(\"\") */\n      pop\n      swap1\n      pop\n        /* \"contracts/Reentrancy/DAOBank.sol\":415:419  sent */\n      dup1\n        /* \"contracts/Reentrancy/DAOBank.sol\":407:450  require(sent, \"Transaction not successful\") */\n      tag_24\n      jumpi\n      mload(0x40)\n      0x08c379a000000000000000000000000000000000000000000000000000000000\n      dup2\n      mstore\n      0x04\n      add\n      tag_25\n      swap1\n      tag_26\n      jump\t// in\n    tag_25:\n      mload(0x40)\n      dup1\n      swap2\n      sub\n      swap1\n      revert\n    tag_24:\n        /* \"contracts/Reentrancy/DAOBank.sol\":491:492  0 */\n      0x00\n        /* \"contracts/Reentrancy/DAOBank.sol\":463:476  balanceUpdate */\n      dup1\n        /* \"contracts/Reentrancy/DAOBank.sol\":463:488  balanceUpdate[msg.sender] */\n      0x00\n        /* \"contracts/Reentrancy/DAOBank.sol\":477:487  msg.sender */\n      caller\n        /* \"contracts/Reentrancy/DAOBank.sol\":463:488  balanceUpdate[msg.sender] */\n      0xffffffffffffffffffffffffffffffffffffffff\n      and\n      0xffffffffffffffffffffffffffffffffffffffff\n      and\n      dup2\n      mstore\n      0x20\n      add\n      swap1\n      dup2\n      mstore\n      0x20\n      add\n      0x00\n      keccak256\n        /* \"contracts/Reentrancy/DAOBank.sol\":463:492  balanceUpdate[msg.sender] = 0 */\n      dup2\n      swap1\n      sstore\n      pop\n        /* \"contracts/Reentrancy/DAOBank.sol\":236:502  function withdraw() public{\r... */\n      pop\n      pop\n      jump\t// out\n        /* \"contracts/Reentrancy/DAOBank.sol\":83:129  mapping(address=>uint256) public balanceUpdate */\n    tag_12:\n      mstore(0x20, 0x00)\n      dup1\n      0x00\n      mstore\n      keccak256(0x00, 0x40)\n      0x00\n      swap2\n      pop\n      swap1\n      pop\n      sload\n      dup2\n      jump\t// out\n        /* \"contracts/Reentrancy/DAOBank.sol\":138:228  function deposit() payable public{\r... */\n    tag_16:\n        /* \"contracts/Reentrancy/DAOBank.sol\":211:220  msg.value */\n      callvalue\n        /* \"contracts/Reentrancy/DAOBank.sol\":182:195  balanceUpdate */\n      0x00\n        /* \"contracts/Reentrancy/DAOBank.sol\":182:207  balanceUpdate[msg.sender] */\n      dup1\n        /* \"contracts/Reentrancy/DAOBank.sol\":196:206  msg.sender */\n      caller\n        /* \"contracts/Reentrancy/DAOBank.sol\":182:207  balanceUpdate[msg.sender] */\n      0xffffffffffffffffffffffffffffffffffffffff\n      and\n      0xffffffffffffffffffffffffffffffffffffffff\n      and\n      dup2\n      mstore\n      0x20\n      add\n      swap1\n      dup2\n      mstore\n      0x20\n      add\n      0x00\n      keccak256\n      0x00\n        /* \"contracts/Reentrancy/DAOBank.sol\":182:220  balanceUpdate[msg.sender] += msg.value */\n      dup3\n      dup3\n      sload\n      tag_28\n      swap2\n      swap1\n      tag_29\n      jump\t// in\n    tag_28:\n      swap3\n      pop\n      pop\n      dup2\n      swap1\n      sstore\n      pop\n        /* \"contracts/Reentrancy/DAOBank.sol\":138:228  function deposit() payable public{\r... */\n      jump\t// out\n        /* \"#utility.yul\":7:146   */\n    tag_31:\n      0x00\n        /* \"#utility.yul\":91:97   */\n      dup2\n        /* \"#utility.yul\":78:98   */\n      calldataload\n        /* \"#utility.yul\":69:98   */\n      swap1\n      pop\n        /* \"#utility.yul\":107:140   */\n      tag_33\n        /* \"#utility.yul\":134:139   */\n      dup2\n        /* \"#utility.yul\":107:140   */\n      tag_34\n      jump\t// in\n    tag_33:\n        /* \"#utility.yul\":59:146   */\n      swap3\n      swap2\n      pop\n      pop\n      jump\t// out\n        /* \"#utility.yul\":152:414   */\n    tag_11:\n      0x00\n        /* \"#utility.yul\":260:262   */\n      0x20\n        /* \"#utility.yul\":248:257   */\n      dup3\n        /* \"#utility.yul\":239:246   */\n      dup5\n        /* \"#utility.yul\":235:258   */\n      sub\n        /* \"#utility.yul\":231:263   */\n      slt\n        /* \"#utility.yul\":228:230   */\n      iszero\n      tag_36\n      jumpi\n        /* \"#utility.yul\":276:277   */\n      0x00\n        /* \"#utility.yul\":273:274   */\n      dup1\n        /* \"#utility.yul\":266:278   */\n      revert\n        /* \"#utility.yul\":228:230   */\n    tag_36:\n        /* \"#utility.yul\":319:320   */\n      0x00\n        /* \"#utility.yul\":344:397   */\n      tag_37\n        /* \"#utility.yul\":389:396   */\n      dup5\n        /* \"#utility.yul\":380:386   */\n      dup3\n        /* \"#utility.yul\":369:378   */\n      dup6\n        /* \"#utility.yul\":365:387   */\n      add\n        /* \"#utility.yul\":344:397   */\n      tag_31\n      jump\t// in\n    tag_37:\n        /* \"#utility.yul\":334:397   */\n      swap2\n      pop\n        /* \"#utility.yul\":290:407   */\n      pop\n        /* \"#utility.yul\":218:414   */\n      swap3\n      swap2\n      pop\n      pop\n      jump\t// out\n        /* \"#utility.yul\":420:818   */\n    tag_38:\n      0x00\n        /* \"#utility.yul\":600:683   */\n      tag_40\n        /* \"#utility.yul\":681:682   */\n      0x00\n        /* \"#utility.yul\":676:679   */\n      dup4\n        /* \"#utility.yul\":600:683   */\n      tag_41\n      jump\t// in\n    tag_40:\n        /* \"#utility.yul\":593:683   */\n      swap2\n      pop\n        /* \"#utility.yul\":692:785   */\n      tag_42\n        /* \"#utility.yul\":781:784   */\n      dup3\n        /* \"#utility.yul\":692:785   */\n      tag_43\n      jump\t// in\n    tag_42:\n        /* \"#utility.yul\":810:811   */\n      0x00\n        /* \"#utility.yul\":805:808   */\n      dup3\n        /* \"#utility.yul\":801:812   */\n      add\n        /* \"#utility.yul\":794:812   */\n      swap1\n      pop\n        /* \"#utility.yul\":583:818   */\n      swap2\n      swap1\n      pop\n      jump\t// out\n        /* \"#utility.yul\":824:1190   */\n    tag_44:\n      0x00\n        /* \"#utility.yul\":987:1054   */\n      tag_46\n        /* \"#utility.yul\":1051:1053   */\n      0x1a\n        /* \"#utility.yul\":1046:1049   */\n      dup4\n        /* \"#utility.yul\":987:1054   */\n      tag_47\n      jump\t// in\n    tag_46:\n        /* \"#utility.yul\":980:1054   */\n      swap2\n      pop\n        /* \"#utility.yul\":1063:1156   */\n      tag_48\n        /* \"#utility.yul\":1152:1155   */\n      dup3\n        /* \"#utility.yul\":1063:1156   */\n      tag_49\n      jump\t// in\n    tag_48:\n        /* \"#utility.yul\":1181:1183   */\n      0x20\n        /* \"#utility.yul\":1176:1179   */\n      dup3\n        /* \"#utility.yul\":1172:1184   */\n      add\n        /* \"#utility.yul\":1165:1184   */\n      swap1\n      pop\n        /* \"#utility.yul\":970:1190   */\n      swap2\n      swap1\n      pop\n      jump\t// out\n        /* \"#utility.yul\":1196:1314   */\n    tag_50:\n        /* \"#utility.yul\":1283:1307   */\n      tag_52\n        /* \"#utility.yul\":1301:1306   */\n      dup2\n        /* \"#utility.yul\":1283:1307   */\n      tag_53\n      jump\t// in\n    tag_52:\n        /* \"#utility.yul\":1278:1281   */\n      dup3\n        /* \"#utility.yul\":1271:1308   */\n      mstore\n        /* \"#utility.yul\":1261:1314   */\n      pop\n      pop\n      jump\t// out\n        /* \"#utility.yul\":1320:1699   */\n    tag_20:\n      0x00\n        /* \"#utility.yul\":1526:1673   */\n      tag_55\n        /* \"#utility.yul\":1669:1672   */\n      dup3\n        /* \"#utility.yul\":1526:1673   */\n      tag_38\n      jump\t// in\n    tag_55:\n        /* \"#utility.yul\":1519:1673   */\n      swap2\n      pop\n        /* \"#utility.yul\":1690:1693   */\n      dup2\n        /* \"#utility.yul\":1683:1693   */\n      swap1\n      pop\n        /* \"#utility.yul\":1508:1699   */\n      swap2\n      swap1\n      pop\n      jump\t// out\n        /* \"#utility.yul\":1705:2124   */\n    tag_26:\n      0x00\n        /* \"#utility.yul\":1909:1911   */\n      0x20\n        /* \"#utility.yul\":1898:1907   */\n      dup3\n        /* \"#utility.yul\":1894:1912   */\n      add\n        /* \"#utility.yul\":1886:1912   */\n      swap1\n      pop\n        /* \"#utility.yul\":1958:1967   */\n      dup2\n        /* \"#utility.yul\":1952:1956   */\n      dup2\n        /* \"#utility.yul\":1948:1968   */\n      sub\n        /* \"#utility.yul\":1944:1945   */\n      0x00\n        /* \"#utility.yul\":1933:1942   */\n      dup4\n        /* \"#utility.yul\":1929:1946   */\n      add\n        /* \"#utility.yul\":1922:1969   */\n      mstore\n        /* \"#utility.yul\":1986:2117   */\n      tag_57\n        /* \"#utility.yul\":2112:2116   */\n      dup2\n        /* \"#utility.yul\":1986:2117   */\n      tag_44\n      jump\t// in\n    tag_57:\n        /* \"#utility.yul\":1978:2117   */\n      swap1\n      pop\n        /* \"#utility.yul\":1876:2124   */\n      swap2\n      swap1\n      pop\n      jump\t// out\n        /* \"#utility.yul\":2130:2352   */\n    tag_14:\n      0x00\n        /* \"#utility.yul\":2261:2263   */\n      0x20\n        /* \"#utility.yul\":2250:2259   */\n      dup3\n        /* \"#utility.yul\":2246:2264   */\n      add\n        /* \"#utility.yul\":2238:2264   */\n      swap1\n      pop\n        /* \"#utility.yul\":2274:2345   */\n      tag_59\n        /* \"#utility.yul\":2342:2343   */\n      0x00\n        /* \"#utility.yul\":2331:2340   */\n      dup4\n        /* \"#utility.yul\":2327:2344   */\n      add\n        /* \"#utility.yul\":2318:2324   */\n      dup5\n        /* \"#utility.yul\":2274:2345   */\n      tag_50\n      jump\t// in\n    tag_59:\n        /* \"#utility.yul\":2228:2352   */\n      swap3\n      swap2\n      pop\n      pop\n      jump\t// out\n        /* \"#utility.yul\":2358:2505   */\n    tag_41:\n      0x00\n        /* \"#utility.yul\":2496:2499   */\n      dup2\n        /* \"#utility.yul\":2481:2499   */\n      swap1\n      pop\n        /* \"#utility.yul\":2471:2505   */\n      swap3\n      swap2\n      pop\n      pop\n      jump\t// out\n        /* \"#utility.yul\":2511:2680   */\n    tag_47:\n      0x00\n        /* \"#utility.yul\":2629:2635   */\n      dup3\n        /* \"#utility.yul\":2624:2627   */\n      dup3\n        /* \"#utility.yul\":2617:2636   */\n      mstore\n        /* \"#utility.yul\":2669:2673   */\n      0x20\n        /* \"#utility.yul\":2664:2667   */\n      dup3\n        /* \"#utility.yul\":2660:2674   */\n      add\n        /* \"#utility.yul\":2645:2674   */\n      swap1\n      pop\n        /* \"#utility.yul\":2607:2680   */\n      swap3\n      swap2\n      pop\n      pop\n      jump\t// out\n        /* \"#utility.yul\":2686:2991   */\n    tag_29:\n      0x00\n        /* \"#utility.yul\":2745:2765   */\n      tag_63\n        /* \"#utility.yul\":2763:2764   */\n      dup3\n        /* \"#utility.yul\":2745:2765   */\n      tag_53\n      jump\t// in\n    tag_63:\n        /* \"#utility.yul\":2740:2765   */\n      swap2\n      pop\n        /* \"#utility.yul\":2779:2799   */\n      tag_64\n        /* \"#utility.yul\":2797:2798   */\n      dup4\n        /* \"#utility.yul\":2779:2799   */\n      tag_53\n      jump\t// in\n    tag_64:\n        /* \"#utility.yul\":2774:2799   */\n      swap3\n      pop\n        /* \"#utility.yul\":2933:2934   */\n      dup3\n        /* \"#utility.yul\":2865:2931   */\n      0xffffffffffffffffffffffffffffffffffffffffffffffffffffffffffffffff\n        /* \"#utility.yul\":2861:2935   */\n      sub\n        /* \"#utility.yul\":2858:2859   */\n      dup3\n        /* \"#utility.yul\":2855:2936   */\n      gt\n        /* \"#utility.yul\":2852:2854   */\n      iszero\n      tag_65\n      jumpi\n        /* \"#utility.yul\":2939:2957   */\n      tag_66\n      tag_67\n      jump\t// in\n    tag_66:\n        /* \"#utility.yul\":2852:2854   */\n    tag_65:\n        /* \"#utility.yul\":2983:2984   */\n      dup3\n        /* \"#utility.yul\":2980:2981   */\n      dup3\n        /* \"#utility.yul\":2976:2985   */\n      add\n        /* \"#utility.yul\":2969:2985   */\n      swap1\n      pop\n        /* \"#utility.yul\":2730:2991   */\n      swap3\n      swap2\n      pop\n      pop\n      jump\t// out\n        /* \"#utility.yul\":2997:3093   */\n    tag_68:\n      0x00\n        /* \"#utility.yul\":3063:3087   */\n      tag_70\n        /* \"#utility.yul\":3081:3086   */\n      dup3\n        /* \"#utility.yul\":3063:3087   */\n      tag_71\n      jump\t// in\n    tag_70:\n        /* \"#utility.yul\":3052:3087   */\n      swap1\n      pop\n        /* \"#utility.yul\":3042:3093   */\n      swap2\n      swap1\n      pop\n      jump\t// out\n        /* \"#utility.yul\":3099:3225   */\n    tag_71:\n      0x00\n        /* \"#utility.yul\":3176:3218   */\n      0xffffffffffffffffffffffffffffffffffffffff\n        /* \"#utility.yul\":3169:3174   */\n      dup3\n        /* \"#utility.yul\":3165:3219   */\n      and\n        /* \"#utility.yul\":3154:3219   */\n      swap1\n      pop\n        /* \"#utility.yul\":3144:3225   */\n      swap2\n      swap1\n      pop\n      jump\t// out\n        /* \"#utility.yul\":3231:3308   */\n    tag_53:\n      0x00\n        /* \"#utility.yul\":3297:3302   */\n      dup2\n        /* \"#utility.yul\":3286:3302   */\n      swap1\n      pop\n        /* \"#utility.yul\":3276:3308   */\n      swap2\n      swap1\n      pop\n      jump\t// out\n        /* \"#utility.yul\":3314:3494   */\n    tag_67:\n        /* \"#utility.yul\":3362:3439   */\n      0x4e487b7100000000000000000000000000000000000000000000000000000000\n        /* \"#utility.yul\":3359:3360   */\n      0x00\n        /* \"#utility.yul\":3352:3440   */\n      mstore\n        /* \"#utility.yul\":3459:3463   */\n      0x11\n        /* \"#utility.yul\":3456:3457   */\n      0x04\n        /* \"#utility.yul\":3449:3464   */\n      mstore\n        /* \"#utility.yul\":3483:3487   */\n      0x24\n        /* \"#utility.yul\":3480:3481   */\n      0x00\n        /* \"#utility.yul\":3473:3488   */\n      revert\n        /* \"#utility.yul\":3500:3614   */\n    tag_43:\n        /* \"#utility.yul\":3606:3614   */\n      pop\n      jump\t// out\n        /* \"#utility.yul\":3620:3796   */\n    tag_49:\n        /* \"#utility.yul\":3760:3788   */\n      0x5472616e73616374696f6e206e6f74207375636365737366756c000000000000\n        /* \"#utility.yul\":3756:3757   */\n      0x00\n        /* \"#utility.yul\":3748:3754   */\n      dup3\n        /* \"#utility.yul\":3744:3758   */\n      add\n        /* \"#utility.yul\":3737:3789   */\n      mstore\n        /* \"#utility.yul\":3726:3796   */\n      pop\n      jump\t// out\n        /* \"#utility.yul\":3802:3924   */\n    tag_34:\n        /* \"#utility.yul\":3875:3899   */\n      tag_78\n        /* \"#utility.yul\":3893:3898   */\n      dup2\n        /* \"#utility.yul\":3875:3899   */\n      tag_68\n      jump\t// in\n    tag_78:\n        /* \"#utility.yul\":3868:3873   */\n      dup2\n        /* \"#utility.yul\":3865:3900   */\n      eq\n        /* \"#utility.yul\":3855:3857   */\n      tag_79\n      jumpi\n        /* \"#utility.yul\":3914:3915   */\n      0x00\n        /* \"#utility.yul\":3911:3912   */\n      dup1\n        /* \"#utility.yul\":3904:3916   */\n      revert\n        /* \"#utility.yul\":3855:3857   */\n    tag_79:\n        /* \"#utility.yul\":3845:3924   */\n      pop\n      jump\t// out\n\n    auxdata: 0xa26469706673582212202e5e1828db8168b6b366a458a0b1a38b0f0abb62600cee14f7d75900da503c2664736f6c63430008010033\n}\n",
				"bytecode": {
					"linkReferences": {},
					"object": "608060405234801561001057600080fd5b50610483806100206000396000f3fe6080604052600436106100345760003560e01c80633ccfd60b1461003957806367e3433514610050578063d0e30db01461008d575b600080fd5b34801561004557600080fd5b5061004e610097565b005b34801561005c57600080fd5b506100776004803603810190610072919061025f565b6101db565b6040516100849190610312565b60405180910390f35b6100956101f3565b005b60008060003373ffffffffffffffffffffffffffffffffffffffff1673ffffffffffffffffffffffffffffffffffffffff168152602001908152602001600020549050600081116100e757600080fd5b60003373ffffffffffffffffffffffffffffffffffffffff168260405161010d906102dd565b60006040518083038185875af1925050503d806000811461014a576040519150601f19603f3d011682016040523d82523d6000602084013e61014f565b606091505b5050905080610193576040517f08c379a000000000000000000000000000000000000000000000000000000000815260040161018a906102f2565b60405180910390fd5b60008060003373ffffffffffffffffffffffffffffffffffffffff1673ffffffffffffffffffffffffffffffffffffffff168152602001908152602001600020819055505050565b60006020528060005260406000206000915090505481565b346000803373ffffffffffffffffffffffffffffffffffffffff1673ffffffffffffffffffffffffffffffffffffffff16815260200190815260200160002060008282546102419190610349565b92505081905550565b60008135905061025981610436565b92915050565b60006020828403121561027157600080fd5b600061027f8482850161024a565b91505092915050565b600061029560008361032d565b91506102a08261040a565b600082019050919050565b60006102b8601a83610338565b91506102c38261040d565b602082019050919050565b6102d7816103d1565b82525050565b60006102e882610288565b9150819050919050565b6000602082019050818103600083015261030b816102ab565b9050919050565b600060208201905061032760008301846102ce565b92915050565b600081905092915050565b600082825260208201905092915050565b6000610354826103d1565b915061035f836103d1565b9250827fffffffffffffffffffffffffffffffffffffffffffffffffffffffffffffffff03821115610394576103936103db565b5b828201905092915050565b60006103aa826103b1565b9050919050565b600073ffffffffffffffffffffffffffffffffffffffff82169050919050565b6000819050919050565b7f4e487b7100000000000000000000000000000000000000000000000000000000600052601160045260246000fd5b50565b7f5472616e73616374696f6e206e6f74207375636365737366756c000000000000600082015250565b61043f8161039f565b811461044a57600080fd5b5056fea26469706673582212202e5e1828db8168b6b366a458a0b1a38b0f0abb62600cee14f7d75900da503c2664736f6c63430008010033",
					"opcodes": "PUSH1 0x80 PUSH1 0x40 MSTORE CALLVALUE DUP1 ISZERO PUSH2 0x10 JUMPI PUSH1 0x0 DUP1 REVERT JUMPDEST POP PUSH2 0x483 DUP1 PUSH2 0x20 PUSH1 0x0 CODECOPY PUSH1 0x0 RETURN INVALID PUSH1 0x80 PUSH1 0x40 MSTORE PUSH1 0x4 CALLDATASIZE LT PUSH2 0x34 JUMPI PUSH1 0x0 CALLDATALOAD PUSH1 0xE0 SHR DUP1 PUSH4 0x3CCFD60B EQ PUSH2 0x39 JUMPI DUP1 PUSH4 0x67E34335 EQ PUSH2 0x50 JUMPI DUP1 PUSH4 0xD0E30DB0 EQ PUSH2 0x8D JUMPI JUMPDEST PUSH1 0x0 DUP1 REVERT JUMPDEST CALLVALUE DUP1 ISZERO PUSH2 0x45 JUMPI PUSH1 0x0 DUP1 REVERT JUMPDEST POP PUSH2 0x4E PUSH2 0x97 JUMP JUMPDEST STOP JUMPDEST CALLVALUE DUP1 ISZERO PUSH2 0x5C JUMPI PUSH1 0x0 DUP1 REVERT JUMPDEST POP PUSH2 0x77 PUSH1 0x4 DUP1 CALLDATASIZE SUB DUP2 ADD SWAP1 PUSH2 0x72 SWAP2 SWAP1 PUSH2 0x25F JUMP JUMPDEST PUSH2 0x1DB JUMP JUMPDEST PUSH1 0x40 MLOAD PUSH2 0x84 SWAP2 SWAP1 PUSH2 0x312 JUMP JUMPDEST PUSH1 0x40 MLOAD DUP1 SWAP2 SUB SWAP1 RETURN JUMPDEST PUSH2 0x95 PUSH2 0x1F3 JUMP JUMPDEST STOP JUMPDEST PUSH1 0x0 DUP1 PUSH1 0x0 CALLER PUSH20 0xFFFFFFFFFFFFFFFFFFFFFFFFFFFFFFFFFFFFFFFF AND PUSH20 0xFFFFFFFFFFFFFFFFFFFFFFFFFFFFFFFFFFFFFFFF AND DUP2 MSTORE PUSH1 0x20 ADD SWAP1 DUP2 MSTORE PUSH1 0x20 ADD PUSH1 0x0 KECCAK256 SLOAD SWAP1 POP PUSH1 0x0 DUP2 GT PUSH2 0xE7 JUMPI PUSH1 0x0 DUP1 REVERT JUMPDEST PUSH1 0x0 CALLER PUSH20 0xFFFFFFFFFFFFFFFFFFFFFFFFFFFFFFFFFFFFFFFF AND DUP3 PUSH1 0x40 MLOAD PUSH2 0x10D SWAP1 PUSH2 0x2DD JUMP JUMPDEST PUSH1 0x0 PUSH1 0x40 MLOAD DUP1 DUP4 SUB DUP2 DUP6 DUP8 GAS CALL SWAP3 POP POP POP RETURNDATASIZE DUP1 PUSH1 0x0 DUP2 EQ PUSH2 0x14A JUMPI PUSH1 0x40 MLOAD SWAP2 POP PUSH1 0x1F NOT PUSH1 0x3F RETURNDATASIZE ADD AND DUP3 ADD PUSH1 0x40 MSTORE RETURNDATASIZE DUP3 MSTORE RETURNDATASIZE PUSH1 0x0 PUSH1 0x20 DUP5 ADD RETURNDATACOPY PUSH2 0x14F JUMP JUMPDEST PUSH1 0x60 SWAP2 POP JUMPDEST POP POP SWAP1 POP DUP1 PUSH2 0x193 JUMPI PUSH1 0x40 MLOAD PUSH32 0x8C379A000000000000000000000000000000000000000000000000000000000 DUP2 MSTORE PUSH1 0x4 ADD PUSH2 0x18A SWAP1 PUSH2 0x2F2 JUMP JUMPDEST PUSH1 0x40 MLOAD DUP1 SWAP2 SUB SWAP1 REVERT JUMPDEST PUSH1 0x0 DUP1 PUSH1 0x0 CALLER PUSH20 0xFFFFFFFFFFFFFFFFFFFFFFFFFFFFFFFFFFFFFFFF AND PUSH20 0xFFFFFFFFFFFFFFFFFFFFFFFFFFFFFFFFFFFFFFFF AND DUP2 MSTORE PUSH1 0x20 ADD SWAP1 DUP2 MSTORE PUSH1 0x20 ADD PUSH1 0x0 KECCAK256 DUP2 SWAP1 SSTORE POP POP POP JUMP JUMPDEST PUSH1 0x0 PUSH1 0x20 MSTORE DUP1 PUSH1 0x0 MSTORE PUSH1 0x40 PUSH1 0x0 KECCAK256 PUSH1 0x0 SWAP2 POP SWAP1 POP SLOAD DUP2 JUMP JUMPDEST CALLVALUE PUSH1 0x0 DUP1 CALLER PUSH20 0xFFFFFFFFFFFFFFFFFFFFFFFFFFFFFFFFFFFFFFFF AND PUSH20 0xFFFFFFFFFFFFFFFFFFFFFFFFFFFFFFFFFFFFFFFF AND DUP2 MSTORE PUSH1 0x20 ADD SWAP1 DUP2 MSTORE PUSH1 0x20 ADD PUSH1 0x0 KECCAK256 PUSH1 0x0 DUP3 DUP3 SLOAD PUSH2 0x241 SWAP2 SWAP1 PUSH2 0x349 JUMP JUMPDEST SWAP3 POP POP DUP2 SWAP1 SSTORE POP JUMP JUMPDEST PUSH1 0x0 DUP2 CALLDATALOAD SWAP1 POP PUSH2 0x259 DUP2 PUSH2 0x436 JUMP JUMPDEST SWAP3 SWAP2 POP POP JUMP JUMPDEST PUSH1 0x0 PUSH1 0x20 DUP3 DUP5 SUB SLT ISZERO PUSH2 0x271 JUMPI PUSH1 0x0 DUP1 REVERT JUMPDEST PUSH1 0x0 PUSH2 0x27F DUP5 DUP3 DUP6 ADD PUSH2 0x24A JUMP JUMPDEST SWAP2 POP POP SWAP3 SWAP2 POP POP JUMP JUMPDEST PUSH1 0x0 PUSH2 0x295 PUSH1 0x0 DUP4 PUSH2 0x32D JUMP JUMPDEST SWAP2 POP PUSH2 0x2A0 DUP3 PUSH2 0x40A JUMP JUMPDEST PUSH1 0x0 DUP3 ADD SWAP1 POP SWAP2 SWAP1 POP JUMP JUMPDEST PUSH1 0x0 PUSH2 0x2B8 PUSH1 0x1A DUP4 PUSH2 0x338 JUMP JUMPDEST SWAP2 POP PUSH2 0x2C3 DUP3 PUSH2 0x40D JUMP JUMPDEST PUSH1 0x20 DUP3 ADD SWAP1 POP SWAP2 SWAP1 POP JUMP JUMPDEST PUSH2 0x2D7 DUP2 PUSH2 0x3D1 JUMP JUMPDEST DUP3 MSTORE POP POP JUMP JUMPDEST PUSH1 0x0 PUSH2 0x2E8 DUP3 PUSH2 0x288 JUMP JUMPDEST SWAP2 POP DUP2 SWAP1 POP SWAP2 SWAP1 POP JUMP JUMPDEST PUSH1 0x0 PUSH1 0x20 DUP3 ADD SWAP1 POP DUP2 DUP2 SUB PUSH1 0x0 DUP4 ADD MSTORE PUSH2 0x30B DUP2 PUSH2 0x2AB JUMP JUMPDEST SWAP1 POP SWAP2 SWAP1 POP JUMP JUMPDEST PUSH1 0x0 PUSH1 0x20 DUP3 ADD SWAP1 POP PUSH2 0x327 PUSH1 0x0 DUP4 ADD DUP5 PUSH2 0x2CE JUMP JUMPDEST SWAP3 SWAP2 POP POP JUMP JUMPDEST PUSH1 0x0 DUP2 SWAP1 POP SWAP3 SWAP2 POP POP JUMP JUMPDEST PUSH1 0x0 DUP3 DUP3 MSTORE PUSH1 0x20 DUP3 ADD SWAP1 POP SWAP3 SWAP2 POP POP JUMP JUMPDEST PUSH1 0x0 PUSH2 0x354 DUP3 PUSH2 0x3D1 JUMP JUMPDEST SWAP2 POP PUSH2 0x35F DUP4 PUSH2 0x3D1 JUMP JUMPDEST SWAP3 POP DUP3 PUSH32 0xFFFFFFFFFFFFFFFFFFFFFFFFFFFFFFFFFFFFFFFFFFFFFFFFFFFFFFFFFFFFFFFF SUB DUP3 GT ISZERO PUSH2 0x394 JUMPI PUSH2 0x393 PUSH2 0x3DB JUMP JUMPDEST JUMPDEST DUP3 DUP3 ADD SWAP1 POP SWAP3 SWAP2 POP POP JUMP JUMPDEST PUSH1 0x0 PUSH2 0x3AA DUP3 PUSH2 0x3B1 JUMP JUMPDEST SWAP1 POP SWAP2 SWAP1 POP JUMP JUMPDEST PUSH1 0x0 PUSH20 0xFFFFFFFFFFFFFFFFFFFFFFFFFFFFFFFFFFFFFFFF DUP3 AND SWAP1 POP SWAP2 SWAP1 POP JUMP JUMPDEST PUSH1 0x0 DUP2 SWAP1 POP SWAP2 SWAP1 POP JUMP JUMPDEST PUSH32 0x4E487B7100000000000000000000000000000000000000000000000000000000 PUSH1 0x0 MSTORE PUSH1 0x11 PUSH1 0x4 MSTORE PUSH1 0x24 PUSH1 0x0 REVERT JUMPDEST POP JUMP JUMPDEST PUSH32 0x5472616E73616374696F6E206E6F74207375636365737366756C000000000000 PUSH1 0x0 DUP3 ADD MSTORE POP JUMP JUMPDEST PUSH2 0x43F DUP2 PUSH2 0x39F JUMP JUMPDEST DUP2 EQ PUSH2 0x44A JUMPI PUSH1 0x0 DUP1 REVERT JUMPDEST POP JUMP INVALID LOG2 PUSH5 0x6970667358 0x22 SLT KECCAK256 0x2E 0x5E XOR 0x28 0xDB DUP2 PUSH9 0xB6B366A458A0B1A38B 0xF EXP 0xBB PUSH3 0x600CEE EQ 0xF7 0xD7 MSIZE STOP 0xDA POP EXTCODECOPY 0x26 PUSH5 0x736F6C6343 STOP ADDMOD ADD STOP CALLER "
				},
				"gasEstimates": {
					"creation": {
						"codeDepositCost": "231000",
						"executionCost": "275",
						"totalCost": "231275"
					},
					"external": {
						"balanceUpdate(address)": "1514",
						"deposit()": "infinite",
						"withdraw()": "infinite"
					}
				},
				"methodIdentifiers": {
					"balanceUpdate(address)": "67e34335",
					"deposit()": "d0e30db0",
					"withdraw()": "3ccfd60b"
				}
			},
			"storageLayout": {
				"storage": [
					{
						"astId": 5,
						"contract": "contracts/Reentrancy/DAOBank.sol:DAOBank",
						"label": "balanceUpdate",
						"offset": 0,
						"slot": "0",
						"type": "t_mapping(t_address,t_uint256)"
					}
				],
				"types": {
					"t_address": {
						"encoding": "inplace",
						"label": "address",
						"numberOfBytes": "20"
					},
					"t_mapping(t_address,t_uint256)": {
						"encoding": "mapping",
						"key": "t_address",
						"label": "mapping(address => uint256)",
						"numberOfBytes": "32",
						"value": "t_uint256"
					},
					"t_uint256": {
						"encoding": "inplace",
						"label": "uint256",
						"numberOfBytes": "32"
					}
				}
			},
			"userdoc": {
				"kind": "user",
				"methods": {},
				"version": 1
			}
		}
	}
}